{
  "contractName": "TFG",
  "abi": [
    {
      "inputs": [],
      "stateMutability": "nonpayable",
      "type": "constructor"
    },
    {
      "anonymous": false,
      "inputs": [
        {
          "indexed": true,
          "internalType": "address",
          "name": "account",
          "type": "address"
        },
        {
          "indexed": true,
          "internalType": "address",
          "name": "operator",
          "type": "address"
        },
        {
          "indexed": false,
          "internalType": "bool",
          "name": "approved",
          "type": "bool"
        }
      ],
      "name": "ApprovalForAll",
      "type": "event"
    },
    {
      "anonymous": false,
      "inputs": [
        {
          "indexed": true,
          "internalType": "address",
          "name": "operator",
          "type": "address"
        },
        {
          "indexed": true,
          "internalType": "address",
          "name": "from",
          "type": "address"
        },
        {
          "indexed": true,
          "internalType": "address",
          "name": "to",
          "type": "address"
        },
        {
          "indexed": false,
          "internalType": "uint256[]",
          "name": "ids",
          "type": "uint256[]"
        },
        {
          "indexed": false,
          "internalType": "uint256[]",
          "name": "values",
          "type": "uint256[]"
        }
      ],
      "name": "TransferBatch",
      "type": "event"
    },
    {
      "anonymous": false,
      "inputs": [
        {
          "indexed": true,
          "internalType": "address",
          "name": "operator",
          "type": "address"
        },
        {
          "indexed": true,
          "internalType": "address",
          "name": "from",
          "type": "address"
        },
        {
          "indexed": true,
          "internalType": "address",
          "name": "to",
          "type": "address"
        },
        {
          "indexed": false,
          "internalType": "uint256",
          "name": "id",
          "type": "uint256"
        },
        {
          "indexed": false,
          "internalType": "uint256",
          "name": "value",
          "type": "uint256"
        }
      ],
      "name": "TransferSingle",
      "type": "event"
    },
    {
      "anonymous": false,
      "inputs": [
        {
          "indexed": false,
          "internalType": "string",
          "name": "value",
          "type": "string"
        },
        {
          "indexed": true,
          "internalType": "uint256",
          "name": "id",
          "type": "uint256"
        }
      ],
      "name": "URI",
      "type": "event"
    },
    {
      "inputs": [],
      "name": "admin",
      "outputs": [
        {
          "internalType": "address",
          "name": "",
          "type": "address"
        }
      ],
      "stateMutability": "view",
      "type": "function",
      "constant": true
    },
    {
      "inputs": [
        {
          "internalType": "address",
          "name": "account",
          "type": "address"
        },
        {
          "internalType": "uint256",
          "name": "id",
          "type": "uint256"
        }
      ],
      "name": "balanceOf",
      "outputs": [
        {
          "internalType": "uint256",
          "name": "",
          "type": "uint256"
        }
      ],
      "stateMutability": "view",
      "type": "function",
      "constant": true
    },
    {
      "inputs": [
        {
          "internalType": "address[]",
          "name": "accounts",
          "type": "address[]"
        },
        {
          "internalType": "uint256[]",
          "name": "ids",
          "type": "uint256[]"
        }
      ],
      "name": "balanceOfBatch",
      "outputs": [
        {
          "internalType": "uint256[]",
          "name": "",
          "type": "uint256[]"
        }
      ],
      "stateMutability": "view",
      "type": "function",
      "constant": true
    },
    {
      "inputs": [
        {
          "internalType": "uint256",
          "name": "",
          "type": "uint256"
        }
      ],
      "name": "colors",
      "outputs": [
        {
          "internalType": "string",
          "name": "",
          "type": "string"
        }
      ],
      "stateMutability": "view",
      "type": "function",
      "constant": true
    },
    {
      "inputs": [],
      "name": "count",
      "outputs": [
        {
          "internalType": "uint256",
          "name": "",
          "type": "uint256"
        }
      ],
      "stateMutability": "view",
      "type": "function",
      "constant": true
    },
    {
      "inputs": [
        {
          "internalType": "address",
          "name": "account",
          "type": "address"
        },
        {
          "internalType": "address",
          "name": "operator",
          "type": "address"
        }
      ],
      "name": "isApprovedForAll",
      "outputs": [
        {
          "internalType": "bool",
          "name": "",
          "type": "bool"
        }
      ],
      "stateMutability": "view",
      "type": "function",
      "constant": true
    },
    {
      "inputs": [],
      "name": "moneda",
      "outputs": [
        {
          "internalType": "uint256",
          "name": "",
          "type": "uint256"
        }
      ],
      "stateMutability": "view",
      "type": "function",
      "constant": true
    },
    {
      "inputs": [
        {
          "internalType": "address",
          "name": "from",
          "type": "address"
        },
        {
          "internalType": "address",
          "name": "to",
          "type": "address"
        },
        {
          "internalType": "uint256[]",
          "name": "ids",
          "type": "uint256[]"
        },
        {
          "internalType": "uint256[]",
          "name": "amounts",
          "type": "uint256[]"
        },
        {
          "internalType": "bytes",
          "name": "data",
          "type": "bytes"
        }
      ],
      "name": "safeBatchTransferFrom",
      "outputs": [],
      "stateMutability": "nonpayable",
      "type": "function"
    },
    {
      "inputs": [
        {
          "internalType": "address",
          "name": "from",
          "type": "address"
        },
        {
          "internalType": "address",
          "name": "to",
          "type": "address"
        },
        {
          "internalType": "uint256",
          "name": "id",
          "type": "uint256"
        },
        {
          "internalType": "uint256",
          "name": "amount",
          "type": "uint256"
        },
        {
          "internalType": "bytes",
          "name": "data",
          "type": "bytes"
        }
      ],
      "name": "safeTransferFrom",
      "outputs": [],
      "stateMutability": "nonpayable",
      "type": "function"
    },
    {
      "inputs": [
        {
          "internalType": "address",
          "name": "operator",
          "type": "address"
        },
        {
          "internalType": "bool",
          "name": "approved",
          "type": "bool"
        }
      ],
      "name": "setApprovalForAll",
      "outputs": [],
      "stateMutability": "nonpayable",
      "type": "function"
    },
    {
      "inputs": [
        {
          "internalType": "bytes4",
          "name": "interfaceId",
          "type": "bytes4"
        }
      ],
      "name": "supportsInterface",
      "outputs": [
        {
          "internalType": "bool",
          "name": "",
          "type": "bool"
        }
      ],
      "stateMutability": "view",
      "type": "function",
      "constant": true
    },
    {
      "inputs": [
        {
          "internalType": "uint256",
          "name": "",
          "type": "uint256"
        }
      ],
      "name": "uri",
      "outputs": [
        {
          "internalType": "string",
          "name": "",
          "type": "string"
        }
      ],
      "stateMutability": "view",
      "type": "function",
      "constant": true
    },
    {
      "inputs": [
        {
          "internalType": "string",
          "name": "_color",
          "type": "string"
        },
        {
          "internalType": "uint256",
          "name": "precio",
          "type": "uint256"
        }
      ],
      "name": "nuevoColor",
      "outputs": [],
      "stateMutability": "nonpayable",
      "type": "function"
    },
    {
      "inputs": [],
      "name": "totalSupply",
      "outputs": [
        {
          "internalType": "uint256",
          "name": "",
          "type": "uint256"
        }
      ],
      "stateMutability": "view",
      "type": "function",
      "constant": true
    },
    {
      "inputs": [
        {
          "internalType": "address",
          "name": "propietario",
          "type": "address"
        },
        {
          "internalType": "uint256",
          "name": "id",
          "type": "uint256"
        }
      ],
      "name": "property",
      "outputs": [
        {
          "internalType": "uint256",
          "name": "",
          "type": "uint256"
        }
      ],
      "stateMutability": "view",
      "type": "function",
      "constant": true
    },
    {
      "inputs": [
        {
          "internalType": "address",
          "name": "propietario",
          "type": "address"
        }
      ],
      "name": "funds",
      "outputs": [
        {
          "internalType": "uint256",
          "name": "",
          "type": "uint256"
        }
      ],
      "stateMutability": "view",
      "type": "function",
      "constant": true
    },
    {
      "inputs": [],
      "name": "addFunds",
      "outputs": [],
      "stateMutability": "payable",
      "type": "function",
      "payable": true
    },
    {
      "inputs": [
        {
          "internalType": "uint256",
          "name": "tokenId",
          "type": "uint256"
        }
      ],
      "name": "buy",
      "outputs": [],
      "stateMutability": "payable",
      "type": "function",
      "payable": true
    },
    {
      "inputs": [
        {
          "internalType": "string",
          "name": "a",
          "type": "string"
        },
        {
          "internalType": "string",
          "name": "b",
          "type": "string"
        }
      ],
      "name": "compareStrings",
      "outputs": [
        {
          "internalType": "bool",
          "name": "",
          "type": "bool"
        }
      ],
      "stateMutability": "pure",
      "type": "function",
      "constant": true
    }
  ],
  "bytecode": "0x60806040523480156200001157600080fd5b50604051806020016040528060008152506200003381620000a860201b60201c565b5033600360006101000a81548173ffffffffffffffffffffffffffffffffffffffff021916908373ffffffffffffffffffffffffffffffffffffffff1602179055506001600481905550620000a2336000606460405180602001604052806000815250620000c460201b60201c565b62000cb2565b8060029080519060200190620000c092919062000535565b5050565b600073ffffffffffffffffffffffffffffffffffffffff168473ffffffffffffffffffffffffffffffffffffffff160362000136576040517f08c379a00000000000000000000000000000000000000000000000000000000081526004016200012d906200066c565b60405180910390fd5b6000620001486200028860201b60201c565b9050620001818160008762000163886200029060201b60201c565b62000174886200029060201b60201c565b876200031160201b60201c565b8260008086815260200190815260200160002060008773ffffffffffffffffffffffffffffffffffffffff1673ffffffffffffffffffffffffffffffffffffffff1681526020019081526020016000206000828254620001e29190620006c7565b925050819055508473ffffffffffffffffffffffffffffffffffffffff16600073ffffffffffffffffffffffffffffffffffffffff168273ffffffffffffffffffffffffffffffffffffffff167fc3d58168c5ae7397731d063d5bbf3d657854427343f4c083240f7aacaa2d0f6287876040516200026292919062000735565b60405180910390a462000281816000878787876200031960201b60201c565b5050505050565b600033905090565b60606000600167ffffffffffffffff811115620002b257620002b162000762565b5b604051908082528060200260200182016040528015620002e15781602001602082028036833780820191505090505b5090508281600081518110620002fc57620002fb62000791565b5b60200260200101818152505080915050919050565b505050505050565b620003458473ffffffffffffffffffffffffffffffffffffffff166200051260201b62000e491760201c565b156200050a578373ffffffffffffffffffffffffffffffffffffffff1663f23a6e6187878686866040518663ffffffff1660e01b81526004016200038e959493929190620008a9565b6020604051808303816000875af1925050508015620003cd57506040513d601f19601f82011682018060405250810190620003ca919062000979565b60015b6200047e57620003dc620009b8565b806308c379a0036200043f5750620003f362000a13565b8062000400575062000441565b806040517f08c379a000000000000000000000000000000000000000000000000000000000815260040162000436919062000afa565b60405180910390fd5b505b6040517f08c379a0000000000000000000000000000000000000000000000000000000008152600401620004759062000b94565b60405180910390fd5b63f23a6e6160e01b7bffffffffffffffffffffffffffffffffffffffffffffffffffffffff1916817bffffffffffffffffffffffffffffffffffffffffffffffffffffffff19161462000508576040517f08c379a0000000000000000000000000000000000000000000000000000000008152600401620004ff9062000c2c565b60405180910390fd5b505b505050505050565b6000808273ffffffffffffffffffffffffffffffffffffffff163b119050919050565b828054620005439062000c7d565b90600052602060002090601f016020900481019282620005675760008555620005b3565b82601f106200058257805160ff1916838001178555620005b3565b82800160010185558215620005b3579182015b82811115620005b257825182559160200191906001019062000595565b5b509050620005c29190620005c6565b5090565b5b80821115620005e1576000816000905550600101620005c7565b5090565b600082825260208201905092915050565b7f455243313135353a206d696e7420746f20746865207a65726f2061646472657360008201527f7300000000000000000000000000000000000000000000000000000000000000602082015250565b600062000654602183620005e5565b91506200066182620005f6565b604082019050919050565b60006020820190508181036000830152620006878162000645565b9050919050565b6000819050919050565b7f4e487b7100000000000000000000000000000000000000000000000000000000600052601160045260246000fd5b6000620006d4826200068e565b9150620006e1836200068e565b9250827fffffffffffffffffffffffffffffffffffffffffffffffffffffffffffffffff0382111562000719576200071862000698565b5b828201905092915050565b6200072f816200068e565b82525050565b60006040820190506200074c600083018562000724565b6200075b602083018462000724565b9392505050565b7f4e487b7100000000000000000000000000000000000000000000000000000000600052604160045260246000fd5b7f4e487b7100000000000000000000000000000000000000000000000000000000600052603260045260246000fd5b600073ffffffffffffffffffffffffffffffffffffffff82169050919050565b6000620007ed82620007c0565b9050919050565b620007ff81620007e0565b82525050565b600081519050919050565b600082825260208201905092915050565b60005b838110156200084157808201518184015260208101905062000824565b8381111562000851576000848401525b50505050565b6000601f19601f8301169050919050565b6000620008758262000805565b62000881818562000810565b93506200089381856020860162000821565b6200089e8162000857565b840191505092915050565b600060a082019050620008c06000830188620007f4565b620008cf6020830187620007f4565b620008de604083018662000724565b620008ed606083018562000724565b818103608083015262000901818462000868565b90509695505050505050565b6000604051905090565b600080fd5b60007fffffffff0000000000000000000000000000000000000000000000000000000082169050919050565b62000953816200091c565b81146200095f57600080fd5b50565b600081519050620009738162000948565b92915050565b60006020828403121562000992576200099162000917565b5b6000620009a28482850162000962565b91505092915050565b60008160e01c9050919050565b600060033d1115620009da5760046000803e620009d7600051620009ab565b90505b90565b620009e88262000857565b810181811067ffffffffffffffff8211171562000a0a5762000a0962000762565b5b80604052505050565b600060443d1062000aab5762000a286200090d565b60043d036004823e80513d602482011167ffffffffffffffff8211171562000a5257505062000aab565b808201805167ffffffffffffffff81111562000a72575050505062000aab565b80602083010160043d03850181111562000a9157505050505062000aab565b62000aa282602001850186620009dd565b82955050505050505b90565b600081519050919050565b600062000ac68262000aae565b62000ad28185620005e5565b935062000ae481856020860162000821565b62000aef8162000857565b840191505092915050565b6000602082019050818103600083015262000b16818462000ab9565b905092915050565b7f455243313135353a207472616e7366657220746f206e6f6e204552433131353560008201527f526563656976657220696d706c656d656e746572000000000000000000000000602082015250565b600062000b7c603483620005e5565b915062000b898262000b1e565b604082019050919050565b6000602082019050818103600083015262000baf8162000b6d565b9050919050565b7f455243313135353a204552433131353552656365697665722072656a6563746560008201527f6420746f6b656e73000000000000000000000000000000000000000000000000602082015250565b600062000c14602883620005e5565b915062000c218262000bb6565b604082019050919050565b6000602082019050818103600083015262000c478162000c05565b9050919050565b7f4e487b7100000000000000000000000000000000000000000000000000000000600052602260045260246000fd5b6000600282049050600182168062000c9657607f821691505b60208210810362000cac5762000cab62000c4e565b5b50919050565b6132008062000cc26000396000f3fe6080604052600436106101135760003560e01c8063a26759cb116100a0578063e2ae93fb11610064578063e2ae93fb146103ba578063e985e9c5146103f7578063f1cc126814610434578063f242432a1461045f578063f851a4401461048857610113565b8063a26759cb146102f1578063b54bbdc7146102fb578063bd11f69d14610324578063bed34bba14610361578063d96a094a1461039e57610113565b806318160ddd116100e757806318160ddd146101fa5780632eb2c2d6146102255780634e1273f41461024e5780636eb4e00e1461028b578063a22cb465146102c857610113565b8062fdd58e1461011857806301ffc9a71461015557806306661abd146101925780630e89341c146101bd575b600080fd5b34801561012457600080fd5b5061013f600480360381019061013a9190611cee565b6104b3565b60405161014c9190611d3d565b60405180910390f35b34801561016157600080fd5b5061017c60048036038101906101779190611db0565b61057b565b6040516101899190611df8565b60405180910390f35b34801561019e57600080fd5b506101a761065d565b6040516101b49190611d3d565b60405180910390f35b3480156101c957600080fd5b506101e460048036038101906101df9190611e13565b610663565b6040516101f19190611ed9565b60405180910390f35b34801561020657600080fd5b5061020f6106f7565b60405161021c9190611d3d565b60405180910390f35b34801561023157600080fd5b5061024c600480360381019061024791906120f8565b610704565b005b34801561025a57600080fd5b506102756004803603810190610270919061228a565b6107a5565b60405161028291906123c0565b60405180910390f35b34801561029757600080fd5b506102b260048036038101906102ad9190611cee565b6108be565b6040516102bf9190611d3d565b60405180910390f35b3480156102d457600080fd5b506102ef60048036038101906102ea919061240e565b6108d2565b005b6102f96108e8565b005b34801561030757600080fd5b50610322600480360381019061031d91906124ef565b610997565b005b34801561033057600080fd5b5061034b60048036038101906103469190611e13565b610aea565b6040516103589190611ed9565b60405180910390f35b34801561036d57600080fd5b506103886004803603810190610383919061254b565b610b96565b6040516103959190611df8565b60405180910390f35b6103b860048036038101906103b39190611e13565b610bef565b005b3480156103c657600080fd5b506103e160048036038101906103dc91906125c3565b610cd5565b6040516103ee9190611d3d565b60405180910390f35b34801561040357600080fd5b5061041e600480360381019061041991906125f0565b610ce9565b60405161042b9190611df8565b60405180910390f35b34801561044057600080fd5b50610449610d7d565b6040516104569190611d3d565b60405180910390f35b34801561046b57600080fd5b5061048660048036038101906104819190612630565b610d82565b005b34801561049457600080fd5b5061049d610e23565b6040516104aa91906126d6565b60405180910390f35b60008073ffffffffffffffffffffffffffffffffffffffff168373ffffffffffffffffffffffffffffffffffffffff1603610523576040517f08c379a000000000000000000000000000000000000000000000000000000000815260040161051a90612763565b60405180910390fd5b60008083815260200190815260200160002060008473ffffffffffffffffffffffffffffffffffffffff1673ffffffffffffffffffffffffffffffffffffffff16815260200190815260200160002054905092915050565b60007fd9b67a26000000000000000000000000000000000000000000000000000000007bffffffffffffffffffffffffffffffffffffffffffffffffffffffff1916827bffffffffffffffffffffffffffffffffffffffffffffffffffffffff1916148061064657507f0e89341c000000000000000000000000000000000000000000000000000000007bffffffffffffffffffffffffffffffffffffffffffffffffffffffff1916827bffffffffffffffffffffffffffffffffffffffffffffffffffffffff1916145b80610656575061065582610e6c565b5b9050919050565b60045481565b606060028054610672906127b2565b80601f016020809104026020016040519081016040528092919081815260200182805461069e906127b2565b80156106eb5780601f106106c0576101008083540402835291602001916106eb565b820191906000526020600020905b8154815290600101906020018083116106ce57829003601f168201915b50505050509050919050565b6000600580549050905090565b61070c610ed6565b73ffffffffffffffffffffffffffffffffffffffff168573ffffffffffffffffffffffffffffffffffffffff16148061075257506107518561074c610ed6565b610ce9565b5b610791576040517f08c379a000000000000000000000000000000000000000000000000000000000815260040161078890612855565b60405180910390fd5b61079e8585858585610ede565b5050505050565b606081518351146107eb576040517f08c379a00000000000000000000000000000000000000000000000000000000081526004016107e2906128e7565b60405180910390fd5b6000835167ffffffffffffffff81111561080857610807611f00565b5b6040519080825280602002602001820160405280156108365781602001602082028036833780820191505090505b50905060005b84518110156108b35761088385828151811061085b5761085a612907565b5b602002602001015185838151811061087657610875612907565b5b60200260200101516104b3565b82828151811061089657610895612907565b5b602002602001018181525050806108ac90612965565b905061083c565b508091505092915050565b60006108ca83836104b3565b905092915050565b6108e46108dd610ed6565b83836111f1565b5050565b600360009054906101000a900473ffffffffffffffffffffffffffffffffffffffff1673ffffffffffffffffffffffffffffffffffffffff163373ffffffffffffffffffffffffffffffffffffffff1614610978576040517f08c379a000000000000000000000000000000000000000000000000000000000815260040161096f906129f9565b60405180910390fd5b61099533600060646040518060200160405280600081525061135d565b565b6006826040516109a79190612a55565b908152602001604051809103902060009054906101000a900460ff16156109cd57600080fd5b600582908060018154018082558091505060019003906000526020600020016000909190919091509080519060200190610a08929190611ba3565b5080600760006004548152602001908152602001600020819055503360086000600454815260200190815260200160002060006101000a81548173ffffffffffffffffffffffffffffffffffffffff021916908373ffffffffffffffffffffffffffffffffffffffff1602179055506000829050610a8b3360045460018461135d565b610a963060016108d2565b60046000815480929190610aa990612965565b91905055506001600684604051610ac09190612a55565b908152602001604051809103902060006101000a81548160ff021916908315150217905550505050565b60058181548110610afa57600080fd5b906000526020600020016000915090508054610b15906127b2565b80601f0160208091040260200160405190810160405280929190818152602001828054610b41906127b2565b8015610b8e5780601f10610b6357610100808354040283529160200191610b8e565b820191906000526020600020905b815481529060010190602001808311610b7157829003601f168201915b505050505081565b600081604051602001610ba99190612a55565b6040516020818303038152906040528051906020012083604051602001610bd09190612a55565b6040516020818303038152906040528051906020012014905092915050565b610c6a3360086000600185610c049190612a6c565b815260200190815260200160002060009054906101000a900473ffffffffffffffffffffffffffffffffffffffff16600060076000600187610c469190612a6c565b81526020019081526020016000205460405180602001604052806000815250610d82565b610cd260086000600184610c7e9190612a6c565b815260200190815260200160002060009054906101000a900473ffffffffffffffffffffffffffffffffffffffff1633600184610cbb9190612a6c565b600160405180602001604052806000815250610d82565b50565b6000610ce28260006104b3565b9050919050565b6000600160008473ffffffffffffffffffffffffffffffffffffffff1673ffffffffffffffffffffffffffffffffffffffff16815260200190815260200160002060008373ffffffffffffffffffffffffffffffffffffffff1673ffffffffffffffffffffffffffffffffffffffff16815260200190815260200160002060009054906101000a900460ff16905092915050565b600081565b610d8a610ed6565b73ffffffffffffffffffffffffffffffffffffffff168573ffffffffffffffffffffffffffffffffffffffff161480610dd05750610dcf85610dca610ed6565b610ce9565b5b610e0f576040517f08c379a0000000000000000000000000000000000000000000000000000000008152600401610e0690612b34565b60405180910390fd5b610e1c85858585856114f2565b5050505050565b600360009054906101000a900473ffffffffffffffffffffffffffffffffffffffff1681565b6000808273ffffffffffffffffffffffffffffffffffffffff163b119050919050565b60007f01ffc9a7000000000000000000000000000000000000000000000000000000007bffffffffffffffffffffffffffffffffffffffffffffffffffffffff1916827bffffffffffffffffffffffffffffffffffffffffffffffffffffffff1916149050919050565b600033905090565b8151835114610f22576040517f08c379a0000000000000000000000000000000000000000000000000000000008152600401610f1990612bc6565b60405180910390fd5b600073ffffffffffffffffffffffffffffffffffffffff168473ffffffffffffffffffffffffffffffffffffffff1603610f91576040517f08c379a0000000000000000000000000000000000000000000000000000000008152600401610f8890612c58565b60405180910390fd5b6000610f9b610ed6565b9050610fab818787878787611773565b60005b845181101561115c576000858281518110610fcc57610fcb612907565b5b602002602001015190506000858381518110610feb57610fea612907565b5b60200260200101519050600080600084815260200190815260200160002060008b73ffffffffffffffffffffffffffffffffffffffff1673ffffffffffffffffffffffffffffffffffffffff1681526020019081526020016000205490508181101561108c576040517f08c379a000000000000000000000000000000000000000000000000000000000815260040161108390612cea565b60405180910390fd5b81810360008085815260200190815260200160002060008c73ffffffffffffffffffffffffffffffffffffffff1673ffffffffffffffffffffffffffffffffffffffff168152602001908152602001600020819055508160008085815260200190815260200160002060008b73ffffffffffffffffffffffffffffffffffffffff1673ffffffffffffffffffffffffffffffffffffffff16815260200190815260200160002060008282546111419190612a6c565b925050819055505050508061115590612965565b9050610fae565b508473ffffffffffffffffffffffffffffffffffffffff168673ffffffffffffffffffffffffffffffffffffffff168273ffffffffffffffffffffffffffffffffffffffff167f4a39dc06d4c0dbc64b70af90fd698a233a518aa5d07e595d983b8c0526c8f7fb87876040516111d3929190612d0a565b60405180910390a46111e981878787878761177b565b505050505050565b8173ffffffffffffffffffffffffffffffffffffffff168373ffffffffffffffffffffffffffffffffffffffff160361125f576040517f08c379a000000000000000000000000000000000000000000000000000000000815260040161125690612db3565b60405180910390fd5b80600160008573ffffffffffffffffffffffffffffffffffffffff1673ffffffffffffffffffffffffffffffffffffffff16815260200190815260200160002060008473ffffffffffffffffffffffffffffffffffffffff1673ffffffffffffffffffffffffffffffffffffffff16815260200190815260200160002060006101000a81548160ff0219169083151502179055508173ffffffffffffffffffffffffffffffffffffffff168373ffffffffffffffffffffffffffffffffffffffff167f17307eab39ab6107e8899845ad3d59bd9653f200f220920489ca2b5937696c31836040516113509190611df8565b60405180910390a3505050565b600073ffffffffffffffffffffffffffffffffffffffff168473ffffffffffffffffffffffffffffffffffffffff16036113cc576040517f08c379a00000000000000000000000000000000000000000000000000000000081526004016113c390612e45565b60405180910390fd5b60006113d6610ed6565b90506113f7816000876113e888611952565b6113f188611952565b87611773565b8260008086815260200190815260200160002060008773ffffffffffffffffffffffffffffffffffffffff1673ffffffffffffffffffffffffffffffffffffffff16815260200190815260200160002060008282546114569190612a6c565b925050819055508473ffffffffffffffffffffffffffffffffffffffff16600073ffffffffffffffffffffffffffffffffffffffff168273ffffffffffffffffffffffffffffffffffffffff167fc3d58168c5ae7397731d063d5bbf3d657854427343f4c083240f7aacaa2d0f6287876040516114d4929190612e65565b60405180910390a46114eb816000878787876119cc565b5050505050565b600073ffffffffffffffffffffffffffffffffffffffff168473ffffffffffffffffffffffffffffffffffffffff1603611561576040517f08c379a000000000000000000000000000000000000000000000000000000000815260040161155890612c58565b60405180910390fd5b600061156b610ed6565b905061158b81878761157c88611952565b61158588611952565b87611773565b600080600086815260200190815260200160002060008873ffffffffffffffffffffffffffffffffffffffff1673ffffffffffffffffffffffffffffffffffffffff16815260200190815260200160002054905083811015611622576040517f08c379a000000000000000000000000000000000000000000000000000000000815260040161161990612cea565b60405180910390fd5b83810360008087815260200190815260200160002060008973ffffffffffffffffffffffffffffffffffffffff1673ffffffffffffffffffffffffffffffffffffffff168152602001908152602001600020819055508360008087815260200190815260200160002060008873ffffffffffffffffffffffffffffffffffffffff1673ffffffffffffffffffffffffffffffffffffffff16815260200190815260200160002060008282546116d79190612a6c565b925050819055508573ffffffffffffffffffffffffffffffffffffffff168773ffffffffffffffffffffffffffffffffffffffff168373ffffffffffffffffffffffffffffffffffffffff167fc3d58168c5ae7397731d063d5bbf3d657854427343f4c083240f7aacaa2d0f628888604051611754929190612e65565b60405180910390a461176a8288888888886119cc565b50505050505050565b505050505050565b61179a8473ffffffffffffffffffffffffffffffffffffffff16610e49565b1561194a578373ffffffffffffffffffffffffffffffffffffffff1663bc197c8187878686866040518663ffffffff1660e01b81526004016117e0959493929190612ee3565b6020604051808303816000875af192505050801561181c57506040513d601f19601f820116820180604052508101906118199190612f60565b60015b6118c157611828612f9a565b806308c379a003611884575061183c612fbc565b806118475750611886565b806040517f08c379a000000000000000000000000000000000000000000000000000000000815260040161187b9190611ed9565b60405180910390fd5b505b6040517f08c379a00000000000000000000000000000000000000000000000000000000081526004016118b8906130be565b60405180910390fd5b63bc197c8160e01b7bffffffffffffffffffffffffffffffffffffffffffffffffffffffff1916817bffffffffffffffffffffffffffffffffffffffffffffffffffffffff191614611948576040517f08c379a000000000000000000000000000000000000000000000000000000000815260040161193f90613150565b60405180910390fd5b505b505050505050565b60606000600167ffffffffffffffff81111561197157611970611f00565b5b60405190808252806020026020018201604052801561199f5781602001602082028036833780820191505090505b50905082816000815181106119b7576119b6612907565b5b60200260200101818152505080915050919050565b6119eb8473ffffffffffffffffffffffffffffffffffffffff16610e49565b15611b9b578373ffffffffffffffffffffffffffffffffffffffff1663f23a6e6187878686866040518663ffffffff1660e01b8152600401611a31959493929190613170565b6020604051808303816000875af1925050508015611a6d57506040513d601f19601f82011682018060405250810190611a6a9190612f60565b60015b611b1257611a79612f9a565b806308c379a003611ad55750611a8d612fbc565b80611a985750611ad7565b806040517f08c379a0000000000000000000000000000000000000000000000000000000008152600401611acc9190611ed9565b60405180910390fd5b505b6040517f08c379a0000000000000000000000000000000000000000000000000000000008152600401611b09906130be565b60405180910390fd5b63f23a6e6160e01b7bffffffffffffffffffffffffffffffffffffffffffffffffffffffff1916817bffffffffffffffffffffffffffffffffffffffffffffffffffffffff191614611b99576040517f08c379a0000000000000000000000000000000000000000000000000000000008152600401611b9090613150565b60405180910390fd5b505b505050505050565b828054611baf906127b2565b90600052602060002090601f016020900481019282611bd15760008555611c18565b82601f10611bea57805160ff1916838001178555611c18565b82800160010185558215611c18579182015b82811115611c17578251825591602001919060010190611bfc565b5b509050611c259190611c29565b5090565b5b80821115611c42576000816000905550600101611c2a565b5090565b6000604051905090565b600080fd5b600080fd5b600073ffffffffffffffffffffffffffffffffffffffff82169050919050565b6000611c8582611c5a565b9050919050565b611c9581611c7a565b8114611ca057600080fd5b50565b600081359050611cb281611c8c565b92915050565b6000819050919050565b611ccb81611cb8565b8114611cd657600080fd5b50565b600081359050611ce881611cc2565b92915050565b60008060408385031215611d0557611d04611c50565b5b6000611d1385828601611ca3565b9250506020611d2485828601611cd9565b9150509250929050565b611d3781611cb8565b82525050565b6000602082019050611d526000830184611d2e565b92915050565b60007fffffffff0000000000000000000000000000000000000000000000000000000082169050919050565b611d8d81611d58565b8114611d9857600080fd5b50565b600081359050611daa81611d84565b92915050565b600060208284031215611dc657611dc5611c50565b5b6000611dd484828501611d9b565b91505092915050565b60008115159050919050565b611df281611ddd565b82525050565b6000602082019050611e0d6000830184611de9565b92915050565b600060208284031215611e2957611e28611c50565b5b6000611e3784828501611cd9565b91505092915050565b600081519050919050565b600082825260208201905092915050565b60005b83811015611e7a578082015181840152602081019050611e5f565b83811115611e89576000848401525b50505050565b6000601f19601f8301169050919050565b6000611eab82611e40565b611eb58185611e4b565b9350611ec5818560208601611e5c565b611ece81611e8f565b840191505092915050565b60006020820190508181036000830152611ef38184611ea0565b905092915050565b600080fd5b7f4e487b7100000000000000000000000000000000000000000000000000000000600052604160045260246000fd5b611f3882611e8f565b810181811067ffffffffffffffff82111715611f5757611f56611f00565b5b80604052505050565b6000611f6a611c46565b9050611f768282611f2f565b919050565b600067ffffffffffffffff821115611f9657611f95611f00565b5b602082029050602081019050919050565b600080fd5b6000611fbf611fba84611f7b565b611f60565b90508083825260208201905060208402830185811115611fe257611fe1611fa7565b5b835b8181101561200b5780611ff78882611cd9565b845260208401935050602081019050611fe4565b5050509392505050565b600082601f83011261202a57612029611efb565b5b813561203a848260208601611fac565b91505092915050565b600080fd5b600067ffffffffffffffff82111561206357612062611f00565b5b61206c82611e8f565b9050602081019050919050565b82818337600083830152505050565b600061209b61209684612048565b611f60565b9050828152602081018484840111156120b7576120b6612043565b5b6120c2848285612079565b509392505050565b600082601f8301126120df576120de611efb565b5b81356120ef848260208601612088565b91505092915050565b600080600080600060a0868803121561211457612113611c50565b5b600061212288828901611ca3565b955050602061213388828901611ca3565b945050604086013567ffffffffffffffff81111561215457612153611c55565b5b61216088828901612015565b935050606086013567ffffffffffffffff81111561218157612180611c55565b5b61218d88828901612015565b925050608086013567ffffffffffffffff8111156121ae576121ad611c55565b5b6121ba888289016120ca565b9150509295509295909350565b600067ffffffffffffffff8211156121e2576121e1611f00565b5b602082029050602081019050919050565b6000612206612201846121c7565b611f60565b9050808382526020820190506020840283018581111561222957612228611fa7565b5b835b81811015612252578061223e8882611ca3565b84526020840193505060208101905061222b565b5050509392505050565b600082601f83011261227157612270611efb565b5b81356122818482602086016121f3565b91505092915050565b600080604083850312156122a1576122a0611c50565b5b600083013567ffffffffffffffff8111156122bf576122be611c55565b5b6122cb8582860161225c565b925050602083013567ffffffffffffffff8111156122ec576122eb611c55565b5b6122f885828601612015565b9150509250929050565b600081519050919050565b600082825260208201905092915050565b6000819050602082019050919050565b61233781611cb8565b82525050565b6000612349838361232e565b60208301905092915050565b6000602082019050919050565b600061236d82612302565b612377818561230d565b93506123828361231e565b8060005b838110156123b357815161239a888261233d565b97506123a583612355565b925050600181019050612386565b5085935050505092915050565b600060208201905081810360008301526123da8184612362565b905092915050565b6123eb81611ddd565b81146123f657600080fd5b50565b600081359050612408816123e2565b92915050565b6000806040838503121561242557612424611c50565b5b600061243385828601611ca3565b9250506020612444858286016123f9565b9150509250929050565b600067ffffffffffffffff82111561246957612468611f00565b5b61247282611e8f565b9050602081019050919050565b600061249261248d8461244e565b611f60565b9050828152602081018484840111156124ae576124ad612043565b5b6124b9848285612079565b509392505050565b600082601f8301126124d6576124d5611efb565b5b81356124e684826020860161247f565b91505092915050565b6000806040838503121561250657612505611c50565b5b600083013567ffffffffffffffff81111561252457612523611c55565b5b612530858286016124c1565b925050602061254185828601611cd9565b9150509250929050565b6000806040838503121561256257612561611c50565b5b600083013567ffffffffffffffff8111156125805761257f611c55565b5b61258c858286016124c1565b925050602083013567ffffffffffffffff8111156125ad576125ac611c55565b5b6125b9858286016124c1565b9150509250929050565b6000602082840312156125d9576125d8611c50565b5b60006125e784828501611ca3565b91505092915050565b6000806040838503121561260757612606611c50565b5b600061261585828601611ca3565b925050602061262685828601611ca3565b9150509250929050565b600080600080600060a0868803121561264c5761264b611c50565b5b600061265a88828901611ca3565b955050602061266b88828901611ca3565b945050604061267c88828901611cd9565b935050606061268d88828901611cd9565b925050608086013567ffffffffffffffff8111156126ae576126ad611c55565b5b6126ba888289016120ca565b9150509295509295909350565b6126d081611c7a565b82525050565b60006020820190506126eb60008301846126c7565b92915050565b7f455243313135353a2062616c616e636520717565727920666f7220746865207a60008201527f65726f2061646472657373000000000000000000000000000000000000000000602082015250565b600061274d602b83611e4b565b9150612758826126f1565b604082019050919050565b6000602082019050818103600083015261277c81612740565b9050919050565b7f4e487b7100000000000000000000000000000000000000000000000000000000600052602260045260246000fd5b600060028204905060018216806127ca57607f821691505b6020821081036127dd576127dc612783565b5b50919050565b7f455243313135353a207472616e736665722063616c6c6572206973206e6f742060008201527f6f776e6572206e6f7220617070726f7665640000000000000000000000000000602082015250565b600061283f603283611e4b565b915061284a826127e3565b604082019050919050565b6000602082019050818103600083015261286e81612832565b9050919050565b7f455243313135353a206163636f756e747320616e6420696473206c656e67746860008201527f206d69736d617463680000000000000000000000000000000000000000000000602082015250565b60006128d1602983611e4b565b91506128dc82612875565b604082019050919050565b60006020820190508181036000830152612900816128c4565b9050919050565b7f4e487b7100000000000000000000000000000000000000000000000000000000600052603260045260246000fd5b7f4e487b7100000000000000000000000000000000000000000000000000000000600052601160045260246000fd5b600061297082611cb8565b91507fffffffffffffffffffffffffffffffffffffffffffffffffffffffffffffffff82036129a2576129a1612936565b5b600182019050919050565b7f6f6e6c792061646d696e2063616e2063616c6c20746869730000000000000000600082015250565b60006129e3601883611e4b565b91506129ee826129ad565b602082019050919050565b60006020820190508181036000830152612a12816129d6565b9050919050565b600081905092915050565b6000612a2f82611e40565b612a398185612a19565b9350612a49818560208601611e5c565b80840191505092915050565b6000612a618284612a24565b915081905092915050565b6000612a7782611cb8565b9150612a8283611cb8565b9250827fffffffffffffffffffffffffffffffffffffffffffffffffffffffffffffffff03821115612ab757612ab6612936565b5b828201905092915050565b7f455243313135353a2063616c6c6572206973206e6f74206f776e6572206e6f7260008201527f20617070726f7665640000000000000000000000000000000000000000000000602082015250565b6000612b1e602983611e4b565b9150612b2982612ac2565b604082019050919050565b60006020820190508181036000830152612b4d81612b11565b9050919050565b7f455243313135353a2069647320616e6420616d6f756e7473206c656e6774682060008201527f6d69736d61746368000000000000000000000000000000000000000000000000602082015250565b6000612bb0602883611e4b565b9150612bbb82612b54565b604082019050919050565b60006020820190508181036000830152612bdf81612ba3565b9050919050565b7f455243313135353a207472616e7366657220746f20746865207a65726f20616460008201527f6472657373000000000000000000000000000000000000000000000000000000602082015250565b6000612c42602583611e4b565b9150612c4d82612be6565b604082019050919050565b60006020820190508181036000830152612c7181612c35565b9050919050565b7f455243313135353a20696e73756666696369656e742062616c616e636520666f60008201527f72207472616e7366657200000000000000000000000000000000000000000000602082015250565b6000612cd4602a83611e4b565b9150612cdf82612c78565b604082019050919050565b60006020820190508181036000830152612d0381612cc7565b9050919050565b60006040820190508181036000830152612d248185612362565b90508181036020830152612d388184612362565b90509392505050565b7f455243313135353a2073657474696e6720617070726f76616c2073746174757360008201527f20666f722073656c660000000000000000000000000000000000000000000000602082015250565b6000612d9d602983611e4b565b9150612da882612d41565b604082019050919050565b60006020820190508181036000830152612dcc81612d90565b9050919050565b7f455243313135353a206d696e7420746f20746865207a65726f2061646472657360008201527f7300000000000000000000000000000000000000000000000000000000000000602082015250565b6000612e2f602183611e4b565b9150612e3a82612dd3565b604082019050919050565b60006020820190508181036000830152612e5e81612e22565b9050919050565b6000604082019050612e7a6000830185611d2e565b612e876020830184611d2e565b9392505050565b600081519050919050565b600082825260208201905092915050565b6000612eb582612e8e565b612ebf8185612e99565b9350612ecf818560208601611e5c565b612ed881611e8f565b840191505092915050565b600060a082019050612ef860008301886126c7565b612f0560208301876126c7565b8181036040830152612f178186612362565b90508181036060830152612f2b8185612362565b90508181036080830152612f3f8184612eaa565b90509695505050505050565b600081519050612f5a81611d84565b92915050565b600060208284031215612f7657612f75611c50565b5b6000612f8484828501612f4b565b91505092915050565b60008160e01c9050919050565b600060033d1115612fb95760046000803e612fb6600051612f8d565b90505b90565b600060443d1061304957612fce611c46565b60043d036004823e80513d602482011167ffffffffffffffff82111715612ff6575050613049565b808201805167ffffffffffffffff8111156130145750505050613049565b80602083010160043d038501811115613031575050505050613049565b61304082602001850186611f2f565b82955050505050505b90565b7f455243313135353a207472616e7366657220746f206e6f6e204552433131353560008201527f526563656976657220696d706c656d656e746572000000000000000000000000602082015250565b60006130a8603483611e4b565b91506130b38261304c565b604082019050919050565b600060208201905081810360008301526130d78161309b565b9050919050565b7f455243313135353a204552433131353552656365697665722072656a6563746560008201527f6420746f6b656e73000000000000000000000000000000000000000000000000602082015250565b600061313a602883611e4b565b9150613145826130de565b604082019050919050565b600060208201905081810360008301526131698161312d565b9050919050565b600060a08201905061318560008301886126c7565b61319260208301876126c7565b61319f6040830186611d2e565b6131ac6060830185611d2e565b81810360808301526131be8184612eaa565b9050969550505050505056fea26469706673582212201eefa66a8bfe7269301c39d2264c984d805d52ffcaf382b50d1ad0c4f9b4520264736f6c634300080d0033",
  "immutableReferences": {},
  "source": "// SPDX-License-Identifier: MIT\npragma solidity ^0.8.0;\nimport \"../ERC1155/ERC1155.sol\";\n\ncontract TFG is ERC1155{\n    address public admin;\n    uint256 public count;\n\n    //ids para los tokens\n    uint256 public constant moneda = 0;\n\n    //estructuras auxiliares\n    string [] public colors;\n    mapping (string => bool) _colorExists;\n    mapping (uint => uint256) _price;\n    mapping (uint => address) _property;\n\n    modifier onlyAdmin() {\n        require(msg.sender == admin, \"only admin can call this\");\n        _;\n    }\n\n    constructor() public ERC1155(\"\") {\n        admin = msg.sender;\n        count = 1;\n       _mint(msg.sender, moneda, 100, \"\");\n    }\n\n    function nuevoColor(string memory _color, uint precio) public{\n        require(!_colorExists[_color]);\n        colors.push(_color);\n        _price[count] = precio;\n        _property[count] = msg.sender;\n        bytes memory dataColor = bytes(_color);\n        _mint(msg.sender, count, 1, dataColor);\n        setApprovalForAll(address(this), true);\n        count++;\n        _colorExists[_color] = true;\n        \n    }\n\n    function totalSupply() public view returns (uint256){\n        return colors.length;\n    }\n\n    function property(address propietario, uint id) public view returns (uint256){\n        return balanceOf(propietario, id);\n    }\n\n    function funds(address propietario) public view returns (uint256){\n        return balanceOf(propietario, 0);\n    }\n\n    function addFunds() public payable onlyAdmin{\n        _mint(msg.sender, 0, 100, \"\");\n    }\n\n\n    function buy(uint tokenId) public payable {\n        //Ahora la transaccin de las monedas\n        safeTransferFrom(msg.sender, _property[tokenId+1], 0, _price[tokenId+1], \"\");\n        safeTransferFrom(_property[tokenId+1], msg.sender, tokenId+1, 1, \"\");\n    }\n\n    function compareStrings(string memory a, string memory b) public pure returns (bool) {\n        return (keccak256(abi.encodePacked((a))) == keccak256(abi.encodePacked((b))));\n    }\n\n}",
  "sourcePath": "/Users/ignacio/Desktop/TFG1155/src/contracts/TFG.sol",
  "compiler": {
    "name": "solc",
    "version": "0.8.13+commit.abaa5c0e.Emscripten.clang"
  },
  "schemaVersion": "3.4.2",
  "updatedAt": "2022-03-26T12:30:44.119Z",
  "networkType": "ethereum",
  "devdoc": {
    "kind": "dev",
    "methods": {
      "balanceOf(address,uint256)": {
        "details": "See {IERC1155-balanceOf}. Requirements: - `account` cannot be the zero address."
      },
      "balanceOfBatch(address[],uint256[])": {
        "details": "See {IERC1155-balanceOfBatch}. Requirements: - `accounts` and `ids` must have the same length."
      },
      "isApprovedForAll(address,address)": {
        "details": "See {IERC1155-isApprovedForAll}."
      },
      "safeBatchTransferFrom(address,address,uint256[],uint256[],bytes)": {
        "details": "See {IERC1155-safeBatchTransferFrom}."
      },
      "safeTransferFrom(address,address,uint256,uint256,bytes)": {
        "details": "See {IERC1155-safeTransferFrom}."
      },
      "setApprovalForAll(address,bool)": {
        "details": "See {IERC1155-setApprovalForAll}."
      },
      "supportsInterface(bytes4)": {
        "details": "See {IERC165-supportsInterface}."
      },
      "uri(uint256)": {
        "details": "See {IERC1155MetadataURI-uri}. This implementation returns the same URI for *all* token types. It relies on the token type ID substitution mechanism https://eips.ethereum.org/EIPS/eip-1155#metadata[defined in the EIP]. Clients calling this function must replace the `\\{id\\}` substring with the actual token type ID."
      }
    },
    "version": 1
  },
  "userdoc": {
    "kind": "user",
    "methods": {},
    "version": 1
  }
}