{
  "contractName": "TFG",
  "abi": [
    {
      "inputs": [],
      "stateMutability": "nonpayable",
      "type": "constructor"
    },
    {
      "anonymous": false,
      "inputs": [
        {
          "indexed": true,
          "internalType": "address",
          "name": "account",
          "type": "address"
        },
        {
          "indexed": true,
          "internalType": "address",
          "name": "operator",
          "type": "address"
        },
        {
          "indexed": false,
          "internalType": "bool",
          "name": "approved",
          "type": "bool"
        }
      ],
      "name": "ApprovalForAll",
      "type": "event"
    },
    {
      "anonymous": false,
      "inputs": [
        {
          "indexed": true,
          "internalType": "address",
          "name": "previousOwner",
          "type": "address"
        },
        {
          "indexed": true,
          "internalType": "address",
          "name": "newOwner",
          "type": "address"
        }
      ],
      "name": "OwnershipTransferred",
      "type": "event"
    },
    {
      "anonymous": false,
      "inputs": [
        {
          "indexed": true,
          "internalType": "address",
          "name": "operator",
          "type": "address"
        },
        {
          "indexed": true,
          "internalType": "address",
          "name": "from",
          "type": "address"
        },
        {
          "indexed": true,
          "internalType": "address",
          "name": "to",
          "type": "address"
        },
        {
          "indexed": false,
          "internalType": "uint256[]",
          "name": "ids",
          "type": "uint256[]"
        },
        {
          "indexed": false,
          "internalType": "uint256[]",
          "name": "values",
          "type": "uint256[]"
        }
      ],
      "name": "TransferBatch",
      "type": "event"
    },
    {
      "anonymous": false,
      "inputs": [
        {
          "indexed": true,
          "internalType": "address",
          "name": "operator",
          "type": "address"
        },
        {
          "indexed": true,
          "internalType": "address",
          "name": "from",
          "type": "address"
        },
        {
          "indexed": true,
          "internalType": "address",
          "name": "to",
          "type": "address"
        },
        {
          "indexed": false,
          "internalType": "uint256",
          "name": "id",
          "type": "uint256"
        },
        {
          "indexed": false,
          "internalType": "uint256",
          "name": "value",
          "type": "uint256"
        }
      ],
      "name": "TransferSingle",
      "type": "event"
    },
    {
      "anonymous": false,
      "inputs": [
        {
          "indexed": false,
          "internalType": "string",
          "name": "value",
          "type": "string"
        },
        {
          "indexed": true,
          "internalType": "uint256",
          "name": "id",
          "type": "uint256"
        }
      ],
      "name": "URI",
      "type": "event"
    },
    {
      "inputs": [],
      "name": "addressC",
      "outputs": [
        {
          "internalType": "address",
          "name": "",
          "type": "address"
        }
      ],
      "stateMutability": "view",
      "type": "function",
      "constant": true
    },
    {
      "inputs": [],
      "name": "admin",
      "outputs": [
        {
          "internalType": "address",
          "name": "",
          "type": "address"
        }
      ],
      "stateMutability": "view",
      "type": "function",
      "constant": true
    },
    {
      "inputs": [
        {
          "internalType": "address",
          "name": "account",
          "type": "address"
        },
        {
          "internalType": "uint256",
          "name": "id",
          "type": "uint256"
        }
      ],
      "name": "balanceOf",
      "outputs": [
        {
          "internalType": "uint256",
          "name": "",
          "type": "uint256"
        }
      ],
      "stateMutability": "view",
      "type": "function",
      "constant": true
    },
    {
      "inputs": [
        {
          "internalType": "address[]",
          "name": "accounts",
          "type": "address[]"
        },
        {
          "internalType": "uint256[]",
          "name": "ids",
          "type": "uint256[]"
        }
      ],
      "name": "balanceOfBatch",
      "outputs": [
        {
          "internalType": "uint256[]",
          "name": "",
          "type": "uint256[]"
        }
      ],
      "stateMutability": "view",
      "type": "function",
      "constant": true
    },
    {
      "inputs": [],
      "name": "count",
      "outputs": [
        {
          "internalType": "uint256",
          "name": "",
          "type": "uint256"
        }
      ],
      "stateMutability": "view",
      "type": "function",
      "constant": true
    },
    {
      "inputs": [
        {
          "internalType": "uint256",
          "name": "",
          "type": "uint256"
        }
      ],
      "name": "docs",
      "outputs": [
        {
          "internalType": "string",
          "name": "",
          "type": "string"
        }
      ],
      "stateMutability": "view",
      "type": "function",
      "constant": true
    },
    {
      "inputs": [
        {
          "internalType": "address",
          "name": "account",
          "type": "address"
        },
        {
          "internalType": "address",
          "name": "operator",
          "type": "address"
        }
      ],
      "name": "isApprovedForAll",
      "outputs": [
        {
          "internalType": "bool",
          "name": "",
          "type": "bool"
        }
      ],
      "stateMutability": "view",
      "type": "function",
      "constant": true
    },
    {
      "inputs": [],
      "name": "moneda",
      "outputs": [
        {
          "internalType": "uint256",
          "name": "",
          "type": "uint256"
        }
      ],
      "stateMutability": "view",
      "type": "function",
      "constant": true
    },
    {
      "inputs": [
        {
          "internalType": "address",
          "name": "",
          "type": "address"
        },
        {
          "internalType": "address",
          "name": "",
          "type": "address"
        },
        {
          "internalType": "uint256[]",
          "name": "",
          "type": "uint256[]"
        },
        {
          "internalType": "uint256[]",
          "name": "",
          "type": "uint256[]"
        },
        {
          "internalType": "bytes",
          "name": "",
          "type": "bytes"
        }
      ],
      "name": "onERC1155BatchReceived",
      "outputs": [
        {
          "internalType": "bytes4",
          "name": "",
          "type": "bytes4"
        }
      ],
      "stateMutability": "nonpayable",
      "type": "function"
    },
    {
      "inputs": [
        {
          "internalType": "address",
          "name": "",
          "type": "address"
        },
        {
          "internalType": "address",
          "name": "",
          "type": "address"
        },
        {
          "internalType": "uint256",
          "name": "",
          "type": "uint256"
        },
        {
          "internalType": "uint256",
          "name": "",
          "type": "uint256"
        },
        {
          "internalType": "bytes",
          "name": "",
          "type": "bytes"
        }
      ],
      "name": "onERC1155Received",
      "outputs": [
        {
          "internalType": "bytes4",
          "name": "",
          "type": "bytes4"
        }
      ],
      "stateMutability": "nonpayable",
      "type": "function"
    },
    {
      "inputs": [],
      "name": "owner",
      "outputs": [
        {
          "internalType": "address",
          "name": "",
          "type": "address"
        }
      ],
      "stateMutability": "view",
      "type": "function",
      "constant": true
    },
    {
      "inputs": [],
      "name": "renounceOwnership",
      "outputs": [],
      "stateMutability": "nonpayable",
      "type": "function"
    },
    {
      "inputs": [
        {
          "internalType": "address",
          "name": "from",
          "type": "address"
        },
        {
          "internalType": "address",
          "name": "to",
          "type": "address"
        },
        {
          "internalType": "uint256[]",
          "name": "ids",
          "type": "uint256[]"
        },
        {
          "internalType": "uint256[]",
          "name": "amounts",
          "type": "uint256[]"
        },
        {
          "internalType": "bytes",
          "name": "data",
          "type": "bytes"
        }
      ],
      "name": "safeBatchTransferFrom",
      "outputs": [],
      "stateMutability": "nonpayable",
      "type": "function"
    },
    {
      "inputs": [
        {
          "internalType": "address",
          "name": "from",
          "type": "address"
        },
        {
          "internalType": "address",
          "name": "to",
          "type": "address"
        },
        {
          "internalType": "uint256",
          "name": "id",
          "type": "uint256"
        },
        {
          "internalType": "uint256",
          "name": "amount",
          "type": "uint256"
        },
        {
          "internalType": "bytes",
          "name": "data",
          "type": "bytes"
        }
      ],
      "name": "safeTransferFrom",
      "outputs": [],
      "stateMutability": "nonpayable",
      "type": "function"
    },
    {
      "inputs": [
        {
          "internalType": "address",
          "name": "operator",
          "type": "address"
        },
        {
          "internalType": "bool",
          "name": "approved",
          "type": "bool"
        }
      ],
      "name": "setApprovalForAll",
      "outputs": [],
      "stateMutability": "nonpayable",
      "type": "function"
    },
    {
      "inputs": [
        {
          "internalType": "address",
          "name": "newOwner",
          "type": "address"
        }
      ],
      "name": "transferOwnership",
      "outputs": [],
      "stateMutability": "nonpayable",
      "type": "function"
    },
    {
      "inputs": [
        {
          "internalType": "uint256",
          "name": "",
          "type": "uint256"
        }
      ],
      "name": "uri",
      "outputs": [
        {
          "internalType": "string",
          "name": "",
          "type": "string"
        }
      ],
      "stateMutability": "view",
      "type": "function",
      "constant": true
    },
    {
      "inputs": [
        {
          "internalType": "bytes4",
          "name": "interfaceId",
          "type": "bytes4"
        }
      ],
      "name": "supportsInterface",
      "outputs": [
        {
          "internalType": "bool",
          "name": "",
          "type": "bool"
        }
      ],
      "stateMutability": "view",
      "type": "function",
      "constant": true
    },
    {
      "inputs": [
        {
          "internalType": "string",
          "name": "x",
          "type": "string"
        },
        {
          "internalType": "uint256",
          "name": "precio",
          "type": "uint256"
        }
      ],
      "name": "sendHash",
      "outputs": [],
      "stateMutability": "nonpayable",
      "type": "function"
    },
    {
      "inputs": [],
      "name": "getHash",
      "outputs": [
        {
          "internalType": "string",
          "name": "x",
          "type": "string"
        }
      ],
      "stateMutability": "view",
      "type": "function",
      "constant": true
    },
    {
      "inputs": [],
      "name": "totalSupply",
      "outputs": [
        {
          "internalType": "uint256",
          "name": "",
          "type": "uint256"
        }
      ],
      "stateMutability": "view",
      "type": "function",
      "constant": true
    },
    {
      "inputs": [
        {
          "internalType": "uint256",
          "name": "id",
          "type": "uint256"
        }
      ],
      "name": "property",
      "outputs": [
        {
          "internalType": "address",
          "name": "",
          "type": "address"
        }
      ],
      "stateMutability": "view",
      "type": "function",
      "constant": true
    },
    {
      "inputs": [
        {
          "internalType": "address",
          "name": "propietario",
          "type": "address"
        }
      ],
      "name": "funds",
      "outputs": [
        {
          "internalType": "uint256",
          "name": "",
          "type": "uint256"
        }
      ],
      "stateMutability": "view",
      "type": "function",
      "constant": true
    },
    {
      "inputs": [
        {
          "internalType": "uint256",
          "name": "id",
          "type": "uint256"
        }
      ],
      "name": "price",
      "outputs": [
        {
          "internalType": "uint256",
          "name": "",
          "type": "uint256"
        }
      ],
      "stateMutability": "view",
      "type": "function",
      "constant": true
    },
    {
      "inputs": [],
      "name": "addFunds",
      "outputs": [],
      "stateMutability": "payable",
      "type": "function",
      "payable": true
    },
    {
      "inputs": [
        {
          "internalType": "uint256",
          "name": "tokenId",
          "type": "uint256"
        }
      ],
      "name": "buy",
      "outputs": [],
      "stateMutability": "payable",
      "type": "function",
      "payable": true
    },
    {
      "inputs": [
        {
          "internalType": "uint256",
          "name": "tokenId",
          "type": "uint256"
        }
      ],
      "name": "permission",
      "outputs": [],
      "stateMutability": "nonpayable",
      "type": "function"
    },
    {
      "inputs": [
        {
          "internalType": "uint256",
          "name": "newPrice",
          "type": "uint256"
        },
        {
          "internalType": "uint256",
          "name": "tokenId",
          "type": "uint256"
        }
      ],
      "name": "updatePrice",
      "outputs": [],
      "stateMutability": "nonpayable",
      "type": "function"
    }
  ],
  "bytecode": "0x60806040523480156200001157600080fd5b506040518060200160405280600081525062000033816200010960201b60201c565b5062000054620000486200012560201b60201c565b6200012d60201b60201c565b30600560006101000a81548173ffffffffffffffffffffffffffffffffffffffff021916908373ffffffffffffffffffffffffffffffffffffffff16021790555033600460006101000a81548173ffffffffffffffffffffffffffffffffffffffff021916908373ffffffffffffffffffffffffffffffffffffffff160217905550600160068190555062000103336000606460405180602001604052806000815250620001f360201b60201c565b62000dd9565b8060029080519060200190620001219291906200065c565b5050565b600033905090565b6000600360009054906101000a900473ffffffffffffffffffffffffffffffffffffffff16905081600360006101000a81548173ffffffffffffffffffffffffffffffffffffffff021916908373ffffffffffffffffffffffffffffffffffffffff1602179055508173ffffffffffffffffffffffffffffffffffffffff168173ffffffffffffffffffffffffffffffffffffffff167f8be0079c531659141344cd1fd0a4f28419497f9722a3daafe3b4186f6b6457e060405160405180910390a35050565b600073ffffffffffffffffffffffffffffffffffffffff168473ffffffffffffffffffffffffffffffffffffffff160362000265576040517f08c379a00000000000000000000000000000000000000000000000000000000081526004016200025c9062000793565b60405180910390fd5b6000620002776200012560201b60201c565b9050620002b0816000876200029288620003b760201b60201c565b620002a388620003b760201b60201c565b876200043860201b60201c565b8260008086815260200190815260200160002060008773ffffffffffffffffffffffffffffffffffffffff1673ffffffffffffffffffffffffffffffffffffffff1681526020019081526020016000206000828254620003119190620007ee565b925050819055508473ffffffffffffffffffffffffffffffffffffffff16600073ffffffffffffffffffffffffffffffffffffffff168273ffffffffffffffffffffffffffffffffffffffff167fc3d58168c5ae7397731d063d5bbf3d657854427343f4c083240f7aacaa2d0f628787604051620003919291906200085c565b60405180910390a4620003b0816000878787876200044060201b60201c565b5050505050565b60606000600167ffffffffffffffff811115620003d957620003d862000889565b5b604051908082528060200260200182016040528015620004085781602001602082028036833780820191505090505b5090508281600081518110620004235762000422620008b8565b5b60200260200101818152505080915050919050565b505050505050565b6200046c8473ffffffffffffffffffffffffffffffffffffffff166200063960201b620014191760201c565b1562000631578373ffffffffffffffffffffffffffffffffffffffff1663f23a6e6187878686866040518663ffffffff1660e01b8152600401620004b5959493929190620009d0565b6020604051808303816000875af1925050508015620004f457506040513d601f19601f82011682018060405250810190620004f1919062000aa0565b60015b620005a5576200050362000adf565b806308c379a0036200056657506200051a62000b3a565b8062000527575062000568565b806040517f08c379a00000000000000000000000000000000000000000000000000000000081526004016200055d919062000c21565b60405180910390fd5b505b6040517f08c379a00000000000000000000000000000000000000000000000000000000081526004016200059c9062000cbb565b60405180910390fd5b63f23a6e6160e01b7bffffffffffffffffffffffffffffffffffffffffffffffffffffffff1916817bffffffffffffffffffffffffffffffffffffffffffffffffffffffff1916146200062f576040517f08c379a0000000000000000000000000000000000000000000000000000000008152600401620006269062000d53565b60405180910390fd5b505b505050505050565b6000808273ffffffffffffffffffffffffffffffffffffffff163b119050919050565b8280546200066a9062000da4565b90600052602060002090601f0160209004810192826200068e5760008555620006da565b82601f10620006a957805160ff1916838001178555620006da565b82800160010185558215620006da579182015b82811115620006d9578251825591602001919060010190620006bc565b5b509050620006e99190620006ed565b5090565b5b8082111562000708576000816000905550600101620006ee565b5090565b600082825260208201905092915050565b7f455243313135353a206d696e7420746f20746865207a65726f2061646472657360008201527f7300000000000000000000000000000000000000000000000000000000000000602082015250565b60006200077b6021836200070c565b915062000788826200071d565b604082019050919050565b60006020820190508181036000830152620007ae816200076c565b9050919050565b6000819050919050565b7f4e487b7100000000000000000000000000000000000000000000000000000000600052601160045260246000fd5b6000620007fb82620007b5565b91506200080883620007b5565b9250827fffffffffffffffffffffffffffffffffffffffffffffffffffffffffffffffff0382111562000840576200083f620007bf565b5b828201905092915050565b6200085681620007b5565b82525050565b60006040820190506200087360008301856200084b565b6200088260208301846200084b565b9392505050565b7f4e487b7100000000000000000000000000000000000000000000000000000000600052604160045260246000fd5b7f4e487b7100000000000000000000000000000000000000000000000000000000600052603260045260246000fd5b600073ffffffffffffffffffffffffffffffffffffffff82169050919050565b60006200091482620008e7565b9050919050565b620009268162000907565b82525050565b600081519050919050565b600082825260208201905092915050565b60005b83811015620009685780820151818401526020810190506200094b565b8381111562000978576000848401525b50505050565b6000601f19601f8301169050919050565b60006200099c826200092c565b620009a8818562000937565b9350620009ba81856020860162000948565b620009c5816200097e565b840191505092915050565b600060a082019050620009e760008301886200091b565b620009f660208301876200091b565b62000a0560408301866200084b565b62000a1460608301856200084b565b818103608083015262000a2881846200098f565b90509695505050505050565b6000604051905090565b600080fd5b60007fffffffff0000000000000000000000000000000000000000000000000000000082169050919050565b62000a7a8162000a43565b811462000a8657600080fd5b50565b60008151905062000a9a8162000a6f565b92915050565b60006020828403121562000ab95762000ab862000a3e565b5b600062000ac98482850162000a89565b91505092915050565b60008160e01c9050919050565b600060033d111562000b015760046000803e62000afe60005162000ad2565b90505b90565b62000b0f826200097e565b810181811067ffffffffffffffff8211171562000b315762000b3062000889565b5b80604052505050565b600060443d1062000bd25762000b4f62000a34565b60043d036004823e80513d602482011167ffffffffffffffff8211171562000b7957505062000bd2565b808201805167ffffffffffffffff81111562000b99575050505062000bd2565b80602083010160043d03850181111562000bb857505050505062000bd2565b62000bc98260200185018662000b04565b82955050505050505b90565b600081519050919050565b600062000bed8262000bd5565b62000bf981856200070c565b935062000c0b81856020860162000948565b62000c16816200097e565b840191505092915050565b6000602082019050818103600083015262000c3d818462000be0565b905092915050565b7f455243313135353a207472616e7366657220746f206e6f6e204552433131353560008201527f526563656976657220696d706c656d656e746572000000000000000000000000602082015250565b600062000ca36034836200070c565b915062000cb08262000c45565b604082019050919050565b6000602082019050818103600083015262000cd68162000c94565b9050919050565b7f455243313135353a204552433131353552656365697665722072656a6563746560008201527f6420746f6b656e73000000000000000000000000000000000000000000000000602082015250565b600062000d3b6028836200070c565b915062000d488262000cdd565b604082019050919050565b6000602082019050818103600083015262000d6e8162000d2c565b9050919050565b7f4e487b7100000000000000000000000000000000000000000000000000000000600052602260045260246000fd5b6000600282049050600182168062000dbd57607f821691505b60208210810362000dd35762000dd262000d75565b5b50919050565b613ae28062000de96000396000f3fe6080604052600436106101b65760003560e01c80638da5cb5b116100ec578063e2ae93fb1161008a578063f23a6e6111610064578063f23a6e6114610629578063f242432a14610666578063f2fde38b1461068f578063f851a440146106b8576101b6565b8063e2ae93fb14610584578063e985e9c5146105c1578063f1cc1268146105fe576101b6565b8063bc197c81116100c6578063bc197c81146104d5578063c79fc60914610512578063d13319c41461053d578063d96a094a14610568576101b6565b80638da5cb5b14610477578063a22cb465146104a2578063a26759cb146104cb576101b6565b80632eb2c2d611610159578063549d848511610133578063549d8485146103e5578063715018a61461040e5780637d38c9971461042557806382367b2d1461044e576101b6565b80632eb2c2d61461034257806330e1ad321461036b5780634e1273f4146103a8576101b6565b80630e89341c116101955780630e89341c1461026057806318160ddd1461029d57806323389c5a146102c857806326a49e3714610305576101b6565b8062fdd58e146101bb57806301ffc9a7146101f857806306661abd14610235575b600080fd5b3480156101c757600080fd5b506101e260048036038101906101dd91906124e0565b6106e3565b6040516101ef919061252f565b60405180910390f35b34801561020457600080fd5b5061021f600480360381019061021a91906125a2565b6107ab565b60405161022c91906125ea565b60405180910390f35b34801561024157600080fd5b5061024a6107bd565b604051610257919061252f565b60405180910390f35b34801561026c57600080fd5b5061028760048036038101906102829190612605565b6107c3565b60405161029491906126cb565b60405180910390f35b3480156102a957600080fd5b506102b2610857565b6040516102bf919061252f565b60405180910390f35b3480156102d457600080fd5b506102ef60048036038101906102ea9190612605565b610864565b6040516102fc91906126cb565b60405180910390f35b34801561031157600080fd5b5061032c60048036038101906103279190612605565b610910565b604051610339919061252f565b60405180910390f35b34801561034e57600080fd5b50610369600480360381019061036491906128ea565b61092d565b005b34801561037757600080fd5b50610392600480360381019061038d9190612605565b6109ce565b60405161039f91906129c8565b60405180910390f35b3480156103b457600080fd5b506103cf60048036038101906103ca9190612aa6565b610a0b565b6040516103dc9190612bdc565b60405180910390f35b3480156103f157600080fd5b5061040c60048036038101906104079190612c9f565b610b24565b005b34801561041a57600080fd5b50610423610c83565b005b34801561043157600080fd5b5061044c60048036038101906104479190612605565b610d0b565b005b34801561045a57600080fd5b5061047560048036038101906104709190612cfb565b610e71565b005b34801561048357600080fd5b5061048c610e99565b60405161049991906129c8565b60405180910390f35b3480156104ae57600080fd5b506104c960048036038101906104c49190612d67565b610ec3565b005b6104d3610ed9565b005b3480156104e157600080fd5b506104fc60048036038101906104f791906128ea565b610f88565b6040516105099190612db6565b60405180910390f35b34801561051e57600080fd5b50610527610f9d565b60405161053491906129c8565b60405180910390f35b34801561054957600080fd5b50610552610fc3565b60405161055f91906126cb565b60405180910390f35b610582600480360381019061057d9190612605565b611055565b005b34801561059057600080fd5b506105ab60048036038101906105a69190612dd1565b611199565b6040516105b8919061252f565b60405180910390f35b3480156105cd57600080fd5b506105e860048036038101906105e39190612dfe565b6111ad565b6040516105f591906125ea565b60405180910390f35b34801561060a57600080fd5b50610613611241565b604051610620919061252f565b60405180910390f35b34801561063557600080fd5b50610650600480360381019061064b9190612e3e565b611246565b60405161065d9190612db6565b60405180910390f35b34801561067257600080fd5b5061068d60048036038101906106889190612e3e565b61125b565b005b34801561069b57600080fd5b506106b660048036038101906106b19190612dd1565b6112fc565b005b3480156106c457600080fd5b506106cd6113f3565b6040516106da91906129c8565b60405180910390f35b60008073ffffffffffffffffffffffffffffffffffffffff168373ffffffffffffffffffffffffffffffffffffffff1603610753576040517f08c379a000000000000000000000000000000000000000000000000000000000815260040161074a90612f47565b60405180910390fd5b60008083815260200190815260200160002060008473ffffffffffffffffffffffffffffffffffffffff1673ffffffffffffffffffffffffffffffffffffffff16815260200190815260200160002054905092915050565b60006107b68261143c565b9050919050565b60065481565b6060600280546107d290612f96565b80601f01602080910402602001604051908101604052809291908181526020018280546107fe90612f96565b801561084b5780601f106108205761010080835404028352916020019161084b565b820191906000526020600020905b81548152906001019060200180831161082e57829003601f168201915b50505050509050919050565b6000600780549050905090565b6007818154811061087457600080fd5b90600052602060002001600091509050805461088f90612f96565b80601f01602080910402602001604051908101604052809291908181526020018280546108bb90612f96565b80156109085780601f106108dd57610100808354040283529160200191610908565b820191906000526020600020905b8154815290600101906020018083116108eb57829003601f168201915b505050505081565b6000600a6000838152602001908152602001600020549050919050565b6109356114b6565b73ffffffffffffffffffffffffffffffffffffffff168573ffffffffffffffffffffffffffffffffffffffff16148061097b575061097a856109756114b6565b6111ad565b5b6109ba576040517f08c379a00000000000000000000000000000000000000000000000000000000081526004016109b190613039565b60405180910390fd5b6109c785858585856114be565b5050505050565b6000600b600083815260200190815260200160002060009054906101000a900473ffffffffffffffffffffffffffffffffffffffff169050919050565b60608151835114610a51576040517f08c379a0000000000000000000000000000000000000000000000000000000008152600401610a48906130cb565b60405180910390fd5b6000835167ffffffffffffffff811115610a6e57610a6d6126f2565b5b604051908082528060200260200182016040528015610a9c5781602001602082028036833780820191505090505b50905060005b8451811015610b1957610ae9858281518110610ac157610ac06130eb565b5b6020026020010151858381518110610adc57610adb6130eb565b5b60200260200101516106e3565b828281518110610afc57610afb6130eb565b5b60200260200101818152505080610b1290613149565b9050610aa2565b508091505092915050565b600982604051610b3491906131cd565b908152602001604051809103902060009054906101000a900460ff1615610b5a57600080fd5b81600c9080519060200190610b70929190612395565b50600782908060018154018082558091505060019003906000526020600020016000909190919091509080519060200190610bac929190612395565b5080600a600060065481526020019081526020016000208190555033600b6000600654815260200190815260200160002060006101000a81548173ffffffffffffffffffffffffffffffffffffffff021916908373ffffffffffffffffffffffffffffffffffffffff1602179055506000829050610c2f336006546001846117d1565b60066000815480929190610c4290613149565b91905055506001600984604051610c5991906131cd565b908152602001604051809103902060006101000a81548160ff021916908315150217905550505050565b610c8b6114b6565b73ffffffffffffffffffffffffffffffffffffffff16610ca9610e99565b73ffffffffffffffffffffffffffffffffffffffff1614610cff576040517f08c379a0000000000000000000000000000000000000000000000000000000008152600401610cf690613230565b60405180910390fd5b610d096000611966565b565b600b6000600183610d1c9190613250565b815260200190815260200160002060009054906101000a900473ffffffffffffffffffffffffffffffffffffffff1660086000600184610d5c9190613250565b815260200190815260200160002060006101000a81548173ffffffffffffffffffffffffffffffffffffffff021916908373ffffffffffffffffffffffffffffffffffffffff16021790555030600b6000600184610dba9190613250565b815260200190815260200160002060006101000a81548173ffffffffffffffffffffffffffffffffffffffff021916908373ffffffffffffffffffffffffffffffffffffffff160217905550610e6e33600b6000600185610e1b9190613250565b815260200190815260200160002060009054906101000a900473ffffffffffffffffffffffffffffffffffffffff16600184610e579190613250565b60016040518060200160405280600081525061125b565b50565b81600a6000600184610e839190613250565b8152602001908152602001600020819055505050565b6000600360009054906101000a900473ffffffffffffffffffffffffffffffffffffffff16905090565b610ed5610ece6114b6565b8383611a2c565b5050565b600460009054906101000a900473ffffffffffffffffffffffffffffffffffffffff1673ffffffffffffffffffffffffffffffffffffffff163373ffffffffffffffffffffffffffffffffffffffff1614610f69576040517f08c379a0000000000000000000000000000000000000000000000000000000008152600401610f60906132f2565b60405180910390fd5b610f863360006064604051806020016040528060008152506117d1565b565b600063bc197c8160e01b905095945050505050565b600560009054906101000a900473ffffffffffffffffffffffffffffffffffffffff1681565b6060600c8054610fd290612f96565b80601f0160208091040260200160405190810160405280929190818152602001828054610ffe90612f96565b801561104b5780601f106110205761010080835404028352916020019161104b565b820191906000526020600020905b81548152906001019060200180831161102e57829003601f168201915b5050505050905090565b6110d0336008600060018561106a9190613250565b815260200190815260200160002060009054906101000a900473ffffffffffffffffffffffffffffffffffffffff166000600a60006001876110ac9190613250565b8152602001908152602001600020546040518060200160405280600081525061125b565b611138600b60006001846110e49190613250565b815260200190815260200160002060009054906101000a900473ffffffffffffffffffffffffffffffffffffffff16336001846111219190613250565b600160405180602001604052806000815250611b98565b33600b600060018461114a9190613250565b815260200190815260200160002060006101000a81548173ffffffffffffffffffffffffffffffffffffffff021916908373ffffffffffffffffffffffffffffffffffffffff16021790555050565b60006111a68260006106e3565b9050919050565b6000600160008473ffffffffffffffffffffffffffffffffffffffff1673ffffffffffffffffffffffffffffffffffffffff16815260200190815260200160002060008373ffffffffffffffffffffffffffffffffffffffff1673ffffffffffffffffffffffffffffffffffffffff16815260200190815260200160002060009054906101000a900460ff16905092915050565b600081565b600063f23a6e6160e01b905095945050505050565b6112636114b6565b73ffffffffffffffffffffffffffffffffffffffff168573ffffffffffffffffffffffffffffffffffffffff1614806112a957506112a8856112a36114b6565b6111ad565b5b6112e8576040517f08c379a00000000000000000000000000000000000000000000000000000000081526004016112df90613384565b60405180910390fd5b6112f58585858585611b98565b5050505050565b6113046114b6565b73ffffffffffffffffffffffffffffffffffffffff16611322610e99565b73ffffffffffffffffffffffffffffffffffffffff1614611378576040517f08c379a000000000000000000000000000000000000000000000000000000000815260040161136f90613230565b60405180910390fd5b600073ffffffffffffffffffffffffffffffffffffffff168173ffffffffffffffffffffffffffffffffffffffff16036113e7576040517f08c379a00000000000000000000000000000000000000000000000000000000081526004016113de90613416565b60405180910390fd5b6113f081611966565b50565b600460009054906101000a900473ffffffffffffffffffffffffffffffffffffffff1681565b6000808273ffffffffffffffffffffffffffffffffffffffff163b119050919050565b60007f4e2312e0000000000000000000000000000000000000000000000000000000007bffffffffffffffffffffffffffffffffffffffffffffffffffffffff1916827bffffffffffffffffffffffffffffffffffffffffffffffffffffffff191614806114af57506114ae82611e19565b5b9050919050565b600033905090565b8151835114611502576040517f08c379a00000000000000000000000000000000000000000000000000000000081526004016114f9906134a8565b60405180910390fd5b600073ffffffffffffffffffffffffffffffffffffffff168473ffffffffffffffffffffffffffffffffffffffff1603611571576040517f08c379a00000000000000000000000000000000000000000000000000000000081526004016115689061353a565b60405180910390fd5b600061157b6114b6565b905061158b818787878787611efb565b60005b845181101561173c5760008582815181106115ac576115ab6130eb565b5b6020026020010151905060008583815181106115cb576115ca6130eb565b5b60200260200101519050600080600084815260200190815260200160002060008b73ffffffffffffffffffffffffffffffffffffffff1673ffffffffffffffffffffffffffffffffffffffff1681526020019081526020016000205490508181101561166c576040517f08c379a0000000000000000000000000000000000000000000000000000000008152600401611663906135cc565b60405180910390fd5b81810360008085815260200190815260200160002060008c73ffffffffffffffffffffffffffffffffffffffff1673ffffffffffffffffffffffffffffffffffffffff168152602001908152602001600020819055508160008085815260200190815260200160002060008b73ffffffffffffffffffffffffffffffffffffffff1673ffffffffffffffffffffffffffffffffffffffff16815260200190815260200160002060008282546117219190613250565b925050819055505050508061173590613149565b905061158e565b508473ffffffffffffffffffffffffffffffffffffffff168673ffffffffffffffffffffffffffffffffffffffff168273ffffffffffffffffffffffffffffffffffffffff167f4a39dc06d4c0dbc64b70af90fd698a233a518aa5d07e595d983b8c0526c8f7fb87876040516117b39291906135ec565b60405180910390a46117c9818787878787611f03565b505050505050565b600073ffffffffffffffffffffffffffffffffffffffff168473ffffffffffffffffffffffffffffffffffffffff1603611840576040517f08c379a000000000000000000000000000000000000000000000000000000000815260040161183790613695565b60405180910390fd5b600061184a6114b6565b905061186b8160008761185c886120da565b611865886120da565b87611efb565b8260008086815260200190815260200160002060008773ffffffffffffffffffffffffffffffffffffffff1673ffffffffffffffffffffffffffffffffffffffff16815260200190815260200160002060008282546118ca9190613250565b925050819055508473ffffffffffffffffffffffffffffffffffffffff16600073ffffffffffffffffffffffffffffffffffffffff168273ffffffffffffffffffffffffffffffffffffffff167fc3d58168c5ae7397731d063d5bbf3d657854427343f4c083240f7aacaa2d0f6287876040516119489291906136b5565b60405180910390a461195f81600087878787612154565b5050505050565b6000600360009054906101000a900473ffffffffffffffffffffffffffffffffffffffff16905081600360006101000a81548173ffffffffffffffffffffffffffffffffffffffff021916908373ffffffffffffffffffffffffffffffffffffffff1602179055508173ffffffffffffffffffffffffffffffffffffffff168173ffffffffffffffffffffffffffffffffffffffff167f8be0079c531659141344cd1fd0a4f28419497f9722a3daafe3b4186f6b6457e060405160405180910390a35050565b8173ffffffffffffffffffffffffffffffffffffffff168373ffffffffffffffffffffffffffffffffffffffff1603611a9a576040517f08c379a0000000000000000000000000000000000000000000000000000000008152600401611a9190613750565b60405180910390fd5b80600160008573ffffffffffffffffffffffffffffffffffffffff1673ffffffffffffffffffffffffffffffffffffffff16815260200190815260200160002060008473ffffffffffffffffffffffffffffffffffffffff1673ffffffffffffffffffffffffffffffffffffffff16815260200190815260200160002060006101000a81548160ff0219169083151502179055508173ffffffffffffffffffffffffffffffffffffffff168373ffffffffffffffffffffffffffffffffffffffff167f17307eab39ab6107e8899845ad3d59bd9653f200f220920489ca2b5937696c3183604051611b8b91906125ea565b60405180910390a3505050565b600073ffffffffffffffffffffffffffffffffffffffff168473ffffffffffffffffffffffffffffffffffffffff1603611c07576040517f08c379a0000000000000000000000000000000000000000000000000000000008152600401611bfe9061353a565b60405180910390fd5b6000611c116114b6565b9050611c31818787611c22886120da565b611c2b886120da565b87611efb565b600080600086815260200190815260200160002060008873ffffffffffffffffffffffffffffffffffffffff1673ffffffffffffffffffffffffffffffffffffffff16815260200190815260200160002054905083811015611cc8576040517f08c379a0000000000000000000000000000000000000000000000000000000008152600401611cbf906135cc565b60405180910390fd5b83810360008087815260200190815260200160002060008973ffffffffffffffffffffffffffffffffffffffff1673ffffffffffffffffffffffffffffffffffffffff168152602001908152602001600020819055508360008087815260200190815260200160002060008873ffffffffffffffffffffffffffffffffffffffff1673ffffffffffffffffffffffffffffffffffffffff1681526020019081526020016000206000828254611d7d9190613250565b925050819055508573ffffffffffffffffffffffffffffffffffffffff168773ffffffffffffffffffffffffffffffffffffffff168373ffffffffffffffffffffffffffffffffffffffff167fc3d58168c5ae7397731d063d5bbf3d657854427343f4c083240f7aacaa2d0f628888604051611dfa9291906136b5565b60405180910390a4611e10828888888888612154565b50505050505050565b60007fd9b67a26000000000000000000000000000000000000000000000000000000007bffffffffffffffffffffffffffffffffffffffffffffffffffffffff1916827bffffffffffffffffffffffffffffffffffffffffffffffffffffffff19161480611ee457507f0e89341c000000000000000000000000000000000000000000000000000000007bffffffffffffffffffffffffffffffffffffffffffffffffffffffff1916827bffffffffffffffffffffffffffffffffffffffffffffffffffffffff1916145b80611ef45750611ef38261232b565b5b9050919050565b505050505050565b611f228473ffffffffffffffffffffffffffffffffffffffff16611419565b156120d2578373ffffffffffffffffffffffffffffffffffffffff1663bc197c8187878686866040518663ffffffff1660e01b8152600401611f689594939291906137c5565b6020604051808303816000875af1925050508015611fa457506040513d601f19601f82011682018060405250810190611fa19190613842565b60015b61204957611fb061387c565b806308c379a00361200c5750611fc461389e565b80611fcf575061200e565b806040517f08c379a000000000000000000000000000000000000000000000000000000000815260040161200391906126cb565b60405180910390fd5b505b6040517f08c379a0000000000000000000000000000000000000000000000000000000008152600401612040906139a0565b60405180910390fd5b63bc197c8160e01b7bffffffffffffffffffffffffffffffffffffffffffffffffffffffff1916817bffffffffffffffffffffffffffffffffffffffffffffffffffffffff1916146120d0576040517f08c379a00000000000000000000000000000000000000000000000000000000081526004016120c790613a32565b60405180910390fd5b505b505050505050565b60606000600167ffffffffffffffff8111156120f9576120f86126f2565b5b6040519080825280602002602001820160405280156121275781602001602082028036833780820191505090505b509050828160008151811061213f5761213e6130eb565b5b60200260200101818152505080915050919050565b6121738473ffffffffffffffffffffffffffffffffffffffff16611419565b15612323578373ffffffffffffffffffffffffffffffffffffffff1663f23a6e6187878686866040518663ffffffff1660e01b81526004016121b9959493929190613a52565b6020604051808303816000875af19250505080156121f557506040513d601f19601f820116820180604052508101906121f29190613842565b60015b61229a5761220161387c565b806308c379a00361225d575061221561389e565b80612220575061225f565b806040517f08c379a000000000000000000000000000000000000000000000000000000000815260040161225491906126cb565b60405180910390fd5b505b6040517f08c379a0000000000000000000000000000000000000000000000000000000008152600401612291906139a0565b60405180910390fd5b63f23a6e6160e01b7bffffffffffffffffffffffffffffffffffffffffffffffffffffffff1916817bffffffffffffffffffffffffffffffffffffffffffffffffffffffff191614612321576040517f08c379a000000000000000000000000000000000000000000000000000000000815260040161231890613a32565b60405180910390fd5b505b505050505050565b60007f01ffc9a7000000000000000000000000000000000000000000000000000000007bffffffffffffffffffffffffffffffffffffffffffffffffffffffff1916827bffffffffffffffffffffffffffffffffffffffffffffffffffffffff1916149050919050565b8280546123a190612f96565b90600052602060002090601f0160209004810192826123c3576000855561240a565b82601f106123dc57805160ff191683800117855561240a565b8280016001018555821561240a579182015b828111156124095782518255916020019190600101906123ee565b5b509050612417919061241b565b5090565b5b8082111561243457600081600090555060010161241c565b5090565b6000604051905090565b600080fd5b600080fd5b600073ffffffffffffffffffffffffffffffffffffffff82169050919050565b60006124778261244c565b9050919050565b6124878161246c565b811461249257600080fd5b50565b6000813590506124a48161247e565b92915050565b6000819050919050565b6124bd816124aa565b81146124c857600080fd5b50565b6000813590506124da816124b4565b92915050565b600080604083850312156124f7576124f6612442565b5b600061250585828601612495565b9250506020612516858286016124cb565b9150509250929050565b612529816124aa565b82525050565b60006020820190506125446000830184612520565b92915050565b60007fffffffff0000000000000000000000000000000000000000000000000000000082169050919050565b61257f8161254a565b811461258a57600080fd5b50565b60008135905061259c81612576565b92915050565b6000602082840312156125b8576125b7612442565b5b60006125c68482850161258d565b91505092915050565b60008115159050919050565b6125e4816125cf565b82525050565b60006020820190506125ff60008301846125db565b92915050565b60006020828403121561261b5761261a612442565b5b6000612629848285016124cb565b91505092915050565b600081519050919050565b600082825260208201905092915050565b60005b8381101561266c578082015181840152602081019050612651565b8381111561267b576000848401525b50505050565b6000601f19601f8301169050919050565b600061269d82612632565b6126a7818561263d565b93506126b781856020860161264e565b6126c081612681565b840191505092915050565b600060208201905081810360008301526126e58184612692565b905092915050565b600080fd5b7f4e487b7100000000000000000000000000000000000000000000000000000000600052604160045260246000fd5b61272a82612681565b810181811067ffffffffffffffff82111715612749576127486126f2565b5b80604052505050565b600061275c612438565b90506127688282612721565b919050565b600067ffffffffffffffff821115612788576127876126f2565b5b602082029050602081019050919050565b600080fd5b60006127b16127ac8461276d565b612752565b905080838252602082019050602084028301858111156127d4576127d3612799565b5b835b818110156127fd57806127e988826124cb565b8452602084019350506020810190506127d6565b5050509392505050565b600082601f83011261281c5761281b6126ed565b5b813561282c84826020860161279e565b91505092915050565b600080fd5b600067ffffffffffffffff821115612855576128546126f2565b5b61285e82612681565b9050602081019050919050565b82818337600083830152505050565b600061288d6128888461283a565b612752565b9050828152602081018484840111156128a9576128a8612835565b5b6128b484828561286b565b509392505050565b600082601f8301126128d1576128d06126ed565b5b81356128e184826020860161287a565b91505092915050565b600080600080600060a0868803121561290657612905612442565b5b600061291488828901612495565b955050602061292588828901612495565b945050604086013567ffffffffffffffff81111561294657612945612447565b5b61295288828901612807565b935050606086013567ffffffffffffffff81111561297357612972612447565b5b61297f88828901612807565b925050608086013567ffffffffffffffff8111156129a05761299f612447565b5b6129ac888289016128bc565b9150509295509295909350565b6129c28161246c565b82525050565b60006020820190506129dd60008301846129b9565b92915050565b600067ffffffffffffffff8211156129fe576129fd6126f2565b5b602082029050602081019050919050565b6000612a22612a1d846129e3565b612752565b90508083825260208201905060208402830185811115612a4557612a44612799565b5b835b81811015612a6e5780612a5a8882612495565b845260208401935050602081019050612a47565b5050509392505050565b600082601f830112612a8d57612a8c6126ed565b5b8135612a9d848260208601612a0f565b91505092915050565b60008060408385031215612abd57612abc612442565b5b600083013567ffffffffffffffff811115612adb57612ada612447565b5b612ae785828601612a78565b925050602083013567ffffffffffffffff811115612b0857612b07612447565b5b612b1485828601612807565b9150509250929050565b600081519050919050565b600082825260208201905092915050565b6000819050602082019050919050565b612b53816124aa565b82525050565b6000612b658383612b4a565b60208301905092915050565b6000602082019050919050565b6000612b8982612b1e565b612b938185612b29565b9350612b9e83612b3a565b8060005b83811015612bcf578151612bb68882612b59565b9750612bc183612b71565b925050600181019050612ba2565b5085935050505092915050565b60006020820190508181036000830152612bf68184612b7e565b905092915050565b600067ffffffffffffffff821115612c1957612c186126f2565b5b612c2282612681565b9050602081019050919050565b6000612c42612c3d84612bfe565b612752565b905082815260208101848484011115612c5e57612c5d612835565b5b612c6984828561286b565b509392505050565b600082601f830112612c8657612c856126ed565b5b8135612c96848260208601612c2f565b91505092915050565b60008060408385031215612cb657612cb5612442565b5b600083013567ffffffffffffffff811115612cd457612cd3612447565b5b612ce085828601612c71565b9250506020612cf1858286016124cb565b9150509250929050565b60008060408385031215612d1257612d11612442565b5b6000612d20858286016124cb565b9250506020612d31858286016124cb565b9150509250929050565b612d44816125cf565b8114612d4f57600080fd5b50565b600081359050612d6181612d3b565b92915050565b60008060408385031215612d7e57612d7d612442565b5b6000612d8c85828601612495565b9250506020612d9d85828601612d52565b9150509250929050565b612db08161254a565b82525050565b6000602082019050612dcb6000830184612da7565b92915050565b600060208284031215612de757612de6612442565b5b6000612df584828501612495565b91505092915050565b60008060408385031215612e1557612e14612442565b5b6000612e2385828601612495565b9250506020612e3485828601612495565b9150509250929050565b600080600080600060a08688031215612e5a57612e59612442565b5b6000612e6888828901612495565b9550506020612e7988828901612495565b9450506040612e8a888289016124cb565b9350506060612e9b888289016124cb565b925050608086013567ffffffffffffffff811115612ebc57612ebb612447565b5b612ec8888289016128bc565b9150509295509295909350565b7f455243313135353a2062616c616e636520717565727920666f7220746865207a60008201527f65726f2061646472657373000000000000000000000000000000000000000000602082015250565b6000612f31602b8361263d565b9150612f3c82612ed5565b604082019050919050565b60006020820190508181036000830152612f6081612f24565b9050919050565b7f4e487b7100000000000000000000000000000000000000000000000000000000600052602260045260246000fd5b60006002820490506001821680612fae57607f821691505b602082108103612fc157612fc0612f67565b5b50919050565b7f455243313135353a207472616e736665722063616c6c6572206973206e6f742060008201527f6f776e6572206e6f7220617070726f7665640000000000000000000000000000602082015250565b600061302360328361263d565b915061302e82612fc7565b604082019050919050565b6000602082019050818103600083015261305281613016565b9050919050565b7f455243313135353a206163636f756e747320616e6420696473206c656e67746860008201527f206d69736d617463680000000000000000000000000000000000000000000000602082015250565b60006130b560298361263d565b91506130c082613059565b604082019050919050565b600060208201905081810360008301526130e4816130a8565b9050919050565b7f4e487b7100000000000000000000000000000000000000000000000000000000600052603260045260246000fd5b7f4e487b7100000000000000000000000000000000000000000000000000000000600052601160045260246000fd5b6000613154826124aa565b91507fffffffffffffffffffffffffffffffffffffffffffffffffffffffffffffffff82036131865761318561311a565b5b600182019050919050565b600081905092915050565b60006131a782612632565b6131b18185613191565b93506131c181856020860161264e565b80840191505092915050565b60006131d9828461319c565b915081905092915050565b7f4f776e61626c653a2063616c6c6572206973206e6f7420746865206f776e6572600082015250565b600061321a60208361263d565b9150613225826131e4565b602082019050919050565b600060208201905081810360008301526132498161320d565b9050919050565b600061325b826124aa565b9150613266836124aa565b9250827fffffffffffffffffffffffffffffffffffffffffffffffffffffffffffffffff0382111561329b5761329a61311a565b5b828201905092915050565b7f6f6e6c792061646d696e2063616e2063616c6c20746869730000000000000000600082015250565b60006132dc60188361263d565b91506132e7826132a6565b602082019050919050565b6000602082019050818103600083015261330b816132cf565b9050919050565b7f455243313135353a2063616c6c6572206973206e6f74206f776e6572206e6f7260008201527f20617070726f7665640000000000000000000000000000000000000000000000602082015250565b600061336e60298361263d565b915061337982613312565b604082019050919050565b6000602082019050818103600083015261339d81613361565b9050919050565b7f4f776e61626c653a206e6577206f776e657220697320746865207a65726f206160008201527f6464726573730000000000000000000000000000000000000000000000000000602082015250565b600061340060268361263d565b915061340b826133a4565b604082019050919050565b6000602082019050818103600083015261342f816133f3565b9050919050565b7f455243313135353a2069647320616e6420616d6f756e7473206c656e6774682060008201527f6d69736d61746368000000000000000000000000000000000000000000000000602082015250565b600061349260288361263d565b915061349d82613436565b604082019050919050565b600060208201905081810360008301526134c181613485565b9050919050565b7f455243313135353a207472616e7366657220746f20746865207a65726f20616460008201527f6472657373000000000000000000000000000000000000000000000000000000602082015250565b600061352460258361263d565b915061352f826134c8565b604082019050919050565b6000602082019050818103600083015261355381613517565b9050919050565b7f455243313135353a20696e73756666696369656e742062616c616e636520666f60008201527f72207472616e7366657200000000000000000000000000000000000000000000602082015250565b60006135b6602a8361263d565b91506135c18261355a565b604082019050919050565b600060208201905081810360008301526135e5816135a9565b9050919050565b600060408201905081810360008301526136068185612b7e565b9050818103602083015261361a8184612b7e565b90509392505050565b7f455243313135353a206d696e7420746f20746865207a65726f2061646472657360008201527f7300000000000000000000000000000000000000000000000000000000000000602082015250565b600061367f60218361263d565b915061368a82613623565b604082019050919050565b600060208201905081810360008301526136ae81613672565b9050919050565b60006040820190506136ca6000830185612520565b6136d76020830184612520565b9392505050565b7f455243313135353a2073657474696e6720617070726f76616c2073746174757360008201527f20666f722073656c660000000000000000000000000000000000000000000000602082015250565b600061373a60298361263d565b9150613745826136de565b604082019050919050565b600060208201905081810360008301526137698161372d565b9050919050565b600081519050919050565b600082825260208201905092915050565b600061379782613770565b6137a1818561377b565b93506137b181856020860161264e565b6137ba81612681565b840191505092915050565b600060a0820190506137da60008301886129b9565b6137e760208301876129b9565b81810360408301526137f98186612b7e565b9050818103606083015261380d8185612b7e565b90508181036080830152613821818461378c565b90509695505050505050565b60008151905061383c81612576565b92915050565b60006020828403121561385857613857612442565b5b60006138668482850161382d565b91505092915050565b60008160e01c9050919050565b600060033d111561389b5760046000803e61389860005161386f565b90505b90565b600060443d1061392b576138b0612438565b60043d036004823e80513d602482011167ffffffffffffffff821117156138d857505061392b565b808201805167ffffffffffffffff8111156138f6575050505061392b565b80602083010160043d03850181111561391357505050505061392b565b61392282602001850186612721565b82955050505050505b90565b7f455243313135353a207472616e7366657220746f206e6f6e204552433131353560008201527f526563656976657220696d706c656d656e746572000000000000000000000000602082015250565b600061398a60348361263d565b91506139958261392e565b604082019050919050565b600060208201905081810360008301526139b98161397d565b9050919050565b7f455243313135353a204552433131353552656365697665722072656a6563746560008201527f6420746f6b656e73000000000000000000000000000000000000000000000000602082015250565b6000613a1c60288361263d565b9150613a27826139c0565b604082019050919050565b60006020820190508181036000830152613a4b81613a0f565b9050919050565b600060a082019050613a6760008301886129b9565b613a7460208301876129b9565b613a816040830186612520565b613a8e6060830185612520565b8181036080830152613aa0818461378c565b9050969550505050505056fea2646970667358221220a61b1b543bf13ba264d79731557a6392f548c7ca4b2ed0bec4b43149442844b964736f6c634300080d0033",
  "immutableReferences": {},
  "source": "// SPDX-License-Identifier: MIT\npragma solidity ^0.8.0;\nimport \"../ERC1155/ERC1155.sol\";\nimport \"../ERC1155/utils/ERC1155Holder.sol\";\nimport \"../ERC1155/utils/access/Ownable.sol\";\n\n\n\ncontract TFG is ERC1155, ERC1155Holder, Ownable{\n    address public admin;\n    address public addressC;\n    uint256 public count;\n\n    //ids para los tokens\n    uint256 public constant moneda = 0;\n\n    //estructuras auxiliares\n    string [] public docs;\n    mapping (uint256 => address) _seller;\n    mapping (string => bool) _docExists;\n    mapping (uint256 => uint) _price;\n    mapping (uint256 => address) _property;\n\n\n    string ipfsHash;\n\n    constructor() ERC1155(\"\") {\n        addressC = address(this);\n        admin = msg.sender;\n        count = 1;\n       _mint(msg.sender, moneda, 100, \"\");\n    }\n\n    function supportsInterface(bytes4 interfaceId)\n        public\n        view\n        virtual\n        override(ERC1155, ERC1155Receiver)\n        returns (bool)\n    {\n        return super.supportsInterface(interfaceId);\n    }\n \n    function sendHash(string memory x, uint precio) public {\n        require(!_docExists[x]);\n        ipfsHash = x;\n        docs.push(x);\n        _price[count] = precio;\n        _property[count] = msg.sender;\n        bytes memory dataColor = bytes(x);\n        _mint(msg.sender, count, 1, dataColor);\n        count++;\n        _docExists[x] = true;\n    }\n\n    function getHash() public view returns (string memory x) {\n    return ipfsHash;\n    }\n    \n    modifier onlyAdmin() {\n        require(msg.sender == admin, \"only admin can call this\");\n        _;\n    }\n\n    \n\n\n\n    /*function nuevoDoc(string memory _ipfsHash, uint precio) public{\n        require(!_colorExists[_ipfsHash]);\n        docs.push(_ipfsHash);\n        _price[count] = precio;\n        _property[count] = msg.sender;\n        bytes memory dataColor = bytes(_ipfsHash);\n        _mint(msg.sender, count, 1, dataColor);\n        count++;\n        _colorExists[_ipfsHash] = true;\n        \n    }*/\n\n    function totalSupply() public view returns (uint256){\n        return docs.length;\n    }\n\n    function property(uint256 id) public view returns (address){\n        return _property[id];\n    }\n\n    function funds(address propietario) public view returns (uint256){\n        return balanceOf(propietario, 0);\n    }\n\n    function price(uint256 id) public view returns (uint256){\n        return _price[id];\n    }\n\n    function addFunds() public payable onlyAdmin{\n        _mint(msg.sender, 0, 100, \"\");\n    }\n\n\n    function buy(uint tokenId) public payable {\n        //Ahora la transaccin de las monedas\n        safeTransferFrom(msg.sender, _seller[tokenId+1], 0, _price[tokenId+1], \"\");\n        _safeTransferFrom(_property[tokenId+1], msg.sender, tokenId+1, 1, \"\");\n        _property[tokenId+1] = msg.sender;\n    }\n\n    function permission(uint256 tokenId) public {\n        _seller[tokenId + 1] = _property[tokenId+1];\n        _property[tokenId+1] = address(this);\n        safeTransferFrom(msg.sender, _property[tokenId+1], tokenId + 1, 1, \"\");\n    }\n\n    function updatePrice(uint newPrice, uint256 tokenId) public {\n        _price[tokenId+1] = newPrice;\n    }\n\n}",
  "sourcePath": "/Users/ignacio/Desktop/TFG1155/src/contracts/TFG.sol",
  "compiler": {
    "name": "solc",
    "version": "0.8.13+commit.abaa5c0e.Emscripten.clang"
  },
  "schemaVersion": "3.4.2",
  "updatedAt": "2022-04-05T09:04:30.545Z",
  "networkType": "ethereum",
  "devdoc": {
    "kind": "dev",
    "methods": {
      "balanceOf(address,uint256)": {
        "details": "See {IERC1155-balanceOf}. Requirements: - `account` cannot be the zero address."
      },
      "balanceOfBatch(address[],uint256[])": {
        "details": "See {IERC1155-balanceOfBatch}. Requirements: - `accounts` and `ids` must have the same length."
      },
      "isApprovedForAll(address,address)": {
        "details": "See {IERC1155-isApprovedForAll}."
      },
      "owner()": {
        "details": "Returns the address of the current owner."
      },
      "renounceOwnership()": {
        "details": "Leaves the contract without owner. It will not be possible to call `onlyOwner` functions anymore. Can only be called by the current owner. NOTE: Renouncing ownership will leave the contract without an owner, thereby removing any functionality that is only available to the owner."
      },
      "safeBatchTransferFrom(address,address,uint256[],uint256[],bytes)": {
        "details": "See {IERC1155-safeBatchTransferFrom}."
      },
      "safeTransferFrom(address,address,uint256,uint256,bytes)": {
        "details": "See {IERC1155-safeTransferFrom}."
      },
      "setApprovalForAll(address,bool)": {
        "details": "See {IERC1155-setApprovalForAll}."
      },
      "transferOwnership(address)": {
        "details": "Transfers ownership of the contract to a new account (`newOwner`). Can only be called by the current owner."
      },
      "uri(uint256)": {
        "details": "See {IERC1155MetadataURI-uri}. This implementation returns the same URI for *all* token types. It relies on the token type ID substitution mechanism https://eips.ethereum.org/EIPS/eip-1155#metadata[defined in the EIP]. Clients calling this function must replace the `\\{id\\}` substring with the actual token type ID."
      }
    },
    "version": 1
  },
  "userdoc": {
    "kind": "user",
    "methods": {},
    "version": 1
  }
}