{
  "contractName": "TFG",
  "abi": [
    {
      "inputs": [],
      "stateMutability": "nonpayable",
      "type": "constructor"
    },
    {
      "anonymous": false,
      "inputs": [
        {
          "indexed": true,
          "internalType": "address",
          "name": "account",
          "type": "address"
        },
        {
          "indexed": true,
          "internalType": "address",
          "name": "operator",
          "type": "address"
        },
        {
          "indexed": false,
          "internalType": "bool",
          "name": "approved",
          "type": "bool"
        }
      ],
      "name": "ApprovalForAll",
      "type": "event"
    },
    {
      "anonymous": false,
      "inputs": [
        {
          "indexed": true,
          "internalType": "address",
          "name": "previousOwner",
          "type": "address"
        },
        {
          "indexed": true,
          "internalType": "address",
          "name": "newOwner",
          "type": "address"
        }
      ],
      "name": "OwnershipTransferred",
      "type": "event"
    },
    {
      "anonymous": false,
      "inputs": [
        {
          "indexed": true,
          "internalType": "address",
          "name": "operator",
          "type": "address"
        },
        {
          "indexed": true,
          "internalType": "address",
          "name": "from",
          "type": "address"
        },
        {
          "indexed": true,
          "internalType": "address",
          "name": "to",
          "type": "address"
        },
        {
          "indexed": false,
          "internalType": "uint256[]",
          "name": "ids",
          "type": "uint256[]"
        },
        {
          "indexed": false,
          "internalType": "uint256[]",
          "name": "values",
          "type": "uint256[]"
        }
      ],
      "name": "TransferBatch",
      "type": "event"
    },
    {
      "anonymous": false,
      "inputs": [
        {
          "indexed": true,
          "internalType": "address",
          "name": "operator",
          "type": "address"
        },
        {
          "indexed": true,
          "internalType": "address",
          "name": "from",
          "type": "address"
        },
        {
          "indexed": true,
          "internalType": "address",
          "name": "to",
          "type": "address"
        },
        {
          "indexed": false,
          "internalType": "uint256",
          "name": "id",
          "type": "uint256"
        },
        {
          "indexed": false,
          "internalType": "uint256",
          "name": "value",
          "type": "uint256"
        }
      ],
      "name": "TransferSingle",
      "type": "event"
    },
    {
      "anonymous": false,
      "inputs": [
        {
          "indexed": false,
          "internalType": "string",
          "name": "value",
          "type": "string"
        },
        {
          "indexed": true,
          "internalType": "uint256",
          "name": "id",
          "type": "uint256"
        }
      ],
      "name": "URI",
      "type": "event"
    },
    {
      "inputs": [],
      "name": "addressC",
      "outputs": [
        {
          "internalType": "address",
          "name": "",
          "type": "address"
        }
      ],
      "stateMutability": "view",
      "type": "function",
      "constant": true
    },
    {
      "inputs": [],
      "name": "admin",
      "outputs": [
        {
          "internalType": "address",
          "name": "",
          "type": "address"
        }
      ],
      "stateMutability": "view",
      "type": "function",
      "constant": true
    },
    {
      "inputs": [
        {
          "internalType": "address",
          "name": "account",
          "type": "address"
        },
        {
          "internalType": "uint256",
          "name": "id",
          "type": "uint256"
        }
      ],
      "name": "balanceOf",
      "outputs": [
        {
          "internalType": "uint256",
          "name": "",
          "type": "uint256"
        }
      ],
      "stateMutability": "view",
      "type": "function",
      "constant": true
    },
    {
      "inputs": [
        {
          "internalType": "address[]",
          "name": "accounts",
          "type": "address[]"
        },
        {
          "internalType": "uint256[]",
          "name": "ids",
          "type": "uint256[]"
        }
      ],
      "name": "balanceOfBatch",
      "outputs": [
        {
          "internalType": "uint256[]",
          "name": "",
          "type": "uint256[]"
        }
      ],
      "stateMutability": "view",
      "type": "function",
      "constant": true
    },
    {
      "inputs": [
        {
          "internalType": "uint256",
          "name": "",
          "type": "uint256"
        }
      ],
      "name": "colors",
      "outputs": [
        {
          "internalType": "string",
          "name": "",
          "type": "string"
        }
      ],
      "stateMutability": "view",
      "type": "function",
      "constant": true
    },
    {
      "inputs": [],
      "name": "count",
      "outputs": [
        {
          "internalType": "uint256",
          "name": "",
          "type": "uint256"
        }
      ],
      "stateMutability": "view",
      "type": "function",
      "constant": true
    },
    {
      "inputs": [
        {
          "internalType": "address",
          "name": "account",
          "type": "address"
        },
        {
          "internalType": "address",
          "name": "operator",
          "type": "address"
        }
      ],
      "name": "isApprovedForAll",
      "outputs": [
        {
          "internalType": "bool",
          "name": "",
          "type": "bool"
        }
      ],
      "stateMutability": "view",
      "type": "function",
      "constant": true
    },
    {
      "inputs": [],
      "name": "moneda",
      "outputs": [
        {
          "internalType": "uint256",
          "name": "",
          "type": "uint256"
        }
      ],
      "stateMutability": "view",
      "type": "function",
      "constant": true
    },
    {
      "inputs": [
        {
          "internalType": "address",
          "name": "",
          "type": "address"
        },
        {
          "internalType": "address",
          "name": "",
          "type": "address"
        },
        {
          "internalType": "uint256[]",
          "name": "",
          "type": "uint256[]"
        },
        {
          "internalType": "uint256[]",
          "name": "",
          "type": "uint256[]"
        },
        {
          "internalType": "bytes",
          "name": "",
          "type": "bytes"
        }
      ],
      "name": "onERC1155BatchReceived",
      "outputs": [
        {
          "internalType": "bytes4",
          "name": "",
          "type": "bytes4"
        }
      ],
      "stateMutability": "nonpayable",
      "type": "function"
    },
    {
      "inputs": [
        {
          "internalType": "address",
          "name": "",
          "type": "address"
        },
        {
          "internalType": "address",
          "name": "",
          "type": "address"
        },
        {
          "internalType": "uint256",
          "name": "",
          "type": "uint256"
        },
        {
          "internalType": "uint256",
          "name": "",
          "type": "uint256"
        },
        {
          "internalType": "bytes",
          "name": "",
          "type": "bytes"
        }
      ],
      "name": "onERC1155Received",
      "outputs": [
        {
          "internalType": "bytes4",
          "name": "",
          "type": "bytes4"
        }
      ],
      "stateMutability": "nonpayable",
      "type": "function"
    },
    {
      "inputs": [],
      "name": "owner",
      "outputs": [
        {
          "internalType": "address",
          "name": "",
          "type": "address"
        }
      ],
      "stateMutability": "view",
      "type": "function",
      "constant": true
    },
    {
      "inputs": [],
      "name": "renounceOwnership",
      "outputs": [],
      "stateMutability": "nonpayable",
      "type": "function"
    },
    {
      "inputs": [
        {
          "internalType": "address",
          "name": "from",
          "type": "address"
        },
        {
          "internalType": "address",
          "name": "to",
          "type": "address"
        },
        {
          "internalType": "uint256[]",
          "name": "ids",
          "type": "uint256[]"
        },
        {
          "internalType": "uint256[]",
          "name": "amounts",
          "type": "uint256[]"
        },
        {
          "internalType": "bytes",
          "name": "data",
          "type": "bytes"
        }
      ],
      "name": "safeBatchTransferFrom",
      "outputs": [],
      "stateMutability": "nonpayable",
      "type": "function"
    },
    {
      "inputs": [
        {
          "internalType": "address",
          "name": "from",
          "type": "address"
        },
        {
          "internalType": "address",
          "name": "to",
          "type": "address"
        },
        {
          "internalType": "uint256",
          "name": "id",
          "type": "uint256"
        },
        {
          "internalType": "uint256",
          "name": "amount",
          "type": "uint256"
        },
        {
          "internalType": "bytes",
          "name": "data",
          "type": "bytes"
        }
      ],
      "name": "safeTransferFrom",
      "outputs": [],
      "stateMutability": "nonpayable",
      "type": "function"
    },
    {
      "inputs": [
        {
          "internalType": "address",
          "name": "operator",
          "type": "address"
        },
        {
          "internalType": "bool",
          "name": "approved",
          "type": "bool"
        }
      ],
      "name": "setApprovalForAll",
      "outputs": [],
      "stateMutability": "nonpayable",
      "type": "function"
    },
    {
      "inputs": [
        {
          "internalType": "address",
          "name": "newOwner",
          "type": "address"
        }
      ],
      "name": "transferOwnership",
      "outputs": [],
      "stateMutability": "nonpayable",
      "type": "function"
    },
    {
      "inputs": [
        {
          "internalType": "uint256",
          "name": "",
          "type": "uint256"
        }
      ],
      "name": "uri",
      "outputs": [
        {
          "internalType": "string",
          "name": "",
          "type": "string"
        }
      ],
      "stateMutability": "view",
      "type": "function",
      "constant": true
    },
    {
      "inputs": [
        {
          "internalType": "bytes4",
          "name": "interfaceId",
          "type": "bytes4"
        }
      ],
      "name": "supportsInterface",
      "outputs": [
        {
          "internalType": "bool",
          "name": "",
          "type": "bool"
        }
      ],
      "stateMutability": "view",
      "type": "function",
      "constant": true
    },
    {
      "inputs": [
        {
          "internalType": "string",
          "name": "_color",
          "type": "string"
        },
        {
          "internalType": "uint256",
          "name": "precio",
          "type": "uint256"
        }
      ],
      "name": "nuevoColor",
      "outputs": [],
      "stateMutability": "nonpayable",
      "type": "function"
    },
    {
      "inputs": [],
      "name": "totalSupply",
      "outputs": [
        {
          "internalType": "uint256",
          "name": "",
          "type": "uint256"
        }
      ],
      "stateMutability": "view",
      "type": "function",
      "constant": true
    },
    {
      "inputs": [
        {
          "internalType": "uint256",
          "name": "id",
          "type": "uint256"
        }
      ],
      "name": "property",
      "outputs": [
        {
          "internalType": "address",
          "name": "",
          "type": "address"
        }
      ],
      "stateMutability": "view",
      "type": "function",
      "constant": true
    },
    {
      "inputs": [
        {
          "internalType": "address",
          "name": "propietario",
          "type": "address"
        }
      ],
      "name": "funds",
      "outputs": [
        {
          "internalType": "uint256",
          "name": "",
          "type": "uint256"
        }
      ],
      "stateMutability": "view",
      "type": "function",
      "constant": true
    },
    {
      "inputs": [
        {
          "internalType": "uint256",
          "name": "id",
          "type": "uint256"
        }
      ],
      "name": "price",
      "outputs": [
        {
          "internalType": "uint256",
          "name": "",
          "type": "uint256"
        }
      ],
      "stateMutability": "view",
      "type": "function",
      "constant": true
    },
    {
      "inputs": [],
      "name": "addFunds",
      "outputs": [],
      "stateMutability": "payable",
      "type": "function",
      "payable": true
    },
    {
      "inputs": [
        {
          "internalType": "uint256",
          "name": "tokenId",
          "type": "uint256"
        }
      ],
      "name": "buy",
      "outputs": [],
      "stateMutability": "payable",
      "type": "function",
      "payable": true
    },
    {
      "inputs": [
        {
          "internalType": "uint256",
          "name": "tokenId",
          "type": "uint256"
        }
      ],
      "name": "permission",
      "outputs": [],
      "stateMutability": "nonpayable",
      "type": "function"
    },
    {
      "inputs": [
        {
          "internalType": "uint256",
          "name": "newPrice",
          "type": "uint256"
        },
        {
          "internalType": "uint256",
          "name": "tokenId",
          "type": "uint256"
        }
      ],
      "name": "updatePrice",
      "outputs": [],
      "stateMutability": "nonpayable",
      "type": "function"
    }
  ],
  "bytecode": "0x60806040523480156200001157600080fd5b506040518060200160405280600081525062000033816200010960201b60201c565b5062000054620000486200012560201b60201c565b6200012d60201b60201c565b30600560006101000a81548173ffffffffffffffffffffffffffffffffffffffff021916908373ffffffffffffffffffffffffffffffffffffffff16021790555033600460006101000a81548173ffffffffffffffffffffffffffffffffffffffff021916908373ffffffffffffffffffffffffffffffffffffffff160217905550600160068190555062000103336000606460405180602001604052806000815250620001f360201b60201c565b62000dd9565b8060029080519060200190620001219291906200065c565b5050565b600033905090565b6000600360009054906101000a900473ffffffffffffffffffffffffffffffffffffffff16905081600360006101000a81548173ffffffffffffffffffffffffffffffffffffffff021916908373ffffffffffffffffffffffffffffffffffffffff1602179055508173ffffffffffffffffffffffffffffffffffffffff168173ffffffffffffffffffffffffffffffffffffffff167f8be0079c531659141344cd1fd0a4f28419497f9722a3daafe3b4186f6b6457e060405160405180910390a35050565b600073ffffffffffffffffffffffffffffffffffffffff168473ffffffffffffffffffffffffffffffffffffffff160362000265576040517f08c379a00000000000000000000000000000000000000000000000000000000081526004016200025c9062000793565b60405180910390fd5b6000620002776200012560201b60201c565b9050620002b0816000876200029288620003b760201b60201c565b620002a388620003b760201b60201c565b876200043860201b60201c565b8260008086815260200190815260200160002060008773ffffffffffffffffffffffffffffffffffffffff1673ffffffffffffffffffffffffffffffffffffffff1681526020019081526020016000206000828254620003119190620007ee565b925050819055508473ffffffffffffffffffffffffffffffffffffffff16600073ffffffffffffffffffffffffffffffffffffffff168273ffffffffffffffffffffffffffffffffffffffff167fc3d58168c5ae7397731d063d5bbf3d657854427343f4c083240f7aacaa2d0f628787604051620003919291906200085c565b60405180910390a4620003b0816000878787876200044060201b60201c565b5050505050565b60606000600167ffffffffffffffff811115620003d957620003d862000889565b5b604051908082528060200260200182016040528015620004085781602001602082028036833780820191505090505b5090508281600081518110620004235762000422620008b8565b5b60200260200101818152505080915050919050565b505050505050565b6200046c8473ffffffffffffffffffffffffffffffffffffffff166200063960201b6200132a1760201c565b1562000631578373ffffffffffffffffffffffffffffffffffffffff1663f23a6e6187878686866040518663ffffffff1660e01b8152600401620004b5959493929190620009d0565b6020604051808303816000875af1925050508015620004f457506040513d601f19601f82011682018060405250810190620004f1919062000aa0565b60015b620005a5576200050362000adf565b806308c379a0036200056657506200051a62000b3a565b8062000527575062000568565b806040517f08c379a00000000000000000000000000000000000000000000000000000000081526004016200055d919062000c21565b60405180910390fd5b505b6040517f08c379a00000000000000000000000000000000000000000000000000000000081526004016200059c9062000cbb565b60405180910390fd5b63f23a6e6160e01b7bffffffffffffffffffffffffffffffffffffffffffffffffffffffff1916817bffffffffffffffffffffffffffffffffffffffffffffffffffffffff1916146200062f576040517f08c379a0000000000000000000000000000000000000000000000000000000008152600401620006269062000d53565b60405180910390fd5b505b505050505050565b6000808273ffffffffffffffffffffffffffffffffffffffff163b119050919050565b8280546200066a9062000da4565b90600052602060002090601f0160209004810192826200068e5760008555620006da565b82601f10620006a957805160ff1916838001178555620006da565b82800160010185558215620006da579182015b82811115620006d9578251825591602001919060010190620006bc565b5b509050620006e99190620006ed565b5090565b5b8082111562000708576000816000905550600101620006ee565b5090565b600082825260208201905092915050565b7f455243313135353a206d696e7420746f20746865207a65726f2061646472657360008201527f7300000000000000000000000000000000000000000000000000000000000000602082015250565b60006200077b6021836200070c565b915062000788826200071d565b604082019050919050565b60006020820190508181036000830152620007ae816200076c565b9050919050565b6000819050919050565b7f4e487b7100000000000000000000000000000000000000000000000000000000600052601160045260246000fd5b6000620007fb82620007b5565b91506200080883620007b5565b9250827fffffffffffffffffffffffffffffffffffffffffffffffffffffffffffffffff0382111562000840576200083f620007bf565b5b828201905092915050565b6200085681620007b5565b82525050565b60006040820190506200087360008301856200084b565b6200088260208301846200084b565b9392505050565b7f4e487b7100000000000000000000000000000000000000000000000000000000600052604160045260246000fd5b7f4e487b7100000000000000000000000000000000000000000000000000000000600052603260045260246000fd5b600073ffffffffffffffffffffffffffffffffffffffff82169050919050565b60006200091482620008e7565b9050919050565b620009268162000907565b82525050565b600081519050919050565b600082825260208201905092915050565b60005b83811015620009685780820151818401526020810190506200094b565b8381111562000978576000848401525b50505050565b6000601f19601f8301169050919050565b60006200099c826200092c565b620009a8818562000937565b9350620009ba81856020860162000948565b620009c5816200097e565b840191505092915050565b600060a082019050620009e760008301886200091b565b620009f660208301876200091b565b62000a0560408301866200084b565b62000a1460608301856200084b565b818103608083015262000a2881846200098f565b90509695505050505050565b6000604051905090565b600080fd5b60007fffffffff0000000000000000000000000000000000000000000000000000000082169050919050565b62000a7a8162000a43565b811462000a8657600080fd5b50565b60008151905062000a9a8162000a6f565b92915050565b60006020828403121562000ab95762000ab862000a3e565b5b600062000ac98482850162000a89565b91505092915050565b60008160e01c9050919050565b600060033d111562000b015760046000803e62000afe60005162000ad2565b90505b90565b62000b0f826200097e565b810181811067ffffffffffffffff8211171562000b315762000b3062000889565b5b80604052505050565b600060443d1062000bd25762000b4f62000a34565b60043d036004823e80513d602482011167ffffffffffffffff8211171562000b7957505062000bd2565b808201805167ffffffffffffffff81111562000b99575050505062000bd2565b80602083010160043d03850181111562000bb857505050505062000bd2565b62000bc98260200185018662000b04565b82955050505050505b90565b600081519050919050565b600062000bed8262000bd5565b62000bf981856200070c565b935062000c0b81856020860162000948565b62000c16816200097e565b840191505092915050565b6000602082019050818103600083015262000c3d818462000be0565b905092915050565b7f455243313135353a207472616e7366657220746f206e6f6e204552433131353560008201527f526563656976657220696d706c656d656e746572000000000000000000000000602082015250565b600062000ca36034836200070c565b915062000cb08262000c45565b604082019050919050565b6000602082019050818103600083015262000cd68162000c94565b9050919050565b7f455243313135353a204552433131353552656365697665722072656a6563746560008201527f6420746f6b656e73000000000000000000000000000000000000000000000000602082015250565b600062000d3b6028836200070c565b915062000d488262000cdd565b604082019050919050565b6000602082019050818103600083015262000d6e8162000d2c565b9050919050565b7f4e487b7100000000000000000000000000000000000000000000000000000000600052602260045260246000fd5b6000600282049050600182168062000dbd57607f821691505b60208210810362000dd35762000dd262000d75565b5b50919050565b6139f38062000de96000396000f3fe60806040526004361061019b5760003560e01c8063a22cb465116100ec578063e2ae93fb1161008a578063f23a6e6111610064578063f23a6e61146105e3578063f242432a14610620578063f2fde38b14610649578063f851a440146106725761019b565b8063e2ae93fb1461053e578063e985e9c51461057b578063f1cc1268146105b85761019b565b8063bc197c81116100c6578063bc197c811461047d578063bd11f69d146104ba578063c79fc609146104f7578063d96a094a146105225761019b565b8063a22cb46514610421578063a26759cb1461044a578063b54bbdc7146104545761019b565b80632eb2c2d611610159578063715018a611610133578063715018a61461038d5780637d38c997146103a457806382367b2d146103cd5780638da5cb5b146103f65761019b565b80632eb2c2d6146102ea57806330e1ad32146103135780634e1273f4146103505761019b565b8062fdd58e146101a057806301ffc9a7146101dd57806306661abd1461021a5780630e89341c1461024557806318160ddd1461028257806326a49e37146102ad575b600080fd5b3480156101ac57600080fd5b506101c760048036038101906101c291906123f1565b61069d565b6040516101d49190612440565b60405180910390f35b3480156101e957600080fd5b5061020460048036038101906101ff91906124b3565b610765565b60405161021191906124fb565b60405180910390f35b34801561022657600080fd5b5061022f610777565b60405161023c9190612440565b60405180910390f35b34801561025157600080fd5b5061026c60048036038101906102679190612516565b61077d565b60405161027991906125dc565b60405180910390f35b34801561028e57600080fd5b50610297610811565b6040516102a49190612440565b60405180910390f35b3480156102b957600080fd5b506102d460048036038101906102cf9190612516565b61081e565b6040516102e19190612440565b60405180910390f35b3480156102f657600080fd5b50610311600480360381019061030c91906127fb565b61083b565b005b34801561031f57600080fd5b5061033a60048036038101906103359190612516565b6108dc565b60405161034791906128d9565b60405180910390f35b34801561035c57600080fd5b50610377600480360381019061037291906129b7565b610919565b6040516103849190612aed565b60405180910390f35b34801561039957600080fd5b506103a2610a32565b005b3480156103b057600080fd5b506103cb60048036038101906103c69190612516565b610aba565b005b3480156103d957600080fd5b506103f460048036038101906103ef9190612b0f565b610c20565b005b34801561040257600080fd5b5061040b610c48565b60405161041891906128d9565b60405180910390f35b34801561042d57600080fd5b5061044860048036038101906104439190612b7b565b610c72565b005b610452610c88565b005b34801561046057600080fd5b5061047b60048036038101906104769190612c5c565b610d37565b005b34801561048957600080fd5b506104a4600480360381019061049f91906127fb565b610e7f565b6040516104b19190612cc7565b60405180910390f35b3480156104c657600080fd5b506104e160048036038101906104dc9190612516565b610e94565b6040516104ee91906125dc565b60405180910390f35b34801561050357600080fd5b5061050c610f40565b60405161051991906128d9565b60405180910390f35b61053c60048036038101906105379190612516565b610f66565b005b34801561054a57600080fd5b5061056560048036038101906105609190612ce2565b6110aa565b6040516105729190612440565b60405180910390f35b34801561058757600080fd5b506105a2600480360381019061059d9190612d0f565b6110be565b6040516105af91906124fb565b60405180910390f35b3480156105c457600080fd5b506105cd611152565b6040516105da9190612440565b60405180910390f35b3480156105ef57600080fd5b5061060a60048036038101906106059190612d4f565b611157565b6040516106179190612cc7565b60405180910390f35b34801561062c57600080fd5b5061064760048036038101906106429190612d4f565b61116c565b005b34801561065557600080fd5b50610670600480360381019061066b9190612ce2565b61120d565b005b34801561067e57600080fd5b50610687611304565b60405161069491906128d9565b60405180910390f35b60008073ffffffffffffffffffffffffffffffffffffffff168373ffffffffffffffffffffffffffffffffffffffff160361070d576040517f08c379a000000000000000000000000000000000000000000000000000000000815260040161070490612e58565b60405180910390fd5b60008083815260200190815260200160002060008473ffffffffffffffffffffffffffffffffffffffff1673ffffffffffffffffffffffffffffffffffffffff16815260200190815260200160002054905092915050565b60006107708261134d565b9050919050565b60065481565b60606002805461078c90612ea7565b80601f01602080910402602001604051908101604052809291908181526020018280546107b890612ea7565b80156108055780601f106107da57610100808354040283529160200191610805565b820191906000526020600020905b8154815290600101906020018083116107e857829003601f168201915b50505050509050919050565b6000600780549050905090565b6000600a6000838152602001908152602001600020549050919050565b6108436113c7565b73ffffffffffffffffffffffffffffffffffffffff168573ffffffffffffffffffffffffffffffffffffffff1614806108895750610888856108836113c7565b6110be565b5b6108c8576040517f08c379a00000000000000000000000000000000000000000000000000000000081526004016108bf90612f4a565b60405180910390fd5b6108d585858585856113cf565b5050505050565b6000600b600083815260200190815260200160002060009054906101000a900473ffffffffffffffffffffffffffffffffffffffff169050919050565b6060815183511461095f576040517f08c379a000000000000000000000000000000000000000000000000000000000815260040161095690612fdc565b60405180910390fd5b6000835167ffffffffffffffff81111561097c5761097b612603565b5b6040519080825280602002602001820160405280156109aa5781602001602082028036833780820191505090505b50905060005b8451811015610a27576109f78582815181106109cf576109ce612ffc565b5b60200260200101518583815181106109ea576109e9612ffc565b5b602002602001015161069d565b828281518110610a0a57610a09612ffc565b5b60200260200101818152505080610a209061305a565b90506109b0565b508091505092915050565b610a3a6113c7565b73ffffffffffffffffffffffffffffffffffffffff16610a58610c48565b73ffffffffffffffffffffffffffffffffffffffff1614610aae576040517f08c379a0000000000000000000000000000000000000000000000000000000008152600401610aa5906130ee565b60405180910390fd5b610ab860006116e2565b565b600b6000600183610acb919061310e565b815260200190815260200160002060009054906101000a900473ffffffffffffffffffffffffffffffffffffffff1660086000600184610b0b919061310e565b815260200190815260200160002060006101000a81548173ffffffffffffffffffffffffffffffffffffffff021916908373ffffffffffffffffffffffffffffffffffffffff16021790555030600b6000600184610b69919061310e565b815260200190815260200160002060006101000a81548173ffffffffffffffffffffffffffffffffffffffff021916908373ffffffffffffffffffffffffffffffffffffffff160217905550610c1d33600b6000600185610bca919061310e565b815260200190815260200160002060009054906101000a900473ffffffffffffffffffffffffffffffffffffffff16600184610c06919061310e565b60016040518060200160405280600081525061116c565b50565b81600a6000600184610c32919061310e565b8152602001908152602001600020819055505050565b6000600360009054906101000a900473ffffffffffffffffffffffffffffffffffffffff16905090565b610c84610c7d6113c7565b83836117a8565b5050565b600460009054906101000a900473ffffffffffffffffffffffffffffffffffffffff1673ffffffffffffffffffffffffffffffffffffffff163373ffffffffffffffffffffffffffffffffffffffff1614610d18576040517f08c379a0000000000000000000000000000000000000000000000000000000008152600401610d0f906131b0565b60405180910390fd5b610d35336000606460405180602001604052806000815250611914565b565b600982604051610d47919061320c565b908152602001604051809103902060009054906101000a900460ff1615610d6d57600080fd5b600782908060018154018082558091505060019003906000526020600020016000909190919091509080519060200190610da89291906122a6565b5080600a600060065481526020019081526020016000208190555033600b6000600654815260200190815260200160002060006101000a81548173ffffffffffffffffffffffffffffffffffffffff021916908373ffffffffffffffffffffffffffffffffffffffff1602179055506000829050610e2b33600654600184611914565b60066000815480929190610e3e9061305a565b91905055506001600984604051610e55919061320c565b908152602001604051809103902060006101000a81548160ff021916908315150217905550505050565b600063bc197c8160e01b905095945050505050565b60078181548110610ea457600080fd5b906000526020600020016000915090508054610ebf90612ea7565b80601f0160208091040260200160405190810160405280929190818152602001828054610eeb90612ea7565b8015610f385780601f10610f0d57610100808354040283529160200191610f38565b820191906000526020600020905b815481529060010190602001808311610f1b57829003601f168201915b505050505081565b600560009054906101000a900473ffffffffffffffffffffffffffffffffffffffff1681565b610fe13360086000600185610f7b919061310e565b815260200190815260200160002060009054906101000a900473ffffffffffffffffffffffffffffffffffffffff166000600a6000600187610fbd919061310e565b8152602001908152602001600020546040518060200160405280600081525061116c565b611049600b6000600184610ff5919061310e565b815260200190815260200160002060009054906101000a900473ffffffffffffffffffffffffffffffffffffffff1633600184611032919061310e565b600160405180602001604052806000815250611aa9565b33600b600060018461105b919061310e565b815260200190815260200160002060006101000a81548173ffffffffffffffffffffffffffffffffffffffff021916908373ffffffffffffffffffffffffffffffffffffffff16021790555050565b60006110b782600061069d565b9050919050565b6000600160008473ffffffffffffffffffffffffffffffffffffffff1673ffffffffffffffffffffffffffffffffffffffff16815260200190815260200160002060008373ffffffffffffffffffffffffffffffffffffffff1673ffffffffffffffffffffffffffffffffffffffff16815260200190815260200160002060009054906101000a900460ff16905092915050565b600081565b600063f23a6e6160e01b905095945050505050565b6111746113c7565b73ffffffffffffffffffffffffffffffffffffffff168573ffffffffffffffffffffffffffffffffffffffff1614806111ba57506111b9856111b46113c7565b6110be565b5b6111f9576040517f08c379a00000000000000000000000000000000000000000000000000000000081526004016111f090613295565b60405180910390fd5b6112068585858585611aa9565b5050505050565b6112156113c7565b73ffffffffffffffffffffffffffffffffffffffff16611233610c48565b73ffffffffffffffffffffffffffffffffffffffff1614611289576040517f08c379a0000000000000000000000000000000000000000000000000000000008152600401611280906130ee565b60405180910390fd5b600073ffffffffffffffffffffffffffffffffffffffff168173ffffffffffffffffffffffffffffffffffffffff16036112f8576040517f08c379a00000000000000000000000000000000000000000000000000000000081526004016112ef90613327565b60405180910390fd5b611301816116e2565b50565b600460009054906101000a900473ffffffffffffffffffffffffffffffffffffffff1681565b6000808273ffffffffffffffffffffffffffffffffffffffff163b119050919050565b60007f4e2312e0000000000000000000000000000000000000000000000000000000007bffffffffffffffffffffffffffffffffffffffffffffffffffffffff1916827bffffffffffffffffffffffffffffffffffffffffffffffffffffffff191614806113c057506113bf82611d2a565b5b9050919050565b600033905090565b8151835114611413576040517f08c379a000000000000000000000000000000000000000000000000000000000815260040161140a906133b9565b60405180910390fd5b600073ffffffffffffffffffffffffffffffffffffffff168473ffffffffffffffffffffffffffffffffffffffff1603611482576040517f08c379a00000000000000000000000000000000000000000000000000000000081526004016114799061344b565b60405180910390fd5b600061148c6113c7565b905061149c818787878787611e0c565b60005b845181101561164d5760008582815181106114bd576114bc612ffc565b5b6020026020010151905060008583815181106114dc576114db612ffc565b5b60200260200101519050600080600084815260200190815260200160002060008b73ffffffffffffffffffffffffffffffffffffffff1673ffffffffffffffffffffffffffffffffffffffff1681526020019081526020016000205490508181101561157d576040517f08c379a0000000000000000000000000000000000000000000000000000000008152600401611574906134dd565b60405180910390fd5b81810360008085815260200190815260200160002060008c73ffffffffffffffffffffffffffffffffffffffff1673ffffffffffffffffffffffffffffffffffffffff168152602001908152602001600020819055508160008085815260200190815260200160002060008b73ffffffffffffffffffffffffffffffffffffffff1673ffffffffffffffffffffffffffffffffffffffff1681526020019081526020016000206000828254611632919061310e565b92505081905550505050806116469061305a565b905061149f565b508473ffffffffffffffffffffffffffffffffffffffff168673ffffffffffffffffffffffffffffffffffffffff168273ffffffffffffffffffffffffffffffffffffffff167f4a39dc06d4c0dbc64b70af90fd698a233a518aa5d07e595d983b8c0526c8f7fb87876040516116c49291906134fd565b60405180910390a46116da818787878787611e14565b505050505050565b6000600360009054906101000a900473ffffffffffffffffffffffffffffffffffffffff16905081600360006101000a81548173ffffffffffffffffffffffffffffffffffffffff021916908373ffffffffffffffffffffffffffffffffffffffff1602179055508173ffffffffffffffffffffffffffffffffffffffff168173ffffffffffffffffffffffffffffffffffffffff167f8be0079c531659141344cd1fd0a4f28419497f9722a3daafe3b4186f6b6457e060405160405180910390a35050565b8173ffffffffffffffffffffffffffffffffffffffff168373ffffffffffffffffffffffffffffffffffffffff1603611816576040517f08c379a000000000000000000000000000000000000000000000000000000000815260040161180d906135a6565b60405180910390fd5b80600160008573ffffffffffffffffffffffffffffffffffffffff1673ffffffffffffffffffffffffffffffffffffffff16815260200190815260200160002060008473ffffffffffffffffffffffffffffffffffffffff1673ffffffffffffffffffffffffffffffffffffffff16815260200190815260200160002060006101000a81548160ff0219169083151502179055508173ffffffffffffffffffffffffffffffffffffffff168373ffffffffffffffffffffffffffffffffffffffff167f17307eab39ab6107e8899845ad3d59bd9653f200f220920489ca2b5937696c318360405161190791906124fb565b60405180910390a3505050565b600073ffffffffffffffffffffffffffffffffffffffff168473ffffffffffffffffffffffffffffffffffffffff1603611983576040517f08c379a000000000000000000000000000000000000000000000000000000000815260040161197a90613638565b60405180910390fd5b600061198d6113c7565b90506119ae8160008761199f88611feb565b6119a888611feb565b87611e0c565b8260008086815260200190815260200160002060008773ffffffffffffffffffffffffffffffffffffffff1673ffffffffffffffffffffffffffffffffffffffff1681526020019081526020016000206000828254611a0d919061310e565b925050819055508473ffffffffffffffffffffffffffffffffffffffff16600073ffffffffffffffffffffffffffffffffffffffff168273ffffffffffffffffffffffffffffffffffffffff167fc3d58168c5ae7397731d063d5bbf3d657854427343f4c083240f7aacaa2d0f628787604051611a8b929190613658565b60405180910390a4611aa281600087878787612065565b5050505050565b600073ffffffffffffffffffffffffffffffffffffffff168473ffffffffffffffffffffffffffffffffffffffff1603611b18576040517f08c379a0000000000000000000000000000000000000000000000000000000008152600401611b0f9061344b565b60405180910390fd5b6000611b226113c7565b9050611b42818787611b3388611feb565b611b3c88611feb565b87611e0c565b600080600086815260200190815260200160002060008873ffffffffffffffffffffffffffffffffffffffff1673ffffffffffffffffffffffffffffffffffffffff16815260200190815260200160002054905083811015611bd9576040517f08c379a0000000000000000000000000000000000000000000000000000000008152600401611bd0906134dd565b60405180910390fd5b83810360008087815260200190815260200160002060008973ffffffffffffffffffffffffffffffffffffffff1673ffffffffffffffffffffffffffffffffffffffff168152602001908152602001600020819055508360008087815260200190815260200160002060008873ffffffffffffffffffffffffffffffffffffffff1673ffffffffffffffffffffffffffffffffffffffff1681526020019081526020016000206000828254611c8e919061310e565b925050819055508573ffffffffffffffffffffffffffffffffffffffff168773ffffffffffffffffffffffffffffffffffffffff168373ffffffffffffffffffffffffffffffffffffffff167fc3d58168c5ae7397731d063d5bbf3d657854427343f4c083240f7aacaa2d0f628888604051611d0b929190613658565b60405180910390a4611d21828888888888612065565b50505050505050565b60007fd9b67a26000000000000000000000000000000000000000000000000000000007bffffffffffffffffffffffffffffffffffffffffffffffffffffffff1916827bffffffffffffffffffffffffffffffffffffffffffffffffffffffff19161480611df557507f0e89341c000000000000000000000000000000000000000000000000000000007bffffffffffffffffffffffffffffffffffffffffffffffffffffffff1916827bffffffffffffffffffffffffffffffffffffffffffffffffffffffff1916145b80611e055750611e048261223c565b5b9050919050565b505050505050565b611e338473ffffffffffffffffffffffffffffffffffffffff1661132a565b15611fe3578373ffffffffffffffffffffffffffffffffffffffff1663bc197c8187878686866040518663ffffffff1660e01b8152600401611e799594939291906136d6565b6020604051808303816000875af1925050508015611eb557506040513d601f19601f82011682018060405250810190611eb29190613753565b60015b611f5a57611ec161378d565b806308c379a003611f1d5750611ed56137af565b80611ee05750611f1f565b806040517f08c379a0000000000000000000000000000000000000000000000000000000008152600401611f1491906125dc565b60405180910390fd5b505b6040517f08c379a0000000000000000000000000000000000000000000000000000000008152600401611f51906138b1565b60405180910390fd5b63bc197c8160e01b7bffffffffffffffffffffffffffffffffffffffffffffffffffffffff1916817bffffffffffffffffffffffffffffffffffffffffffffffffffffffff191614611fe1576040517f08c379a0000000000000000000000000000000000000000000000000000000008152600401611fd890613943565b60405180910390fd5b505b505050505050565b60606000600167ffffffffffffffff81111561200a57612009612603565b5b6040519080825280602002602001820160405280156120385781602001602082028036833780820191505090505b50905082816000815181106120505761204f612ffc565b5b60200260200101818152505080915050919050565b6120848473ffffffffffffffffffffffffffffffffffffffff1661132a565b15612234578373ffffffffffffffffffffffffffffffffffffffff1663f23a6e6187878686866040518663ffffffff1660e01b81526004016120ca959493929190613963565b6020604051808303816000875af192505050801561210657506040513d601f19601f820116820180604052508101906121039190613753565b60015b6121ab5761211261378d565b806308c379a00361216e57506121266137af565b806121315750612170565b806040517f08c379a000000000000000000000000000000000000000000000000000000000815260040161216591906125dc565b60405180910390fd5b505b6040517f08c379a00000000000000000000000000000000000000000000000000000000081526004016121a2906138b1565b60405180910390fd5b63f23a6e6160e01b7bffffffffffffffffffffffffffffffffffffffffffffffffffffffff1916817bffffffffffffffffffffffffffffffffffffffffffffffffffffffff191614612232576040517f08c379a000000000000000000000000000000000000000000000000000000000815260040161222990613943565b60405180910390fd5b505b505050505050565b60007f01ffc9a7000000000000000000000000000000000000000000000000000000007bffffffffffffffffffffffffffffffffffffffffffffffffffffffff1916827bffffffffffffffffffffffffffffffffffffffffffffffffffffffff1916149050919050565b8280546122b290612ea7565b90600052602060002090601f0160209004810192826122d4576000855561231b565b82601f106122ed57805160ff191683800117855561231b565b8280016001018555821561231b579182015b8281111561231a5782518255916020019190600101906122ff565b5b509050612328919061232c565b5090565b5b8082111561234557600081600090555060010161232d565b5090565b6000604051905090565b600080fd5b600080fd5b600073ffffffffffffffffffffffffffffffffffffffff82169050919050565b60006123888261235d565b9050919050565b6123988161237d565b81146123a357600080fd5b50565b6000813590506123b58161238f565b92915050565b6000819050919050565b6123ce816123bb565b81146123d957600080fd5b50565b6000813590506123eb816123c5565b92915050565b6000806040838503121561240857612407612353565b5b6000612416858286016123a6565b9250506020612427858286016123dc565b9150509250929050565b61243a816123bb565b82525050565b60006020820190506124556000830184612431565b92915050565b60007fffffffff0000000000000000000000000000000000000000000000000000000082169050919050565b6124908161245b565b811461249b57600080fd5b50565b6000813590506124ad81612487565b92915050565b6000602082840312156124c9576124c8612353565b5b60006124d78482850161249e565b91505092915050565b60008115159050919050565b6124f5816124e0565b82525050565b600060208201905061251060008301846124ec565b92915050565b60006020828403121561252c5761252b612353565b5b600061253a848285016123dc565b91505092915050565b600081519050919050565b600082825260208201905092915050565b60005b8381101561257d578082015181840152602081019050612562565b8381111561258c576000848401525b50505050565b6000601f19601f8301169050919050565b60006125ae82612543565b6125b8818561254e565b93506125c881856020860161255f565b6125d181612592565b840191505092915050565b600060208201905081810360008301526125f681846125a3565b905092915050565b600080fd5b7f4e487b7100000000000000000000000000000000000000000000000000000000600052604160045260246000fd5b61263b82612592565b810181811067ffffffffffffffff8211171561265a57612659612603565b5b80604052505050565b600061266d612349565b90506126798282612632565b919050565b600067ffffffffffffffff82111561269957612698612603565b5b602082029050602081019050919050565b600080fd5b60006126c26126bd8461267e565b612663565b905080838252602082019050602084028301858111156126e5576126e46126aa565b5b835b8181101561270e57806126fa88826123dc565b8452602084019350506020810190506126e7565b5050509392505050565b600082601f83011261272d5761272c6125fe565b5b813561273d8482602086016126af565b91505092915050565b600080fd5b600067ffffffffffffffff82111561276657612765612603565b5b61276f82612592565b9050602081019050919050565b82818337600083830152505050565b600061279e6127998461274b565b612663565b9050828152602081018484840111156127ba576127b9612746565b5b6127c584828561277c565b509392505050565b600082601f8301126127e2576127e16125fe565b5b81356127f284826020860161278b565b91505092915050565b600080600080600060a0868803121561281757612816612353565b5b6000612825888289016123a6565b9550506020612836888289016123a6565b945050604086013567ffffffffffffffff81111561285757612856612358565b5b61286388828901612718565b935050606086013567ffffffffffffffff81111561288457612883612358565b5b61289088828901612718565b925050608086013567ffffffffffffffff8111156128b1576128b0612358565b5b6128bd888289016127cd565b9150509295509295909350565b6128d38161237d565b82525050565b60006020820190506128ee60008301846128ca565b92915050565b600067ffffffffffffffff82111561290f5761290e612603565b5b602082029050602081019050919050565b600061293361292e846128f4565b612663565b90508083825260208201905060208402830185811115612956576129556126aa565b5b835b8181101561297f578061296b88826123a6565b845260208401935050602081019050612958565b5050509392505050565b600082601f83011261299e5761299d6125fe565b5b81356129ae848260208601612920565b91505092915050565b600080604083850312156129ce576129cd612353565b5b600083013567ffffffffffffffff8111156129ec576129eb612358565b5b6129f885828601612989565b925050602083013567ffffffffffffffff811115612a1957612a18612358565b5b612a2585828601612718565b9150509250929050565b600081519050919050565b600082825260208201905092915050565b6000819050602082019050919050565b612a64816123bb565b82525050565b6000612a768383612a5b565b60208301905092915050565b6000602082019050919050565b6000612a9a82612a2f565b612aa48185612a3a565b9350612aaf83612a4b565b8060005b83811015612ae0578151612ac78882612a6a565b9750612ad283612a82565b925050600181019050612ab3565b5085935050505092915050565b60006020820190508181036000830152612b078184612a8f565b905092915050565b60008060408385031215612b2657612b25612353565b5b6000612b34858286016123dc565b9250506020612b45858286016123dc565b9150509250929050565b612b58816124e0565b8114612b6357600080fd5b50565b600081359050612b7581612b4f565b92915050565b60008060408385031215612b9257612b91612353565b5b6000612ba0858286016123a6565b9250506020612bb185828601612b66565b9150509250929050565b600067ffffffffffffffff821115612bd657612bd5612603565b5b612bdf82612592565b9050602081019050919050565b6000612bff612bfa84612bbb565b612663565b905082815260208101848484011115612c1b57612c1a612746565b5b612c2684828561277c565b509392505050565b600082601f830112612c4357612c426125fe565b5b8135612c53848260208601612bec565b91505092915050565b60008060408385031215612c7357612c72612353565b5b600083013567ffffffffffffffff811115612c9157612c90612358565b5b612c9d85828601612c2e565b9250506020612cae858286016123dc565b9150509250929050565b612cc18161245b565b82525050565b6000602082019050612cdc6000830184612cb8565b92915050565b600060208284031215612cf857612cf7612353565b5b6000612d06848285016123a6565b91505092915050565b60008060408385031215612d2657612d25612353565b5b6000612d34858286016123a6565b9250506020612d45858286016123a6565b9150509250929050565b600080600080600060a08688031215612d6b57612d6a612353565b5b6000612d79888289016123a6565b9550506020612d8a888289016123a6565b9450506040612d9b888289016123dc565b9350506060612dac888289016123dc565b925050608086013567ffffffffffffffff811115612dcd57612dcc612358565b5b612dd9888289016127cd565b9150509295509295909350565b7f455243313135353a2062616c616e636520717565727920666f7220746865207a60008201527f65726f2061646472657373000000000000000000000000000000000000000000602082015250565b6000612e42602b8361254e565b9150612e4d82612de6565b604082019050919050565b60006020820190508181036000830152612e7181612e35565b9050919050565b7f4e487b7100000000000000000000000000000000000000000000000000000000600052602260045260246000fd5b60006002820490506001821680612ebf57607f821691505b602082108103612ed257612ed1612e78565b5b50919050565b7f455243313135353a207472616e736665722063616c6c6572206973206e6f742060008201527f6f776e6572206e6f7220617070726f7665640000000000000000000000000000602082015250565b6000612f3460328361254e565b9150612f3f82612ed8565b604082019050919050565b60006020820190508181036000830152612f6381612f27565b9050919050565b7f455243313135353a206163636f756e747320616e6420696473206c656e67746860008201527f206d69736d617463680000000000000000000000000000000000000000000000602082015250565b6000612fc660298361254e565b9150612fd182612f6a565b604082019050919050565b60006020820190508181036000830152612ff581612fb9565b9050919050565b7f4e487b7100000000000000000000000000000000000000000000000000000000600052603260045260246000fd5b7f4e487b7100000000000000000000000000000000000000000000000000000000600052601160045260246000fd5b6000613065826123bb565b91507fffffffffffffffffffffffffffffffffffffffffffffffffffffffffffffffff82036130975761309661302b565b5b600182019050919050565b7f4f776e61626c653a2063616c6c6572206973206e6f7420746865206f776e6572600082015250565b60006130d860208361254e565b91506130e3826130a2565b602082019050919050565b60006020820190508181036000830152613107816130cb565b9050919050565b6000613119826123bb565b9150613124836123bb565b9250827fffffffffffffffffffffffffffffffffffffffffffffffffffffffffffffffff038211156131595761315861302b565b5b828201905092915050565b7f6f6e6c792061646d696e2063616e2063616c6c20746869730000000000000000600082015250565b600061319a60188361254e565b91506131a582613164565b602082019050919050565b600060208201905081810360008301526131c98161318d565b9050919050565b600081905092915050565b60006131e682612543565b6131f081856131d0565b935061320081856020860161255f565b80840191505092915050565b600061321882846131db565b915081905092915050565b7f455243313135353a2063616c6c6572206973206e6f74206f776e6572206e6f7260008201527f20617070726f7665640000000000000000000000000000000000000000000000602082015250565b600061327f60298361254e565b915061328a82613223565b604082019050919050565b600060208201905081810360008301526132ae81613272565b9050919050565b7f4f776e61626c653a206e6577206f776e657220697320746865207a65726f206160008201527f6464726573730000000000000000000000000000000000000000000000000000602082015250565b600061331160268361254e565b915061331c826132b5565b604082019050919050565b6000602082019050818103600083015261334081613304565b9050919050565b7f455243313135353a2069647320616e6420616d6f756e7473206c656e6774682060008201527f6d69736d61746368000000000000000000000000000000000000000000000000602082015250565b60006133a360288361254e565b91506133ae82613347565b604082019050919050565b600060208201905081810360008301526133d281613396565b9050919050565b7f455243313135353a207472616e7366657220746f20746865207a65726f20616460008201527f6472657373000000000000000000000000000000000000000000000000000000602082015250565b600061343560258361254e565b9150613440826133d9565b604082019050919050565b6000602082019050818103600083015261346481613428565b9050919050565b7f455243313135353a20696e73756666696369656e742062616c616e636520666f60008201527f72207472616e7366657200000000000000000000000000000000000000000000602082015250565b60006134c7602a8361254e565b91506134d28261346b565b604082019050919050565b600060208201905081810360008301526134f6816134ba565b9050919050565b600060408201905081810360008301526135178185612a8f565b9050818103602083015261352b8184612a8f565b90509392505050565b7f455243313135353a2073657474696e6720617070726f76616c2073746174757360008201527f20666f722073656c660000000000000000000000000000000000000000000000602082015250565b600061359060298361254e565b915061359b82613534565b604082019050919050565b600060208201905081810360008301526135bf81613583565b9050919050565b7f455243313135353a206d696e7420746f20746865207a65726f2061646472657360008201527f7300000000000000000000000000000000000000000000000000000000000000602082015250565b600061362260218361254e565b915061362d826135c6565b604082019050919050565b6000602082019050818103600083015261365181613615565b9050919050565b600060408201905061366d6000830185612431565b61367a6020830184612431565b9392505050565b600081519050919050565b600082825260208201905092915050565b60006136a882613681565b6136b2818561368c565b93506136c281856020860161255f565b6136cb81612592565b840191505092915050565b600060a0820190506136eb60008301886128ca565b6136f860208301876128ca565b818103604083015261370a8186612a8f565b9050818103606083015261371e8185612a8f565b90508181036080830152613732818461369d565b90509695505050505050565b60008151905061374d81612487565b92915050565b60006020828403121561376957613768612353565b5b60006137778482850161373e565b91505092915050565b60008160e01c9050919050565b600060033d11156137ac5760046000803e6137a9600051613780565b90505b90565b600060443d1061383c576137c1612349565b60043d036004823e80513d602482011167ffffffffffffffff821117156137e957505061383c565b808201805167ffffffffffffffff811115613807575050505061383c565b80602083010160043d03850181111561382457505050505061383c565b61383382602001850186612632565b82955050505050505b90565b7f455243313135353a207472616e7366657220746f206e6f6e204552433131353560008201527f526563656976657220696d706c656d656e746572000000000000000000000000602082015250565b600061389b60348361254e565b91506138a68261383f565b604082019050919050565b600060208201905081810360008301526138ca8161388e565b9050919050565b7f455243313135353a204552433131353552656365697665722072656a6563746560008201527f6420746f6b656e73000000000000000000000000000000000000000000000000602082015250565b600061392d60288361254e565b9150613938826138d1565b604082019050919050565b6000602082019050818103600083015261395c81613920565b9050919050565b600060a08201905061397860008301886128ca565b61398560208301876128ca565b6139926040830186612431565b61399f6060830185612431565b81810360808301526139b1818461369d565b9050969550505050505056fea2646970667358221220d5ced92b9572d74ac505a3c7f65eceef7274f0c91ffeb07d83bf315708533d0d64736f6c634300080d0033",
  "immutableReferences": {},
  "source": "// SPDX-License-Identifier: MIT\npragma solidity ^0.8.0;\nimport \"../ERC1155/ERC1155.sol\";\nimport \"../ERC1155/utils/ERC1155Holder.sol\";\nimport \"../ERC1155/utils/access/Ownable.sol\";\n\n\n\ncontract TFG is ERC1155, ERC1155Holder, Ownable{\n    address public admin;\n    address public addressC;\n    uint256 public count;\n\n    //ids para los tokens\n    uint256 public constant moneda = 0;\n\n    //estructuras auxiliares\n    string [] public colors;\n    mapping (uint256 => address) _seller;\n    mapping (string => bool) _colorExists;\n    mapping (uint256 => uint) _price;\n    mapping (uint256 => address) _property;\n\n    modifier onlyAdmin() {\n        require(msg.sender == admin, \"only admin can call this\");\n        _;\n    }\n\n    constructor() ERC1155(\"\") {\n        addressC = address(this);\n        admin = msg.sender;\n        count = 1;\n       _mint(msg.sender, moneda, 100, \"\");\n    }\n\n     function supportsInterface(bytes4 interfaceId)\n        public\n        view\n        virtual\n        override(ERC1155, ERC1155Receiver)\n        returns (bool)\n    {\n        return super.supportsInterface(interfaceId);\n    }\n\n    function nuevoColor(string memory _color, uint precio) public{\n        require(!_colorExists[_color]);\n        colors.push(_color);\n        _price[count] = precio;\n        _property[count] = msg.sender;\n        bytes memory dataColor = bytes(_color);\n        _mint(msg.sender, count, 1, dataColor);\n        count++;\n        _colorExists[_color] = true;\n        \n    }\n\n    function totalSupply() public view returns (uint256){\n        return colors.length;\n    }\n\n    function property(uint256 id) public view returns (address){\n        return _property[id];\n    }\n\n    function funds(address propietario) public view returns (uint256){\n        return balanceOf(propietario, 0);\n    }\n\n    function price(uint256 id) public view returns (uint256){\n        return _price[id];\n    }\n\n    function addFunds() public payable onlyAdmin{\n        _mint(msg.sender, 0, 100, \"\");\n    }\n\n\n    function buy(uint tokenId) public payable {\n        //Ahora la transaccin de las monedas\n        safeTransferFrom(msg.sender, _seller[tokenId+1], 0, _price[tokenId+1], \"\");\n        _safeTransferFrom(_property[tokenId+1], msg.sender, tokenId+1, 1, \"\");\n        _property[tokenId+1] = msg.sender;\n    }\n\n    function permission(uint256 tokenId) public {\n        _seller[tokenId + 1] = _property[tokenId+1];\n        _property[tokenId+1] = address(this);\n        safeTransferFrom(msg.sender, _property[tokenId+1], tokenId + 1, 1, \"\");\n    }\n\n    function updatePrice(uint newPrice, uint256 tokenId) public {\n        _price[tokenId+1] = newPrice;\n    }\n\n}",
  "sourcePath": "/Users/ignacio/Desktop/TFG1155/src/contracts/TFG.sol",
  "compiler": {
    "name": "solc",
    "version": "0.8.13+commit.abaa5c0e.Emscripten.clang"
  },
  "schemaVersion": "3.4.2",
  "updatedAt": "2022-04-01T14:52:16.234Z",
  "networkType": "ethereum",
  "devdoc": {
    "kind": "dev",
    "methods": {
      "balanceOf(address,uint256)": {
        "details": "See {IERC1155-balanceOf}. Requirements: - `account` cannot be the zero address."
      },
      "balanceOfBatch(address[],uint256[])": {
        "details": "See {IERC1155-balanceOfBatch}. Requirements: - `accounts` and `ids` must have the same length."
      },
      "isApprovedForAll(address,address)": {
        "details": "See {IERC1155-isApprovedForAll}."
      },
      "owner()": {
        "details": "Returns the address of the current owner."
      },
      "renounceOwnership()": {
        "details": "Leaves the contract without owner. It will not be possible to call `onlyOwner` functions anymore. Can only be called by the current owner. NOTE: Renouncing ownership will leave the contract without an owner, thereby removing any functionality that is only available to the owner."
      },
      "safeBatchTransferFrom(address,address,uint256[],uint256[],bytes)": {
        "details": "See {IERC1155-safeBatchTransferFrom}."
      },
      "safeTransferFrom(address,address,uint256,uint256,bytes)": {
        "details": "See {IERC1155-safeTransferFrom}."
      },
      "setApprovalForAll(address,bool)": {
        "details": "See {IERC1155-setApprovalForAll}."
      },
      "transferOwnership(address)": {
        "details": "Transfers ownership of the contract to a new account (`newOwner`). Can only be called by the current owner."
      },
      "uri(uint256)": {
        "details": "See {IERC1155MetadataURI-uri}. This implementation returns the same URI for *all* token types. It relies on the token type ID substitution mechanism https://eips.ethereum.org/EIPS/eip-1155#metadata[defined in the EIP]. Clients calling this function must replace the `\\{id\\}` substring with the actual token type ID."
      }
    },
    "version": 1
  },
  "userdoc": {
    "kind": "user",
    "methods": {},
    "version": 1
  }
}