{
  "contractName": "TFG",
  "abi": [
    {
      "inputs": [],
      "stateMutability": "nonpayable",
      "type": "constructor"
    },
    {
      "anonymous": false,
      "inputs": [
        {
          "indexed": true,
          "internalType": "address",
          "name": "account",
          "type": "address"
        },
        {
          "indexed": true,
          "internalType": "address",
          "name": "operator",
          "type": "address"
        },
        {
          "indexed": false,
          "internalType": "bool",
          "name": "approved",
          "type": "bool"
        }
      ],
      "name": "ApprovalForAll",
      "type": "event"
    },
    {
      "anonymous": false,
      "inputs": [
        {
          "indexed": true,
          "internalType": "address",
          "name": "previousOwner",
          "type": "address"
        },
        {
          "indexed": true,
          "internalType": "address",
          "name": "newOwner",
          "type": "address"
        }
      ],
      "name": "OwnershipTransferred",
      "type": "event"
    },
    {
      "anonymous": false,
      "inputs": [
        {
          "indexed": true,
          "internalType": "address",
          "name": "operator",
          "type": "address"
        },
        {
          "indexed": true,
          "internalType": "address",
          "name": "from",
          "type": "address"
        },
        {
          "indexed": true,
          "internalType": "address",
          "name": "to",
          "type": "address"
        },
        {
          "indexed": false,
          "internalType": "uint256[]",
          "name": "ids",
          "type": "uint256[]"
        },
        {
          "indexed": false,
          "internalType": "uint256[]",
          "name": "values",
          "type": "uint256[]"
        }
      ],
      "name": "TransferBatch",
      "type": "event"
    },
    {
      "anonymous": false,
      "inputs": [
        {
          "indexed": true,
          "internalType": "address",
          "name": "operator",
          "type": "address"
        },
        {
          "indexed": true,
          "internalType": "address",
          "name": "from",
          "type": "address"
        },
        {
          "indexed": true,
          "internalType": "address",
          "name": "to",
          "type": "address"
        },
        {
          "indexed": false,
          "internalType": "uint256",
          "name": "id",
          "type": "uint256"
        },
        {
          "indexed": false,
          "internalType": "uint256",
          "name": "value",
          "type": "uint256"
        }
      ],
      "name": "TransferSingle",
      "type": "event"
    },
    {
      "anonymous": false,
      "inputs": [
        {
          "indexed": false,
          "internalType": "string",
          "name": "value",
          "type": "string"
        },
        {
          "indexed": true,
          "internalType": "uint256",
          "name": "id",
          "type": "uint256"
        }
      ],
      "name": "URI",
      "type": "event"
    },
    {
      "inputs": [],
      "name": "addressC",
      "outputs": [
        {
          "internalType": "address",
          "name": "",
          "type": "address"
        }
      ],
      "stateMutability": "view",
      "type": "function",
      "constant": true
    },
    {
      "inputs": [],
      "name": "admin",
      "outputs": [
        {
          "internalType": "address",
          "name": "",
          "type": "address"
        }
      ],
      "stateMutability": "view",
      "type": "function",
      "constant": true
    },
    {
      "inputs": [
        {
          "internalType": "address",
          "name": "account",
          "type": "address"
        },
        {
          "internalType": "uint256",
          "name": "id",
          "type": "uint256"
        }
      ],
      "name": "balanceOf",
      "outputs": [
        {
          "internalType": "uint256",
          "name": "",
          "type": "uint256"
        }
      ],
      "stateMutability": "view",
      "type": "function",
      "constant": true
    },
    {
      "inputs": [
        {
          "internalType": "address[]",
          "name": "accounts",
          "type": "address[]"
        },
        {
          "internalType": "uint256[]",
          "name": "ids",
          "type": "uint256[]"
        }
      ],
      "name": "balanceOfBatch",
      "outputs": [
        {
          "internalType": "uint256[]",
          "name": "",
          "type": "uint256[]"
        }
      ],
      "stateMutability": "view",
      "type": "function",
      "constant": true
    },
    {
      "inputs": [],
      "name": "count",
      "outputs": [
        {
          "internalType": "uint256",
          "name": "",
          "type": "uint256"
        }
      ],
      "stateMutability": "view",
      "type": "function",
      "constant": true
    },
    {
      "inputs": [
        {
          "internalType": "uint256",
          "name": "",
          "type": "uint256"
        }
      ],
      "name": "docs",
      "outputs": [
        {
          "internalType": "string",
          "name": "",
          "type": "string"
        }
      ],
      "stateMutability": "view",
      "type": "function",
      "constant": true
    },
    {
      "inputs": [
        {
          "internalType": "address",
          "name": "account",
          "type": "address"
        },
        {
          "internalType": "address",
          "name": "operator",
          "type": "address"
        }
      ],
      "name": "isApprovedForAll",
      "outputs": [
        {
          "internalType": "bool",
          "name": "",
          "type": "bool"
        }
      ],
      "stateMutability": "view",
      "type": "function",
      "constant": true
    },
    {
      "inputs": [],
      "name": "moneda",
      "outputs": [
        {
          "internalType": "uint256",
          "name": "",
          "type": "uint256"
        }
      ],
      "stateMutability": "view",
      "type": "function",
      "constant": true
    },
    {
      "inputs": [
        {
          "internalType": "address",
          "name": "",
          "type": "address"
        },
        {
          "internalType": "address",
          "name": "",
          "type": "address"
        },
        {
          "internalType": "uint256[]",
          "name": "",
          "type": "uint256[]"
        },
        {
          "internalType": "uint256[]",
          "name": "",
          "type": "uint256[]"
        },
        {
          "internalType": "bytes",
          "name": "",
          "type": "bytes"
        }
      ],
      "name": "onERC1155BatchReceived",
      "outputs": [
        {
          "internalType": "bytes4",
          "name": "",
          "type": "bytes4"
        }
      ],
      "stateMutability": "nonpayable",
      "type": "function"
    },
    {
      "inputs": [
        {
          "internalType": "address",
          "name": "",
          "type": "address"
        },
        {
          "internalType": "address",
          "name": "",
          "type": "address"
        },
        {
          "internalType": "uint256",
          "name": "",
          "type": "uint256"
        },
        {
          "internalType": "uint256",
          "name": "",
          "type": "uint256"
        },
        {
          "internalType": "bytes",
          "name": "",
          "type": "bytes"
        }
      ],
      "name": "onERC1155Received",
      "outputs": [
        {
          "internalType": "bytes4",
          "name": "",
          "type": "bytes4"
        }
      ],
      "stateMutability": "nonpayable",
      "type": "function"
    },
    {
      "inputs": [],
      "name": "owner",
      "outputs": [
        {
          "internalType": "address",
          "name": "",
          "type": "address"
        }
      ],
      "stateMutability": "view",
      "type": "function",
      "constant": true
    },
    {
      "inputs": [],
      "name": "renounceOwnership",
      "outputs": [],
      "stateMutability": "nonpayable",
      "type": "function"
    },
    {
      "inputs": [
        {
          "internalType": "address",
          "name": "from",
          "type": "address"
        },
        {
          "internalType": "address",
          "name": "to",
          "type": "address"
        },
        {
          "internalType": "uint256[]",
          "name": "ids",
          "type": "uint256[]"
        },
        {
          "internalType": "uint256[]",
          "name": "amounts",
          "type": "uint256[]"
        },
        {
          "internalType": "bytes",
          "name": "data",
          "type": "bytes"
        }
      ],
      "name": "safeBatchTransferFrom",
      "outputs": [],
      "stateMutability": "nonpayable",
      "type": "function"
    },
    {
      "inputs": [
        {
          "internalType": "address",
          "name": "from",
          "type": "address"
        },
        {
          "internalType": "address",
          "name": "to",
          "type": "address"
        },
        {
          "internalType": "uint256",
          "name": "id",
          "type": "uint256"
        },
        {
          "internalType": "uint256",
          "name": "amount",
          "type": "uint256"
        },
        {
          "internalType": "bytes",
          "name": "data",
          "type": "bytes"
        }
      ],
      "name": "safeTransferFrom",
      "outputs": [],
      "stateMutability": "nonpayable",
      "type": "function"
    },
    {
      "inputs": [
        {
          "internalType": "address",
          "name": "operator",
          "type": "address"
        },
        {
          "internalType": "bool",
          "name": "approved",
          "type": "bool"
        }
      ],
      "name": "setApprovalForAll",
      "outputs": [],
      "stateMutability": "nonpayable",
      "type": "function"
    },
    {
      "inputs": [
        {
          "internalType": "address",
          "name": "newOwner",
          "type": "address"
        }
      ],
      "name": "transferOwnership",
      "outputs": [],
      "stateMutability": "nonpayable",
      "type": "function"
    },
    {
      "inputs": [
        {
          "internalType": "uint256",
          "name": "",
          "type": "uint256"
        }
      ],
      "name": "uri",
      "outputs": [
        {
          "internalType": "string",
          "name": "",
          "type": "string"
        }
      ],
      "stateMutability": "view",
      "type": "function",
      "constant": true
    },
    {
      "inputs": [
        {
          "internalType": "bytes4",
          "name": "interfaceId",
          "type": "bytes4"
        }
      ],
      "name": "supportsInterface",
      "outputs": [
        {
          "internalType": "bool",
          "name": "",
          "type": "bool"
        }
      ],
      "stateMutability": "view",
      "type": "function",
      "constant": true
    },
    {
      "inputs": [
        {
          "internalType": "string",
          "name": "x",
          "type": "string"
        },
        {
          "internalType": "uint256",
          "name": "precio",
          "type": "uint256"
        },
        {
          "internalType": "string",
          "name": "titulo",
          "type": "string"
        }
      ],
      "name": "sendHash",
      "outputs": [],
      "stateMutability": "nonpayable",
      "type": "function"
    },
    {
      "inputs": [],
      "name": "getHash",
      "outputs": [
        {
          "internalType": "string",
          "name": "x",
          "type": "string"
        }
      ],
      "stateMutability": "view",
      "type": "function",
      "constant": true
    },
    {
      "inputs": [],
      "name": "totalSupply",
      "outputs": [
        {
          "internalType": "uint256",
          "name": "",
          "type": "uint256"
        }
      ],
      "stateMutability": "view",
      "type": "function",
      "constant": true
    },
    {
      "inputs": [
        {
          "internalType": "string",
          "name": "id",
          "type": "string"
        }
      ],
      "name": "getProperty",
      "outputs": [
        {
          "internalType": "address",
          "name": "",
          "type": "address"
        }
      ],
      "stateMutability": "view",
      "type": "function",
      "constant": true
    },
    {
      "inputs": [
        {
          "internalType": "string",
          "name": "id",
          "type": "string"
        }
      ],
      "name": "getTitle",
      "outputs": [
        {
          "internalType": "string",
          "name": "title",
          "type": "string"
        }
      ],
      "stateMutability": "view",
      "type": "function",
      "constant": true
    },
    {
      "inputs": [
        {
          "internalType": "string",
          "name": "id",
          "type": "string"
        }
      ],
      "name": "getPrice",
      "outputs": [
        {
          "internalType": "uint256",
          "name": "",
          "type": "uint256"
        }
      ],
      "stateMutability": "view",
      "type": "function",
      "constant": true
    },
    {
      "inputs": [
        {
          "internalType": "address",
          "name": "propietario",
          "type": "address"
        }
      ],
      "name": "funds",
      "outputs": [
        {
          "internalType": "uint256",
          "name": "",
          "type": "uint256"
        }
      ],
      "stateMutability": "view",
      "type": "function",
      "constant": true
    },
    {
      "inputs": [],
      "name": "addFunds",
      "outputs": [],
      "stateMutability": "payable",
      "type": "function",
      "payable": true
    },
    {
      "inputs": [
        {
          "internalType": "string",
          "name": "id",
          "type": "string"
        }
      ],
      "name": "buy",
      "outputs": [],
      "stateMutability": "payable",
      "type": "function",
      "payable": true
    },
    {
      "inputs": [
        {
          "internalType": "string",
          "name": "id",
          "type": "string"
        }
      ],
      "name": "permission",
      "outputs": [],
      "stateMutability": "nonpayable",
      "type": "function"
    },
    {
      "inputs": [
        {
          "internalType": "uint256",
          "name": "newPrice",
          "type": "uint256"
        },
        {
          "internalType": "string",
          "name": "id",
          "type": "string"
        }
      ],
      "name": "updatePrice",
      "outputs": [],
      "stateMutability": "nonpayable",
      "type": "function"
    }
  ],
  "bytecode": "0x60806040523480156200001157600080fd5b506040518060200160405280600081525062000033816200010960201b60201c565b5062000054620000486200012560201b60201c565b6200012d60201b60201c565b30600560006101000a81548173ffffffffffffffffffffffffffffffffffffffff021916908373ffffffffffffffffffffffffffffffffffffffff16021790555033600460006101000a81548173ffffffffffffffffffffffffffffffffffffffff021916908373ffffffffffffffffffffffffffffffffffffffff160217905550600160068190555062000103336000606460405180602001604052806000815250620001f360201b60201c565b62000dd9565b8060029080519060200190620001219291906200065c565b5050565b600033905090565b6000600360009054906101000a900473ffffffffffffffffffffffffffffffffffffffff16905081600360006101000a81548173ffffffffffffffffffffffffffffffffffffffff021916908373ffffffffffffffffffffffffffffffffffffffff1602179055508173ffffffffffffffffffffffffffffffffffffffff168173ffffffffffffffffffffffffffffffffffffffff167f8be0079c531659141344cd1fd0a4f28419497f9722a3daafe3b4186f6b6457e060405160405180910390a35050565b600073ffffffffffffffffffffffffffffffffffffffff168473ffffffffffffffffffffffffffffffffffffffff160362000265576040517f08c379a00000000000000000000000000000000000000000000000000000000081526004016200025c9062000793565b60405180910390fd5b6000620002776200012560201b60201c565b9050620002b0816000876200029288620003b760201b60201c565b620002a388620003b760201b60201c565b876200043860201b60201c565b8260008086815260200190815260200160002060008773ffffffffffffffffffffffffffffffffffffffff1673ffffffffffffffffffffffffffffffffffffffff1681526020019081526020016000206000828254620003119190620007ee565b925050819055508473ffffffffffffffffffffffffffffffffffffffff16600073ffffffffffffffffffffffffffffffffffffffff168273ffffffffffffffffffffffffffffffffffffffff167fc3d58168c5ae7397731d063d5bbf3d657854427343f4c083240f7aacaa2d0f628787604051620003919291906200085c565b60405180910390a4620003b0816000878787876200044060201b60201c565b5050505050565b60606000600167ffffffffffffffff811115620003d957620003d862000889565b5b604051908082528060200260200182016040528015620004085781602001602082028036833780820191505090505b5090508281600081518110620004235762000422620008b8565b5b60200260200101818152505080915050919050565b505050505050565b6200046c8473ffffffffffffffffffffffffffffffffffffffff166200063960201b620015ad1760201c565b1562000631578373ffffffffffffffffffffffffffffffffffffffff1663f23a6e6187878686866040518663ffffffff1660e01b8152600401620004b5959493929190620009d0565b6020604051808303816000875af1925050508015620004f457506040513d601f19601f82011682018060405250810190620004f1919062000aa0565b60015b620005a5576200050362000adf565b806308c379a0036200056657506200051a62000b3a565b8062000527575062000568565b806040517f08c379a00000000000000000000000000000000000000000000000000000000081526004016200055d919062000c21565b60405180910390fd5b505b6040517f08c379a00000000000000000000000000000000000000000000000000000000081526004016200059c9062000cbb565b60405180910390fd5b63f23a6e6160e01b7bffffffffffffffffffffffffffffffffffffffffffffffffffffffff1916817bffffffffffffffffffffffffffffffffffffffffffffffffffffffff1916146200062f576040517f08c379a0000000000000000000000000000000000000000000000000000000008152600401620006269062000d53565b60405180910390fd5b505b505050505050565b6000808273ffffffffffffffffffffffffffffffffffffffff163b119050919050565b8280546200066a9062000da4565b90600052602060002090601f0160209004810192826200068e5760008555620006da565b82601f10620006a957805160ff1916838001178555620006da565b82800160010185558215620006da579182015b82811115620006d9578251825591602001919060010190620006bc565b5b509050620006e99190620006ed565b5090565b5b8082111562000708576000816000905550600101620006ee565b5090565b600082825260208201905092915050565b7f455243313135353a206d696e7420746f20746865207a65726f2061646472657360008201527f7300000000000000000000000000000000000000000000000000000000000000602082015250565b60006200077b6021836200070c565b915062000788826200071d565b604082019050919050565b60006020820190508181036000830152620007ae816200076c565b9050919050565b6000819050919050565b7f4e487b7100000000000000000000000000000000000000000000000000000000600052601160045260246000fd5b6000620007fb82620007b5565b91506200080883620007b5565b9250827fffffffffffffffffffffffffffffffffffffffffffffffffffffffffffffffff0382111562000840576200083f620007bf565b5b828201905092915050565b6200085681620007b5565b82525050565b60006040820190506200087360008301856200084b565b6200088260208301846200084b565b9392505050565b7f4e487b7100000000000000000000000000000000000000000000000000000000600052604160045260246000fd5b7f4e487b7100000000000000000000000000000000000000000000000000000000600052603260045260246000fd5b600073ffffffffffffffffffffffffffffffffffffffff82169050919050565b60006200091482620008e7565b9050919050565b620009268162000907565b82525050565b600081519050919050565b600082825260208201905092915050565b60005b83811015620009685780820151818401526020810190506200094b565b8381111562000978576000848401525b50505050565b6000601f19601f8301169050919050565b60006200099c826200092c565b620009a8818562000937565b9350620009ba81856020860162000948565b620009c5816200097e565b840191505092915050565b600060a082019050620009e760008301886200091b565b620009f660208301876200091b565b62000a0560408301866200084b565b62000a1460608301856200084b565b818103608083015262000a2881846200098f565b90509695505050505050565b6000604051905090565b600080fd5b60007fffffffff0000000000000000000000000000000000000000000000000000000082169050919050565b62000a7a8162000a43565b811462000a8657600080fd5b50565b60008151905062000a9a8162000a6f565b92915050565b60006020828403121562000ab95762000ab862000a3e565b5b600062000ac98482850162000a89565b91505092915050565b60008160e01c9050919050565b600060033d111562000b015760046000803e62000afe60005162000ad2565b90505b90565b62000b0f826200097e565b810181811067ffffffffffffffff8211171562000b315762000b3062000889565b5b80604052505050565b600060443d1062000bd25762000b4f62000a34565b60043d036004823e80513d602482011167ffffffffffffffff8211171562000b7957505062000bd2565b808201805167ffffffffffffffff81111562000b99575050505062000bd2565b80602083010160043d03850181111562000bb857505050505062000bd2565b62000bc98260200185018662000b04565b82955050505050505b90565b600081519050919050565b600062000bed8262000bd5565b62000bf981856200070c565b935062000c0b81856020860162000948565b62000c16816200097e565b840191505092915050565b6000602082019050818103600083015262000c3d818462000be0565b905092915050565b7f455243313135353a207472616e7366657220746f206e6f6e204552433131353560008201527f526563656976657220696d706c656d656e746572000000000000000000000000602082015250565b600062000ca36034836200070c565b915062000cb08262000c45565b604082019050919050565b6000602082019050818103600083015262000cd68162000c94565b9050919050565b7f455243313135353a204552433131353552656365697665722072656a6563746560008201527f6420746f6b656e73000000000000000000000000000000000000000000000000602082015250565b600062000d3b6028836200070c565b915062000d488262000cdd565b604082019050919050565b6000602082019050818103600083015262000d6e8162000d2c565b9050919050565b7f4e487b7100000000000000000000000000000000000000000000000000000000600052602260045260246000fd5b6000600282049050600182168062000dbd57607f821691505b60208210810362000dd35762000dd262000d75565b5b50919050565b613d0a8062000de96000396000f3fe6080604052600436106101c15760003560e01c8063a22cb465116100f7578063d896236c11610095578063f23a6e6111610064578063f23a6e6114610671578063f242432a146106ae578063f2fde38b146106d7578063f851a44014610700576101c1565b8063d896236c146105a3578063e2ae93fb146105cc578063e985e9c514610609578063f1cc126814610646576101c1565b8063bc197c81116100d1578063bc197c81146104e7578063c79fc60914610524578063cd4eb3b81461054f578063d13319c414610578576101c1565b8063a22cb46514610477578063a26759cb146104a0578063ab331a34146104aa576101c1565b80632eb2c2d611610164578063524f38891161013e578063524f3889146103cf5780637103b15b1461040c578063715018a6146104355780638da5cb5b1461044c576101c1565b80632eb2c2d61461034d578063492cc769146103765780634e1273f414610392576101c1565b80630e89341c116101a05780630e89341c1461026b57806318160ddd146102a85780631b46e49c146102d357806323389c5a14610310576101c1565b8062fdd58e146101c657806301ffc9a71461020357806306661abd14610240575b600080fd5b3480156101d257600080fd5b506101ed60048036038101906101e89190612674565b61072b565b6040516101fa91906126c3565b60405180910390f35b34801561020f57600080fd5b5061022a60048036038101906102259190612736565b6107f3565b604051610237919061277e565b60405180910390f35b34801561024c57600080fd5b50610255610805565b60405161026291906126c3565b60405180910390f35b34801561027757600080fd5b50610292600480360381019061028d9190612799565b61080b565b60405161029f919061285f565b60405180910390f35b3480156102b457600080fd5b506102bd61089f565b6040516102ca91906126c3565b60405180910390f35b3480156102df57600080fd5b506102fa60048036038101906102f591906129b6565b6108ac565b604051610307919061285f565b60405180910390f35b34801561031c57600080fd5b5061033760048036038101906103329190612799565b61095c565b604051610344919061285f565b60405180910390f35b34801561035957600080fd5b50610374600480360381019061036f9190612b68565b610a08565b005b610390600480360381019061038b91906129b6565b610aa9565b005b34801561039e57600080fd5b506103b960048036038101906103b49190612cfa565b610bfb565b6040516103c69190612e30565b60405180910390f35b3480156103db57600080fd5b506103f660048036038101906103f191906129b6565b610d14565b60405161040391906126c3565b60405180910390f35b34801561041857600080fd5b50610433600480360381019061042e9190612e52565b610d3c565b005b34801561044157600080fd5b5061044a610d63565b005b34801561045857600080fd5b50610461610deb565b60405161046e9190612ebd565b60405180910390f35b34801561048357600080fd5b5061049e60048036038101906104999190612f04565b610e15565b005b6104a8610e2b565b005b3480156104b657600080fd5b506104d160048036038101906104cc91906129b6565b610eda565b6040516104de9190612ebd565b60405180910390f35b3480156104f357600080fd5b5061050e60048036038101906105099190612b68565b610f22565b60405161051b9190612f53565b60405180910390f35b34801561053057600080fd5b50610539610f37565b6040516105469190612ebd565b60405180910390f35b34801561055b57600080fd5b50610576600480360381019061057191906129b6565b610f5d565b005b34801561058457600080fd5b5061058d6110d1565b60405161059a919061285f565b60405180910390f35b3480156105af57600080fd5b506105ca60048036038101906105c59190612f6e565b611163565b005b3480156105d857600080fd5b506105f360048036038101906105ee9190612ff9565b61132d565b60405161060091906126c3565b60405180910390f35b34801561061557600080fd5b50610630600480360381019061062b9190613026565b611341565b60405161063d919061277e565b60405180910390f35b34801561065257600080fd5b5061065b6113d5565b60405161066891906126c3565b60405180910390f35b34801561067d57600080fd5b5061069860048036038101906106939190613066565b6113da565b6040516106a59190612f53565b60405180910390f35b3480156106ba57600080fd5b506106d560048036038101906106d09190613066565b6113ef565b005b3480156106e357600080fd5b506106fe60048036038101906106f99190612ff9565b611490565b005b34801561070c57600080fd5b50610715611587565b6040516107229190612ebd565b60405180910390f35b60008073ffffffffffffffffffffffffffffffffffffffff168373ffffffffffffffffffffffffffffffffffffffff160361079b576040517f08c379a00000000000000000000000000000000000000000000000000000000081526004016107929061316f565b60405180910390fd5b60008083815260200190815260200160002060008473ffffffffffffffffffffffffffffffffffffffff1673ffffffffffffffffffffffffffffffffffffffff16815260200190815260200160002054905092915050565b60006107fe826115d0565b9050919050565b60065481565b60606002805461081a906131be565b80601f0160208091040260200160405190810160405280929190818152602001828054610846906131be565b80156108935780601f1061086857610100808354040283529160200191610893565b820191906000526020600020905b81548152906001019060200180831161087657829003601f168201915b50505050509050919050565b6000600780549050905090565b6060600c826040516108be919061322b565b908152602001604051809103902080546108d7906131be565b80601f0160208091040260200160405190810160405280929190818152602001828054610903906131be565b80156109505780601f1061092557610100808354040283529160200191610950565b820191906000526020600020905b81548152906001019060200180831161093357829003601f168201915b50505050509050919050565b6007818154811061096c57600080fd5b906000526020600020016000915090508054610987906131be565b80601f01602080910402602001604051908101604052809291908181526020018280546109b3906131be565b8015610a005780601f106109d557610100808354040283529160200191610a00565b820191906000526020600020905b8154815290600101906020018083116109e357829003601f168201915b505050505081565b610a1061164a565b73ffffffffffffffffffffffffffffffffffffffff168573ffffffffffffffffffffffffffffffffffffffff161480610a565750610a5585610a5061164a565b611341565b5b610a95576040517f08c379a0000000000000000000000000000000000000000000000000000000008152600401610a8c906132b4565b60405180910390fd5b610aa28585858585611652565b5050505050565b610b2233600883604051610abd919061322b565b908152602001604051809103902060009054906101000a900473ffffffffffffffffffffffffffffffffffffffff166000600a85604051610afe919061322b565b908152602001604051809103902054604051806020016040528060008152506113ef565b610b9b600b82604051610b35919061322b565b908152602001604051809103902060009054906101000a900473ffffffffffffffffffffffffffffffffffffffff1633600d84604051610b75919061322b565b908152602001604051809103902054600160405180602001604052806000815250611965565b33600b82604051610bac919061322b565b908152602001604051809103902060006101000a81548173ffffffffffffffffffffffffffffffffffffffff021916908373ffffffffffffffffffffffffffffffffffffffff16021790555050565b60608151835114610c41576040517f08c379a0000000000000000000000000000000000000000000000000000000008152600401610c3890613346565b60405180910390fd5b6000835167ffffffffffffffff811115610c5e57610c5d61288b565b5b604051908082528060200260200182016040528015610c8c5781602001602082028036833780820191505090505b50905060005b8451811015610d0957610cd9858281518110610cb157610cb0613366565b5b6020026020010151858381518110610ccc57610ccb613366565b5b602002602001015161072b565b828281518110610cec57610ceb613366565b5b60200260200101818152505080610d02906133c4565b9050610c92565b508091505092915050565b6000600a82604051610d26919061322b565b9081526020016040518091039020549050919050565b81600a82604051610d4d919061322b565b9081526020016040518091039020819055505050565b610d6b61164a565b73ffffffffffffffffffffffffffffffffffffffff16610d89610deb565b73ffffffffffffffffffffffffffffffffffffffff1614610ddf576040517f08c379a0000000000000000000000000000000000000000000000000000000008152600401610dd690613458565b60405180910390fd5b610de96000611be6565b565b6000600360009054906101000a900473ffffffffffffffffffffffffffffffffffffffff16905090565b610e27610e2061164a565b8383611cac565b5050565b600460009054906101000a900473ffffffffffffffffffffffffffffffffffffffff1673ffffffffffffffffffffffffffffffffffffffff163373ffffffffffffffffffffffffffffffffffffffff1614610ebb576040517f08c379a0000000000000000000000000000000000000000000000000000000008152600401610eb2906134c4565b60405180910390fd5b610ed8336000606460405180602001604052806000815250611e18565b565b6000600b82604051610eec919061322b565b908152602001604051809103902060009054906101000a900473ffffffffffffffffffffffffffffffffffffffff169050919050565b600063bc197c8160e01b905095945050505050565b600560009054906101000a900473ffffffffffffffffffffffffffffffffffffffff1681565b600b81604051610f6d919061322b565b908152602001604051809103902060009054906101000a900473ffffffffffffffffffffffffffffffffffffffff16600882604051610fac919061322b565b908152602001604051809103902060006101000a81548173ffffffffffffffffffffffffffffffffffffffff021916908373ffffffffffffffffffffffffffffffffffffffff16021790555030600b82604051611009919061322b565b908152602001604051809103902060006101000a81548173ffffffffffffffffffffffffffffffffffffffff021916908373ffffffffffffffffffffffffffffffffffffffff1602179055506110ce33600b83604051611069919061322b565b908152602001604051809103902060009054906101000a900473ffffffffffffffffffffffffffffffffffffffff16600d846040516110a8919061322b565b9081526020016040518091039020546001604051806020016040528060008152506113ef565b50565b6060600e80546110e0906131be565b80601f016020809104026020016040519081016040528092919081815260200182805461110c906131be565b80156111595780601f1061112e57610100808354040283529160200191611159565b820191906000526020600020905b81548152906001019060200180831161113c57829003601f168201915b5050505050905090565b600983604051611173919061322b565b908152602001604051809103902060009054906101000a900460ff161561119957600080fd5b82600e90805190602001906111af929190612529565b506007839080600181540180825580915050600190039060005260206000200160009091909190915090805190602001906111eb929190612529565b50600654600d846040516111ff919061322b565b90815260200160405180910390208190555081600a84604051611222919061322b565b90815260200160405180910390208190555033600b84604051611245919061322b565b908152602001604051809103902060006101000a81548173ffffffffffffffffffffffffffffffffffffffff021916908373ffffffffffffffffffffffffffffffffffffffff16021790555080600c846040516112a2919061322b565b908152602001604051809103902090805190602001906112c3929190612529565b5060008390506112d833600654600184611e18565b600660008154809291906112eb906133c4565b91905055506001600985604051611302919061322b565b908152602001604051809103902060006101000a81548160ff02191690831515021790555050505050565b600061133a82600061072b565b9050919050565b6000600160008473ffffffffffffffffffffffffffffffffffffffff1673ffffffffffffffffffffffffffffffffffffffff16815260200190815260200160002060008373ffffffffffffffffffffffffffffffffffffffff1673ffffffffffffffffffffffffffffffffffffffff16815260200190815260200160002060009054906101000a900460ff16905092915050565b600081565b600063f23a6e6160e01b905095945050505050565b6113f761164a565b73ffffffffffffffffffffffffffffffffffffffff168573ffffffffffffffffffffffffffffffffffffffff16148061143d575061143c8561143761164a565b611341565b5b61147c576040517f08c379a000000000000000000000000000000000000000000000000000000000815260040161147390613556565b60405180910390fd5b6114898585858585611965565b5050505050565b61149861164a565b73ffffffffffffffffffffffffffffffffffffffff166114b6610deb565b73ffffffffffffffffffffffffffffffffffffffff161461150c576040517f08c379a000000000000000000000000000000000000000000000000000000000815260040161150390613458565b60405180910390fd5b600073ffffffffffffffffffffffffffffffffffffffff168173ffffffffffffffffffffffffffffffffffffffff160361157b576040517f08c379a0000000000000000000000000000000000000000000000000000000008152600401611572906135e8565b60405180910390fd5b61158481611be6565b50565b600460009054906101000a900473ffffffffffffffffffffffffffffffffffffffff1681565b6000808273ffffffffffffffffffffffffffffffffffffffff163b119050919050565b60007f4e2312e0000000000000000000000000000000000000000000000000000000007bffffffffffffffffffffffffffffffffffffffffffffffffffffffff1916827bffffffffffffffffffffffffffffffffffffffffffffffffffffffff19161480611643575061164282611fad565b5b9050919050565b600033905090565b8151835114611696576040517f08c379a000000000000000000000000000000000000000000000000000000000815260040161168d9061367a565b60405180910390fd5b600073ffffffffffffffffffffffffffffffffffffffff168473ffffffffffffffffffffffffffffffffffffffff1603611705576040517f08c379a00000000000000000000000000000000000000000000000000000000081526004016116fc9061370c565b60405180910390fd5b600061170f61164a565b905061171f81878787878761208f565b60005b84518110156118d05760008582815181106117405761173f613366565b5b60200260200101519050600085838151811061175f5761175e613366565b5b60200260200101519050600080600084815260200190815260200160002060008b73ffffffffffffffffffffffffffffffffffffffff1673ffffffffffffffffffffffffffffffffffffffff16815260200190815260200160002054905081811015611800576040517f08c379a00000000000000000000000000000000000000000000000000000000081526004016117f79061379e565b60405180910390fd5b81810360008085815260200190815260200160002060008c73ffffffffffffffffffffffffffffffffffffffff1673ffffffffffffffffffffffffffffffffffffffff168152602001908152602001600020819055508160008085815260200190815260200160002060008b73ffffffffffffffffffffffffffffffffffffffff1673ffffffffffffffffffffffffffffffffffffffff16815260200190815260200160002060008282546118b591906137be565b92505081905550505050806118c9906133c4565b9050611722565b508473ffffffffffffffffffffffffffffffffffffffff168673ffffffffffffffffffffffffffffffffffffffff168273ffffffffffffffffffffffffffffffffffffffff167f4a39dc06d4c0dbc64b70af90fd698a233a518aa5d07e595d983b8c0526c8f7fb8787604051611947929190613814565b60405180910390a461195d818787878787612097565b505050505050565b600073ffffffffffffffffffffffffffffffffffffffff168473ffffffffffffffffffffffffffffffffffffffff16036119d4576040517f08c379a00000000000000000000000000000000000000000000000000000000081526004016119cb9061370c565b60405180910390fd5b60006119de61164a565b90506119fe8187876119ef8861226e565b6119f88861226e565b8761208f565b600080600086815260200190815260200160002060008873ffffffffffffffffffffffffffffffffffffffff1673ffffffffffffffffffffffffffffffffffffffff16815260200190815260200160002054905083811015611a95576040517f08c379a0000000000000000000000000000000000000000000000000000000008152600401611a8c9061379e565b60405180910390fd5b83810360008087815260200190815260200160002060008973ffffffffffffffffffffffffffffffffffffffff1673ffffffffffffffffffffffffffffffffffffffff168152602001908152602001600020819055508360008087815260200190815260200160002060008873ffffffffffffffffffffffffffffffffffffffff1673ffffffffffffffffffffffffffffffffffffffff1681526020019081526020016000206000828254611b4a91906137be565b925050819055508573ffffffffffffffffffffffffffffffffffffffff168773ffffffffffffffffffffffffffffffffffffffff168373ffffffffffffffffffffffffffffffffffffffff167fc3d58168c5ae7397731d063d5bbf3d657854427343f4c083240f7aacaa2d0f628888604051611bc792919061384b565b60405180910390a4611bdd8288888888886122e8565b50505050505050565b6000600360009054906101000a900473ffffffffffffffffffffffffffffffffffffffff16905081600360006101000a81548173ffffffffffffffffffffffffffffffffffffffff021916908373ffffffffffffffffffffffffffffffffffffffff1602179055508173ffffffffffffffffffffffffffffffffffffffff168173ffffffffffffffffffffffffffffffffffffffff167f8be0079c531659141344cd1fd0a4f28419497f9722a3daafe3b4186f6b6457e060405160405180910390a35050565b8173ffffffffffffffffffffffffffffffffffffffff168373ffffffffffffffffffffffffffffffffffffffff1603611d1a576040517f08c379a0000000000000000000000000000000000000000000000000000000008152600401611d11906138e6565b60405180910390fd5b80600160008573ffffffffffffffffffffffffffffffffffffffff1673ffffffffffffffffffffffffffffffffffffffff16815260200190815260200160002060008473ffffffffffffffffffffffffffffffffffffffff1673ffffffffffffffffffffffffffffffffffffffff16815260200190815260200160002060006101000a81548160ff0219169083151502179055508173ffffffffffffffffffffffffffffffffffffffff168373ffffffffffffffffffffffffffffffffffffffff167f17307eab39ab6107e8899845ad3d59bd9653f200f220920489ca2b5937696c3183604051611e0b919061277e565b60405180910390a3505050565b600073ffffffffffffffffffffffffffffffffffffffff168473ffffffffffffffffffffffffffffffffffffffff1603611e87576040517f08c379a0000000000000000000000000000000000000000000000000000000008152600401611e7e90613978565b60405180910390fd5b6000611e9161164a565b9050611eb281600087611ea38861226e565b611eac8861226e565b8761208f565b8260008086815260200190815260200160002060008773ffffffffffffffffffffffffffffffffffffffff1673ffffffffffffffffffffffffffffffffffffffff1681526020019081526020016000206000828254611f1191906137be565b925050819055508473ffffffffffffffffffffffffffffffffffffffff16600073ffffffffffffffffffffffffffffffffffffffff168273ffffffffffffffffffffffffffffffffffffffff167fc3d58168c5ae7397731d063d5bbf3d657854427343f4c083240f7aacaa2d0f628787604051611f8f92919061384b565b60405180910390a4611fa6816000878787876122e8565b5050505050565b60007fd9b67a26000000000000000000000000000000000000000000000000000000007bffffffffffffffffffffffffffffffffffffffffffffffffffffffff1916827bffffffffffffffffffffffffffffffffffffffffffffffffffffffff1916148061207857507f0e89341c000000000000000000000000000000000000000000000000000000007bffffffffffffffffffffffffffffffffffffffffffffffffffffffff1916827bffffffffffffffffffffffffffffffffffffffffffffffffffffffff1916145b806120885750612087826124bf565b5b9050919050565b505050505050565b6120b68473ffffffffffffffffffffffffffffffffffffffff166115ad565b15612266578373ffffffffffffffffffffffffffffffffffffffff1663bc197c8187878686866040518663ffffffff1660e01b81526004016120fc9594939291906139ed565b6020604051808303816000875af192505050801561213857506040513d601f19601f820116820180604052508101906121359190613a6a565b60015b6121dd57612144613aa4565b806308c379a0036121a05750612158613ac6565b8061216357506121a2565b806040517f08c379a0000000000000000000000000000000000000000000000000000000008152600401612197919061285f565b60405180910390fd5b505b6040517f08c379a00000000000000000000000000000000000000000000000000000000081526004016121d490613bc8565b60405180910390fd5b63bc197c8160e01b7bffffffffffffffffffffffffffffffffffffffffffffffffffffffff1916817bffffffffffffffffffffffffffffffffffffffffffffffffffffffff191614612264576040517f08c379a000000000000000000000000000000000000000000000000000000000815260040161225b90613c5a565b60405180910390fd5b505b505050505050565b60606000600167ffffffffffffffff81111561228d5761228c61288b565b5b6040519080825280602002602001820160405280156122bb5781602001602082028036833780820191505090505b50905082816000815181106122d3576122d2613366565b5b60200260200101818152505080915050919050565b6123078473ffffffffffffffffffffffffffffffffffffffff166115ad565b156124b7578373ffffffffffffffffffffffffffffffffffffffff1663f23a6e6187878686866040518663ffffffff1660e01b815260040161234d959493929190613c7a565b6020604051808303816000875af192505050801561238957506040513d601f19601f820116820180604052508101906123869190613a6a565b60015b61242e57612395613aa4565b806308c379a0036123f157506123a9613ac6565b806123b457506123f3565b806040517f08c379a00000000000000000000000000000000000000000000000000000000081526004016123e8919061285f565b60405180910390fd5b505b6040517f08c379a000000000000000000000000000000000000000000000000000000000815260040161242590613bc8565b60405180910390fd5b63f23a6e6160e01b7bffffffffffffffffffffffffffffffffffffffffffffffffffffffff1916817bffffffffffffffffffffffffffffffffffffffffffffffffffffffff1916146124b5576040517f08c379a00000000000000000000000000000000000000000000000000000000081526004016124ac90613c5a565b60405180910390fd5b505b505050505050565b60007f01ffc9a7000000000000000000000000000000000000000000000000000000007bffffffffffffffffffffffffffffffffffffffffffffffffffffffff1916827bffffffffffffffffffffffffffffffffffffffffffffffffffffffff1916149050919050565b828054612535906131be565b90600052602060002090601f016020900481019282612557576000855561259e565b82601f1061257057805160ff191683800117855561259e565b8280016001018555821561259e579182015b8281111561259d578251825591602001919060010190612582565b5b5090506125ab91906125af565b5090565b5b808211156125c85760008160009055506001016125b0565b5090565b6000604051905090565b600080fd5b600080fd5b600073ffffffffffffffffffffffffffffffffffffffff82169050919050565b600061260b826125e0565b9050919050565b61261b81612600565b811461262657600080fd5b50565b60008135905061263881612612565b92915050565b6000819050919050565b6126518161263e565b811461265c57600080fd5b50565b60008135905061266e81612648565b92915050565b6000806040838503121561268b5761268a6125d6565b5b600061269985828601612629565b92505060206126aa8582860161265f565b9150509250929050565b6126bd8161263e565b82525050565b60006020820190506126d860008301846126b4565b92915050565b60007fffffffff0000000000000000000000000000000000000000000000000000000082169050919050565b612713816126de565b811461271e57600080fd5b50565b6000813590506127308161270a565b92915050565b60006020828403121561274c5761274b6125d6565b5b600061275a84828501612721565b91505092915050565b60008115159050919050565b61277881612763565b82525050565b6000602082019050612793600083018461276f565b92915050565b6000602082840312156127af576127ae6125d6565b5b60006127bd8482850161265f565b91505092915050565b600081519050919050565b600082825260208201905092915050565b60005b838110156128005780820151818401526020810190506127e5565b8381111561280f576000848401525b50505050565b6000601f19601f8301169050919050565b6000612831826127c6565b61283b81856127d1565b935061284b8185602086016127e2565b61285481612815565b840191505092915050565b600060208201905081810360008301526128798184612826565b905092915050565b600080fd5b600080fd5b7f4e487b7100000000000000000000000000000000000000000000000000000000600052604160045260246000fd5b6128c382612815565b810181811067ffffffffffffffff821117156128e2576128e161288b565b5b80604052505050565b60006128f56125cc565b905061290182826128ba565b919050565b600067ffffffffffffffff8211156129215761292061288b565b5b61292a82612815565b9050602081019050919050565b82818337600083830152505050565b600061295961295484612906565b6128eb565b90508281526020810184848401111561297557612974612886565b5b612980848285612937565b509392505050565b600082601f83011261299d5761299c612881565b5b81356129ad848260208601612946565b91505092915050565b6000602082840312156129cc576129cb6125d6565b5b600082013567ffffffffffffffff8111156129ea576129e96125db565b5b6129f684828501612988565b91505092915050565b600067ffffffffffffffff821115612a1a57612a1961288b565b5b602082029050602081019050919050565b600080fd5b6000612a43612a3e846129ff565b6128eb565b90508083825260208201905060208402830185811115612a6657612a65612a2b565b5b835b81811015612a8f5780612a7b888261265f565b845260208401935050602081019050612a68565b5050509392505050565b600082601f830112612aae57612aad612881565b5b8135612abe848260208601612a30565b91505092915050565b600067ffffffffffffffff821115612ae257612ae161288b565b5b612aeb82612815565b9050602081019050919050565b6000612b0b612b0684612ac7565b6128eb565b905082815260208101848484011115612b2757612b26612886565b5b612b32848285612937565b509392505050565b600082601f830112612b4f57612b4e612881565b5b8135612b5f848260208601612af8565b91505092915050565b600080600080600060a08688031215612b8457612b836125d6565b5b6000612b9288828901612629565b9550506020612ba388828901612629565b945050604086013567ffffffffffffffff811115612bc457612bc36125db565b5b612bd088828901612a99565b935050606086013567ffffffffffffffff811115612bf157612bf06125db565b5b612bfd88828901612a99565b925050608086013567ffffffffffffffff811115612c1e57612c1d6125db565b5b612c2a88828901612b3a565b9150509295509295909350565b600067ffffffffffffffff821115612c5257612c5161288b565b5b602082029050602081019050919050565b6000612c76612c7184612c37565b6128eb565b90508083825260208201905060208402830185811115612c9957612c98612a2b565b5b835b81811015612cc25780612cae8882612629565b845260208401935050602081019050612c9b565b5050509392505050565b600082601f830112612ce157612ce0612881565b5b8135612cf1848260208601612c63565b91505092915050565b60008060408385031215612d1157612d106125d6565b5b600083013567ffffffffffffffff811115612d2f57612d2e6125db565b5b612d3b85828601612ccc565b925050602083013567ffffffffffffffff811115612d5c57612d5b6125db565b5b612d6885828601612a99565b9150509250929050565b600081519050919050565b600082825260208201905092915050565b6000819050602082019050919050565b612da78161263e565b82525050565b6000612db98383612d9e565b60208301905092915050565b6000602082019050919050565b6000612ddd82612d72565b612de78185612d7d565b9350612df283612d8e565b8060005b83811015612e23578151612e0a8882612dad565b9750612e1583612dc5565b925050600181019050612df6565b5085935050505092915050565b60006020820190508181036000830152612e4a8184612dd2565b905092915050565b60008060408385031215612e6957612e686125d6565b5b6000612e778582860161265f565b925050602083013567ffffffffffffffff811115612e9857612e976125db565b5b612ea485828601612988565b9150509250929050565b612eb781612600565b82525050565b6000602082019050612ed26000830184612eae565b92915050565b612ee181612763565b8114612eec57600080fd5b50565b600081359050612efe81612ed8565b92915050565b60008060408385031215612f1b57612f1a6125d6565b5b6000612f2985828601612629565b9250506020612f3a85828601612eef565b9150509250929050565b612f4d816126de565b82525050565b6000602082019050612f686000830184612f44565b92915050565b600080600060608486031215612f8757612f866125d6565b5b600084013567ffffffffffffffff811115612fa557612fa46125db565b5b612fb186828701612988565b9350506020612fc28682870161265f565b925050604084013567ffffffffffffffff811115612fe357612fe26125db565b5b612fef86828701612988565b9150509250925092565b60006020828403121561300f5761300e6125d6565b5b600061301d84828501612629565b91505092915050565b6000806040838503121561303d5761303c6125d6565b5b600061304b85828601612629565b925050602061305c85828601612629565b9150509250929050565b600080600080600060a08688031215613082576130816125d6565b5b600061309088828901612629565b95505060206130a188828901612629565b94505060406130b28882890161265f565b93505060606130c38882890161265f565b925050608086013567ffffffffffffffff8111156130e4576130e36125db565b5b6130f088828901612b3a565b9150509295509295909350565b7f455243313135353a2062616c616e636520717565727920666f7220746865207a60008201527f65726f2061646472657373000000000000000000000000000000000000000000602082015250565b6000613159602b836127d1565b9150613164826130fd565b604082019050919050565b600060208201905081810360008301526131888161314c565b9050919050565b7f4e487b7100000000000000000000000000000000000000000000000000000000600052602260045260246000fd5b600060028204905060018216806131d657607f821691505b6020821081036131e9576131e861318f565b5b50919050565b600081905092915050565b6000613205826127c6565b61320f81856131ef565b935061321f8185602086016127e2565b80840191505092915050565b600061323782846131fa565b915081905092915050565b7f455243313135353a207472616e736665722063616c6c6572206973206e6f742060008201527f6f776e6572206e6f7220617070726f7665640000000000000000000000000000602082015250565b600061329e6032836127d1565b91506132a982613242565b604082019050919050565b600060208201905081810360008301526132cd81613291565b9050919050565b7f455243313135353a206163636f756e747320616e6420696473206c656e67746860008201527f206d69736d617463680000000000000000000000000000000000000000000000602082015250565b60006133306029836127d1565b915061333b826132d4565b604082019050919050565b6000602082019050818103600083015261335f81613323565b9050919050565b7f4e487b7100000000000000000000000000000000000000000000000000000000600052603260045260246000fd5b7f4e487b7100000000000000000000000000000000000000000000000000000000600052601160045260246000fd5b60006133cf8261263e565b91507fffffffffffffffffffffffffffffffffffffffffffffffffffffffffffffffff820361340157613400613395565b5b600182019050919050565b7f4f776e61626c653a2063616c6c6572206973206e6f7420746865206f776e6572600082015250565b60006134426020836127d1565b915061344d8261340c565b602082019050919050565b6000602082019050818103600083015261347181613435565b9050919050565b7f6f6e6c792061646d696e2063616e2063616c6c20746869730000000000000000600082015250565b60006134ae6018836127d1565b91506134b982613478565b602082019050919050565b600060208201905081810360008301526134dd816134a1565b9050919050565b7f455243313135353a2063616c6c6572206973206e6f74206f776e6572206e6f7260008201527f20617070726f7665640000000000000000000000000000000000000000000000602082015250565b60006135406029836127d1565b915061354b826134e4565b604082019050919050565b6000602082019050818103600083015261356f81613533565b9050919050565b7f4f776e61626c653a206e6577206f776e657220697320746865207a65726f206160008201527f6464726573730000000000000000000000000000000000000000000000000000602082015250565b60006135d26026836127d1565b91506135dd82613576565b604082019050919050565b60006020820190508181036000830152613601816135c5565b9050919050565b7f455243313135353a2069647320616e6420616d6f756e7473206c656e6774682060008201527f6d69736d61746368000000000000000000000000000000000000000000000000602082015250565b60006136646028836127d1565b915061366f82613608565b604082019050919050565b6000602082019050818103600083015261369381613657565b9050919050565b7f455243313135353a207472616e7366657220746f20746865207a65726f20616460008201527f6472657373000000000000000000000000000000000000000000000000000000602082015250565b60006136f66025836127d1565b91506137018261369a565b604082019050919050565b60006020820190508181036000830152613725816136e9565b9050919050565b7f455243313135353a20696e73756666696369656e742062616c616e636520666f60008201527f72207472616e7366657200000000000000000000000000000000000000000000602082015250565b6000613788602a836127d1565b91506137938261372c565b604082019050919050565b600060208201905081810360008301526137b78161377b565b9050919050565b60006137c98261263e565b91506137d48361263e565b9250827fffffffffffffffffffffffffffffffffffffffffffffffffffffffffffffffff0382111561380957613808613395565b5b828201905092915050565b6000604082019050818103600083015261382e8185612dd2565b905081810360208301526138428184612dd2565b90509392505050565b600060408201905061386060008301856126b4565b61386d60208301846126b4565b9392505050565b7f455243313135353a2073657474696e6720617070726f76616c2073746174757360008201527f20666f722073656c660000000000000000000000000000000000000000000000602082015250565b60006138d06029836127d1565b91506138db82613874565b604082019050919050565b600060208201905081810360008301526138ff816138c3565b9050919050565b7f455243313135353a206d696e7420746f20746865207a65726f2061646472657360008201527f7300000000000000000000000000000000000000000000000000000000000000602082015250565b60006139626021836127d1565b915061396d82613906565b604082019050919050565b6000602082019050818103600083015261399181613955565b9050919050565b600081519050919050565b600082825260208201905092915050565b60006139bf82613998565b6139c981856139a3565b93506139d98185602086016127e2565b6139e281612815565b840191505092915050565b600060a082019050613a026000830188612eae565b613a0f6020830187612eae565b8181036040830152613a218186612dd2565b90508181036060830152613a358185612dd2565b90508181036080830152613a4981846139b4565b90509695505050505050565b600081519050613a648161270a565b92915050565b600060208284031215613a8057613a7f6125d6565b5b6000613a8e84828501613a55565b91505092915050565b60008160e01c9050919050565b600060033d1115613ac35760046000803e613ac0600051613a97565b90505b90565b600060443d10613b5357613ad86125cc565b60043d036004823e80513d602482011167ffffffffffffffff82111715613b00575050613b53565b808201805167ffffffffffffffff811115613b1e5750505050613b53565b80602083010160043d038501811115613b3b575050505050613b53565b613b4a826020018501866128ba565b82955050505050505b90565b7f455243313135353a207472616e7366657220746f206e6f6e204552433131353560008201527f526563656976657220696d706c656d656e746572000000000000000000000000602082015250565b6000613bb26034836127d1565b9150613bbd82613b56565b604082019050919050565b60006020820190508181036000830152613be181613ba5565b9050919050565b7f455243313135353a204552433131353552656365697665722072656a6563746560008201527f6420746f6b656e73000000000000000000000000000000000000000000000000602082015250565b6000613c446028836127d1565b9150613c4f82613be8565b604082019050919050565b60006020820190508181036000830152613c7381613c37565b9050919050565b600060a082019050613c8f6000830188612eae565b613c9c6020830187612eae565b613ca960408301866126b4565b613cb660608301856126b4565b8181036080830152613cc881846139b4565b9050969550505050505056fea2646970667358221220c982c0871d7f3571fb3c4a50ab85e740da45b750d46a8f28db33be7078dfb73b64736f6c634300080d0033",
  "immutableReferences": {},
  "source": "// SPDX-License-Identifier: MIT\npragma solidity ^0.8.0;\nimport \"../ERC1155/ERC1155.sol\";\nimport \"../ERC1155/utils/ERC1155Holder.sol\";\nimport \"../ERC1155/utils/access/Ownable.sol\";\n\n\n\ncontract TFG is ERC1155, ERC1155Holder, Ownable{\n    address public admin;\n    address public addressC;\n    uint256 public count;\n\n    //ids para los tokens\n    uint256 public constant moneda = 0;\n\n    //estructuras auxiliares\n    string [] public docs;\n    mapping (string => address) _seller;\n    mapping (string => bool) _docExists;\n    mapping (string => uint) _price;\n    mapping (string => address) _property;\n    mapping (string => string) _titles;\n    mapping (string => uint) _ids;\n\n\n    string ipfsHash;\n\n    constructor() ERC1155(\"\") {\n        addressC = address(this);\n        admin = msg.sender;\n        count = 1;\n       _mint(msg.sender, moneda, 100, \"\");\n    }\n\n    function supportsInterface(bytes4 interfaceId)\n        public\n        view\n        virtual\n        override(ERC1155, ERC1155Receiver)\n        returns (bool)\n    {\n        return super.supportsInterface(interfaceId);\n    }\n \n    function sendHash(string memory x, uint precio, string memory titulo) public {\n        require(!_docExists[x]);\n        ipfsHash = x;\n        docs.push(x);\n        _ids[x] = count;\n        _price[x] = precio;\n        _property[x] = msg.sender;\n        _titles[x] = titulo;\n        bytes memory dataColor = bytes(x);\n        _mint(msg.sender, count, 1, dataColor);\n        count++;\n        _docExists[x] = true;\n    }\n\n    function getHash() public view returns (string memory x) {\n    return ipfsHash;\n    }\n    \n    modifier onlyAdmin() {\n        require(msg.sender == admin, \"only admin can call this\");\n        _;\n    }\n\n    function totalSupply() public view returns (uint256){\n        return docs.length;\n    }\n\n    function getProperty(string memory id) public view returns (address){\n        return _property[id];\n    }\n\n    function getTitle(string memory id) public view returns(string memory title){\n        return _titles[id];\n    }\n\n    function getPrice(string memory id) public view returns (uint256){\n        return _price[id];\n    }\n\n    function funds(address propietario) public view returns (uint256){\n        return balanceOf(propietario, 0);\n    }\n    \n\n    function addFunds() public payable onlyAdmin{\n        _mint(msg.sender, 0, 100, \"\");\n    }\n\n\n    function buy(string memory id) public payable {\n        //Ahora la transaccin de las monedas\n        safeTransferFrom(msg.sender, _seller[id], 0, _price[id], \"\");\n        _safeTransferFrom(_property[id], msg.sender, _ids[id], 1, \"\");\n        _property[id] = msg.sender;\n    }\n\n    function permission(string memory id) public {\n        _seller[id] = _property[id];\n        _property[id] = address(this);\n        safeTransferFrom(msg.sender, _property[id], _ids[id], 1, \"\");\n    }\n\n    function updatePrice(uint newPrice, string memory id) public {\n        _price[id] = newPrice;\n    }\n\n}",
  "sourcePath": "/Users/ignacio/Desktop/TFG1155/src/contracts/TFG.sol",
  "compiler": {
    "name": "solc",
    "version": "0.8.13+commit.abaa5c0e.Emscripten.clang"
  },
  "schemaVersion": "3.4.2",
  "updatedAt": "2022-04-12T16:49:10.781Z",
  "networkType": "ethereum",
  "devdoc": {
    "kind": "dev",
    "methods": {
      "balanceOf(address,uint256)": {
        "details": "See {IERC1155-balanceOf}. Requirements: - `account` cannot be the zero address."
      },
      "balanceOfBatch(address[],uint256[])": {
        "details": "See {IERC1155-balanceOfBatch}. Requirements: - `accounts` and `ids` must have the same length."
      },
      "isApprovedForAll(address,address)": {
        "details": "See {IERC1155-isApprovedForAll}."
      },
      "owner()": {
        "details": "Returns the address of the current owner."
      },
      "renounceOwnership()": {
        "details": "Leaves the contract without owner. It will not be possible to call `onlyOwner` functions anymore. Can only be called by the current owner. NOTE: Renouncing ownership will leave the contract without an owner, thereby removing any functionality that is only available to the owner."
      },
      "safeBatchTransferFrom(address,address,uint256[],uint256[],bytes)": {
        "details": "See {IERC1155-safeBatchTransferFrom}."
      },
      "safeTransferFrom(address,address,uint256,uint256,bytes)": {
        "details": "See {IERC1155-safeTransferFrom}."
      },
      "setApprovalForAll(address,bool)": {
        "details": "See {IERC1155-setApprovalForAll}."
      },
      "transferOwnership(address)": {
        "details": "Transfers ownership of the contract to a new account (`newOwner`). Can only be called by the current owner."
      },
      "uri(uint256)": {
        "details": "See {IERC1155MetadataURI-uri}. This implementation returns the same URI for *all* token types. It relies on the token type ID substitution mechanism https://eips.ethereum.org/EIPS/eip-1155#metadata[defined in the EIP]. Clients calling this function must replace the `\\{id\\}` substring with the actual token type ID."
      }
    },
    "version": 1
  },
  "userdoc": {
    "kind": "user",
    "methods": {},
    "version": 1
  }
}