{
  "contractName": "TFG",
  "abi": [
    {
      "inputs": [],
      "stateMutability": "nonpayable",
      "type": "constructor"
    },
    {
      "anonymous": false,
      "inputs": [
        {
          "indexed": true,
          "internalType": "address",
          "name": "account",
          "type": "address"
        },
        {
          "indexed": true,
          "internalType": "address",
          "name": "operator",
          "type": "address"
        },
        {
          "indexed": false,
          "internalType": "bool",
          "name": "approved",
          "type": "bool"
        }
      ],
      "name": "ApprovalForAll",
      "type": "event"
    },
    {
      "anonymous": false,
      "inputs": [
        {
          "indexed": true,
          "internalType": "address",
          "name": "previousOwner",
          "type": "address"
        },
        {
          "indexed": true,
          "internalType": "address",
          "name": "newOwner",
          "type": "address"
        }
      ],
      "name": "OwnershipTransferred",
      "type": "event"
    },
    {
      "anonymous": false,
      "inputs": [
        {
          "indexed": true,
          "internalType": "address",
          "name": "operator",
          "type": "address"
        },
        {
          "indexed": true,
          "internalType": "address",
          "name": "from",
          "type": "address"
        },
        {
          "indexed": true,
          "internalType": "address",
          "name": "to",
          "type": "address"
        },
        {
          "indexed": false,
          "internalType": "uint256[]",
          "name": "ids",
          "type": "uint256[]"
        },
        {
          "indexed": false,
          "internalType": "uint256[]",
          "name": "values",
          "type": "uint256[]"
        }
      ],
      "name": "TransferBatch",
      "type": "event"
    },
    {
      "anonymous": false,
      "inputs": [
        {
          "indexed": true,
          "internalType": "address",
          "name": "operator",
          "type": "address"
        },
        {
          "indexed": true,
          "internalType": "address",
          "name": "from",
          "type": "address"
        },
        {
          "indexed": true,
          "internalType": "address",
          "name": "to",
          "type": "address"
        },
        {
          "indexed": false,
          "internalType": "uint256",
          "name": "id",
          "type": "uint256"
        },
        {
          "indexed": false,
          "internalType": "uint256",
          "name": "value",
          "type": "uint256"
        }
      ],
      "name": "TransferSingle",
      "type": "event"
    },
    {
      "anonymous": false,
      "inputs": [
        {
          "indexed": false,
          "internalType": "string",
          "name": "value",
          "type": "string"
        },
        {
          "indexed": true,
          "internalType": "uint256",
          "name": "id",
          "type": "uint256"
        }
      ],
      "name": "URI",
      "type": "event"
    },
    {
      "inputs": [],
      "name": "addressC",
      "outputs": [
        {
          "internalType": "address",
          "name": "",
          "type": "address"
        }
      ],
      "stateMutability": "view",
      "type": "function",
      "constant": true
    },
    {
      "inputs": [],
      "name": "admin",
      "outputs": [
        {
          "internalType": "address",
          "name": "",
          "type": "address"
        }
      ],
      "stateMutability": "view",
      "type": "function",
      "constant": true
    },
    {
      "inputs": [
        {
          "internalType": "address",
          "name": "account",
          "type": "address"
        },
        {
          "internalType": "uint256",
          "name": "id",
          "type": "uint256"
        }
      ],
      "name": "balanceOf",
      "outputs": [
        {
          "internalType": "uint256",
          "name": "",
          "type": "uint256"
        }
      ],
      "stateMutability": "view",
      "type": "function",
      "constant": true
    },
    {
      "inputs": [
        {
          "internalType": "address[]",
          "name": "accounts",
          "type": "address[]"
        },
        {
          "internalType": "uint256[]",
          "name": "ids",
          "type": "uint256[]"
        }
      ],
      "name": "balanceOfBatch",
      "outputs": [
        {
          "internalType": "uint256[]",
          "name": "",
          "type": "uint256[]"
        }
      ],
      "stateMutability": "view",
      "type": "function",
      "constant": true
    },
    {
      "inputs": [],
      "name": "count",
      "outputs": [
        {
          "internalType": "uint256",
          "name": "",
          "type": "uint256"
        }
      ],
      "stateMutability": "view",
      "type": "function",
      "constant": true
    },
    {
      "inputs": [
        {
          "internalType": "uint256",
          "name": "",
          "type": "uint256"
        }
      ],
      "name": "docs",
      "outputs": [
        {
          "internalType": "string",
          "name": "",
          "type": "string"
        }
      ],
      "stateMutability": "view",
      "type": "function",
      "constant": true
    },
    {
      "inputs": [
        {
          "internalType": "address",
          "name": "account",
          "type": "address"
        },
        {
          "internalType": "address",
          "name": "operator",
          "type": "address"
        }
      ],
      "name": "isApprovedForAll",
      "outputs": [
        {
          "internalType": "bool",
          "name": "",
          "type": "bool"
        }
      ],
      "stateMutability": "view",
      "type": "function",
      "constant": true
    },
    {
      "inputs": [],
      "name": "moneda",
      "outputs": [
        {
          "internalType": "uint256",
          "name": "",
          "type": "uint256"
        }
      ],
      "stateMutability": "view",
      "type": "function",
      "constant": true
    },
    {
      "inputs": [
        {
          "internalType": "address",
          "name": "",
          "type": "address"
        },
        {
          "internalType": "address",
          "name": "",
          "type": "address"
        },
        {
          "internalType": "uint256[]",
          "name": "",
          "type": "uint256[]"
        },
        {
          "internalType": "uint256[]",
          "name": "",
          "type": "uint256[]"
        },
        {
          "internalType": "bytes",
          "name": "",
          "type": "bytes"
        }
      ],
      "name": "onERC1155BatchReceived",
      "outputs": [
        {
          "internalType": "bytes4",
          "name": "",
          "type": "bytes4"
        }
      ],
      "stateMutability": "nonpayable",
      "type": "function"
    },
    {
      "inputs": [
        {
          "internalType": "address",
          "name": "",
          "type": "address"
        },
        {
          "internalType": "address",
          "name": "",
          "type": "address"
        },
        {
          "internalType": "uint256",
          "name": "",
          "type": "uint256"
        },
        {
          "internalType": "uint256",
          "name": "",
          "type": "uint256"
        },
        {
          "internalType": "bytes",
          "name": "",
          "type": "bytes"
        }
      ],
      "name": "onERC1155Received",
      "outputs": [
        {
          "internalType": "bytes4",
          "name": "",
          "type": "bytes4"
        }
      ],
      "stateMutability": "nonpayable",
      "type": "function"
    },
    {
      "inputs": [],
      "name": "owner",
      "outputs": [
        {
          "internalType": "address",
          "name": "",
          "type": "address"
        }
      ],
      "stateMutability": "view",
      "type": "function",
      "constant": true
    },
    {
      "inputs": [],
      "name": "renounceOwnership",
      "outputs": [],
      "stateMutability": "nonpayable",
      "type": "function"
    },
    {
      "inputs": [
        {
          "internalType": "address",
          "name": "from",
          "type": "address"
        },
        {
          "internalType": "address",
          "name": "to",
          "type": "address"
        },
        {
          "internalType": "uint256[]",
          "name": "ids",
          "type": "uint256[]"
        },
        {
          "internalType": "uint256[]",
          "name": "amounts",
          "type": "uint256[]"
        },
        {
          "internalType": "bytes",
          "name": "data",
          "type": "bytes"
        }
      ],
      "name": "safeBatchTransferFrom",
      "outputs": [],
      "stateMutability": "nonpayable",
      "type": "function"
    },
    {
      "inputs": [
        {
          "internalType": "address",
          "name": "from",
          "type": "address"
        },
        {
          "internalType": "address",
          "name": "to",
          "type": "address"
        },
        {
          "internalType": "uint256",
          "name": "id",
          "type": "uint256"
        },
        {
          "internalType": "uint256",
          "name": "amount",
          "type": "uint256"
        },
        {
          "internalType": "bytes",
          "name": "data",
          "type": "bytes"
        }
      ],
      "name": "safeTransferFrom",
      "outputs": [],
      "stateMutability": "nonpayable",
      "type": "function"
    },
    {
      "inputs": [
        {
          "internalType": "address",
          "name": "operator",
          "type": "address"
        },
        {
          "internalType": "bool",
          "name": "approved",
          "type": "bool"
        }
      ],
      "name": "setApprovalForAll",
      "outputs": [],
      "stateMutability": "nonpayable",
      "type": "function"
    },
    {
      "inputs": [
        {
          "internalType": "address",
          "name": "newOwner",
          "type": "address"
        }
      ],
      "name": "transferOwnership",
      "outputs": [],
      "stateMutability": "nonpayable",
      "type": "function"
    },
    {
      "inputs": [
        {
          "internalType": "uint256",
          "name": "",
          "type": "uint256"
        }
      ],
      "name": "uri",
      "outputs": [
        {
          "internalType": "string",
          "name": "",
          "type": "string"
        }
      ],
      "stateMutability": "view",
      "type": "function",
      "constant": true
    },
    {
      "inputs": [
        {
          "internalType": "bytes4",
          "name": "interfaceId",
          "type": "bytes4"
        }
      ],
      "name": "supportsInterface",
      "outputs": [
        {
          "internalType": "bool",
          "name": "",
          "type": "bool"
        }
      ],
      "stateMutability": "view",
      "type": "function",
      "constant": true
    },
    {
      "inputs": [
        {
          "internalType": "string",
          "name": "x",
          "type": "string"
        },
        {
          "internalType": "uint256",
          "name": "precio",
          "type": "uint256"
        },
        {
          "internalType": "string",
          "name": "titulo",
          "type": "string"
        },
        {
          "internalType": "string",
          "name": "description",
          "type": "string"
        }
      ],
      "name": "sendHash",
      "outputs": [],
      "stateMutability": "nonpayable",
      "type": "function"
    },
    {
      "inputs": [],
      "name": "getHash",
      "outputs": [
        {
          "internalType": "string",
          "name": "x",
          "type": "string"
        }
      ],
      "stateMutability": "view",
      "type": "function",
      "constant": true
    },
    {
      "inputs": [],
      "name": "totalSupply",
      "outputs": [
        {
          "internalType": "uint256",
          "name": "",
          "type": "uint256"
        }
      ],
      "stateMutability": "view",
      "type": "function",
      "constant": true
    },
    {
      "inputs": [
        {
          "internalType": "string",
          "name": "id",
          "type": "string"
        }
      ],
      "name": "getProperty",
      "outputs": [
        {
          "internalType": "address",
          "name": "",
          "type": "address"
        }
      ],
      "stateMutability": "view",
      "type": "function",
      "constant": true
    },
    {
      "inputs": [
        {
          "internalType": "string",
          "name": "id",
          "type": "string"
        },
        {
          "internalType": "string",
          "name": "newDescription",
          "type": "string"
        },
        {
          "internalType": "uint256",
          "name": "newPrice",
          "type": "uint256"
        }
      ],
      "name": "update",
      "outputs": [],
      "stateMutability": "nonpayable",
      "type": "function"
    },
    {
      "inputs": [
        {
          "internalType": "string",
          "name": "id",
          "type": "string"
        }
      ],
      "name": "getTitle",
      "outputs": [
        {
          "internalType": "string",
          "name": "title",
          "type": "string"
        }
      ],
      "stateMutability": "view",
      "type": "function",
      "constant": true
    },
    {
      "inputs": [
        {
          "internalType": "string",
          "name": "id",
          "type": "string"
        },
        {
          "internalType": "string",
          "name": "newTitle",
          "type": "string"
        }
      ],
      "name": "setTitle",
      "outputs": [],
      "stateMutability": "nonpayable",
      "type": "function"
    },
    {
      "inputs": [
        {
          "internalType": "string",
          "name": "id",
          "type": "string"
        }
      ],
      "name": "getPrice",
      "outputs": [
        {
          "internalType": "uint256",
          "name": "",
          "type": "uint256"
        }
      ],
      "stateMutability": "view",
      "type": "function",
      "constant": true
    },
    {
      "inputs": [
        {
          "internalType": "string",
          "name": "id",
          "type": "string"
        },
        {
          "internalType": "uint256",
          "name": "newPrice",
          "type": "uint256"
        }
      ],
      "name": "setPrice",
      "outputs": [],
      "stateMutability": "nonpayable",
      "type": "function"
    },
    {
      "inputs": [
        {
          "internalType": "string",
          "name": "id",
          "type": "string"
        }
      ],
      "name": "getDescription",
      "outputs": [
        {
          "internalType": "string",
          "name": "",
          "type": "string"
        }
      ],
      "stateMutability": "view",
      "type": "function",
      "constant": true
    },
    {
      "inputs": [
        {
          "internalType": "string",
          "name": "id",
          "type": "string"
        },
        {
          "internalType": "string",
          "name": "newDescription",
          "type": "string"
        }
      ],
      "name": "setDescription",
      "outputs": [],
      "stateMutability": "nonpayable",
      "type": "function"
    },
    {
      "inputs": [
        {
          "internalType": "address",
          "name": "propietario",
          "type": "address"
        }
      ],
      "name": "funds",
      "outputs": [
        {
          "internalType": "uint256",
          "name": "",
          "type": "uint256"
        }
      ],
      "stateMutability": "view",
      "type": "function",
      "constant": true
    },
    {
      "inputs": [],
      "name": "addFunds",
      "outputs": [],
      "stateMutability": "payable",
      "type": "function",
      "payable": true
    },
    {
      "inputs": [
        {
          "internalType": "string",
          "name": "id",
          "type": "string"
        }
      ],
      "name": "buy",
      "outputs": [],
      "stateMutability": "payable",
      "type": "function",
      "payable": true
    },
    {
      "inputs": [
        {
          "internalType": "string",
          "name": "id",
          "type": "string"
        }
      ],
      "name": "permission",
      "outputs": [],
      "stateMutability": "nonpayable",
      "type": "function"
    }
  ],
  "bytecode": "0x60806040523480156200001157600080fd5b506040518060200160405280600081525062000033816200010960201b60201c565b5062000054620000486200012560201b60201c565b6200012d60201b60201c565b30600560006101000a81548173ffffffffffffffffffffffffffffffffffffffff021916908373ffffffffffffffffffffffffffffffffffffffff16021790555033600460006101000a81548173ffffffffffffffffffffffffffffffffffffffff021916908373ffffffffffffffffffffffffffffffffffffffff160217905550600160068190555062000103336000606460405180602001604052806000815250620001f360201b60201c565b62000dd9565b8060029080519060200190620001219291906200065c565b5050565b600033905090565b6000600360009054906101000a900473ffffffffffffffffffffffffffffffffffffffff16905081600360006101000a81548173ffffffffffffffffffffffffffffffffffffffff021916908373ffffffffffffffffffffffffffffffffffffffff1602179055508173ffffffffffffffffffffffffffffffffffffffff168173ffffffffffffffffffffffffffffffffffffffff167f8be0079c531659141344cd1fd0a4f28419497f9722a3daafe3b4186f6b6457e060405160405180910390a35050565b600073ffffffffffffffffffffffffffffffffffffffff168473ffffffffffffffffffffffffffffffffffffffff160362000265576040517f08c379a00000000000000000000000000000000000000000000000000000000081526004016200025c9062000793565b60405180910390fd5b6000620002776200012560201b60201c565b9050620002b0816000876200029288620003b760201b60201c565b620002a388620003b760201b60201c565b876200043860201b60201c565b8260008086815260200190815260200160002060008773ffffffffffffffffffffffffffffffffffffffff1673ffffffffffffffffffffffffffffffffffffffff1681526020019081526020016000206000828254620003119190620007ee565b925050819055508473ffffffffffffffffffffffffffffffffffffffff16600073ffffffffffffffffffffffffffffffffffffffff168273ffffffffffffffffffffffffffffffffffffffff167fc3d58168c5ae7397731d063d5bbf3d657854427343f4c083240f7aacaa2d0f628787604051620003919291906200085c565b60405180910390a4620003b0816000878787876200044060201b60201c565b5050505050565b60606000600167ffffffffffffffff811115620003d957620003d862000889565b5b604051908082528060200260200182016040528015620004085781602001602082028036833780820191505090505b5090508281600081518110620004235762000422620008b8565b5b60200260200101818152505080915050919050565b505050505050565b6200046c8473ffffffffffffffffffffffffffffffffffffffff166200063960201b6200183e1760201c565b1562000631578373ffffffffffffffffffffffffffffffffffffffff1663f23a6e6187878686866040518663ffffffff1660e01b8152600401620004b5959493929190620009d0565b6020604051808303816000875af1925050508015620004f457506040513d601f19601f82011682018060405250810190620004f1919062000aa0565b60015b620005a5576200050362000adf565b806308c379a0036200056657506200051a62000b3a565b8062000527575062000568565b806040517f08c379a00000000000000000000000000000000000000000000000000000000081526004016200055d919062000c21565b60405180910390fd5b505b6040517f08c379a00000000000000000000000000000000000000000000000000000000081526004016200059c9062000cbb565b60405180910390fd5b63f23a6e6160e01b7bffffffffffffffffffffffffffffffffffffffffffffffffffffffff1916817bffffffffffffffffffffffffffffffffffffffffffffffffffffffff1916146200062f576040517f08c379a0000000000000000000000000000000000000000000000000000000008152600401620006269062000d53565b60405180910390fd5b505b505050505050565b6000808273ffffffffffffffffffffffffffffffffffffffff163b119050919050565b8280546200066a9062000da4565b90600052602060002090601f0160209004810192826200068e5760008555620006da565b82601f10620006a957805160ff1916838001178555620006da565b82800160010185558215620006da579182015b82811115620006d9578251825591602001919060010190620006bc565b5b509050620006e99190620006ed565b5090565b5b8082111562000708576000816000905550600101620006ee565b5090565b600082825260208201905092915050565b7f455243313135353a206d696e7420746f20746865207a65726f2061646472657360008201527f7300000000000000000000000000000000000000000000000000000000000000602082015250565b60006200077b6021836200070c565b915062000788826200071d565b604082019050919050565b60006020820190508181036000830152620007ae816200076c565b9050919050565b6000819050919050565b7f4e487b7100000000000000000000000000000000000000000000000000000000600052601160045260246000fd5b6000620007fb82620007b5565b91506200080883620007b5565b9250827fffffffffffffffffffffffffffffffffffffffffffffffffffffffffffffffff0382111562000840576200083f620007bf565b5b828201905092915050565b6200085681620007b5565b82525050565b60006040820190506200087360008301856200084b565b6200088260208301846200084b565b9392505050565b7f4e487b7100000000000000000000000000000000000000000000000000000000600052604160045260246000fd5b7f4e487b7100000000000000000000000000000000000000000000000000000000600052603260045260246000fd5b600073ffffffffffffffffffffffffffffffffffffffff82169050919050565b60006200091482620008e7565b9050919050565b620009268162000907565b82525050565b600081519050919050565b600082825260208201905092915050565b60005b83811015620009685780820151818401526020810190506200094b565b8381111562000978576000848401525b50505050565b6000601f19601f8301169050919050565b60006200099c826200092c565b620009a8818562000937565b9350620009ba81856020860162000948565b620009c5816200097e565b840191505092915050565b600060a082019050620009e760008301886200091b565b620009f660208301876200091b565b62000a0560408301866200084b565b62000a1460608301856200084b565b818103608083015262000a2881846200098f565b90509695505050505050565b6000604051905090565b600080fd5b60007fffffffff0000000000000000000000000000000000000000000000000000000082169050919050565b62000a7a8162000a43565b811462000a8657600080fd5b50565b60008151905062000a9a8162000a6f565b92915050565b60006020828403121562000ab95762000ab862000a3e565b5b600062000ac98482850162000a89565b91505092915050565b60008160e01c9050919050565b600060033d111562000b015760046000803e62000afe60005162000ad2565b90505b90565b62000b0f826200097e565b810181811067ffffffffffffffff8211171562000b315762000b3062000889565b5b80604052505050565b600060443d1062000bd25762000b4f62000a34565b60043d036004823e80513d602482011167ffffffffffffffff8211171562000b7957505062000bd2565b808201805167ffffffffffffffff81111562000b99575050505062000bd2565b80602083010160043d03850181111562000bb857505050505062000bd2565b62000bc98260200185018662000b04565b82955050505050505b90565b600081519050919050565b600062000bed8262000bd5565b62000bf981856200070c565b935062000c0b81856020860162000948565b62000c16816200097e565b840191505092915050565b6000602082019050818103600083015262000c3d818462000be0565b905092915050565b7f455243313135353a207472616e7366657220746f206e6f6e204552433131353560008201527f526563656976657220696d706c656d656e746572000000000000000000000000602082015250565b600062000ca36034836200070c565b915062000cb08262000c45565b604082019050919050565b6000602082019050818103600083015262000cd68162000c94565b9050919050565b7f455243313135353a204552433131353552656365697665722072656a6563746560008201527f6420746f6b656e73000000000000000000000000000000000000000000000000602082015250565b600062000d3b6028836200070c565b915062000d488262000cdd565b604082019050919050565b6000602082019050818103600083015262000d6e8162000d2c565b9050919050565b7f4e487b7100000000000000000000000000000000000000000000000000000000600052602260045260246000fd5b6000600282049050600182168062000dbd57607f821691505b60208210810362000dd35762000dd262000d75565b5b50919050565b6140ce8062000de96000396000f3fe6080604052600436106101ed5760003560e01c8063715018a61161010d578063d13319c4116100a0578063f1cc12681161006f578063f1cc12681461072a578063f23a6e6114610755578063f242432a14610792578063f2fde38b146107bb578063f851a440146107e4576101ed565b8063d13319c41461065c578063dc8e9a1514610687578063e2ae93fb146106b0578063e985e9c5146106ed576101ed565b8063ab331a34116100dc578063ab331a341461058e578063bc197c81146105cb578063c79fc60914610608578063cd4eb3b814610633576101ed565b8063715018a6146105195780638da5cb5b14610530578063a22cb4651461055b578063a26759cb14610584576101ed565b806323389c5a11610185578063492cc76911610154578063492cc7691461045a5780634e1273f414610476578063524f3889146104b35780636755d456146104f0576101ed565b806323389c5a1461038e5780632eb2c2d6146103cb5780633e995df2146103f457806345de2ca01461041d576101ed565b80630e89341c116101c15780630e89341c146102c057806318160ddd146102fd5780631b46e49c1461032857806322e0119214610365576101ed565b8062fdd58e146101f257806301ffc9a71461022f57806302a5e84c1461026c57806306661abd14610295575b600080fd5b3480156101fe57600080fd5b5061021960048036038101906102149190612905565b61080f565b6040516102269190612954565b60405180910390f35b34801561023b57600080fd5b50610256600480360381019061025191906129c7565b6108d7565b6040516102639190612a0f565b60405180910390f35b34801561027857600080fd5b50610293600480360381019061028e9190612b70565b6108e9565b005b3480156102a157600080fd5b506102aa610ae7565b6040516102b79190612954565b60405180910390f35b3480156102cc57600080fd5b506102e760048036038101906102e29190612c2b565b610aed565b6040516102f49190612ce0565b60405180910390f35b34801561030957600080fd5b50610312610b81565b60405161031f9190612954565b60405180910390f35b34801561033457600080fd5b5061034f600480360381019061034a9190612d02565b610b8e565b60405161035c9190612ce0565b60405180910390f35b34801561037157600080fd5b5061038c60048036038101906103879190612d4b565b610c3e565b005b34801561039a57600080fd5b506103b560048036038101906103b09190612c2b565b610c65565b6040516103c29190612ce0565b60405180910390f35b3480156103d757600080fd5b506103f260048036038101906103ed9190612f10565b610d11565b005b34801561040057600080fd5b5061041b60048036038101906104169190612fdf565b610db2565b005b34801561042957600080fd5b50610444600480360381019061043f9190612d02565b610e0d565b6040516104519190612ce0565b60405180910390f35b610474600480360381019061046f9190612d02565b610ebd565b005b34801561048257600080fd5b5061049d6004803603810190610498919061312d565b61100f565b6040516104aa9190613263565b60405180910390f35b3480156104bf57600080fd5b506104da60048036038101906104d59190612d02565b611128565b6040516104e79190612954565b60405180910390f35b3480156104fc57600080fd5b5061051760048036038101906105129190613285565b611150565b005b34801561052557600080fd5b5061052e611187565b005b34801561053c57600080fd5b5061054561120f565b604051610552919061330c565b60405180910390f35b34801561056757600080fd5b50610582600480360381019061057d9190613353565b611239565b005b61058c61124f565b005b34801561059a57600080fd5b506105b560048036038101906105b09190612d02565b6112fe565b6040516105c2919061330c565b60405180910390f35b3480156105d757600080fd5b506105f260048036038101906105ed9190612f10565b611346565b6040516105ff91906133a2565b60405180910390f35b34801561061457600080fd5b5061061d61135b565b60405161062a919061330c565b60405180910390f35b34801561063f57600080fd5b5061065a60048036038101906106559190612d02565b611381565b005b34801561066857600080fd5b506106716114f5565b60405161067e9190612ce0565b60405180910390f35b34801561069357600080fd5b506106ae60048036038101906106a99190613285565b611587565b005b3480156106bc57600080fd5b506106d760048036038101906106d291906133bd565b6115be565b6040516106e49190612954565b60405180910390f35b3480156106f957600080fd5b50610714600480360381019061070f91906133ea565b6115d2565b6040516107219190612a0f565b60405180910390f35b34801561073657600080fd5b5061073f611666565b60405161074c9190612954565b60405180910390f35b34801561076157600080fd5b5061077c6004803603810190610777919061342a565b61166b565b60405161078991906133a2565b60405180910390f35b34801561079e57600080fd5b506107b960048036038101906107b4919061342a565b611680565b005b3480156107c757600080fd5b506107e260048036038101906107dd91906133bd565b611721565b005b3480156107f057600080fd5b506107f9611818565b604051610806919061330c565b60405180910390f35b60008073ffffffffffffffffffffffffffffffffffffffff168373ffffffffffffffffffffffffffffffffffffffff160361087f576040517f08c379a000000000000000000000000000000000000000000000000000000000815260040161087690613533565b60405180910390fd5b60008083815260200190815260200160002060008473ffffffffffffffffffffffffffffffffffffffff1673ffffffffffffffffffffffffffffffffffffffff16815260200190815260200160002054905092915050565b60006108e282611861565b9050919050565b6009846040516108f9919061358f565b908152602001604051809103902060009054906101000a900460ff161561091f57600080fd5b83600f90805190602001906109359291906127ba565b506007849080600181540180825580915050600190039060005260206000200160009091909190915090805190602001906109719291906127ba565b50600654600d85604051610985919061358f565b90815260200160405180910390208190555082600a856040516109a8919061358f565b90815260200160405180910390208190555033600b856040516109cb919061358f565b908152602001604051809103902060006101000a81548173ffffffffffffffffffffffffffffffffffffffff021916908373ffffffffffffffffffffffffffffffffffffffff16021790555081600c85604051610a28919061358f565b90815260200160405180910390209080519060200190610a499291906127ba565b5080600e85604051610a5b919061358f565b90815260200160405180910390209080519060200190610a7c9291906127ba565b506000849050610a91336006546001846118db565b60066000815480929190610aa4906135d5565b91905055506001600986604051610abb919061358f565b908152602001604051809103902060006101000a81548160ff0219169083151502179055505050505050565b60065481565b606060028054610afc9061364c565b80601f0160208091040260200160405190810160405280929190818152602001828054610b289061364c565b8015610b755780601f10610b4a57610100808354040283529160200191610b75565b820191906000526020600020905b815481529060010190602001808311610b5857829003601f168201915b50505050509050919050565b6000600780549050905090565b6060600c82604051610ba0919061358f565b90815260200160405180910390208054610bb99061364c565b80601f0160208091040260200160405190810160405280929190818152602001828054610be59061364c565b8015610c325780601f10610c0757610100808354040283529160200191610c32565b820191906000526020600020905b815481529060010190602001808311610c1557829003601f168201915b50505050509050919050565b80600a83604051610c4f919061358f565b9081526020016040518091039020819055505050565b60078181548110610c7557600080fd5b906000526020600020016000915090508054610c909061364c565b80601f0160208091040260200160405190810160405280929190818152602001828054610cbc9061364c565b8015610d095780601f10610cde57610100808354040283529160200191610d09565b820191906000526020600020905b815481529060010190602001808311610cec57829003601f168201915b505050505081565b610d19611a70565b73ffffffffffffffffffffffffffffffffffffffff168573ffffffffffffffffffffffffffffffffffffffff161480610d5f5750610d5e85610d59611a70565b6115d2565b5b610d9e576040517f08c379a0000000000000000000000000000000000000000000000000000000008152600401610d95906136ef565b60405180910390fd5b610dab8585858585611a78565b5050505050565b81600e84604051610dc3919061358f565b90815260200160405180910390209080519060200190610de49291906127ba565b5080600a84604051610df6919061358f565b908152602001604051809103902081905550505050565b6060600e82604051610e1f919061358f565b90815260200160405180910390208054610e389061364c565b80601f0160208091040260200160405190810160405280929190818152602001828054610e649061364c565b8015610eb15780601f10610e8657610100808354040283529160200191610eb1565b820191906000526020600020905b815481529060010190602001808311610e9457829003601f168201915b50505050509050919050565b610f3633600883604051610ed1919061358f565b908152602001604051809103902060009054906101000a900473ffffffffffffffffffffffffffffffffffffffff166000600a85604051610f12919061358f565b90815260200160405180910390205460405180602001604052806000815250611680565b610faf600b82604051610f49919061358f565b908152602001604051809103902060009054906101000a900473ffffffffffffffffffffffffffffffffffffffff1633600d84604051610f89919061358f565b908152602001604051809103902054600160405180602001604052806000815250611d8b565b33600b82604051610fc0919061358f565b908152602001604051809103902060006101000a81548173ffffffffffffffffffffffffffffffffffffffff021916908373ffffffffffffffffffffffffffffffffffffffff16021790555050565b60608151835114611055576040517f08c379a000000000000000000000000000000000000000000000000000000000815260040161104c90613781565b60405180910390fd5b6000835167ffffffffffffffff81111561107257611071612a45565b5b6040519080825280602002602001820160405280156110a05781602001602082028036833780820191505090505b50905060005b845181101561111d576110ed8582815181106110c5576110c46137a1565b5b60200260200101518583815181106110e0576110df6137a1565b5b602002602001015161080f565b828281518110611100576110ff6137a1565b5b60200260200101818152505080611116906135d5565b90506110a6565b508091505092915050565b6000600a8260405161113a919061358f565b9081526020016040518091039020549050919050565b80600e83604051611161919061358f565b908152602001604051809103902090805190602001906111829291906127ba565b505050565b61118f611a70565b73ffffffffffffffffffffffffffffffffffffffff166111ad61120f565b73ffffffffffffffffffffffffffffffffffffffff1614611203576040517f08c379a00000000000000000000000000000000000000000000000000000000081526004016111fa9061381c565b60405180910390fd5b61120d600061200c565b565b6000600360009054906101000a900473ffffffffffffffffffffffffffffffffffffffff16905090565b61124b611244611a70565b83836120d2565b5050565b600460009054906101000a900473ffffffffffffffffffffffffffffffffffffffff1673ffffffffffffffffffffffffffffffffffffffff163373ffffffffffffffffffffffffffffffffffffffff16146112df576040517f08c379a00000000000000000000000000000000000000000000000000000000081526004016112d690613888565b60405180910390fd5b6112fc3360006064604051806020016040528060008152506118db565b565b6000600b82604051611310919061358f565b908152602001604051809103902060009054906101000a900473ffffffffffffffffffffffffffffffffffffffff169050919050565b600063bc197c8160e01b905095945050505050565b600560009054906101000a900473ffffffffffffffffffffffffffffffffffffffff1681565b600b81604051611391919061358f565b908152602001604051809103902060009054906101000a900473ffffffffffffffffffffffffffffffffffffffff166008826040516113d0919061358f565b908152602001604051809103902060006101000a81548173ffffffffffffffffffffffffffffffffffffffff021916908373ffffffffffffffffffffffffffffffffffffffff16021790555030600b8260405161142d919061358f565b908152602001604051809103902060006101000a81548173ffffffffffffffffffffffffffffffffffffffff021916908373ffffffffffffffffffffffffffffffffffffffff1602179055506114f233600b8360405161148d919061358f565b908152602001604051809103902060009054906101000a900473ffffffffffffffffffffffffffffffffffffffff16600d846040516114cc919061358f565b908152602001604051809103902054600160405180602001604052806000815250611680565b50565b6060600f80546115049061364c565b80601f01602080910402602001604051908101604052809291908181526020018280546115309061364c565b801561157d5780601f106115525761010080835404028352916020019161157d565b820191906000526020600020905b81548152906001019060200180831161156057829003601f168201915b5050505050905090565b80600c83604051611598919061358f565b908152602001604051809103902090805190602001906115b99291906127ba565b505050565b60006115cb82600061080f565b9050919050565b6000600160008473ffffffffffffffffffffffffffffffffffffffff1673ffffffffffffffffffffffffffffffffffffffff16815260200190815260200160002060008373ffffffffffffffffffffffffffffffffffffffff1673ffffffffffffffffffffffffffffffffffffffff16815260200190815260200160002060009054906101000a900460ff16905092915050565b600081565b600063f23a6e6160e01b905095945050505050565b611688611a70565b73ffffffffffffffffffffffffffffffffffffffff168573ffffffffffffffffffffffffffffffffffffffff1614806116ce57506116cd856116c8611a70565b6115d2565b5b61170d576040517f08c379a00000000000000000000000000000000000000000000000000000000081526004016117049061391a565b60405180910390fd5b61171a8585858585611d8b565b5050505050565b611729611a70565b73ffffffffffffffffffffffffffffffffffffffff1661174761120f565b73ffffffffffffffffffffffffffffffffffffffff161461179d576040517f08c379a00000000000000000000000000000000000000000000000000000000081526004016117949061381c565b60405180910390fd5b600073ffffffffffffffffffffffffffffffffffffffff168173ffffffffffffffffffffffffffffffffffffffff160361180c576040517f08c379a0000000000000000000000000000000000000000000000000000000008152600401611803906139ac565b60405180910390fd5b6118158161200c565b50565b600460009054906101000a900473ffffffffffffffffffffffffffffffffffffffff1681565b6000808273ffffffffffffffffffffffffffffffffffffffff163b119050919050565b60007f4e2312e0000000000000000000000000000000000000000000000000000000007bffffffffffffffffffffffffffffffffffffffffffffffffffffffff1916827bffffffffffffffffffffffffffffffffffffffffffffffffffffffff191614806118d457506118d38261223e565b5b9050919050565b600073ffffffffffffffffffffffffffffffffffffffff168473ffffffffffffffffffffffffffffffffffffffff160361194a576040517f08c379a000000000000000000000000000000000000000000000000000000000815260040161194190613a3e565b60405180910390fd5b6000611954611a70565b90506119758160008761196688612320565b61196f88612320565b8761239a565b8260008086815260200190815260200160002060008773ffffffffffffffffffffffffffffffffffffffff1673ffffffffffffffffffffffffffffffffffffffff16815260200190815260200160002060008282546119d49190613a5e565b925050819055508473ffffffffffffffffffffffffffffffffffffffff16600073ffffffffffffffffffffffffffffffffffffffff168273ffffffffffffffffffffffffffffffffffffffff167fc3d58168c5ae7397731d063d5bbf3d657854427343f4c083240f7aacaa2d0f628787604051611a52929190613ab4565b60405180910390a4611a69816000878787876123a2565b5050505050565b600033905090565b8151835114611abc576040517f08c379a0000000000000000000000000000000000000000000000000000000008152600401611ab390613b4f565b60405180910390fd5b600073ffffffffffffffffffffffffffffffffffffffff168473ffffffffffffffffffffffffffffffffffffffff1603611b2b576040517f08c379a0000000000000000000000000000000000000000000000000000000008152600401611b2290613be1565b60405180910390fd5b6000611b35611a70565b9050611b4581878787878761239a565b60005b8451811015611cf6576000858281518110611b6657611b656137a1565b5b602002602001015190506000858381518110611b8557611b846137a1565b5b60200260200101519050600080600084815260200190815260200160002060008b73ffffffffffffffffffffffffffffffffffffffff1673ffffffffffffffffffffffffffffffffffffffff16815260200190815260200160002054905081811015611c26576040517f08c379a0000000000000000000000000000000000000000000000000000000008152600401611c1d90613c73565b60405180910390fd5b81810360008085815260200190815260200160002060008c73ffffffffffffffffffffffffffffffffffffffff1673ffffffffffffffffffffffffffffffffffffffff168152602001908152602001600020819055508160008085815260200190815260200160002060008b73ffffffffffffffffffffffffffffffffffffffff1673ffffffffffffffffffffffffffffffffffffffff1681526020019081526020016000206000828254611cdb9190613a5e565b9250508190555050505080611cef906135d5565b9050611b48565b508473ffffffffffffffffffffffffffffffffffffffff168673ffffffffffffffffffffffffffffffffffffffff168273ffffffffffffffffffffffffffffffffffffffff167f4a39dc06d4c0dbc64b70af90fd698a233a518aa5d07e595d983b8c0526c8f7fb8787604051611d6d929190613c93565b60405180910390a4611d83818787878787612579565b505050505050565b600073ffffffffffffffffffffffffffffffffffffffff168473ffffffffffffffffffffffffffffffffffffffff1603611dfa576040517f08c379a0000000000000000000000000000000000000000000000000000000008152600401611df190613be1565b60405180910390fd5b6000611e04611a70565b9050611e24818787611e1588612320565b611e1e88612320565b8761239a565b600080600086815260200190815260200160002060008873ffffffffffffffffffffffffffffffffffffffff1673ffffffffffffffffffffffffffffffffffffffff16815260200190815260200160002054905083811015611ebb576040517f08c379a0000000000000000000000000000000000000000000000000000000008152600401611eb290613c73565b60405180910390fd5b83810360008087815260200190815260200160002060008973ffffffffffffffffffffffffffffffffffffffff1673ffffffffffffffffffffffffffffffffffffffff168152602001908152602001600020819055508360008087815260200190815260200160002060008873ffffffffffffffffffffffffffffffffffffffff1673ffffffffffffffffffffffffffffffffffffffff1681526020019081526020016000206000828254611f709190613a5e565b925050819055508573ffffffffffffffffffffffffffffffffffffffff168773ffffffffffffffffffffffffffffffffffffffff168373ffffffffffffffffffffffffffffffffffffffff167fc3d58168c5ae7397731d063d5bbf3d657854427343f4c083240f7aacaa2d0f628888604051611fed929190613ab4565b60405180910390a46120038288888888886123a2565b50505050505050565b6000600360009054906101000a900473ffffffffffffffffffffffffffffffffffffffff16905081600360006101000a81548173ffffffffffffffffffffffffffffffffffffffff021916908373ffffffffffffffffffffffffffffffffffffffff1602179055508173ffffffffffffffffffffffffffffffffffffffff168173ffffffffffffffffffffffffffffffffffffffff167f8be0079c531659141344cd1fd0a4f28419497f9722a3daafe3b4186f6b6457e060405160405180910390a35050565b8173ffffffffffffffffffffffffffffffffffffffff168373ffffffffffffffffffffffffffffffffffffffff1603612140576040517f08c379a000000000000000000000000000000000000000000000000000000000815260040161213790613d3c565b60405180910390fd5b80600160008573ffffffffffffffffffffffffffffffffffffffff1673ffffffffffffffffffffffffffffffffffffffff16815260200190815260200160002060008473ffffffffffffffffffffffffffffffffffffffff1673ffffffffffffffffffffffffffffffffffffffff16815260200190815260200160002060006101000a81548160ff0219169083151502179055508173ffffffffffffffffffffffffffffffffffffffff168373ffffffffffffffffffffffffffffffffffffffff167f17307eab39ab6107e8899845ad3d59bd9653f200f220920489ca2b5937696c31836040516122319190612a0f565b60405180910390a3505050565b60007fd9b67a26000000000000000000000000000000000000000000000000000000007bffffffffffffffffffffffffffffffffffffffffffffffffffffffff1916827bffffffffffffffffffffffffffffffffffffffffffffffffffffffff1916148061230957507f0e89341c000000000000000000000000000000000000000000000000000000007bffffffffffffffffffffffffffffffffffffffffffffffffffffffff1916827bffffffffffffffffffffffffffffffffffffffffffffffffffffffff1916145b80612319575061231882612750565b5b9050919050565b60606000600167ffffffffffffffff81111561233f5761233e612a45565b5b60405190808252806020026020018201604052801561236d5781602001602082028036833780820191505090505b5090508281600081518110612385576123846137a1565b5b60200260200101818152505080915050919050565b505050505050565b6123c18473ffffffffffffffffffffffffffffffffffffffff1661183e565b15612571578373ffffffffffffffffffffffffffffffffffffffff1663f23a6e6187878686866040518663ffffffff1660e01b8152600401612407959493929190613db1565b6020604051808303816000875af192505050801561244357506040513d601f19601f820116820180604052508101906124409190613e20565b60015b6124e85761244f613e5a565b806308c379a0036124ab5750612463613e7c565b8061246e57506124ad565b806040517f08c379a00000000000000000000000000000000000000000000000000000000081526004016124a29190612ce0565b60405180910390fd5b505b6040517f08c379a00000000000000000000000000000000000000000000000000000000081526004016124df90613f7e565b60405180910390fd5b63f23a6e6160e01b7bffffffffffffffffffffffffffffffffffffffffffffffffffffffff1916817bffffffffffffffffffffffffffffffffffffffffffffffffffffffff19161461256f576040517f08c379a000000000000000000000000000000000000000000000000000000000815260040161256690614010565b60405180910390fd5b505b505050505050565b6125988473ffffffffffffffffffffffffffffffffffffffff1661183e565b15612748578373ffffffffffffffffffffffffffffffffffffffff1663bc197c8187878686866040518663ffffffff1660e01b81526004016125de959493929190614030565b6020604051808303816000875af192505050801561261a57506040513d601f19601f820116820180604052508101906126179190613e20565b60015b6126bf57612626613e5a565b806308c379a003612682575061263a613e7c565b806126455750612684565b806040517f08c379a00000000000000000000000000000000000000000000000000000000081526004016126799190612ce0565b60405180910390fd5b505b6040517f08c379a00000000000000000000000000000000000000000000000000000000081526004016126b690613f7e565b60405180910390fd5b63bc197c8160e01b7bffffffffffffffffffffffffffffffffffffffffffffffffffffffff1916817bffffffffffffffffffffffffffffffffffffffffffffffffffffffff191614612746576040517f08c379a000000000000000000000000000000000000000000000000000000000815260040161273d90614010565b60405180910390fd5b505b505050505050565b60007f01ffc9a7000000000000000000000000000000000000000000000000000000007bffffffffffffffffffffffffffffffffffffffffffffffffffffffff1916827bffffffffffffffffffffffffffffffffffffffffffffffffffffffff1916149050919050565b8280546127c69061364c565b90600052602060002090601f0160209004810192826127e8576000855561282f565b82601f1061280157805160ff191683800117855561282f565b8280016001018555821561282f579182015b8281111561282e578251825591602001919060010190612813565b5b50905061283c9190612840565b5090565b5b80821115612859576000816000905550600101612841565b5090565b6000604051905090565b600080fd5b600080fd5b600073ffffffffffffffffffffffffffffffffffffffff82169050919050565b600061289c82612871565b9050919050565b6128ac81612891565b81146128b757600080fd5b50565b6000813590506128c9816128a3565b92915050565b6000819050919050565b6128e2816128cf565b81146128ed57600080fd5b50565b6000813590506128ff816128d9565b92915050565b6000806040838503121561291c5761291b612867565b5b600061292a858286016128ba565b925050602061293b858286016128f0565b9150509250929050565b61294e816128cf565b82525050565b60006020820190506129696000830184612945565b92915050565b60007fffffffff0000000000000000000000000000000000000000000000000000000082169050919050565b6129a48161296f565b81146129af57600080fd5b50565b6000813590506129c18161299b565b92915050565b6000602082840312156129dd576129dc612867565b5b60006129eb848285016129b2565b91505092915050565b60008115159050919050565b612a09816129f4565b82525050565b6000602082019050612a246000830184612a00565b92915050565b600080fd5b600080fd5b6000601f19601f8301169050919050565b7f4e487b7100000000000000000000000000000000000000000000000000000000600052604160045260246000fd5b612a7d82612a34565b810181811067ffffffffffffffff82111715612a9c57612a9b612a45565b5b80604052505050565b6000612aaf61285d565b9050612abb8282612a74565b919050565b600067ffffffffffffffff821115612adb57612ada612a45565b5b612ae482612a34565b9050602081019050919050565b82818337600083830152505050565b6000612b13612b0e84612ac0565b612aa5565b905082815260208101848484011115612b2f57612b2e612a2f565b5b612b3a848285612af1565b509392505050565b600082601f830112612b5757612b56612a2a565b5b8135612b67848260208601612b00565b91505092915050565b60008060008060808587031215612b8a57612b89612867565b5b600085013567ffffffffffffffff811115612ba857612ba761286c565b5b612bb487828801612b42565b9450506020612bc5878288016128f0565b935050604085013567ffffffffffffffff811115612be657612be561286c565b5b612bf287828801612b42565b925050606085013567ffffffffffffffff811115612c1357612c1261286c565b5b612c1f87828801612b42565b91505092959194509250565b600060208284031215612c4157612c40612867565b5b6000612c4f848285016128f0565b91505092915050565b600081519050919050565b600082825260208201905092915050565b60005b83811015612c92578082015181840152602081019050612c77565b83811115612ca1576000848401525b50505050565b6000612cb282612c58565b612cbc8185612c63565b9350612ccc818560208601612c74565b612cd581612a34565b840191505092915050565b60006020820190508181036000830152612cfa8184612ca7565b905092915050565b600060208284031215612d1857612d17612867565b5b600082013567ffffffffffffffff811115612d3657612d3561286c565b5b612d4284828501612b42565b91505092915050565b60008060408385031215612d6257612d61612867565b5b600083013567ffffffffffffffff811115612d8057612d7f61286c565b5b612d8c85828601612b42565b9250506020612d9d858286016128f0565b9150509250929050565b600067ffffffffffffffff821115612dc257612dc1612a45565b5b602082029050602081019050919050565b600080fd5b6000612deb612de684612da7565b612aa5565b90508083825260208201905060208402830185811115612e0e57612e0d612dd3565b5b835b81811015612e375780612e2388826128f0565b845260208401935050602081019050612e10565b5050509392505050565b600082601f830112612e5657612e55612a2a565b5b8135612e66848260208601612dd8565b91505092915050565b600067ffffffffffffffff821115612e8a57612e89612a45565b5b612e9382612a34565b9050602081019050919050565b6000612eb3612eae84612e6f565b612aa5565b905082815260208101848484011115612ecf57612ece612a2f565b5b612eda848285612af1565b509392505050565b600082601f830112612ef757612ef6612a2a565b5b8135612f07848260208601612ea0565b91505092915050565b600080600080600060a08688031215612f2c57612f2b612867565b5b6000612f3a888289016128ba565b9550506020612f4b888289016128ba565b945050604086013567ffffffffffffffff811115612f6c57612f6b61286c565b5b612f7888828901612e41565b935050606086013567ffffffffffffffff811115612f9957612f9861286c565b5b612fa588828901612e41565b925050608086013567ffffffffffffffff811115612fc657612fc561286c565b5b612fd288828901612ee2565b9150509295509295909350565b600080600060608486031215612ff857612ff7612867565b5b600084013567ffffffffffffffff8111156130165761301561286c565b5b61302286828701612b42565b935050602084013567ffffffffffffffff8111156130435761304261286c565b5b61304f86828701612b42565b9250506040613060868287016128f0565b9150509250925092565b600067ffffffffffffffff82111561308557613084612a45565b5b602082029050602081019050919050565b60006130a96130a48461306a565b612aa5565b905080838252602082019050602084028301858111156130cc576130cb612dd3565b5b835b818110156130f557806130e188826128ba565b8452602084019350506020810190506130ce565b5050509392505050565b600082601f83011261311457613113612a2a565b5b8135613124848260208601613096565b91505092915050565b6000806040838503121561314457613143612867565b5b600083013567ffffffffffffffff8111156131625761316161286c565b5b61316e858286016130ff565b925050602083013567ffffffffffffffff81111561318f5761318e61286c565b5b61319b85828601612e41565b9150509250929050565b600081519050919050565b600082825260208201905092915050565b6000819050602082019050919050565b6131da816128cf565b82525050565b60006131ec83836131d1565b60208301905092915050565b6000602082019050919050565b6000613210826131a5565b61321a81856131b0565b9350613225836131c1565b8060005b8381101561325657815161323d88826131e0565b9750613248836131f8565b925050600181019050613229565b5085935050505092915050565b6000602082019050818103600083015261327d8184613205565b905092915050565b6000806040838503121561329c5761329b612867565b5b600083013567ffffffffffffffff8111156132ba576132b961286c565b5b6132c685828601612b42565b925050602083013567ffffffffffffffff8111156132e7576132e661286c565b5b6132f385828601612b42565b9150509250929050565b61330681612891565b82525050565b600060208201905061332160008301846132fd565b92915050565b613330816129f4565b811461333b57600080fd5b50565b60008135905061334d81613327565b92915050565b6000806040838503121561336a57613369612867565b5b6000613378858286016128ba565b92505060206133898582860161333e565b9150509250929050565b61339c8161296f565b82525050565b60006020820190506133b76000830184613393565b92915050565b6000602082840312156133d3576133d2612867565b5b60006133e1848285016128ba565b91505092915050565b6000806040838503121561340157613400612867565b5b600061340f858286016128ba565b9250506020613420858286016128ba565b9150509250929050565b600080600080600060a0868803121561344657613445612867565b5b6000613454888289016128ba565b9550506020613465888289016128ba565b9450506040613476888289016128f0565b9350506060613487888289016128f0565b925050608086013567ffffffffffffffff8111156134a8576134a761286c565b5b6134b488828901612ee2565b9150509295509295909350565b7f455243313135353a2062616c616e636520717565727920666f7220746865207a60008201527f65726f2061646472657373000000000000000000000000000000000000000000602082015250565b600061351d602b83612c63565b9150613528826134c1565b604082019050919050565b6000602082019050818103600083015261354c81613510565b9050919050565b600081905092915050565b600061356982612c58565b6135738185613553565b9350613583818560208601612c74565b80840191505092915050565b600061359b828461355e565b915081905092915050565b7f4e487b7100000000000000000000000000000000000000000000000000000000600052601160045260246000fd5b60006135e0826128cf565b91507fffffffffffffffffffffffffffffffffffffffffffffffffffffffffffffffff8203613612576136116135a6565b5b600182019050919050565b7f4e487b7100000000000000000000000000000000000000000000000000000000600052602260045260246000fd5b6000600282049050600182168061366457607f821691505b6020821081036136775761367661361d565b5b50919050565b7f455243313135353a207472616e736665722063616c6c6572206973206e6f742060008201527f6f776e6572206e6f7220617070726f7665640000000000000000000000000000602082015250565b60006136d9603283612c63565b91506136e48261367d565b604082019050919050565b60006020820190508181036000830152613708816136cc565b9050919050565b7f455243313135353a206163636f756e747320616e6420696473206c656e67746860008201527f206d69736d617463680000000000000000000000000000000000000000000000602082015250565b600061376b602983612c63565b91506137768261370f565b604082019050919050565b6000602082019050818103600083015261379a8161375e565b9050919050565b7f4e487b7100000000000000000000000000000000000000000000000000000000600052603260045260246000fd5b7f4f776e61626c653a2063616c6c6572206973206e6f7420746865206f776e6572600082015250565b6000613806602083612c63565b9150613811826137d0565b602082019050919050565b60006020820190508181036000830152613835816137f9565b9050919050565b7f6f6e6c792061646d696e2063616e2063616c6c20746869730000000000000000600082015250565b6000613872601883612c63565b915061387d8261383c565b602082019050919050565b600060208201905081810360008301526138a181613865565b9050919050565b7f455243313135353a2063616c6c6572206973206e6f74206f776e6572206e6f7260008201527f20617070726f7665640000000000000000000000000000000000000000000000602082015250565b6000613904602983612c63565b915061390f826138a8565b604082019050919050565b60006020820190508181036000830152613933816138f7565b9050919050565b7f4f776e61626c653a206e6577206f776e657220697320746865207a65726f206160008201527f6464726573730000000000000000000000000000000000000000000000000000602082015250565b6000613996602683612c63565b91506139a18261393a565b604082019050919050565b600060208201905081810360008301526139c581613989565b9050919050565b7f455243313135353a206d696e7420746f20746865207a65726f2061646472657360008201527f7300000000000000000000000000000000000000000000000000000000000000602082015250565b6000613a28602183612c63565b9150613a33826139cc565b604082019050919050565b60006020820190508181036000830152613a5781613a1b565b9050919050565b6000613a69826128cf565b9150613a74836128cf565b9250827fffffffffffffffffffffffffffffffffffffffffffffffffffffffffffffffff03821115613aa957613aa86135a6565b5b828201905092915050565b6000604082019050613ac96000830185612945565b613ad66020830184612945565b9392505050565b7f455243313135353a2069647320616e6420616d6f756e7473206c656e6774682060008201527f6d69736d61746368000000000000000000000000000000000000000000000000602082015250565b6000613b39602883612c63565b9150613b4482613add565b604082019050919050565b60006020820190508181036000830152613b6881613b2c565b9050919050565b7f455243313135353a207472616e7366657220746f20746865207a65726f20616460008201527f6472657373000000000000000000000000000000000000000000000000000000602082015250565b6000613bcb602583612c63565b9150613bd682613b6f565b604082019050919050565b60006020820190508181036000830152613bfa81613bbe565b9050919050565b7f455243313135353a20696e73756666696369656e742062616c616e636520666f60008201527f72207472616e7366657200000000000000000000000000000000000000000000602082015250565b6000613c5d602a83612c63565b9150613c6882613c01565b604082019050919050565b60006020820190508181036000830152613c8c81613c50565b9050919050565b60006040820190508181036000830152613cad8185613205565b90508181036020830152613cc18184613205565b90509392505050565b7f455243313135353a2073657474696e6720617070726f76616c2073746174757360008201527f20666f722073656c660000000000000000000000000000000000000000000000602082015250565b6000613d26602983612c63565b9150613d3182613cca565b604082019050919050565b60006020820190508181036000830152613d5581613d19565b9050919050565b600081519050919050565b600082825260208201905092915050565b6000613d8382613d5c565b613d8d8185613d67565b9350613d9d818560208601612c74565b613da681612a34565b840191505092915050565b600060a082019050613dc660008301886132fd565b613dd360208301876132fd565b613de06040830186612945565b613ded6060830185612945565b8181036080830152613dff8184613d78565b90509695505050505050565b600081519050613e1a8161299b565b92915050565b600060208284031215613e3657613e35612867565b5b6000613e4484828501613e0b565b91505092915050565b60008160e01c9050919050565b600060033d1115613e795760046000803e613e76600051613e4d565b90505b90565b600060443d10613f0957613e8e61285d565b60043d036004823e80513d602482011167ffffffffffffffff82111715613eb6575050613f09565b808201805167ffffffffffffffff811115613ed45750505050613f09565b80602083010160043d038501811115613ef1575050505050613f09565b613f0082602001850186612a74565b82955050505050505b90565b7f455243313135353a207472616e7366657220746f206e6f6e204552433131353560008201527f526563656976657220696d706c656d656e746572000000000000000000000000602082015250565b6000613f68603483612c63565b9150613f7382613f0c565b604082019050919050565b60006020820190508181036000830152613f9781613f5b565b9050919050565b7f455243313135353a204552433131353552656365697665722072656a6563746560008201527f6420746f6b656e73000000000000000000000000000000000000000000000000602082015250565b6000613ffa602883612c63565b915061400582613f9e565b604082019050919050565b6000602082019050818103600083015261402981613fed565b9050919050565b600060a08201905061404560008301886132fd565b61405260208301876132fd565b81810360408301526140648186613205565b905081810360608301526140788185613205565b9050818103608083015261408c8184613d78565b9050969550505050505056fea264697066735822122031fe2819ddc63421f49169b64ebd35daf6bcf79ee6b5c0130109f2d03f80613464736f6c634300080d0033",
  "immutableReferences": {},
  "source": "// SPDX-License-Identifier: MIT\npragma solidity ^0.8.0;\nimport \"../ERC1155/ERC1155.sol\";\nimport \"../ERC1155/utils/ERC1155Holder.sol\";\nimport \"../ERC1155/utils/access/Ownable.sol\";\n\n\n\ncontract TFG is ERC1155, ERC1155Holder, Ownable{\n    address public admin;\n    address public addressC;\n    uint256 public count;\n\n    uint256 public constant moneda = 0;\n\n    //estructuras auxiliares\n    string [] public docs;\n    mapping (string => address) _seller;\n    mapping (string => bool) _docExists;\n    mapping (string => uint) _price;\n    mapping (string => address) _property;\n    mapping (string => string) _titles;\n    mapping (string => uint) _ids;\n    mapping (string => string) _descriptions;\n\n    string ipfsHash;\n\n    constructor() ERC1155(\"\") {\n        addressC = address(this);\n        admin = msg.sender;\n        count = 1;\n       _mint(msg.sender, moneda, 100, \"\");\n    }\n\n    function supportsInterface(bytes4 interfaceId)\n        public\n        view\n        virtual\n        override(ERC1155, ERC1155Receiver)\n        returns (bool)\n    {\n        return super.supportsInterface(interfaceId);\n    }\n \n    function sendHash(string memory x, uint precio, string memory titulo, string memory description) public {\n        require(!_docExists[x]);\n        ipfsHash = x;\n        docs.push(x);\n        _ids[x] = count;\n        _price[x] = precio;\n        _property[x] = msg.sender;\n        _titles[x] = titulo;\n        _descriptions[x] = description;\n        bytes memory dataDoc = bytes(x);\n        _mint(msg.sender, count, 1, dataDoc);\n        count++;\n        _docExists[x] = true;\n    }\n\n    function getHash() public view returns (string memory x) {\n        return ipfsHash;\n    }\n    \n    modifier onlyAdmin() {\n        require(msg.sender == admin, \"only admin can call this\");\n        _;\n    }\n\n    function totalSupply() public view returns (uint256){\n        return docs.length;\n    }\n\n    function getProperty(string memory id) public view returns (address){\n        return _property[id];\n    }\n\n    function update(string memory id, string memory newDescription, uint256 newPrice) public {\n        _descriptions[id] = newDescription;\n        _price[id] = newPrice;\n    }\n\n    function getTitle(string memory id) public view returns(string memory title){\n        return _titles[id];\n    }\n\n    function setTitle(string memory id, string memory newTitle) public {\n        _titles[id] = newTitle;\n    }\n\n    function getPrice(string memory id) public view returns (uint256){\n        return _price[id];\n    }\n\n    function setPrice(string memory id, uint256 newPrice) public {\n        _price[id] = newPrice;\n    }\n\n    function getDescription(string memory id) public view returns (string memory) {\n        return _descriptions[id];\n    }\n\n    function setDescription(string memory id, string memory newDescription) public {\n        _descriptions[id] = newDescription;\n    }\n\n    function funds(address propietario) public view returns (uint256){\n        return balanceOf(propietario, 0);\n    }\n    \n\n    function addFunds() public payable onlyAdmin{\n        _mint(msg.sender, 0, 100, \"\");\n    }\n\n\n    function buy(string memory id) public payable {\n        safeTransferFrom(msg.sender, _seller[id], 0, _price[id], \"\");\n        _safeTransferFrom(_property[id], msg.sender, _ids[id], 1, \"\");\n        _property[id] = msg.sender;\n    }\n\n    function permission(string memory id) public {\n        _seller[id] = _property[id];\n        _property[id] = address(this);\n        safeTransferFrom(msg.sender, _property[id], _ids[id], 1, \"\");\n    }\n\n}",
  "sourcePath": "/Users/ignacio/Desktop/TFG/TFG1155/src/contracts/TFG.sol",
  "compiler": {
    "name": "solc",
    "version": "0.8.13+commit.abaa5c0e.Emscripten.clang"
  },
  "schemaVersion": "3.4.2",
  "updatedAt": "2022-06-06T10:56:15.068Z",
  "networkType": "ethereum",
  "devdoc": {
    "kind": "dev",
    "methods": {
      "balanceOf(address,uint256)": {
        "details": "See {IERC1155-balanceOf}. Requirements: - `account` cannot be the zero address."
      },
      "balanceOfBatch(address[],uint256[])": {
        "details": "See {IERC1155-balanceOfBatch}. Requirements: - `accounts` and `ids` must have the same length."
      },
      "isApprovedForAll(address,address)": {
        "details": "See {IERC1155-isApprovedForAll}."
      },
      "owner()": {
        "details": "Returns the address of the current owner."
      },
      "renounceOwnership()": {
        "details": "Leaves the contract without owner. It will not be possible to call `onlyOwner` functions anymore. Can only be called by the current owner. NOTE: Renouncing ownership will leave the contract without an owner, thereby removing any functionality that is only available to the owner."
      },
      "safeBatchTransferFrom(address,address,uint256[],uint256[],bytes)": {
        "details": "See {IERC1155-safeBatchTransferFrom}."
      },
      "safeTransferFrom(address,address,uint256,uint256,bytes)": {
        "details": "See {IERC1155-safeTransferFrom}."
      },
      "setApprovalForAll(address,bool)": {
        "details": "See {IERC1155-setApprovalForAll}."
      },
      "transferOwnership(address)": {
        "details": "Transfers ownership of the contract to a new account (`newOwner`). Can only be called by the current owner."
      },
      "uri(uint256)": {
        "details": "See {IERC1155MetadataURI-uri}. This implementation returns the same URI for *all* token types. It relies on the token type ID substitution mechanism https://eips.ethereum.org/EIPS/eip-1155#metadata[defined in the EIP]. Clients calling this function must replace the `\\{id\\}` substring with the actual token type ID."
      }
    },
    "version": 1
  },
  "userdoc": {
    "kind": "user",
    "methods": {},
    "version": 1
  }
}