{
  "contractName": "TFG",
  "abi": [
    {
      "inputs": [],
      "stateMutability": "nonpayable",
      "type": "constructor"
    },
    {
      "anonymous": false,
      "inputs": [
        {
          "indexed": true,
          "internalType": "address",
          "name": "account",
          "type": "address"
        },
        {
          "indexed": true,
          "internalType": "address",
          "name": "operator",
          "type": "address"
        },
        {
          "indexed": false,
          "internalType": "bool",
          "name": "approved",
          "type": "bool"
        }
      ],
      "name": "ApprovalForAll",
      "type": "event"
    },
    {
      "anonymous": false,
      "inputs": [
        {
          "indexed": true,
          "internalType": "address",
          "name": "previousOwner",
          "type": "address"
        },
        {
          "indexed": true,
          "internalType": "address",
          "name": "newOwner",
          "type": "address"
        }
      ],
      "name": "OwnershipTransferred",
      "type": "event"
    },
    {
      "anonymous": false,
      "inputs": [
        {
          "indexed": true,
          "internalType": "address",
          "name": "operator",
          "type": "address"
        },
        {
          "indexed": true,
          "internalType": "address",
          "name": "from",
          "type": "address"
        },
        {
          "indexed": true,
          "internalType": "address",
          "name": "to",
          "type": "address"
        },
        {
          "indexed": false,
          "internalType": "uint256[]",
          "name": "ids",
          "type": "uint256[]"
        },
        {
          "indexed": false,
          "internalType": "uint256[]",
          "name": "values",
          "type": "uint256[]"
        }
      ],
      "name": "TransferBatch",
      "type": "event"
    },
    {
      "anonymous": false,
      "inputs": [
        {
          "indexed": true,
          "internalType": "address",
          "name": "operator",
          "type": "address"
        },
        {
          "indexed": true,
          "internalType": "address",
          "name": "from",
          "type": "address"
        },
        {
          "indexed": true,
          "internalType": "address",
          "name": "to",
          "type": "address"
        },
        {
          "indexed": false,
          "internalType": "uint256",
          "name": "id",
          "type": "uint256"
        },
        {
          "indexed": false,
          "internalType": "uint256",
          "name": "value",
          "type": "uint256"
        }
      ],
      "name": "TransferSingle",
      "type": "event"
    },
    {
      "anonymous": false,
      "inputs": [
        {
          "indexed": false,
          "internalType": "string",
          "name": "value",
          "type": "string"
        },
        {
          "indexed": true,
          "internalType": "uint256",
          "name": "id",
          "type": "uint256"
        }
      ],
      "name": "URI",
      "type": "event"
    },
    {
      "inputs": [],
      "name": "addressC",
      "outputs": [
        {
          "internalType": "address",
          "name": "",
          "type": "address"
        }
      ],
      "stateMutability": "view",
      "type": "function",
      "constant": true
    },
    {
      "inputs": [],
      "name": "admin",
      "outputs": [
        {
          "internalType": "address",
          "name": "",
          "type": "address"
        }
      ],
      "stateMutability": "view",
      "type": "function",
      "constant": true
    },
    {
      "inputs": [
        {
          "internalType": "address",
          "name": "account",
          "type": "address"
        },
        {
          "internalType": "uint256",
          "name": "id",
          "type": "uint256"
        }
      ],
      "name": "balanceOf",
      "outputs": [
        {
          "internalType": "uint256",
          "name": "",
          "type": "uint256"
        }
      ],
      "stateMutability": "view",
      "type": "function",
      "constant": true
    },
    {
      "inputs": [
        {
          "internalType": "address[]",
          "name": "accounts",
          "type": "address[]"
        },
        {
          "internalType": "uint256[]",
          "name": "ids",
          "type": "uint256[]"
        }
      ],
      "name": "balanceOfBatch",
      "outputs": [
        {
          "internalType": "uint256[]",
          "name": "",
          "type": "uint256[]"
        }
      ],
      "stateMutability": "view",
      "type": "function",
      "constant": true
    },
    {
      "inputs": [
        {
          "internalType": "uint256",
          "name": "",
          "type": "uint256"
        }
      ],
      "name": "colors",
      "outputs": [
        {
          "internalType": "string",
          "name": "",
          "type": "string"
        }
      ],
      "stateMutability": "view",
      "type": "function",
      "constant": true
    },
    {
      "inputs": [],
      "name": "count",
      "outputs": [
        {
          "internalType": "uint256",
          "name": "",
          "type": "uint256"
        }
      ],
      "stateMutability": "view",
      "type": "function",
      "constant": true
    },
    {
      "inputs": [
        {
          "internalType": "address",
          "name": "account",
          "type": "address"
        },
        {
          "internalType": "address",
          "name": "operator",
          "type": "address"
        }
      ],
      "name": "isApprovedForAll",
      "outputs": [
        {
          "internalType": "bool",
          "name": "",
          "type": "bool"
        }
      ],
      "stateMutability": "view",
      "type": "function",
      "constant": true
    },
    {
      "inputs": [],
      "name": "moneda",
      "outputs": [
        {
          "internalType": "uint256",
          "name": "",
          "type": "uint256"
        }
      ],
      "stateMutability": "view",
      "type": "function",
      "constant": true
    },
    {
      "inputs": [
        {
          "internalType": "address",
          "name": "",
          "type": "address"
        },
        {
          "internalType": "address",
          "name": "",
          "type": "address"
        },
        {
          "internalType": "uint256[]",
          "name": "",
          "type": "uint256[]"
        },
        {
          "internalType": "uint256[]",
          "name": "",
          "type": "uint256[]"
        },
        {
          "internalType": "bytes",
          "name": "",
          "type": "bytes"
        }
      ],
      "name": "onERC1155BatchReceived",
      "outputs": [
        {
          "internalType": "bytes4",
          "name": "",
          "type": "bytes4"
        }
      ],
      "stateMutability": "nonpayable",
      "type": "function"
    },
    {
      "inputs": [
        {
          "internalType": "address",
          "name": "",
          "type": "address"
        },
        {
          "internalType": "address",
          "name": "",
          "type": "address"
        },
        {
          "internalType": "uint256",
          "name": "",
          "type": "uint256"
        },
        {
          "internalType": "uint256",
          "name": "",
          "type": "uint256"
        },
        {
          "internalType": "bytes",
          "name": "",
          "type": "bytes"
        }
      ],
      "name": "onERC1155Received",
      "outputs": [
        {
          "internalType": "bytes4",
          "name": "",
          "type": "bytes4"
        }
      ],
      "stateMutability": "nonpayable",
      "type": "function"
    },
    {
      "inputs": [],
      "name": "owner",
      "outputs": [
        {
          "internalType": "address",
          "name": "",
          "type": "address"
        }
      ],
      "stateMutability": "view",
      "type": "function",
      "constant": true
    },
    {
      "inputs": [],
      "name": "renounceOwnership",
      "outputs": [],
      "stateMutability": "nonpayable",
      "type": "function"
    },
    {
      "inputs": [
        {
          "internalType": "address",
          "name": "from",
          "type": "address"
        },
        {
          "internalType": "address",
          "name": "to",
          "type": "address"
        },
        {
          "internalType": "uint256[]",
          "name": "ids",
          "type": "uint256[]"
        },
        {
          "internalType": "uint256[]",
          "name": "amounts",
          "type": "uint256[]"
        },
        {
          "internalType": "bytes",
          "name": "data",
          "type": "bytes"
        }
      ],
      "name": "safeBatchTransferFrom",
      "outputs": [],
      "stateMutability": "nonpayable",
      "type": "function"
    },
    {
      "inputs": [
        {
          "internalType": "address",
          "name": "from",
          "type": "address"
        },
        {
          "internalType": "address",
          "name": "to",
          "type": "address"
        },
        {
          "internalType": "uint256",
          "name": "id",
          "type": "uint256"
        },
        {
          "internalType": "uint256",
          "name": "amount",
          "type": "uint256"
        },
        {
          "internalType": "bytes",
          "name": "data",
          "type": "bytes"
        }
      ],
      "name": "safeTransferFrom",
      "outputs": [],
      "stateMutability": "nonpayable",
      "type": "function"
    },
    {
      "inputs": [
        {
          "internalType": "address",
          "name": "operator",
          "type": "address"
        },
        {
          "internalType": "bool",
          "name": "approved",
          "type": "bool"
        }
      ],
      "name": "setApprovalForAll",
      "outputs": [],
      "stateMutability": "nonpayable",
      "type": "function"
    },
    {
      "inputs": [
        {
          "internalType": "address",
          "name": "newOwner",
          "type": "address"
        }
      ],
      "name": "transferOwnership",
      "outputs": [],
      "stateMutability": "nonpayable",
      "type": "function"
    },
    {
      "inputs": [
        {
          "internalType": "uint256",
          "name": "",
          "type": "uint256"
        }
      ],
      "name": "uri",
      "outputs": [
        {
          "internalType": "string",
          "name": "",
          "type": "string"
        }
      ],
      "stateMutability": "view",
      "type": "function",
      "constant": true
    },
    {
      "inputs": [
        {
          "internalType": "bytes4",
          "name": "interfaceId",
          "type": "bytes4"
        }
      ],
      "name": "supportsInterface",
      "outputs": [
        {
          "internalType": "bool",
          "name": "",
          "type": "bool"
        }
      ],
      "stateMutability": "view",
      "type": "function",
      "constant": true
    },
    {
      "inputs": [
        {
          "internalType": "string",
          "name": "_color",
          "type": "string"
        },
        {
          "internalType": "uint256",
          "name": "precio",
          "type": "uint256"
        }
      ],
      "name": "nuevoColor",
      "outputs": [],
      "stateMutability": "nonpayable",
      "type": "function"
    },
    {
      "inputs": [],
      "name": "totalSupply",
      "outputs": [
        {
          "internalType": "uint256",
          "name": "",
          "type": "uint256"
        }
      ],
      "stateMutability": "view",
      "type": "function",
      "constant": true
    },
    {
      "inputs": [
        {
          "internalType": "uint256",
          "name": "id",
          "type": "uint256"
        }
      ],
      "name": "property",
      "outputs": [
        {
          "internalType": "address",
          "name": "",
          "type": "address"
        }
      ],
      "stateMutability": "view",
      "type": "function",
      "constant": true
    },
    {
      "inputs": [
        {
          "internalType": "address",
          "name": "propietario",
          "type": "address"
        }
      ],
      "name": "funds",
      "outputs": [
        {
          "internalType": "uint256",
          "name": "",
          "type": "uint256"
        }
      ],
      "stateMutability": "view",
      "type": "function",
      "constant": true
    },
    {
      "inputs": [],
      "name": "addFunds",
      "outputs": [],
      "stateMutability": "payable",
      "type": "function",
      "payable": true
    },
    {
      "inputs": [
        {
          "internalType": "uint256",
          "name": "tokenId",
          "type": "uint256"
        }
      ],
      "name": "buy",
      "outputs": [],
      "stateMutability": "payable",
      "type": "function",
      "payable": true
    },
    {
      "inputs": [
        {
          "internalType": "string",
          "name": "a",
          "type": "string"
        },
        {
          "internalType": "string",
          "name": "b",
          "type": "string"
        }
      ],
      "name": "compareStrings",
      "outputs": [
        {
          "internalType": "bool",
          "name": "",
          "type": "bool"
        }
      ],
      "stateMutability": "pure",
      "type": "function",
      "constant": true
    },
    {
      "inputs": [
        {
          "internalType": "uint256",
          "name": "tokenId",
          "type": "uint256"
        }
      ],
      "name": "permission",
      "outputs": [],
      "stateMutability": "nonpayable",
      "type": "function"
    }
  ],
  "bytecode": "0x60806040523480156200001157600080fd5b506040518060200160405280600081525062000033816200010960201b60201c565b5062000054620000486200012560201b60201c565b6200012d60201b60201c565b30600560006101000a81548173ffffffffffffffffffffffffffffffffffffffff021916908373ffffffffffffffffffffffffffffffffffffffff16021790555033600460006101000a81548173ffffffffffffffffffffffffffffffffffffffff021916908373ffffffffffffffffffffffffffffffffffffffff160217905550600160068190555062000103336000606460405180602001604052806000815250620001f360201b60201c565b62000dd9565b8060029080519060200190620001219291906200065c565b5050565b600033905090565b6000600360009054906101000a900473ffffffffffffffffffffffffffffffffffffffff16905081600360006101000a81548173ffffffffffffffffffffffffffffffffffffffff021916908373ffffffffffffffffffffffffffffffffffffffff1602179055508173ffffffffffffffffffffffffffffffffffffffff168173ffffffffffffffffffffffffffffffffffffffff167f8be0079c531659141344cd1fd0a4f28419497f9722a3daafe3b4186f6b6457e060405160405180910390a35050565b600073ffffffffffffffffffffffffffffffffffffffff168473ffffffffffffffffffffffffffffffffffffffff160362000265576040517f08c379a00000000000000000000000000000000000000000000000000000000081526004016200025c9062000793565b60405180910390fd5b6000620002776200012560201b60201c565b9050620002b0816000876200029288620003b760201b60201c565b620002a388620003b760201b60201c565b876200043860201b60201c565b8260008086815260200190815260200160002060008773ffffffffffffffffffffffffffffffffffffffff1673ffffffffffffffffffffffffffffffffffffffff1681526020019081526020016000206000828254620003119190620007ee565b925050819055508473ffffffffffffffffffffffffffffffffffffffff16600073ffffffffffffffffffffffffffffffffffffffff168273ffffffffffffffffffffffffffffffffffffffff167fc3d58168c5ae7397731d063d5bbf3d657854427343f4c083240f7aacaa2d0f628787604051620003919291906200085c565b60405180910390a4620003b0816000878787876200044060201b60201c565b5050505050565b60606000600167ffffffffffffffff811115620003d957620003d862000889565b5b604051908082528060200260200182016040528015620004085781602001602082028036833780820191505090505b5090508281600081518110620004235762000422620008b8565b5b60200260200101818152505080915050919050565b505050505050565b6200046c8473ffffffffffffffffffffffffffffffffffffffff166200063960201b620012fa1760201c565b1562000631578373ffffffffffffffffffffffffffffffffffffffff1663f23a6e6187878686866040518663ffffffff1660e01b8152600401620004b5959493929190620009d0565b6020604051808303816000875af1925050508015620004f457506040513d601f19601f82011682018060405250810190620004f1919062000aa0565b60015b620005a5576200050362000adf565b806308c379a0036200056657506200051a62000b3a565b8062000527575062000568565b806040517f08c379a00000000000000000000000000000000000000000000000000000000081526004016200055d919062000c21565b60405180910390fd5b505b6040517f08c379a00000000000000000000000000000000000000000000000000000000081526004016200059c9062000cbb565b60405180910390fd5b63f23a6e6160e01b7bffffffffffffffffffffffffffffffffffffffffffffffffffffffff1916817bffffffffffffffffffffffffffffffffffffffffffffffffffffffff1916146200062f576040517f08c379a0000000000000000000000000000000000000000000000000000000008152600401620006269062000d53565b60405180910390fd5b505b505050505050565b6000808273ffffffffffffffffffffffffffffffffffffffff163b119050919050565b8280546200066a9062000da4565b90600052602060002090601f0160209004810192826200068e5760008555620006da565b82601f10620006a957805160ff1916838001178555620006da565b82800160010185558215620006da579182015b82811115620006d9578251825591602001919060010190620006bc565b5b509050620006e99190620006ed565b5090565b5b8082111562000708576000816000905550600101620006ee565b5090565b600082825260208201905092915050565b7f455243313135353a206d696e7420746f20746865207a65726f2061646472657360008201527f7300000000000000000000000000000000000000000000000000000000000000602082015250565b60006200077b6021836200070c565b915062000788826200071d565b604082019050919050565b60006020820190508181036000830152620007ae816200076c565b9050919050565b6000819050919050565b7f4e487b7100000000000000000000000000000000000000000000000000000000600052601160045260246000fd5b6000620007fb82620007b5565b91506200080883620007b5565b9250827fffffffffffffffffffffffffffffffffffffffffffffffffffffffffffffffff0382111562000840576200083f620007bf565b5b828201905092915050565b6200085681620007b5565b82525050565b60006040820190506200087360008301856200084b565b6200088260208301846200084b565b9392505050565b7f4e487b7100000000000000000000000000000000000000000000000000000000600052604160045260246000fd5b7f4e487b7100000000000000000000000000000000000000000000000000000000600052603260045260246000fd5b600073ffffffffffffffffffffffffffffffffffffffff82169050919050565b60006200091482620008e7565b9050919050565b620009268162000907565b82525050565b600081519050919050565b600082825260208201905092915050565b60005b83811015620009685780820151818401526020810190506200094b565b8381111562000978576000848401525b50505050565b6000601f19601f8301169050919050565b60006200099c826200092c565b620009a8818562000937565b9350620009ba81856020860162000948565b620009c5816200097e565b840191505092915050565b600060a082019050620009e760008301886200091b565b620009f660208301876200091b565b62000a0560408301866200084b565b62000a1460608301856200084b565b818103608083015262000a2881846200098f565b90509695505050505050565b6000604051905090565b600080fd5b60007fffffffff0000000000000000000000000000000000000000000000000000000082169050919050565b62000a7a8162000a43565b811462000a8657600080fd5b50565b60008151905062000a9a8162000a6f565b92915050565b60006020828403121562000ab95762000ab862000a3e565b5b600062000ac98482850162000a89565b91505092915050565b60008160e01c9050919050565b600060033d111562000b015760046000803e62000afe60005162000ad2565b90505b90565b62000b0f826200097e565b810181811067ffffffffffffffff8211171562000b315762000b3062000889565b5b80604052505050565b600060443d1062000bd25762000b4f62000a34565b60043d036004823e80513d602482011167ffffffffffffffff8211171562000b7957505062000bd2565b808201805167ffffffffffffffff81111562000b99575050505062000bd2565b80602083010160043d03850181111562000bb857505050505062000bd2565b62000bc98260200185018662000b04565b82955050505050505b90565b600081519050919050565b600062000bed8262000bd5565b62000bf981856200070c565b935062000c0b81856020860162000948565b62000c16816200097e565b840191505092915050565b6000602082019050818103600083015262000c3d818462000be0565b905092915050565b7f455243313135353a207472616e7366657220746f206e6f6e204552433131353560008201527f526563656976657220696d706c656d656e746572000000000000000000000000602082015250565b600062000ca36034836200070c565b915062000cb08262000c45565b604082019050919050565b6000602082019050818103600083015262000cd68162000c94565b9050919050565b7f455243313135353a204552433131353552656365697665722072656a6563746560008201527f6420746f6b656e73000000000000000000000000000000000000000000000000602082015250565b600062000d3b6028836200070c565b915062000d488262000cdd565b604082019050919050565b6000602082019050818103600083015262000d6e8162000d2c565b9050919050565b7f4e487b7100000000000000000000000000000000000000000000000000000000600052602260045260246000fd5b6000600282049050600182168062000dbd57607f821691505b60208210810362000dd35762000dd262000d75565b5b50919050565b6139fb8062000de96000396000f3fe6080604052600436106101805760003560e01c8063b54bbdc7116100d1578063e2ae93fb1161008a578063f23a6e6111610064578063f23a6e611461059f578063f242432a146105dc578063f2fde38b14610605578063f851a4401461062e57610180565b8063e2ae93fb146104fa578063e985e9c514610537578063f1cc12681461057457610180565b8063b54bbdc7146103d3578063bc197c81146103fc578063bd11f69d14610439578063bed34bba14610476578063c79fc609146104b3578063d96a094a146104de57610180565b806330e1ad321161013e5780637d38c997116101185780637d38c9971461034c5780638da5cb5b14610375578063a22cb465146103a0578063a26759cb146103c957610180565b806330e1ad32146102bb5780634e1273f4146102f8578063715018a61461033557610180565b8062fdd58e1461018557806301ffc9a7146101c257806306661abd146101ff5780630e89341c1461022a57806318160ddd146102675780632eb2c2d614610292575b600080fd5b34801561019157600080fd5b506101ac60048036038101906101a791906123c1565b610659565b6040516101b99190612410565b60405180910390f35b3480156101ce57600080fd5b506101e960048036038101906101e49190612483565b610721565b6040516101f691906124cb565b60405180910390f35b34801561020b57600080fd5b50610214610733565b6040516102219190612410565b60405180910390f35b34801561023657600080fd5b50610251600480360381019061024c91906124e6565b610739565b60405161025e91906125ac565b60405180910390f35b34801561027357600080fd5b5061027c6107cd565b6040516102899190612410565b60405180910390f35b34801561029e57600080fd5b506102b960048036038101906102b491906127cb565b6107da565b005b3480156102c757600080fd5b506102e260048036038101906102dd91906124e6565b61087b565b6040516102ef91906128a9565b60405180910390f35b34801561030457600080fd5b5061031f600480360381019061031a9190612987565b6108b8565b60405161032c9190612abd565b60405180910390f35b34801561034157600080fd5b5061034a6109d1565b005b34801561035857600080fd5b50610373600480360381019061036e91906124e6565b610a59565b005b34801561038157600080fd5b5061038a610bbf565b60405161039791906128a9565b60405180910390f35b3480156103ac57600080fd5b506103c760048036038101906103c29190612b0b565b610be9565b005b6103d1610bff565b005b3480156103df57600080fd5b506103fa60048036038101906103f59190612bec565b610cae565b005b34801561040857600080fd5b50610423600480360381019061041e91906127cb565b610df6565b6040516104309190612c57565b60405180910390f35b34801561044557600080fd5b50610460600480360381019061045b91906124e6565b610e0b565b60405161046d91906125ac565b60405180910390f35b34801561048257600080fd5b5061049d60048036038101906104989190612c72565b610eb7565b6040516104aa91906124cb565b60405180910390f35b3480156104bf57600080fd5b506104c8610f10565b6040516104d591906128a9565b60405180910390f35b6104f860048036038101906104f391906124e6565b610f36565b005b34801561050657600080fd5b50610521600480360381019061051c9190612cea565b61107a565b60405161052e9190612410565b60405180910390f35b34801561054357600080fd5b5061055e60048036038101906105599190612d17565b61108e565b60405161056b91906124cb565b60405180910390f35b34801561058057600080fd5b50610589611122565b6040516105969190612410565b60405180910390f35b3480156105ab57600080fd5b506105c660048036038101906105c19190612d57565b611127565b6040516105d39190612c57565b60405180910390f35b3480156105e857600080fd5b5061060360048036038101906105fe9190612d57565b61113c565b005b34801561061157600080fd5b5061062c60048036038101906106279190612cea565b6111dd565b005b34801561063a57600080fd5b506106436112d4565b60405161065091906128a9565b60405180910390f35b60008073ffffffffffffffffffffffffffffffffffffffff168373ffffffffffffffffffffffffffffffffffffffff16036106c9576040517f08c379a00000000000000000000000000000000000000000000000000000000081526004016106c090612e60565b60405180910390fd5b60008083815260200190815260200160002060008473ffffffffffffffffffffffffffffffffffffffff1673ffffffffffffffffffffffffffffffffffffffff16815260200190815260200160002054905092915050565b600061072c8261131d565b9050919050565b60065481565b60606002805461074890612eaf565b80601f016020809104026020016040519081016040528092919081815260200182805461077490612eaf565b80156107c15780601f10610796576101008083540402835291602001916107c1565b820191906000526020600020905b8154815290600101906020018083116107a457829003601f168201915b50505050509050919050565b6000600780549050905090565b6107e2611397565b73ffffffffffffffffffffffffffffffffffffffff168573ffffffffffffffffffffffffffffffffffffffff161480610828575061082785610822611397565b61108e565b5b610867576040517f08c379a000000000000000000000000000000000000000000000000000000000815260040161085e90612f52565b60405180910390fd5b610874858585858561139f565b5050505050565b6000600b600083815260200190815260200160002060009054906101000a900473ffffffffffffffffffffffffffffffffffffffff169050919050565b606081518351146108fe576040517f08c379a00000000000000000000000000000000000000000000000000000000081526004016108f590612fe4565b60405180910390fd5b6000835167ffffffffffffffff81111561091b5761091a6125d3565b5b6040519080825280602002602001820160405280156109495781602001602082028036833780820191505090505b50905060005b84518110156109c65761099685828151811061096e5761096d613004565b5b602002602001015185838151811061098957610988613004565b5b6020026020010151610659565b8282815181106109a9576109a8613004565b5b602002602001018181525050806109bf90613062565b905061094f565b508091505092915050565b6109d9611397565b73ffffffffffffffffffffffffffffffffffffffff166109f7610bbf565b73ffffffffffffffffffffffffffffffffffffffff1614610a4d576040517f08c379a0000000000000000000000000000000000000000000000000000000008152600401610a44906130f6565b60405180910390fd5b610a5760006116b2565b565b600b6000600183610a6a9190613116565b815260200190815260200160002060009054906101000a900473ffffffffffffffffffffffffffffffffffffffff1660086000600184610aaa9190613116565b815260200190815260200160002060006101000a81548173ffffffffffffffffffffffffffffffffffffffff021916908373ffffffffffffffffffffffffffffffffffffffff16021790555030600b6000600184610b089190613116565b815260200190815260200160002060006101000a81548173ffffffffffffffffffffffffffffffffffffffff021916908373ffffffffffffffffffffffffffffffffffffffff160217905550610bbc33600b6000600185610b699190613116565b815260200190815260200160002060009054906101000a900473ffffffffffffffffffffffffffffffffffffffff16600184610ba59190613116565b60016040518060200160405280600081525061113c565b50565b6000600360009054906101000a900473ffffffffffffffffffffffffffffffffffffffff16905090565b610bfb610bf4611397565b8383611778565b5050565b600460009054906101000a900473ffffffffffffffffffffffffffffffffffffffff1673ffffffffffffffffffffffffffffffffffffffff163373ffffffffffffffffffffffffffffffffffffffff1614610c8f576040517f08c379a0000000000000000000000000000000000000000000000000000000008152600401610c86906131b8565b60405180910390fd5b610cac3360006064604051806020016040528060008152506118e4565b565b600982604051610cbe9190613214565b908152602001604051809103902060009054906101000a900460ff1615610ce457600080fd5b600782908060018154018082558091505060019003906000526020600020016000909190919091509080519060200190610d1f929190612276565b5080600a600060065481526020019081526020016000208190555033600b6000600654815260200190815260200160002060006101000a81548173ffffffffffffffffffffffffffffffffffffffff021916908373ffffffffffffffffffffffffffffffffffffffff1602179055506000829050610da2336006546001846118e4565b60066000815480929190610db590613062565b91905055506001600984604051610dcc9190613214565b908152602001604051809103902060006101000a81548160ff021916908315150217905550505050565b600063bc197c8160e01b905095945050505050565b60078181548110610e1b57600080fd5b906000526020600020016000915090508054610e3690612eaf565b80601f0160208091040260200160405190810160405280929190818152602001828054610e6290612eaf565b8015610eaf5780601f10610e8457610100808354040283529160200191610eaf565b820191906000526020600020905b815481529060010190602001808311610e9257829003601f168201915b505050505081565b600081604051602001610eca9190613214565b6040516020818303038152906040528051906020012083604051602001610ef19190613214565b6040516020818303038152906040528051906020012014905092915050565b600560009054906101000a900473ffffffffffffffffffffffffffffffffffffffff1681565b610fb13360086000600185610f4b9190613116565b815260200190815260200160002060009054906101000a900473ffffffffffffffffffffffffffffffffffffffff166000600a6000600187610f8d9190613116565b8152602001908152602001600020546040518060200160405280600081525061113c565b611019600b6000600184610fc59190613116565b815260200190815260200160002060009054906101000a900473ffffffffffffffffffffffffffffffffffffffff16336001846110029190613116565b600160405180602001604052806000815250611a79565b33600b600060018461102b9190613116565b815260200190815260200160002060006101000a81548173ffffffffffffffffffffffffffffffffffffffff021916908373ffffffffffffffffffffffffffffffffffffffff16021790555050565b6000611087826000610659565b9050919050565b6000600160008473ffffffffffffffffffffffffffffffffffffffff1673ffffffffffffffffffffffffffffffffffffffff16815260200190815260200160002060008373ffffffffffffffffffffffffffffffffffffffff1673ffffffffffffffffffffffffffffffffffffffff16815260200190815260200160002060009054906101000a900460ff16905092915050565b600081565b600063f23a6e6160e01b905095945050505050565b611144611397565b73ffffffffffffffffffffffffffffffffffffffff168573ffffffffffffffffffffffffffffffffffffffff16148061118a575061118985611184611397565b61108e565b5b6111c9576040517f08c379a00000000000000000000000000000000000000000000000000000000081526004016111c09061329d565b60405180910390fd5b6111d68585858585611a79565b5050505050565b6111e5611397565b73ffffffffffffffffffffffffffffffffffffffff16611203610bbf565b73ffffffffffffffffffffffffffffffffffffffff1614611259576040517f08c379a0000000000000000000000000000000000000000000000000000000008152600401611250906130f6565b60405180910390fd5b600073ffffffffffffffffffffffffffffffffffffffff168173ffffffffffffffffffffffffffffffffffffffff16036112c8576040517f08c379a00000000000000000000000000000000000000000000000000000000081526004016112bf9061332f565b60405180910390fd5b6112d1816116b2565b50565b600460009054906101000a900473ffffffffffffffffffffffffffffffffffffffff1681565b6000808273ffffffffffffffffffffffffffffffffffffffff163b119050919050565b60007f4e2312e0000000000000000000000000000000000000000000000000000000007bffffffffffffffffffffffffffffffffffffffffffffffffffffffff1916827bffffffffffffffffffffffffffffffffffffffffffffffffffffffff19161480611390575061138f82611cfa565b5b9050919050565b600033905090565b81518351146113e3576040517f08c379a00000000000000000000000000000000000000000000000000000000081526004016113da906133c1565b60405180910390fd5b600073ffffffffffffffffffffffffffffffffffffffff168473ffffffffffffffffffffffffffffffffffffffff1603611452576040517f08c379a000000000000000000000000000000000000000000000000000000000815260040161144990613453565b60405180910390fd5b600061145c611397565b905061146c818787878787611ddc565b60005b845181101561161d57600085828151811061148d5761148c613004565b5b6020026020010151905060008583815181106114ac576114ab613004565b5b60200260200101519050600080600084815260200190815260200160002060008b73ffffffffffffffffffffffffffffffffffffffff1673ffffffffffffffffffffffffffffffffffffffff1681526020019081526020016000205490508181101561154d576040517f08c379a0000000000000000000000000000000000000000000000000000000008152600401611544906134e5565b60405180910390fd5b81810360008085815260200190815260200160002060008c73ffffffffffffffffffffffffffffffffffffffff1673ffffffffffffffffffffffffffffffffffffffff168152602001908152602001600020819055508160008085815260200190815260200160002060008b73ffffffffffffffffffffffffffffffffffffffff1673ffffffffffffffffffffffffffffffffffffffff16815260200190815260200160002060008282546116029190613116565b925050819055505050508061161690613062565b905061146f565b508473ffffffffffffffffffffffffffffffffffffffff168673ffffffffffffffffffffffffffffffffffffffff168273ffffffffffffffffffffffffffffffffffffffff167f4a39dc06d4c0dbc64b70af90fd698a233a518aa5d07e595d983b8c0526c8f7fb8787604051611694929190613505565b60405180910390a46116aa818787878787611de4565b505050505050565b6000600360009054906101000a900473ffffffffffffffffffffffffffffffffffffffff16905081600360006101000a81548173ffffffffffffffffffffffffffffffffffffffff021916908373ffffffffffffffffffffffffffffffffffffffff1602179055508173ffffffffffffffffffffffffffffffffffffffff168173ffffffffffffffffffffffffffffffffffffffff167f8be0079c531659141344cd1fd0a4f28419497f9722a3daafe3b4186f6b6457e060405160405180910390a35050565b8173ffffffffffffffffffffffffffffffffffffffff168373ffffffffffffffffffffffffffffffffffffffff16036117e6576040517f08c379a00000000000000000000000000000000000000000000000000000000081526004016117dd906135ae565b60405180910390fd5b80600160008573ffffffffffffffffffffffffffffffffffffffff1673ffffffffffffffffffffffffffffffffffffffff16815260200190815260200160002060008473ffffffffffffffffffffffffffffffffffffffff1673ffffffffffffffffffffffffffffffffffffffff16815260200190815260200160002060006101000a81548160ff0219169083151502179055508173ffffffffffffffffffffffffffffffffffffffff168373ffffffffffffffffffffffffffffffffffffffff167f17307eab39ab6107e8899845ad3d59bd9653f200f220920489ca2b5937696c31836040516118d791906124cb565b60405180910390a3505050565b600073ffffffffffffffffffffffffffffffffffffffff168473ffffffffffffffffffffffffffffffffffffffff1603611953576040517f08c379a000000000000000000000000000000000000000000000000000000000815260040161194a90613640565b60405180910390fd5b600061195d611397565b905061197e8160008761196f88611fbb565b61197888611fbb565b87611ddc565b8260008086815260200190815260200160002060008773ffffffffffffffffffffffffffffffffffffffff1673ffffffffffffffffffffffffffffffffffffffff16815260200190815260200160002060008282546119dd9190613116565b925050819055508473ffffffffffffffffffffffffffffffffffffffff16600073ffffffffffffffffffffffffffffffffffffffff168273ffffffffffffffffffffffffffffffffffffffff167fc3d58168c5ae7397731d063d5bbf3d657854427343f4c083240f7aacaa2d0f628787604051611a5b929190613660565b60405180910390a4611a7281600087878787612035565b5050505050565b600073ffffffffffffffffffffffffffffffffffffffff168473ffffffffffffffffffffffffffffffffffffffff1603611ae8576040517f08c379a0000000000000000000000000000000000000000000000000000000008152600401611adf90613453565b60405180910390fd5b6000611af2611397565b9050611b12818787611b0388611fbb565b611b0c88611fbb565b87611ddc565b600080600086815260200190815260200160002060008873ffffffffffffffffffffffffffffffffffffffff1673ffffffffffffffffffffffffffffffffffffffff16815260200190815260200160002054905083811015611ba9576040517f08c379a0000000000000000000000000000000000000000000000000000000008152600401611ba0906134e5565b60405180910390fd5b83810360008087815260200190815260200160002060008973ffffffffffffffffffffffffffffffffffffffff1673ffffffffffffffffffffffffffffffffffffffff168152602001908152602001600020819055508360008087815260200190815260200160002060008873ffffffffffffffffffffffffffffffffffffffff1673ffffffffffffffffffffffffffffffffffffffff1681526020019081526020016000206000828254611c5e9190613116565b925050819055508573ffffffffffffffffffffffffffffffffffffffff168773ffffffffffffffffffffffffffffffffffffffff168373ffffffffffffffffffffffffffffffffffffffff167fc3d58168c5ae7397731d063d5bbf3d657854427343f4c083240f7aacaa2d0f628888604051611cdb929190613660565b60405180910390a4611cf1828888888888612035565b50505050505050565b60007fd9b67a26000000000000000000000000000000000000000000000000000000007bffffffffffffffffffffffffffffffffffffffffffffffffffffffff1916827bffffffffffffffffffffffffffffffffffffffffffffffffffffffff19161480611dc557507f0e89341c000000000000000000000000000000000000000000000000000000007bffffffffffffffffffffffffffffffffffffffffffffffffffffffff1916827bffffffffffffffffffffffffffffffffffffffffffffffffffffffff1916145b80611dd55750611dd48261220c565b5b9050919050565b505050505050565b611e038473ffffffffffffffffffffffffffffffffffffffff166112fa565b15611fb3578373ffffffffffffffffffffffffffffffffffffffff1663bc197c8187878686866040518663ffffffff1660e01b8152600401611e499594939291906136de565b6020604051808303816000875af1925050508015611e8557506040513d601f19601f82011682018060405250810190611e82919061375b565b60015b611f2a57611e91613795565b806308c379a003611eed5750611ea56137b7565b80611eb05750611eef565b806040517f08c379a0000000000000000000000000000000000000000000000000000000008152600401611ee491906125ac565b60405180910390fd5b505b6040517f08c379a0000000000000000000000000000000000000000000000000000000008152600401611f21906138b9565b60405180910390fd5b63bc197c8160e01b7bffffffffffffffffffffffffffffffffffffffffffffffffffffffff1916817bffffffffffffffffffffffffffffffffffffffffffffffffffffffff191614611fb1576040517f08c379a0000000000000000000000000000000000000000000000000000000008152600401611fa89061394b565b60405180910390fd5b505b505050505050565b60606000600167ffffffffffffffff811115611fda57611fd96125d3565b5b6040519080825280602002602001820160405280156120085781602001602082028036833780820191505090505b50905082816000815181106120205761201f613004565b5b60200260200101818152505080915050919050565b6120548473ffffffffffffffffffffffffffffffffffffffff166112fa565b15612204578373ffffffffffffffffffffffffffffffffffffffff1663f23a6e6187878686866040518663ffffffff1660e01b815260040161209a95949392919061396b565b6020604051808303816000875af19250505080156120d657506040513d601f19601f820116820180604052508101906120d3919061375b565b60015b61217b576120e2613795565b806308c379a00361213e57506120f66137b7565b806121015750612140565b806040517f08c379a000000000000000000000000000000000000000000000000000000000815260040161213591906125ac565b60405180910390fd5b505b6040517f08c379a0000000000000000000000000000000000000000000000000000000008152600401612172906138b9565b60405180910390fd5b63f23a6e6160e01b7bffffffffffffffffffffffffffffffffffffffffffffffffffffffff1916817bffffffffffffffffffffffffffffffffffffffffffffffffffffffff191614612202576040517f08c379a00000000000000000000000000000000000000000000000000000000081526004016121f99061394b565b60405180910390fd5b505b505050505050565b60007f01ffc9a7000000000000000000000000000000000000000000000000000000007bffffffffffffffffffffffffffffffffffffffffffffffffffffffff1916827bffffffffffffffffffffffffffffffffffffffffffffffffffffffff1916149050919050565b82805461228290612eaf565b90600052602060002090601f0160209004810192826122a457600085556122eb565b82601f106122bd57805160ff19168380011785556122eb565b828001600101855582156122eb579182015b828111156122ea5782518255916020019190600101906122cf565b5b5090506122f891906122fc565b5090565b5b808211156123155760008160009055506001016122fd565b5090565b6000604051905090565b600080fd5b600080fd5b600073ffffffffffffffffffffffffffffffffffffffff82169050919050565b60006123588261232d565b9050919050565b6123688161234d565b811461237357600080fd5b50565b6000813590506123858161235f565b92915050565b6000819050919050565b61239e8161238b565b81146123a957600080fd5b50565b6000813590506123bb81612395565b92915050565b600080604083850312156123d8576123d7612323565b5b60006123e685828601612376565b92505060206123f7858286016123ac565b9150509250929050565b61240a8161238b565b82525050565b60006020820190506124256000830184612401565b92915050565b60007fffffffff0000000000000000000000000000000000000000000000000000000082169050919050565b6124608161242b565b811461246b57600080fd5b50565b60008135905061247d81612457565b92915050565b60006020828403121561249957612498612323565b5b60006124a78482850161246e565b91505092915050565b60008115159050919050565b6124c5816124b0565b82525050565b60006020820190506124e060008301846124bc565b92915050565b6000602082840312156124fc576124fb612323565b5b600061250a848285016123ac565b91505092915050565b600081519050919050565b600082825260208201905092915050565b60005b8381101561254d578082015181840152602081019050612532565b8381111561255c576000848401525b50505050565b6000601f19601f8301169050919050565b600061257e82612513565b612588818561251e565b935061259881856020860161252f565b6125a181612562565b840191505092915050565b600060208201905081810360008301526125c68184612573565b905092915050565b600080fd5b7f4e487b7100000000000000000000000000000000000000000000000000000000600052604160045260246000fd5b61260b82612562565b810181811067ffffffffffffffff8211171561262a576126296125d3565b5b80604052505050565b600061263d612319565b90506126498282612602565b919050565b600067ffffffffffffffff821115612669576126686125d3565b5b602082029050602081019050919050565b600080fd5b600061269261268d8461264e565b612633565b905080838252602082019050602084028301858111156126b5576126b461267a565b5b835b818110156126de57806126ca88826123ac565b8452602084019350506020810190506126b7565b5050509392505050565b600082601f8301126126fd576126fc6125ce565b5b813561270d84826020860161267f565b91505092915050565b600080fd5b600067ffffffffffffffff821115612736576127356125d3565b5b61273f82612562565b9050602081019050919050565b82818337600083830152505050565b600061276e6127698461271b565b612633565b90508281526020810184848401111561278a57612789612716565b5b61279584828561274c565b509392505050565b600082601f8301126127b2576127b16125ce565b5b81356127c284826020860161275b565b91505092915050565b600080600080600060a086880312156127e7576127e6612323565b5b60006127f588828901612376565b955050602061280688828901612376565b945050604086013567ffffffffffffffff81111561282757612826612328565b5b612833888289016126e8565b935050606086013567ffffffffffffffff81111561285457612853612328565b5b612860888289016126e8565b925050608086013567ffffffffffffffff81111561288157612880612328565b5b61288d8882890161279d565b9150509295509295909350565b6128a38161234d565b82525050565b60006020820190506128be600083018461289a565b92915050565b600067ffffffffffffffff8211156128df576128de6125d3565b5b602082029050602081019050919050565b60006129036128fe846128c4565b612633565b905080838252602082019050602084028301858111156129265761292561267a565b5b835b8181101561294f578061293b8882612376565b845260208401935050602081019050612928565b5050509392505050565b600082601f83011261296e5761296d6125ce565b5b813561297e8482602086016128f0565b91505092915050565b6000806040838503121561299e5761299d612323565b5b600083013567ffffffffffffffff8111156129bc576129bb612328565b5b6129c885828601612959565b925050602083013567ffffffffffffffff8111156129e9576129e8612328565b5b6129f5858286016126e8565b9150509250929050565b600081519050919050565b600082825260208201905092915050565b6000819050602082019050919050565b612a348161238b565b82525050565b6000612a468383612a2b565b60208301905092915050565b6000602082019050919050565b6000612a6a826129ff565b612a748185612a0a565b9350612a7f83612a1b565b8060005b83811015612ab0578151612a978882612a3a565b9750612aa283612a52565b925050600181019050612a83565b5085935050505092915050565b60006020820190508181036000830152612ad78184612a5f565b905092915050565b612ae8816124b0565b8114612af357600080fd5b50565b600081359050612b0581612adf565b92915050565b60008060408385031215612b2257612b21612323565b5b6000612b3085828601612376565b9250506020612b4185828601612af6565b9150509250929050565b600067ffffffffffffffff821115612b6657612b656125d3565b5b612b6f82612562565b9050602081019050919050565b6000612b8f612b8a84612b4b565b612633565b905082815260208101848484011115612bab57612baa612716565b5b612bb684828561274c565b509392505050565b600082601f830112612bd357612bd26125ce565b5b8135612be3848260208601612b7c565b91505092915050565b60008060408385031215612c0357612c02612323565b5b600083013567ffffffffffffffff811115612c2157612c20612328565b5b612c2d85828601612bbe565b9250506020612c3e858286016123ac565b9150509250929050565b612c518161242b565b82525050565b6000602082019050612c6c6000830184612c48565b92915050565b60008060408385031215612c8957612c88612323565b5b600083013567ffffffffffffffff811115612ca757612ca6612328565b5b612cb385828601612bbe565b925050602083013567ffffffffffffffff811115612cd457612cd3612328565b5b612ce085828601612bbe565b9150509250929050565b600060208284031215612d0057612cff612323565b5b6000612d0e84828501612376565b91505092915050565b60008060408385031215612d2e57612d2d612323565b5b6000612d3c85828601612376565b9250506020612d4d85828601612376565b9150509250929050565b600080600080600060a08688031215612d7357612d72612323565b5b6000612d8188828901612376565b9550506020612d9288828901612376565b9450506040612da3888289016123ac565b9350506060612db4888289016123ac565b925050608086013567ffffffffffffffff811115612dd557612dd4612328565b5b612de18882890161279d565b9150509295509295909350565b7f455243313135353a2062616c616e636520717565727920666f7220746865207a60008201527f65726f2061646472657373000000000000000000000000000000000000000000602082015250565b6000612e4a602b8361251e565b9150612e5582612dee565b604082019050919050565b60006020820190508181036000830152612e7981612e3d565b9050919050565b7f4e487b7100000000000000000000000000000000000000000000000000000000600052602260045260246000fd5b60006002820490506001821680612ec757607f821691505b602082108103612eda57612ed9612e80565b5b50919050565b7f455243313135353a207472616e736665722063616c6c6572206973206e6f742060008201527f6f776e6572206e6f7220617070726f7665640000000000000000000000000000602082015250565b6000612f3c60328361251e565b9150612f4782612ee0565b604082019050919050565b60006020820190508181036000830152612f6b81612f2f565b9050919050565b7f455243313135353a206163636f756e747320616e6420696473206c656e67746860008201527f206d69736d617463680000000000000000000000000000000000000000000000602082015250565b6000612fce60298361251e565b9150612fd982612f72565b604082019050919050565b60006020820190508181036000830152612ffd81612fc1565b9050919050565b7f4e487b7100000000000000000000000000000000000000000000000000000000600052603260045260246000fd5b7f4e487b7100000000000000000000000000000000000000000000000000000000600052601160045260246000fd5b600061306d8261238b565b91507fffffffffffffffffffffffffffffffffffffffffffffffffffffffffffffffff820361309f5761309e613033565b5b600182019050919050565b7f4f776e61626c653a2063616c6c6572206973206e6f7420746865206f776e6572600082015250565b60006130e060208361251e565b91506130eb826130aa565b602082019050919050565b6000602082019050818103600083015261310f816130d3565b9050919050565b60006131218261238b565b915061312c8361238b565b9250827fffffffffffffffffffffffffffffffffffffffffffffffffffffffffffffffff0382111561316157613160613033565b5b828201905092915050565b7f6f6e6c792061646d696e2063616e2063616c6c20746869730000000000000000600082015250565b60006131a260188361251e565b91506131ad8261316c565b602082019050919050565b600060208201905081810360008301526131d181613195565b9050919050565b600081905092915050565b60006131ee82612513565b6131f881856131d8565b935061320881856020860161252f565b80840191505092915050565b600061322082846131e3565b915081905092915050565b7f455243313135353a2063616c6c6572206973206e6f74206f776e6572206e6f7260008201527f20617070726f7665640000000000000000000000000000000000000000000000602082015250565b600061328760298361251e565b91506132928261322b565b604082019050919050565b600060208201905081810360008301526132b68161327a565b9050919050565b7f4f776e61626c653a206e6577206f776e657220697320746865207a65726f206160008201527f6464726573730000000000000000000000000000000000000000000000000000602082015250565b600061331960268361251e565b9150613324826132bd565b604082019050919050565b600060208201905081810360008301526133488161330c565b9050919050565b7f455243313135353a2069647320616e6420616d6f756e7473206c656e6774682060008201527f6d69736d61746368000000000000000000000000000000000000000000000000602082015250565b60006133ab60288361251e565b91506133b68261334f565b604082019050919050565b600060208201905081810360008301526133da8161339e565b9050919050565b7f455243313135353a207472616e7366657220746f20746865207a65726f20616460008201527f6472657373000000000000000000000000000000000000000000000000000000602082015250565b600061343d60258361251e565b9150613448826133e1565b604082019050919050565b6000602082019050818103600083015261346c81613430565b9050919050565b7f455243313135353a20696e73756666696369656e742062616c616e636520666f60008201527f72207472616e7366657200000000000000000000000000000000000000000000602082015250565b60006134cf602a8361251e565b91506134da82613473565b604082019050919050565b600060208201905081810360008301526134fe816134c2565b9050919050565b6000604082019050818103600083015261351f8185612a5f565b905081810360208301526135338184612a5f565b90509392505050565b7f455243313135353a2073657474696e6720617070726f76616c2073746174757360008201527f20666f722073656c660000000000000000000000000000000000000000000000602082015250565b600061359860298361251e565b91506135a38261353c565b604082019050919050565b600060208201905081810360008301526135c78161358b565b9050919050565b7f455243313135353a206d696e7420746f20746865207a65726f2061646472657360008201527f7300000000000000000000000000000000000000000000000000000000000000602082015250565b600061362a60218361251e565b9150613635826135ce565b604082019050919050565b600060208201905081810360008301526136598161361d565b9050919050565b60006040820190506136756000830185612401565b6136826020830184612401565b9392505050565b600081519050919050565b600082825260208201905092915050565b60006136b082613689565b6136ba8185613694565b93506136ca81856020860161252f565b6136d381612562565b840191505092915050565b600060a0820190506136f3600083018861289a565b613700602083018761289a565b81810360408301526137128186612a5f565b905081810360608301526137268185612a5f565b9050818103608083015261373a81846136a5565b90509695505050505050565b60008151905061375581612457565b92915050565b60006020828403121561377157613770612323565b5b600061377f84828501613746565b91505092915050565b60008160e01c9050919050565b600060033d11156137b45760046000803e6137b1600051613788565b90505b90565b600060443d10613844576137c9612319565b60043d036004823e80513d602482011167ffffffffffffffff821117156137f1575050613844565b808201805167ffffffffffffffff81111561380f5750505050613844565b80602083010160043d03850181111561382c575050505050613844565b61383b82602001850186612602565b82955050505050505b90565b7f455243313135353a207472616e7366657220746f206e6f6e204552433131353560008201527f526563656976657220696d706c656d656e746572000000000000000000000000602082015250565b60006138a360348361251e565b91506138ae82613847565b604082019050919050565b600060208201905081810360008301526138d281613896565b9050919050565b7f455243313135353a204552433131353552656365697665722072656a6563746560008201527f6420746f6b656e73000000000000000000000000000000000000000000000000602082015250565b600061393560288361251e565b9150613940826138d9565b604082019050919050565b6000602082019050818103600083015261396481613928565b9050919050565b600060a082019050613980600083018861289a565b61398d602083018761289a565b61399a6040830186612401565b6139a76060830185612401565b81810360808301526139b981846136a5565b9050969550505050505056fea26469706673582212207fa6e77aae4d4e1bebad1d1318d84780dbc9f1507c747ca4428e15b11bbb164b64736f6c634300080d0033",
  "immutableReferences": {},
  "source": "// SPDX-License-Identifier: MIT\npragma solidity ^0.8.0;\nimport \"../ERC1155/ERC1155.sol\";\nimport \"../ERC1155/utils/ERC1155Holder.sol\";\nimport \"../ERC1155/utils/access/Ownable.sol\";\n\n\n\ncontract TFG is ERC1155, ERC1155Holder, Ownable{\n    address public admin;\n    address public addressC;\n    uint256 public count;\n\n    //ids para los tokens\n    uint256 public constant moneda = 0;\n\n    //estructuras auxiliares\n    string [] public colors;\n    mapping (uint => address) _seller;\n    mapping (string => bool) _colorExists;\n    mapping (uint => uint256) _price;\n    mapping (uint => address) _property;\n\n    modifier onlyAdmin() {\n        require(msg.sender == admin, \"only admin can call this\");\n        _;\n    }\n\n    constructor() ERC1155(\"\") {\n        addressC = address(this);\n        admin = msg.sender;\n        count = 1;\n       _mint(msg.sender, moneda, 100, \"\");\n    }\n\n     function supportsInterface(bytes4 interfaceId)\n        public\n        view\n        virtual\n        override(ERC1155, ERC1155Receiver)\n        returns (bool)\n    {\n        return super.supportsInterface(interfaceId);\n    }\n\n    function nuevoColor(string memory _color, uint precio) public{\n        require(!_colorExists[_color]);\n        colors.push(_color);\n        _price[count] = precio;\n        _property[count] = msg.sender;\n        bytes memory dataColor = bytes(_color);\n        _mint(msg.sender, count, 1, dataColor);\n        //setApprove? \n        count++;\n        _colorExists[_color] = true;\n        \n    }\n\n    function totalSupply() public view returns (uint256){\n        return colors.length;\n    }\n\n    function property(uint id) public view returns (address){\n        return _property[id];\n    }\n\n    function funds(address propietario) public view returns (uint256){\n        return balanceOf(propietario, 0);\n    }\n\n    function addFunds() public payable onlyAdmin{\n        _mint(msg.sender, 0, 100, \"\");\n    }\n\n\n    function buy(uint tokenId) public payable {\n        //Ahora la transaccin de las monedas\n        safeTransferFrom(msg.sender, _seller[tokenId+1], 0, _price[tokenId+1], \"\");\n        _safeTransferFrom(_property[tokenId+1], msg.sender, tokenId+1, 1, \"\");\n        _property[tokenId+1] = msg.sender;\n    }\n\n    function compareStrings(string memory a, string memory b) public pure returns (bool) {\n        return (keccak256(abi.encodePacked((a))) == keccak256(abi.encodePacked((b))));\n    }\n\n    function permission(uint256 tokenId) public {\n        _seller[tokenId + 1] = _property[tokenId+1];\n        _property[tokenId+1] = address(this);\n        safeTransferFrom(msg.sender, _property[tokenId+1], tokenId + 1, 1, \"\");\n       \n                \n\n    }\n\n}",
  "sourcePath": "/Users/ignacio/Desktop/TFG1155/src/contracts/TFG.sol",
  "compiler": {
    "name": "solc",
    "version": "0.8.13+commit.abaa5c0e.Emscripten.clang"
  },
  "schemaVersion": "3.4.2",
  "updatedAt": "2022-03-31T15:32:22.931Z",
  "networkType": "ethereum",
  "devdoc": {
    "kind": "dev",
    "methods": {
      "balanceOf(address,uint256)": {
        "details": "See {IERC1155-balanceOf}. Requirements: - `account` cannot be the zero address."
      },
      "balanceOfBatch(address[],uint256[])": {
        "details": "See {IERC1155-balanceOfBatch}. Requirements: - `accounts` and `ids` must have the same length."
      },
      "isApprovedForAll(address,address)": {
        "details": "See {IERC1155-isApprovedForAll}."
      },
      "owner()": {
        "details": "Returns the address of the current owner."
      },
      "renounceOwnership()": {
        "details": "Leaves the contract without owner. It will not be possible to call `onlyOwner` functions anymore. Can only be called by the current owner. NOTE: Renouncing ownership will leave the contract without an owner, thereby removing any functionality that is only available to the owner."
      },
      "safeBatchTransferFrom(address,address,uint256[],uint256[],bytes)": {
        "details": "See {IERC1155-safeBatchTransferFrom}."
      },
      "safeTransferFrom(address,address,uint256,uint256,bytes)": {
        "details": "See {IERC1155-safeTransferFrom}."
      },
      "setApprovalForAll(address,bool)": {
        "details": "See {IERC1155-setApprovalForAll}."
      },
      "transferOwnership(address)": {
        "details": "Transfers ownership of the contract to a new account (`newOwner`). Can only be called by the current owner."
      },
      "uri(uint256)": {
        "details": "See {IERC1155MetadataURI-uri}. This implementation returns the same URI for *all* token types. It relies on the token type ID substitution mechanism https://eips.ethereum.org/EIPS/eip-1155#metadata[defined in the EIP]. Clients calling this function must replace the `\\{id\\}` substring with the actual token type ID."
      }
    },
    "version": 1
  },
  "userdoc": {
    "kind": "user",
    "methods": {},
    "version": 1
  }
}