{
  "contractName": "TFG",
  "abi": [
    {
      "inputs": [
        {
          "internalType": "address",
          "name": "initialOwner",
          "type": "address"
        }
      ],
      "stateMutability": "nonpayable",
      "type": "constructor"
    },
    {
      "inputs": [
        {
          "internalType": "uint256",
          "name": "numerator",
          "type": "uint256"
        },
        {
          "internalType": "uint256",
          "name": "denominator",
          "type": "uint256"
        }
      ],
      "name": "ERC2981InvalidDefaultRoyalty",
      "type": "error"
    },
    {
      "inputs": [
        {
          "internalType": "address",
          "name": "receiver",
          "type": "address"
        }
      ],
      "name": "ERC2981InvalidDefaultRoyaltyReceiver",
      "type": "error"
    },
    {
      "inputs": [
        {
          "internalType": "uint256",
          "name": "tokenId",
          "type": "uint256"
        },
        {
          "internalType": "uint256",
          "name": "numerator",
          "type": "uint256"
        },
        {
          "internalType": "uint256",
          "name": "denominator",
          "type": "uint256"
        }
      ],
      "name": "ERC2981InvalidTokenRoyalty",
      "type": "error"
    },
    {
      "inputs": [
        {
          "internalType": "uint256",
          "name": "tokenId",
          "type": "uint256"
        },
        {
          "internalType": "address",
          "name": "receiver",
          "type": "address"
        }
      ],
      "name": "ERC2981InvalidTokenRoyaltyReceiver",
      "type": "error"
    },
    {
      "inputs": [
        {
          "internalType": "address",
          "name": "sender",
          "type": "address"
        },
        {
          "internalType": "uint256",
          "name": "tokenId",
          "type": "uint256"
        },
        {
          "internalType": "address",
          "name": "owner",
          "type": "address"
        }
      ],
      "name": "ERC721IncorrectOwner",
      "type": "error"
    },
    {
      "inputs": [
        {
          "internalType": "address",
          "name": "operator",
          "type": "address"
        },
        {
          "internalType": "uint256",
          "name": "tokenId",
          "type": "uint256"
        }
      ],
      "name": "ERC721InsufficientApproval",
      "type": "error"
    },
    {
      "inputs": [
        {
          "internalType": "address",
          "name": "approver",
          "type": "address"
        }
      ],
      "name": "ERC721InvalidApprover",
      "type": "error"
    },
    {
      "inputs": [
        {
          "internalType": "address",
          "name": "operator",
          "type": "address"
        }
      ],
      "name": "ERC721InvalidOperator",
      "type": "error"
    },
    {
      "inputs": [
        {
          "internalType": "address",
          "name": "owner",
          "type": "address"
        }
      ],
      "name": "ERC721InvalidOwner",
      "type": "error"
    },
    {
      "inputs": [
        {
          "internalType": "address",
          "name": "receiver",
          "type": "address"
        }
      ],
      "name": "ERC721InvalidReceiver",
      "type": "error"
    },
    {
      "inputs": [
        {
          "internalType": "address",
          "name": "sender",
          "type": "address"
        }
      ],
      "name": "ERC721InvalidSender",
      "type": "error"
    },
    {
      "inputs": [
        {
          "internalType": "uint256",
          "name": "tokenId",
          "type": "uint256"
        }
      ],
      "name": "ERC721NonexistentToken",
      "type": "error"
    },
    {
      "inputs": [
        {
          "internalType": "address",
          "name": "owner",
          "type": "address"
        }
      ],
      "name": "OwnableInvalidOwner",
      "type": "error"
    },
    {
      "inputs": [
        {
          "internalType": "address",
          "name": "account",
          "type": "address"
        }
      ],
      "name": "OwnableUnauthorizedAccount",
      "type": "error"
    },
    {
      "anonymous": false,
      "inputs": [
        {
          "indexed": true,
          "internalType": "address",
          "name": "owner",
          "type": "address"
        },
        {
          "indexed": true,
          "internalType": "address",
          "name": "approved",
          "type": "address"
        },
        {
          "indexed": true,
          "internalType": "uint256",
          "name": "tokenId",
          "type": "uint256"
        }
      ],
      "name": "Approval",
      "type": "event"
    },
    {
      "anonymous": false,
      "inputs": [
        {
          "indexed": true,
          "internalType": "address",
          "name": "owner",
          "type": "address"
        },
        {
          "indexed": true,
          "internalType": "address",
          "name": "operator",
          "type": "address"
        },
        {
          "indexed": false,
          "internalType": "bool",
          "name": "approved",
          "type": "bool"
        }
      ],
      "name": "ApprovalForAll",
      "type": "event"
    },
    {
      "anonymous": false,
      "inputs": [
        {
          "indexed": false,
          "internalType": "uint256",
          "name": "_fromTokenId",
          "type": "uint256"
        },
        {
          "indexed": false,
          "internalType": "uint256",
          "name": "_toTokenId",
          "type": "uint256"
        }
      ],
      "name": "BatchMetadataUpdate",
      "type": "event"
    },
    {
      "anonymous": false,
      "inputs": [
        {
          "indexed": false,
          "internalType": "uint256",
          "name": "_tokenId",
          "type": "uint256"
        }
      ],
      "name": "MetadataUpdate",
      "type": "event"
    },
    {
      "anonymous": false,
      "inputs": [
        {
          "indexed": true,
          "internalType": "address",
          "name": "previousOwner",
          "type": "address"
        },
        {
          "indexed": true,
          "internalType": "address",
          "name": "newOwner",
          "type": "address"
        }
      ],
      "name": "OwnershipTransferred",
      "type": "event"
    },
    {
      "anonymous": false,
      "inputs": [
        {
          "indexed": true,
          "internalType": "address",
          "name": "from",
          "type": "address"
        },
        {
          "indexed": true,
          "internalType": "address",
          "name": "to",
          "type": "address"
        },
        {
          "indexed": true,
          "internalType": "uint256",
          "name": "tokenId",
          "type": "uint256"
        }
      ],
      "name": "Transfer",
      "type": "event"
    },
    {
      "inputs": [
        {
          "internalType": "address",
          "name": "to",
          "type": "address"
        },
        {
          "internalType": "uint256",
          "name": "tokenId",
          "type": "uint256"
        }
      ],
      "name": "approve",
      "outputs": [],
      "stateMutability": "nonpayable",
      "type": "function"
    },
    {
      "inputs": [
        {
          "internalType": "address",
          "name": "owner",
          "type": "address"
        }
      ],
      "name": "balanceOf",
      "outputs": [
        {
          "internalType": "uint256",
          "name": "",
          "type": "uint256"
        }
      ],
      "stateMutability": "view",
      "type": "function"
    },
    {
      "inputs": [
        {
          "internalType": "uint256",
          "name": "tokenId",
          "type": "uint256"
        }
      ],
      "name": "getApproved",
      "outputs": [
        {
          "internalType": "address",
          "name": "",
          "type": "address"
        }
      ],
      "stateMutability": "view",
      "type": "function"
    },
    {
      "inputs": [
        {
          "internalType": "address",
          "name": "owner",
          "type": "address"
        },
        {
          "internalType": "address",
          "name": "operator",
          "type": "address"
        }
      ],
      "name": "isApprovedForAll",
      "outputs": [
        {
          "internalType": "bool",
          "name": "",
          "type": "bool"
        }
      ],
      "stateMutability": "view",
      "type": "function"
    },
    {
      "inputs": [],
      "name": "name",
      "outputs": [
        {
          "internalType": "string",
          "name": "",
          "type": "string"
        }
      ],
      "stateMutability": "view",
      "type": "function"
    },
    {
      "inputs": [],
      "name": "owner",
      "outputs": [
        {
          "internalType": "address",
          "name": "",
          "type": "address"
        }
      ],
      "stateMutability": "view",
      "type": "function"
    },
    {
      "inputs": [
        {
          "internalType": "uint256",
          "name": "tokenId",
          "type": "uint256"
        }
      ],
      "name": "ownerOf",
      "outputs": [
        {
          "internalType": "address",
          "name": "",
          "type": "address"
        }
      ],
      "stateMutability": "view",
      "type": "function"
    },
    {
      "inputs": [],
      "name": "renounceOwnership",
      "outputs": [],
      "stateMutability": "nonpayable",
      "type": "function"
    },
    {
      "inputs": [
        {
          "internalType": "uint256",
          "name": "tokenId",
          "type": "uint256"
        },
        {
          "internalType": "uint256",
          "name": "salePrice",
          "type": "uint256"
        }
      ],
      "name": "royaltyInfo",
      "outputs": [
        {
          "internalType": "address",
          "name": "",
          "type": "address"
        },
        {
          "internalType": "uint256",
          "name": "",
          "type": "uint256"
        }
      ],
      "stateMutability": "view",
      "type": "function"
    },
    {
      "inputs": [
        {
          "internalType": "address",
          "name": "from",
          "type": "address"
        },
        {
          "internalType": "address",
          "name": "to",
          "type": "address"
        },
        {
          "internalType": "uint256",
          "name": "tokenId",
          "type": "uint256"
        }
      ],
      "name": "safeTransferFrom",
      "outputs": [],
      "stateMutability": "nonpayable",
      "type": "function"
    },
    {
      "inputs": [
        {
          "internalType": "address",
          "name": "from",
          "type": "address"
        },
        {
          "internalType": "address",
          "name": "to",
          "type": "address"
        },
        {
          "internalType": "uint256",
          "name": "tokenId",
          "type": "uint256"
        },
        {
          "internalType": "bytes",
          "name": "data",
          "type": "bytes"
        }
      ],
      "name": "safeTransferFrom",
      "outputs": [],
      "stateMutability": "nonpayable",
      "type": "function"
    },
    {
      "inputs": [
        {
          "internalType": "address",
          "name": "operator",
          "type": "address"
        },
        {
          "internalType": "bool",
          "name": "approved",
          "type": "bool"
        }
      ],
      "name": "setApprovalForAll",
      "outputs": [],
      "stateMutability": "nonpayable",
      "type": "function"
    },
    {
      "inputs": [],
      "name": "symbol",
      "outputs": [
        {
          "internalType": "string",
          "name": "",
          "type": "string"
        }
      ],
      "stateMutability": "view",
      "type": "function"
    },
    {
      "inputs": [
        {
          "internalType": "address",
          "name": "from",
          "type": "address"
        },
        {
          "internalType": "address",
          "name": "to",
          "type": "address"
        },
        {
          "internalType": "uint256",
          "name": "tokenId",
          "type": "uint256"
        }
      ],
      "name": "transferFrom",
      "outputs": [],
      "stateMutability": "nonpayable",
      "type": "function"
    },
    {
      "inputs": [
        {
          "internalType": "address",
          "name": "newOwner",
          "type": "address"
        }
      ],
      "name": "transferOwnership",
      "outputs": [],
      "stateMutability": "nonpayable",
      "type": "function"
    },
    {
      "inputs": [
        {
          "internalType": "address",
          "name": "to",
          "type": "address"
        },
        {
          "internalType": "string",
          "name": "uri",
          "type": "string"
        }
      ],
      "name": "safeMint",
      "outputs": [
        {
          "internalType": "uint256",
          "name": "",
          "type": "uint256"
        }
      ],
      "stateMutability": "nonpayable",
      "type": "function"
    },
    {
      "inputs": [
        {
          "internalType": "address",
          "name": "recipient",
          "type": "address"
        },
        {
          "internalType": "string",
          "name": "uri",
          "type": "string"
        },
        {
          "internalType": "address",
          "name": "royaltyReceiver",
          "type": "address"
        },
        {
          "internalType": "uint96",
          "name": "feeNumerator",
          "type": "uint96"
        }
      ],
      "name": "mintNFTWithRoyalty",
      "outputs": [
        {
          "internalType": "uint256",
          "name": "",
          "type": "uint256"
        }
      ],
      "stateMutability": "nonpayable",
      "type": "function"
    },
    {
      "inputs": [
        {
          "internalType": "uint256",
          "name": "tokenId",
          "type": "uint256"
        }
      ],
      "name": "tokenURI",
      "outputs": [
        {
          "internalType": "string",
          "name": "",
          "type": "string"
        }
      ],
      "stateMutability": "view",
      "type": "function"
    },
    {
      "inputs": [
        {
          "internalType": "bytes4",
          "name": "interfaceId",
          "type": "bytes4"
        }
      ],
      "name": "supportsInterface",
      "outputs": [
        {
          "internalType": "bool",
          "name": "",
          "type": "bool"
        }
      ],
      "stateMutability": "view",
      "type": "function"
    }
  ],
  "bytecode": "0x60806040526000600a553480156200001657600080fd5b506040516200362a3803806200362a83398181016040528101906200003c91906200045a565b806040518060400160405280601281526020017f4e6f6e2046756e6769626c65204e6f74657300000000000000000000000000008152506040518060400160405280600381526020017f4e464e00000000000000000000000000000000000000000000000000000000008152508160009081620000ba919062000706565b508060019081620000cc919062000706565b505050600073ffffffffffffffffffffffffffffffffffffffff168173ffffffffffffffffffffffffffffffffffffffff1603620001445760006040517f1e4fbdf70000000000000000000000000000000000000000000000000000000081526004016200013b9190620007fe565b60405180910390fd5b62000155816200017060201b60201c565b50620001693360646200023660201b60201c565b50620008aa565b6000600760009054906101000a900473ffffffffffffffffffffffffffffffffffffffff16905081600760006101000a81548173ffffffffffffffffffffffffffffffffffffffff021916908373ffffffffffffffffffffffffffffffffffffffff1602179055508173ffffffffffffffffffffffffffffffffffffffff168173ffffffffffffffffffffffffffffffffffffffff167f8be0079c531659141344cd1fd0a4f28419497f9722a3daafe3b4186f6b6457e060405160405180910390a35050565b600062000248620003e660201b60201c565b6bffffffffffffffffffffffff16905080826bffffffffffffffffffffffff161115620002b05781816040517f6f483d09000000000000000000000000000000000000000000000000000000008152600401620002a79291906200087d565b60405180910390fd5b600073ffffffffffffffffffffffffffffffffffffffff168373ffffffffffffffffffffffffffffffffffffffff1603620003255760006040517fb6d9900a0000000000000000000000000000000000000000000000000000000081526004016200031c9190620007fe565b60405180910390fd5b60405180604001604052808473ffffffffffffffffffffffffffffffffffffffff168152602001836bffffffffffffffffffffffff16815250600860008201518160000160006101000a81548173ffffffffffffffffffffffffffffffffffffffff021916908373ffffffffffffffffffffffffffffffffffffffff16021790555060208201518160000160146101000a8154816bffffffffffffffffffffffff02191690836bffffffffffffffffffffffff160217905550905050505050565b6000612710905090565b600080fd5b600073ffffffffffffffffffffffffffffffffffffffff82169050919050565b60006200042282620003f5565b9050919050565b620004348162000415565b81146200044057600080fd5b50565b600081519050620004548162000429565b92915050565b600060208284031215620004735762000472620003f0565b5b6000620004838482850162000443565b91505092915050565b600081519050919050565b7f4e487b7100000000000000000000000000000000000000000000000000000000600052604160045260246000fd5b7f4e487b7100000000000000000000000000000000000000000000000000000000600052602260045260246000fd5b600060028204905060018216806200050e57607f821691505b602082108103620005245762000523620004c6565b5b50919050565b60008190508160005260206000209050919050565b60006020601f8301049050919050565b600082821b905092915050565b6000600883026200058e7fffffffffffffffffffffffffffffffffffffffffffffffffffffffffffffffff826200054f565b6200059a86836200054f565b95508019841693508086168417925050509392505050565b6000819050919050565b6000819050919050565b6000620005e7620005e1620005db84620005b2565b620005bc565b620005b2565b9050919050565b6000819050919050565b6200060383620005c6565b6200061b6200061282620005ee565b8484546200055c565b825550505050565b600090565b6200063262000623565b6200063f818484620005f8565b505050565b5b8181101562000667576200065b60008262000628565b60018101905062000645565b5050565b601f821115620006b65762000680816200052a565b6200068b846200053f565b810160208510156200069b578190505b620006b3620006aa856200053f565b83018262000644565b50505b505050565b600082821c905092915050565b6000620006db60001984600802620006bb565b1980831691505092915050565b6000620006f68383620006c8565b9150826002028217905092915050565b62000711826200048c565b67ffffffffffffffff8111156200072d576200072c62000497565b5b620007398254620004f5565b620007468282856200066b565b600060209050601f8311600181146200077e576000841562000769578287015190505b620007758582620006e8565b865550620007e5565b601f1984166200078e866200052a565b60005b82811015620007b85784890151825560018201915060208501945060208101905062000791565b86831015620007d85784890151620007d4601f891682620006c8565b8355505b6001600288020188555050505b505050505050565b620007f88162000415565b82525050565b6000602082019050620008156000830184620007ed565b92915050565b60006bffffffffffffffffffffffff82169050919050565b6000620008546200084e62000848846200081b565b620005bc565b620005b2565b9050919050565b620008668162000833565b82525050565b6200087781620005b2565b82525050565b60006040820190506200089460008301856200085b565b620008a360208301846200086c565b9392505050565b612d7080620008ba6000396000f3fe608060405234801561001057600080fd5b50600436106101215760003560e01c8063715018a6116100ad578063b88d4fde11610071578063b88d4fde1461031b578063c87b56dd14610337578063d204c45e14610367578063e985e9c514610397578063f2fde38b146103c757610121565b8063715018a61461028957806375eacc20146102935780638da5cb5b146102c357806395d89b41146102e1578063a22cb465146102ff57610121565b806323b872dd116100f457806323b872dd146101c05780632a55205a146101dc57806342842e0e1461020d5780636352211e1461022957806370a082311461025957610121565b806301ffc9a71461012657806306fdde0314610156578063081812fc14610174578063095ea7b3146101a4575b600080fd5b610140600480360381019061013b9190611fbd565b6103e3565b60405161014d9190612005565b60405180910390f35b61015e6103f5565b60405161016b91906120b0565b60405180910390f35b61018e60048036038101906101899190612108565b610487565b60405161019b9190612176565b60405180910390f35b6101be60048036038101906101b991906121bd565b6104a3565b005b6101da60048036038101906101d591906121fd565b6104b9565b005b6101f660048036038101906101f19190612250565b6105bb565b60405161020492919061229f565b60405180910390f35b610227600480360381019061022291906121fd565b6107a5565b005b610243600480360381019061023e9190612108565b6107c5565b6040516102509190612176565b60405180910390f35b610273600480360381019061026e91906122c8565b6107d7565b60405161028091906122f5565b60405180910390f35b610291610891565b005b6102ad60048036038101906102a89190612489565b6108a5565b6040516102ba91906122f5565b60405180910390f35b6102cb6108d4565b6040516102d89190612176565b60405180910390f35b6102e96108fe565b6040516102f691906120b0565b60405180910390f35b61031960048036038101906103149190612538565b610990565b005b61033560048036038101906103309190612619565b6109a6565b005b610351600480360381019061034c9190612108565b6109c3565b60405161035e91906120b0565b60405180910390f35b610381600480360381019061037c919061269c565b6109d5565b60405161038e91906122f5565b60405180910390f35b6103b160048036038101906103ac91906126f8565b610a18565b6040516103be9190612005565b60405180910390f35b6103e160048036038101906103dc91906122c8565b610aac565b005b60006103ee82610b32565b9050919050565b60606000805461040490612767565b80601f016020809104026020016040519081016040528092919081815260200182805461043090612767565b801561047d5780601f106104525761010080835404028352916020019161047d565b820191906000526020600020905b81548152906001019060200180831161046057829003601f168201915b5050505050905090565b600061049282610bac565b5061049c82610c34565b9050919050565b6104b582826104b0610c71565b610c79565b5050565b600073ffffffffffffffffffffffffffffffffffffffff168273ffffffffffffffffffffffffffffffffffffffff160361052b5760006040517f64a0ae920000000000000000000000000000000000000000000000000000000081526004016105229190612176565b60405180910390fd5b600061053f838361053a610c71565b610c8b565b90508373ffffffffffffffffffffffffffffffffffffffff168173ffffffffffffffffffffffffffffffffffffffff16146105b5578382826040517f64283d7b0000000000000000000000000000000000000000000000000000000081526004016105ac93929190612798565b60405180910390fd5b50505050565b6000806000600960008681526020019081526020016000206040518060400160405290816000820160009054906101000a900473ffffffffffffffffffffffffffffffffffffffff1673ffffffffffffffffffffffffffffffffffffffff1673ffffffffffffffffffffffffffffffffffffffff1681526020016000820160149054906101000a90046bffffffffffffffffffffffff166bffffffffffffffffffffffff166bffffffffffffffffffffffff16815250509050600073ffffffffffffffffffffffffffffffffffffffff16816000015173ffffffffffffffffffffffffffffffffffffffff16036107505760086040518060400160405290816000820160009054906101000a900473ffffffffffffffffffffffffffffffffffffffff1673ffffffffffffffffffffffffffffffffffffffff1673ffffffffffffffffffffffffffffffffffffffff1681526020016000820160149054906101000a90046bffffffffffffffffffffffff166bffffffffffffffffffffffff166bffffffffffffffffffffffff168152505090505b600061075a610ea5565b6bffffffffffffffffffffffff1682602001516bffffffffffffffffffffffff168661078691906127fe565b610790919061286f565b90508160000151819350935050509250929050565b6107c0838383604051806020016040528060008152506109a6565b505050565b60006107d082610bac565b9050919050565b60008073ffffffffffffffffffffffffffffffffffffffff168273ffffffffffffffffffffffffffffffffffffffff160361084a5760006040517f89c62b640000000000000000000000000000000000000000000000000000000081526004016108419190612176565b60405180910390fd5b600360008373ffffffffffffffffffffffffffffffffffffffff1673ffffffffffffffffffffffffffffffffffffffff168152602001908152602001600020549050919050565b610899610eaf565b6108a36000610f36565b565b60006108af610eaf565b60006108bb86866109d5565b90506108c8818585610ffc565b80915050949350505050565b6000600760009054906101000a900473ffffffffffffffffffffffffffffffffffffffff16905090565b60606001805461090d90612767565b80601f016020809104026020016040519081016040528092919081815260200182805461093990612767565b80156109865780601f1061095b57610100808354040283529160200191610986565b820191906000526020600020905b81548152906001019060200180831161096957829003601f168201915b5050505050905090565b6109a261099b610c71565b83836111b4565b5050565b6109b18484846104b9565b6109bd84848484611323565b50505050565b60606109ce826114da565b9050919050565b60006109df610eaf565b6000600a60008154809291906109f4906128a0565b919050559050610a0484826115ed565b610a0e818461160b565b8091505092915050565b6000600560008473ffffffffffffffffffffffffffffffffffffffff1673ffffffffffffffffffffffffffffffffffffffff16815260200190815260200160002060008373ffffffffffffffffffffffffffffffffffffffff1673ffffffffffffffffffffffffffffffffffffffff16815260200190815260200160002060009054906101000a900460ff16905092915050565b610ab4610eaf565b600073ffffffffffffffffffffffffffffffffffffffff168173ffffffffffffffffffffffffffffffffffffffff1603610b265760006040517f1e4fbdf7000000000000000000000000000000000000000000000000000000008152600401610b1d9190612176565b60405180910390fd5b610b2f81610f36565b50565b60007f2a55205a000000000000000000000000000000000000000000000000000000007bffffffffffffffffffffffffffffffffffffffffffffffffffffffff1916827bffffffffffffffffffffffffffffffffffffffffffffffffffffffff19161480610ba55750610ba482611667565b5b9050919050565b600080610bb8836116c8565b9050600073ffffffffffffffffffffffffffffffffffffffff168173ffffffffffffffffffffffffffffffffffffffff1603610c2b57826040517f7e273289000000000000000000000000000000000000000000000000000000008152600401610c2291906122f5565b60405180910390fd5b80915050919050565b60006004600083815260200190815260200160002060009054906101000a900473ffffffffffffffffffffffffffffffffffffffff169050919050565b600033905090565b610c868383836001611705565b505050565b600080610c97846116c8565b9050600073ffffffffffffffffffffffffffffffffffffffff168373ffffffffffffffffffffffffffffffffffffffff1614610cd957610cd88184866118ca565b5b600073ffffffffffffffffffffffffffffffffffffffff168173ffffffffffffffffffffffffffffffffffffffff1614610d6a57610d1b600085600080611705565b6001600360008373ffffffffffffffffffffffffffffffffffffffff1673ffffffffffffffffffffffffffffffffffffffff168152602001908152602001600020600082825403925050819055505b600073ffffffffffffffffffffffffffffffffffffffff168573ffffffffffffffffffffffffffffffffffffffff1614610ded576001600360008773ffffffffffffffffffffffffffffffffffffffff1673ffffffffffffffffffffffffffffffffffffffff168152602001908152602001600020600082825401925050819055505b846002600086815260200190815260200160002060006101000a81548173ffffffffffffffffffffffffffffffffffffffff021916908373ffffffffffffffffffffffffffffffffffffffff160217905550838573ffffffffffffffffffffffffffffffffffffffff168273ffffffffffffffffffffffffffffffffffffffff167fddf252ad1be2c89b69c2b068fc378daa952ba7f163c4a11628f55a4df523b3ef60405160405180910390a4809150509392505050565b6000612710905090565b610eb7610c71565b73ffffffffffffffffffffffffffffffffffffffff16610ed56108d4565b73ffffffffffffffffffffffffffffffffffffffff1614610f3457610ef8610c71565b6040517f118cdaa7000000000000000000000000000000000000000000000000000000008152600401610f2b9190612176565b60405180910390fd5b565b6000600760009054906101000a900473ffffffffffffffffffffffffffffffffffffffff16905081600760006101000a81548173ffffffffffffffffffffffffffffffffffffffff021916908373ffffffffffffffffffffffffffffffffffffffff1602179055508173ffffffffffffffffffffffffffffffffffffffff168173ffffffffffffffffffffffffffffffffffffffff167f8be0079c531659141344cd1fd0a4f28419497f9722a3daafe3b4186f6b6457e060405160405180910390a35050565b6000611006610ea5565b6bffffffffffffffffffffffff16905080826bffffffffffffffffffffffff16111561106d578382826040517fdfd1fc1b00000000000000000000000000000000000000000000000000000000815260040161106493929190612923565b60405180910390fd5b600073ffffffffffffffffffffffffffffffffffffffff168373ffffffffffffffffffffffffffffffffffffffff16036110e1578360006040517f969f08520000000000000000000000000000000000000000000000000000000081526004016110d892919061295a565b60405180910390fd5b60405180604001604052808473ffffffffffffffffffffffffffffffffffffffff168152602001836bffffffffffffffffffffffff168152506009600086815260200190815260200160002060008201518160000160006101000a81548173ffffffffffffffffffffffffffffffffffffffff021916908373ffffffffffffffffffffffffffffffffffffffff16021790555060208201518160000160146101000a8154816bffffffffffffffffffffffff02191690836bffffffffffffffffffffffff16021790555090505050505050565b600073ffffffffffffffffffffffffffffffffffffffff168273ffffffffffffffffffffffffffffffffffffffff160361122557816040517f5b08ba1800000000000000000000000000000000000000000000000000000000815260040161121c9190612176565b60405180910390fd5b80600560008573ffffffffffffffffffffffffffffffffffffffff1673ffffffffffffffffffffffffffffffffffffffff16815260200190815260200160002060008473ffffffffffffffffffffffffffffffffffffffff1673ffffffffffffffffffffffffffffffffffffffff16815260200190815260200160002060006101000a81548160ff0219169083151502179055508173ffffffffffffffffffffffffffffffffffffffff168373ffffffffffffffffffffffffffffffffffffffff167f17307eab39ab6107e8899845ad3d59bd9653f200f220920489ca2b5937696c31836040516113169190612005565b60405180910390a3505050565b60008373ffffffffffffffffffffffffffffffffffffffff163b11156114d4578273ffffffffffffffffffffffffffffffffffffffff1663150b7a02611367610c71565b8685856040518563ffffffff1660e01b815260040161138994939291906129d8565b6020604051808303816000875af19250505080156113c557506040513d601f19601f820116820180604052508101906113c29190612a39565b60015b611449573d80600081146113f5576040519150601f19603f3d011682016040523d82523d6000602084013e6113fa565b606091505b50600081510361144157836040517f64a0ae920000000000000000000000000000000000000000000000000000000081526004016114389190612176565b60405180910390fd5b805181602001fd5b63150b7a0260e01b7bffffffffffffffffffffffffffffffffffffffffffffffffffffffff1916817bffffffffffffffffffffffffffffffffffffffffffffffffffffffff1916146114d257836040517f64a0ae920000000000000000000000000000000000000000000000000000000081526004016114c99190612176565b60405180910390fd5b505b50505050565b60606114e582610bac565b50600060066000848152602001908152602001600020805461150690612767565b80601f016020809104026020016040519081016040528092919081815260200182805461153290612767565b801561157f5780601f106115545761010080835404028352916020019161157f565b820191906000526020600020905b81548152906001019060200180831161156257829003601f168201915b50505050509050600061159061198e565b905060008151036115a55781925050506115e8565b6000825111156115da5780826040516020016115c2929190612aa2565b604051602081830303815290604052925050506115e8565b6115e3846119a5565b925050505b919050565b611607828260405180602001604052806000815250611a0e565b5050565b8060066000848152602001908152602001600020908161162b9190612c68565b507ff8e1a15aba9398e019f0b49df1a4fde98ee17ae345cb5f6b5e2c27f5033e8ce78260405161165b91906122f5565b60405180910390a15050565b6000634906490660e01b7bffffffffffffffffffffffffffffffffffffffffffffffffffffffff1916827bffffffffffffffffffffffffffffffffffffffffffffffffffffffff191614806116c157506116c082611a2a565b5b9050919050565b60006002600083815260200190815260200160002060009054906101000a900473ffffffffffffffffffffffffffffffffffffffff169050919050565b808061173e5750600073ffffffffffffffffffffffffffffffffffffffff168273ffffffffffffffffffffffffffffffffffffffff1614155b1561187257600061174e84610bac565b9050600073ffffffffffffffffffffffffffffffffffffffff168373ffffffffffffffffffffffffffffffffffffffff16141580156117b957508273ffffffffffffffffffffffffffffffffffffffff168173ffffffffffffffffffffffffffffffffffffffff1614155b80156117cc57506117ca8184610a18565b155b1561180e57826040517fa9fbf51f0000000000000000000000000000000000000000000000000000000081526004016118059190612176565b60405180910390fd5b811561187057838573ffffffffffffffffffffffffffffffffffffffff168273ffffffffffffffffffffffffffffffffffffffff167f8c5be1e5ebec7d5bd14f71427d1e84f3dd0314c0f7b2291e5b200ac8c7c3b92560405160405180910390a45b505b836004600085815260200190815260200160002060006101000a81548173ffffffffffffffffffffffffffffffffffffffff021916908373ffffffffffffffffffffffffffffffffffffffff16021790555050505050565b6118d5838383611b0c565b61198957600073ffffffffffffffffffffffffffffffffffffffff168373ffffffffffffffffffffffffffffffffffffffff160361194a57806040517f7e27328900000000000000000000000000000000000000000000000000000000815260040161194191906122f5565b60405180910390fd5b81816040517f177e802f00000000000000000000000000000000000000000000000000000000815260040161198092919061229f565b60405180910390fd5b505050565b606060405180602001604052806000815250905090565b60606119b082610bac565b5060006119bb61198e565b905060008151116119db5760405180602001604052806000815250611a06565b806119e584611bcd565b6040516020016119f6929190612aa2565b6040516020818303038152906040525b915050919050565b611a188383611c9b565b611a256000848484611323565b505050565b60007f80ac58cd000000000000000000000000000000000000000000000000000000007bffffffffffffffffffffffffffffffffffffffffffffffffffffffff1916827bffffffffffffffffffffffffffffffffffffffffffffffffffffffff19161480611af557507f5b5e139f000000000000000000000000000000000000000000000000000000007bffffffffffffffffffffffffffffffffffffffffffffffffffffffff1916827bffffffffffffffffffffffffffffffffffffffffffffffffffffffff1916145b80611b055750611b0482611d94565b5b9050919050565b60008073ffffffffffffffffffffffffffffffffffffffff168373ffffffffffffffffffffffffffffffffffffffff1614158015611bc457508273ffffffffffffffffffffffffffffffffffffffff168473ffffffffffffffffffffffffffffffffffffffff161480611b855750611b848484610a18565b5b80611bc357508273ffffffffffffffffffffffffffffffffffffffff16611bab83610c34565b73ffffffffffffffffffffffffffffffffffffffff16145b5b90509392505050565b606060006001611bdc84611dfe565b01905060008167ffffffffffffffff811115611bfb57611bfa61231a565b5b6040519080825280601f01601f191660200182016040528015611c2d5781602001600182028036833780820191505090505b509050600082602001820190505b600115611c90578080600190039150507f3031323334353637383961626364656600000000000000000000000000000000600a86061a8153600a8581611c8457611c83612840565b5b04945060008503611c3b575b819350505050919050565b600073ffffffffffffffffffffffffffffffffffffffff168273ffffffffffffffffffffffffffffffffffffffff1603611d0d5760006040517f64a0ae92000000000000000000000000000000000000000000000000000000008152600401611d049190612176565b60405180910390fd5b6000611d1b83836000610c8b565b9050600073ffffffffffffffffffffffffffffffffffffffff168173ffffffffffffffffffffffffffffffffffffffff1614611d8f5760006040517f73c6ac6e000000000000000000000000000000000000000000000000000000008152600401611d869190612176565b60405180910390fd5b505050565b60007f01ffc9a7000000000000000000000000000000000000000000000000000000007bffffffffffffffffffffffffffffffffffffffffffffffffffffffff1916827bffffffffffffffffffffffffffffffffffffffffffffffffffffffff1916149050919050565b600080600090507a184f03e93ff9f4daa797ed6e38ed64bf6a1f0100000000000000008310611e5c577a184f03e93ff9f4daa797ed6e38ed64bf6a1f0100000000000000008381611e5257611e51612840565b5b0492506040810190505b6d04ee2d6d415b85acef81000000008310611e99576d04ee2d6d415b85acef81000000008381611e8f57611e8e612840565b5b0492506020810190505b662386f26fc100008310611ec857662386f26fc100008381611ebe57611ebd612840565b5b0492506010810190505b6305f5e1008310611ef1576305f5e1008381611ee757611ee6612840565b5b0492506008810190505b6127108310611f16576127108381611f0c57611f0b612840565b5b0492506004810190505b60648310611f395760648381611f2f57611f2e612840565b5b0492506002810190505b600a8310611f48576001810190505b80915050919050565b6000604051905090565b600080fd5b600080fd5b60007fffffffff0000000000000000000000000000000000000000000000000000000082169050919050565b611f9a81611f65565b8114611fa557600080fd5b50565b600081359050611fb781611f91565b92915050565b600060208284031215611fd357611fd2611f5b565b5b6000611fe184828501611fa8565b91505092915050565b60008115159050919050565b611fff81611fea565b82525050565b600060208201905061201a6000830184611ff6565b92915050565b600081519050919050565b600082825260208201905092915050565b60005b8381101561205a57808201518184015260208101905061203f565b60008484015250505050565b6000601f19601f8301169050919050565b600061208282612020565b61208c818561202b565b935061209c81856020860161203c565b6120a581612066565b840191505092915050565b600060208201905081810360008301526120ca8184612077565b905092915050565b6000819050919050565b6120e5816120d2565b81146120f057600080fd5b50565b600081359050612102816120dc565b92915050565b60006020828403121561211e5761211d611f5b565b5b600061212c848285016120f3565b91505092915050565b600073ffffffffffffffffffffffffffffffffffffffff82169050919050565b600061216082612135565b9050919050565b61217081612155565b82525050565b600060208201905061218b6000830184612167565b92915050565b61219a81612155565b81146121a557600080fd5b50565b6000813590506121b781612191565b92915050565b600080604083850312156121d4576121d3611f5b565b5b60006121e2858286016121a8565b92505060206121f3858286016120f3565b9150509250929050565b60008060006060848603121561221657612215611f5b565b5b6000612224868287016121a8565b9350506020612235868287016121a8565b9250506040612246868287016120f3565b9150509250925092565b6000806040838503121561226757612266611f5b565b5b6000612275858286016120f3565b9250506020612286858286016120f3565b9150509250929050565b612299816120d2565b82525050565b60006040820190506122b46000830185612167565b6122c16020830184612290565b9392505050565b6000602082840312156122de576122dd611f5b565b5b60006122ec848285016121a8565b91505092915050565b600060208201905061230a6000830184612290565b92915050565b600080fd5b600080fd5b7f4e487b7100000000000000000000000000000000000000000000000000000000600052604160045260246000fd5b61235282612066565b810181811067ffffffffffffffff821117156123715761237061231a565b5b80604052505050565b6000612384611f51565b90506123908282612349565b919050565b600067ffffffffffffffff8211156123b0576123af61231a565b5b6123b982612066565b9050602081019050919050565b82818337600083830152505050565b60006123e86123e384612395565b61237a565b90508281526020810184848401111561240457612403612315565b5b61240f8482856123c6565b509392505050565b600082601f83011261242c5761242b612310565b5b813561243c8482602086016123d5565b91505092915050565b60006bffffffffffffffffffffffff82169050919050565b61246681612445565b811461247157600080fd5b50565b6000813590506124838161245d565b92915050565b600080600080608085870312156124a3576124a2611f5b565b5b60006124b1878288016121a8565b945050602085013567ffffffffffffffff8111156124d2576124d1611f60565b5b6124de87828801612417565b93505060406124ef878288016121a8565b925050606061250087828801612474565b91505092959194509250565b61251581611fea565b811461252057600080fd5b50565b6000813590506125328161250c565b92915050565b6000806040838503121561254f5761254e611f5b565b5b600061255d858286016121a8565b925050602061256e85828601612523565b9150509250929050565b600067ffffffffffffffff8211156125935761259261231a565b5b61259c82612066565b9050602081019050919050565b60006125bc6125b784612578565b61237a565b9050828152602081018484840111156125d8576125d7612315565b5b6125e38482856123c6565b509392505050565b600082601f830112612600576125ff612310565b5b81356126108482602086016125a9565b91505092915050565b6000806000806080858703121561263357612632611f5b565b5b6000612641878288016121a8565b9450506020612652878288016121a8565b9350506040612663878288016120f3565b925050606085013567ffffffffffffffff81111561268457612683611f60565b5b612690878288016125eb565b91505092959194509250565b600080604083850312156126b3576126b2611f5b565b5b60006126c1858286016121a8565b925050602083013567ffffffffffffffff8111156126e2576126e1611f60565b5b6126ee85828601612417565b9150509250929050565b6000806040838503121561270f5761270e611f5b565b5b600061271d858286016121a8565b925050602061272e858286016121a8565b9150509250929050565b7f4e487b7100000000000000000000000000000000000000000000000000000000600052602260045260246000fd5b6000600282049050600182168061277f57607f821691505b60208210810361279257612791612738565b5b50919050565b60006060820190506127ad6000830186612167565b6127ba6020830185612290565b6127c76040830184612167565b949350505050565b7f4e487b7100000000000000000000000000000000000000000000000000000000600052601160045260246000fd5b6000612809826120d2565b9150612814836120d2565b9250828202612822816120d2565b91508282048414831517612839576128386127cf565b5b5092915050565b7f4e487b7100000000000000000000000000000000000000000000000000000000600052601260045260246000fd5b600061287a826120d2565b9150612885836120d2565b92508261289557612894612840565b5b828204905092915050565b60006128ab826120d2565b91507fffffffffffffffffffffffffffffffffffffffffffffffffffffffffffffffff82036128dd576128dc6127cf565b5b600182019050919050565b6000819050919050565b600061290d61290861290384612445565b6128e8565b6120d2565b9050919050565b61291d816128f2565b82525050565b60006060820190506129386000830186612290565b6129456020830185612914565b6129526040830184612290565b949350505050565b600060408201905061296f6000830185612290565b61297c6020830184612167565b9392505050565b600081519050919050565b600082825260208201905092915050565b60006129aa82612983565b6129b4818561298e565b93506129c481856020860161203c565b6129cd81612066565b840191505092915050565b60006080820190506129ed6000830187612167565b6129fa6020830186612167565b612a076040830185612290565b8181036060830152612a19818461299f565b905095945050505050565b600081519050612a3381611f91565b92915050565b600060208284031215612a4f57612a4e611f5b565b5b6000612a5d84828501612a24565b91505092915050565b600081905092915050565b6000612a7c82612020565b612a868185612a66565b9350612a9681856020860161203c565b80840191505092915050565b6000612aae8285612a71565b9150612aba8284612a71565b91508190509392505050565b60008190508160005260206000209050919050565b60006020601f8301049050919050565b600082821b905092915050565b600060088302612b287fffffffffffffffffffffffffffffffffffffffffffffffffffffffffffffffff82612aeb565b612b328683612aeb565b95508019841693508086168417925050509392505050565b6000612b65612b60612b5b846120d2565b6128e8565b6120d2565b9050919050565b6000819050919050565b612b7f83612b4a565b612b93612b8b82612b6c565b848454612af8565b825550505050565b600090565b612ba8612b9b565b612bb3818484612b76565b505050565b5b81811015612bd757612bcc600082612ba0565b600181019050612bb9565b5050565b601f821115612c1c57612bed81612ac6565b612bf684612adb565b81016020851015612c05578190505b612c19612c1185612adb565b830182612bb8565b50505b505050565b600082821c905092915050565b6000612c3f60001984600802612c21565b1980831691505092915050565b6000612c588383612c2e565b9150826002028217905092915050565b612c7182612020565b67ffffffffffffffff811115612c8a57612c8961231a565b5b612c948254612767565b612c9f828285612bdb565b600060209050601f831160018114612cd25760008415612cc0578287015190505b612cca8582612c4c565b865550612d32565b601f198416612ce086612ac6565b60005b82811015612d0857848901518255600182019150602085019450602081019050612ce3565b86831015612d255784890151612d21601f891682612c2e565b8355505b6001600288020188555050505b50505050505056fea26469706673582212204f4630d0b47ef1051fd07c380dbad397555261803fdd3d2801e0da88e0e00fa664736f6c63430008140033",
  "immutableReferences": {},
  "source": "// SPDX-License-Identifier: MIT\r\npragma solidity ^0.8.20;\r\n\r\nimport \"@openzeppelin/contracts/token/ERC721/ERC721.sol\";\r\nimport \"@openzeppelin/contracts/token/ERC721/extensions/ERC721URIStorage.sol\";\r\nimport \"@openzeppelin/contracts/access/Ownable.sol\";\r\nimport \"@openzeppelin/contracts/token/common/ERC2981.sol\";\r\n\r\ncontract TFG is ERC721, ERC721URIStorage, Ownable, ERC2981 {\r\n\r\n    uint256 private _tokenIdCounter = 0;\r\n\r\n    constructor(address initialOwner)\r\n        ERC721(\"Non Fungible Notes\", \"NFN\")\r\n        Ownable(initialOwner)\r\n    {\r\n        _setDefaultRoyalty(msg.sender, 100);\r\n    }\r\n\r\n    function safeMint(address to, string memory uri) \r\n        public onlyOwner\r\n        returns(uint256) {\r\n        uint256 tokenId = _tokenIdCounter++;\r\n        _safeMint(to, tokenId);\r\n        _setTokenURI(tokenId, uri);\r\n        return tokenId;\r\n    }\r\n\r\n\r\n    function mintNFTWithRoyalty(address recipient, string memory uri, address royaltyReceiver, uint96 feeNumerator)\r\n        public onlyOwner\r\n        returns (uint256) \r\n    {\r\n        uint256 tokenId = safeMint(recipient, uri);\r\n        _setTokenRoyalty(tokenId, royaltyReceiver, feeNumerator);\r\n\r\n        return tokenId;\r\n    }\r\n\r\n    // The following functions are overrides required by Solidity.\r\n\r\n    function tokenURI(uint256 tokenId)\r\n        public\r\n        view\r\n        override(ERC721, ERC721URIStorage)\r\n        returns (string memory)\r\n    {\r\n        return super.tokenURI(tokenId);\r\n    }\r\n\r\n    function supportsInterface(bytes4 interfaceId)\r\n        public\r\n        view\r\n        override(ERC721, ERC721URIStorage, ERC2981)\r\n        returns (bool)\r\n    {\r\n        return super.supportsInterface(interfaceId);\r\n    }\r\n\r\n}",
  "sourcePath": "C:\\Users\\ignac\\Desktop\\TFG\\TFG1155\\src\\contracts\\TFG.sol",
  "compiler": {
    "name": "solc",
    "version": "0.8.20+commit.a1b79de6.Emscripten.clang"
  },
  "schemaVersion": "3.4.16",
  "updatedAt": "2024-06-15T09:03:39.392Z",
  "devdoc": {
    "errors": {
      "ERC2981InvalidDefaultRoyalty(uint256,uint256)": [
        {
          "details": "The default royalty set is invalid (eg. (numerator / denominator) >= 1)."
        }
      ],
      "ERC2981InvalidDefaultRoyaltyReceiver(address)": [
        {
          "details": "The default royalty receiver is invalid."
        }
      ],
      "ERC2981InvalidTokenRoyalty(uint256,uint256,uint256)": [
        {
          "details": "The royalty set for an specific `tokenId` is invalid (eg. (numerator / denominator) >= 1)."
        }
      ],
      "ERC2981InvalidTokenRoyaltyReceiver(uint256,address)": [
        {
          "details": "The royalty receiver for `tokenId` is invalid."
        }
      ],
      "ERC721IncorrectOwner(address,uint256,address)": [
        {
          "details": "Indicates an error related to the ownership over a particular token. Used in transfers.",
          "params": {
            "owner": "Address of the current owner of a token.",
            "sender": "Address whose tokens are being transferred.",
            "tokenId": "Identifier number of a token."
          }
        }
      ],
      "ERC721InsufficientApproval(address,uint256)": [
        {
          "details": "Indicates a failure with the `operator`s approval. Used in transfers.",
          "params": {
            "operator": "Address that may be allowed to operate on tokens without being their owner.",
            "tokenId": "Identifier number of a token."
          }
        }
      ],
      "ERC721InvalidApprover(address)": [
        {
          "details": "Indicates a failure with the `approver` of a token to be approved. Used in approvals.",
          "params": {
            "approver": "Address initiating an approval operation."
          }
        }
      ],
      "ERC721InvalidOperator(address)": [
        {
          "details": "Indicates a failure with the `operator` to be approved. Used in approvals.",
          "params": {
            "operator": "Address that may be allowed to operate on tokens without being their owner."
          }
        }
      ],
      "ERC721InvalidOwner(address)": [
        {
          "details": "Indicates that an address can't be an owner. For example, `address(0)` is a forbidden owner in EIP-20. Used in balance queries.",
          "params": {
            "owner": "Address of the current owner of a token."
          }
        }
      ],
      "ERC721InvalidReceiver(address)": [
        {
          "details": "Indicates a failure with the token `receiver`. Used in transfers.",
          "params": {
            "receiver": "Address to which tokens are being transferred."
          }
        }
      ],
      "ERC721InvalidSender(address)": [
        {
          "details": "Indicates a failure with the token `sender`. Used in transfers.",
          "params": {
            "sender": "Address whose tokens are being transferred."
          }
        }
      ],
      "ERC721NonexistentToken(uint256)": [
        {
          "details": "Indicates a `tokenId` whose `owner` is the zero address.",
          "params": {
            "tokenId": "Identifier number of a token."
          }
        }
      ],
      "OwnableInvalidOwner(address)": [
        {
          "details": "The owner is not a valid owner account. (eg. `address(0)`)"
        }
      ],
      "OwnableUnauthorizedAccount(address)": [
        {
          "details": "The caller account is not authorized to perform an operation."
        }
      ]
    },
    "events": {
      "Approval(address,address,uint256)": {
        "details": "Emitted when `owner` enables `approved` to manage the `tokenId` token."
      },
      "ApprovalForAll(address,address,bool)": {
        "details": "Emitted when `owner` enables or disables (`approved`) `operator` to manage all of its assets."
      },
      "BatchMetadataUpdate(uint256,uint256)": {
        "details": "This event emits when the metadata of a range of tokens is changed. So that the third-party platforms such as NFT market could timely update the images and related attributes of the NFTs."
      },
      "MetadataUpdate(uint256)": {
        "details": "This event emits when the metadata of a token is changed. So that the third-party platforms such as NFT market could timely update the images and related attributes of the NFT."
      },
      "Transfer(address,address,uint256)": {
        "details": "Emitted when `tokenId` token is transferred from `from` to `to`."
      }
    },
    "kind": "dev",
    "methods": {
      "approve(address,uint256)": {
        "details": "See {IERC721-approve}."
      },
      "balanceOf(address)": {
        "details": "See {IERC721-balanceOf}."
      },
      "getApproved(uint256)": {
        "details": "See {IERC721-getApproved}."
      },
      "isApprovedForAll(address,address)": {
        "details": "See {IERC721-isApprovedForAll}."
      },
      "name()": {
        "details": "See {IERC721Metadata-name}."
      },
      "owner()": {
        "details": "Returns the address of the current owner."
      },
      "ownerOf(uint256)": {
        "details": "See {IERC721-ownerOf}."
      },
      "renounceOwnership()": {
        "details": "Leaves the contract without owner. It will not be possible to call `onlyOwner` functions. Can only be called by the current owner. NOTE: Renouncing ownership will leave the contract without an owner, thereby disabling any functionality that is only available to the owner."
      },
      "royaltyInfo(uint256,uint256)": {
        "details": "Returns how much royalty is owed and to whom, based on a sale price that may be denominated in any unit of exchange. The royalty amount is denominated and should be paid in that same unit of exchange."
      },
      "safeTransferFrom(address,address,uint256)": {
        "details": "See {IERC721-safeTransferFrom}."
      },
      "safeTransferFrom(address,address,uint256,bytes)": {
        "details": "See {IERC721-safeTransferFrom}."
      },
      "setApprovalForAll(address,bool)": {
        "details": "See {IERC721-setApprovalForAll}."
      },
      "symbol()": {
        "details": "See {IERC721Metadata-symbol}."
      },
      "transferFrom(address,address,uint256)": {
        "details": "See {IERC721-transferFrom}."
      },
      "transferOwnership(address)": {
        "details": "Transfers ownership of the contract to a new account (`newOwner`). Can only be called by the current owner."
      }
    },
    "version": 1
  },
  "userdoc": {
    "kind": "user",
    "methods": {},
    "version": 1
  }
}