{
  "contractName": "TFG",
  "abi": [
    {
      "inputs": [],
      "stateMutability": "nonpayable",
      "type": "constructor"
    },
    {
      "anonymous": false,
      "inputs": [
        {
          "indexed": true,
          "internalType": "address",
          "name": "account",
          "type": "address"
        },
        {
          "indexed": true,
          "internalType": "address",
          "name": "operator",
          "type": "address"
        },
        {
          "indexed": false,
          "internalType": "bool",
          "name": "approved",
          "type": "bool"
        }
      ],
      "name": "ApprovalForAll",
      "type": "event"
    },
    {
      "anonymous": false,
      "inputs": [
        {
          "indexed": true,
          "internalType": "address",
          "name": "previousOwner",
          "type": "address"
        },
        {
          "indexed": true,
          "internalType": "address",
          "name": "newOwner",
          "type": "address"
        }
      ],
      "name": "OwnershipTransferred",
      "type": "event"
    },
    {
      "anonymous": false,
      "inputs": [
        {
          "indexed": true,
          "internalType": "address",
          "name": "operator",
          "type": "address"
        },
        {
          "indexed": true,
          "internalType": "address",
          "name": "from",
          "type": "address"
        },
        {
          "indexed": true,
          "internalType": "address",
          "name": "to",
          "type": "address"
        },
        {
          "indexed": false,
          "internalType": "uint256[]",
          "name": "ids",
          "type": "uint256[]"
        },
        {
          "indexed": false,
          "internalType": "uint256[]",
          "name": "values",
          "type": "uint256[]"
        }
      ],
      "name": "TransferBatch",
      "type": "event"
    },
    {
      "anonymous": false,
      "inputs": [
        {
          "indexed": true,
          "internalType": "address",
          "name": "operator",
          "type": "address"
        },
        {
          "indexed": true,
          "internalType": "address",
          "name": "from",
          "type": "address"
        },
        {
          "indexed": true,
          "internalType": "address",
          "name": "to",
          "type": "address"
        },
        {
          "indexed": false,
          "internalType": "uint256",
          "name": "id",
          "type": "uint256"
        },
        {
          "indexed": false,
          "internalType": "uint256",
          "name": "value",
          "type": "uint256"
        }
      ],
      "name": "TransferSingle",
      "type": "event"
    },
    {
      "anonymous": false,
      "inputs": [
        {
          "indexed": false,
          "internalType": "string",
          "name": "value",
          "type": "string"
        },
        {
          "indexed": true,
          "internalType": "uint256",
          "name": "id",
          "type": "uint256"
        }
      ],
      "name": "URI",
      "type": "event"
    },
    {
      "inputs": [],
      "name": "addressC",
      "outputs": [
        {
          "internalType": "address",
          "name": "",
          "type": "address"
        }
      ],
      "stateMutability": "view",
      "type": "function",
      "constant": true
    },
    {
      "inputs": [],
      "name": "admin",
      "outputs": [
        {
          "internalType": "address",
          "name": "",
          "type": "address"
        }
      ],
      "stateMutability": "view",
      "type": "function",
      "constant": true
    },
    {
      "inputs": [
        {
          "internalType": "address",
          "name": "account",
          "type": "address"
        },
        {
          "internalType": "uint256",
          "name": "id",
          "type": "uint256"
        }
      ],
      "name": "balanceOf",
      "outputs": [
        {
          "internalType": "uint256",
          "name": "",
          "type": "uint256"
        }
      ],
      "stateMutability": "view",
      "type": "function",
      "constant": true
    },
    {
      "inputs": [
        {
          "internalType": "address[]",
          "name": "accounts",
          "type": "address[]"
        },
        {
          "internalType": "uint256[]",
          "name": "ids",
          "type": "uint256[]"
        }
      ],
      "name": "balanceOfBatch",
      "outputs": [
        {
          "internalType": "uint256[]",
          "name": "",
          "type": "uint256[]"
        }
      ],
      "stateMutability": "view",
      "type": "function",
      "constant": true
    },
    {
      "inputs": [],
      "name": "count",
      "outputs": [
        {
          "internalType": "uint256",
          "name": "",
          "type": "uint256"
        }
      ],
      "stateMutability": "view",
      "type": "function",
      "constant": true
    },
    {
      "inputs": [
        {
          "internalType": "uint256",
          "name": "",
          "type": "uint256"
        }
      ],
      "name": "docs",
      "outputs": [
        {
          "internalType": "string",
          "name": "",
          "type": "string"
        }
      ],
      "stateMutability": "view",
      "type": "function",
      "constant": true
    },
    {
      "inputs": [
        {
          "internalType": "address",
          "name": "account",
          "type": "address"
        },
        {
          "internalType": "address",
          "name": "operator",
          "type": "address"
        }
      ],
      "name": "isApprovedForAll",
      "outputs": [
        {
          "internalType": "bool",
          "name": "",
          "type": "bool"
        }
      ],
      "stateMutability": "view",
      "type": "function",
      "constant": true
    },
    {
      "inputs": [],
      "name": "moneda",
      "outputs": [
        {
          "internalType": "uint256",
          "name": "",
          "type": "uint256"
        }
      ],
      "stateMutability": "view",
      "type": "function",
      "constant": true
    },
    {
      "inputs": [
        {
          "internalType": "address",
          "name": "",
          "type": "address"
        },
        {
          "internalType": "address",
          "name": "",
          "type": "address"
        },
        {
          "internalType": "uint256[]",
          "name": "",
          "type": "uint256[]"
        },
        {
          "internalType": "uint256[]",
          "name": "",
          "type": "uint256[]"
        },
        {
          "internalType": "bytes",
          "name": "",
          "type": "bytes"
        }
      ],
      "name": "onERC1155BatchReceived",
      "outputs": [
        {
          "internalType": "bytes4",
          "name": "",
          "type": "bytes4"
        }
      ],
      "stateMutability": "nonpayable",
      "type": "function"
    },
    {
      "inputs": [
        {
          "internalType": "address",
          "name": "",
          "type": "address"
        },
        {
          "internalType": "address",
          "name": "",
          "type": "address"
        },
        {
          "internalType": "uint256",
          "name": "",
          "type": "uint256"
        },
        {
          "internalType": "uint256",
          "name": "",
          "type": "uint256"
        },
        {
          "internalType": "bytes",
          "name": "",
          "type": "bytes"
        }
      ],
      "name": "onERC1155Received",
      "outputs": [
        {
          "internalType": "bytes4",
          "name": "",
          "type": "bytes4"
        }
      ],
      "stateMutability": "nonpayable",
      "type": "function"
    },
    {
      "inputs": [],
      "name": "owner",
      "outputs": [
        {
          "internalType": "address",
          "name": "",
          "type": "address"
        }
      ],
      "stateMutability": "view",
      "type": "function",
      "constant": true
    },
    {
      "inputs": [],
      "name": "renounceOwnership",
      "outputs": [],
      "stateMutability": "nonpayable",
      "type": "function"
    },
    {
      "inputs": [
        {
          "internalType": "address",
          "name": "from",
          "type": "address"
        },
        {
          "internalType": "address",
          "name": "to",
          "type": "address"
        },
        {
          "internalType": "uint256[]",
          "name": "ids",
          "type": "uint256[]"
        },
        {
          "internalType": "uint256[]",
          "name": "amounts",
          "type": "uint256[]"
        },
        {
          "internalType": "bytes",
          "name": "data",
          "type": "bytes"
        }
      ],
      "name": "safeBatchTransferFrom",
      "outputs": [],
      "stateMutability": "nonpayable",
      "type": "function"
    },
    {
      "inputs": [
        {
          "internalType": "address",
          "name": "from",
          "type": "address"
        },
        {
          "internalType": "address",
          "name": "to",
          "type": "address"
        },
        {
          "internalType": "uint256",
          "name": "id",
          "type": "uint256"
        },
        {
          "internalType": "uint256",
          "name": "amount",
          "type": "uint256"
        },
        {
          "internalType": "bytes",
          "name": "data",
          "type": "bytes"
        }
      ],
      "name": "safeTransferFrom",
      "outputs": [],
      "stateMutability": "nonpayable",
      "type": "function"
    },
    {
      "inputs": [
        {
          "internalType": "address",
          "name": "operator",
          "type": "address"
        },
        {
          "internalType": "bool",
          "name": "approved",
          "type": "bool"
        }
      ],
      "name": "setApprovalForAll",
      "outputs": [],
      "stateMutability": "nonpayable",
      "type": "function"
    },
    {
      "inputs": [
        {
          "internalType": "address",
          "name": "newOwner",
          "type": "address"
        }
      ],
      "name": "transferOwnership",
      "outputs": [],
      "stateMutability": "nonpayable",
      "type": "function"
    },
    {
      "inputs": [
        {
          "internalType": "uint256",
          "name": "",
          "type": "uint256"
        }
      ],
      "name": "uri",
      "outputs": [
        {
          "internalType": "string",
          "name": "",
          "type": "string"
        }
      ],
      "stateMutability": "view",
      "type": "function",
      "constant": true
    },
    {
      "inputs": [
        {
          "internalType": "bytes4",
          "name": "interfaceId",
          "type": "bytes4"
        }
      ],
      "name": "supportsInterface",
      "outputs": [
        {
          "internalType": "bool",
          "name": "",
          "type": "bool"
        }
      ],
      "stateMutability": "view",
      "type": "function",
      "constant": true
    },
    {
      "inputs": [
        {
          "internalType": "string",
          "name": "x",
          "type": "string"
        },
        {
          "internalType": "uint256",
          "name": "precio",
          "type": "uint256"
        },
        {
          "internalType": "string",
          "name": "titulo",
          "type": "string"
        },
        {
          "internalType": "string",
          "name": "description",
          "type": "string"
        }
      ],
      "name": "sendHash",
      "outputs": [],
      "stateMutability": "nonpayable",
      "type": "function"
    },
    {
      "inputs": [],
      "name": "getHash",
      "outputs": [
        {
          "internalType": "string",
          "name": "x",
          "type": "string"
        }
      ],
      "stateMutability": "view",
      "type": "function",
      "constant": true
    },
    {
      "inputs": [],
      "name": "totalSupply",
      "outputs": [
        {
          "internalType": "uint256",
          "name": "",
          "type": "uint256"
        }
      ],
      "stateMutability": "view",
      "type": "function",
      "constant": true
    },
    {
      "inputs": [
        {
          "internalType": "string",
          "name": "id",
          "type": "string"
        }
      ],
      "name": "getProperty",
      "outputs": [
        {
          "internalType": "address",
          "name": "",
          "type": "address"
        }
      ],
      "stateMutability": "view",
      "type": "function",
      "constant": true
    },
    {
      "inputs": [
        {
          "internalType": "string",
          "name": "id",
          "type": "string"
        },
        {
          "internalType": "string",
          "name": "newDescription",
          "type": "string"
        },
        {
          "internalType": "uint256",
          "name": "newPrice",
          "type": "uint256"
        }
      ],
      "name": "update",
      "outputs": [],
      "stateMutability": "nonpayable",
      "type": "function"
    },
    {
      "inputs": [
        {
          "internalType": "string",
          "name": "id",
          "type": "string"
        }
      ],
      "name": "getTitle",
      "outputs": [
        {
          "internalType": "string",
          "name": "title",
          "type": "string"
        }
      ],
      "stateMutability": "view",
      "type": "function",
      "constant": true
    },
    {
      "inputs": [
        {
          "internalType": "string",
          "name": "id",
          "type": "string"
        },
        {
          "internalType": "string",
          "name": "newTitle",
          "type": "string"
        }
      ],
      "name": "setTitle",
      "outputs": [],
      "stateMutability": "nonpayable",
      "type": "function"
    },
    {
      "inputs": [
        {
          "internalType": "string",
          "name": "id",
          "type": "string"
        }
      ],
      "name": "getPrice",
      "outputs": [
        {
          "internalType": "uint256",
          "name": "",
          "type": "uint256"
        }
      ],
      "stateMutability": "view",
      "type": "function",
      "constant": true
    },
    {
      "inputs": [
        {
          "internalType": "string",
          "name": "id",
          "type": "string"
        },
        {
          "internalType": "uint256",
          "name": "newPrice",
          "type": "uint256"
        }
      ],
      "name": "setPrice",
      "outputs": [],
      "stateMutability": "nonpayable",
      "type": "function"
    },
    {
      "inputs": [
        {
          "internalType": "string",
          "name": "id",
          "type": "string"
        }
      ],
      "name": "getDescription",
      "outputs": [
        {
          "internalType": "string",
          "name": "",
          "type": "string"
        }
      ],
      "stateMutability": "view",
      "type": "function",
      "constant": true
    },
    {
      "inputs": [
        {
          "internalType": "string",
          "name": "id",
          "type": "string"
        },
        {
          "internalType": "string",
          "name": "newDescription",
          "type": "string"
        }
      ],
      "name": "setDescription",
      "outputs": [],
      "stateMutability": "nonpayable",
      "type": "function"
    },
    {
      "inputs": [
        {
          "internalType": "address",
          "name": "propietario",
          "type": "address"
        }
      ],
      "name": "funds",
      "outputs": [
        {
          "internalType": "uint256",
          "name": "",
          "type": "uint256"
        }
      ],
      "stateMutability": "view",
      "type": "function",
      "constant": true
    },
    {
      "inputs": [],
      "name": "addFunds",
      "outputs": [],
      "stateMutability": "payable",
      "type": "function",
      "payable": true
    },
    {
      "inputs": [
        {
          "internalType": "string",
          "name": "id",
          "type": "string"
        }
      ],
      "name": "buy",
      "outputs": [],
      "stateMutability": "payable",
      "type": "function",
      "payable": true
    },
    {
      "inputs": [
        {
          "internalType": "string",
          "name": "id",
          "type": "string"
        }
      ],
      "name": "permission",
      "outputs": [],
      "stateMutability": "nonpayable",
      "type": "function"
    },
    {
      "inputs": [
        {
          "internalType": "uint256",
          "name": "newPrice",
          "type": "uint256"
        },
        {
          "internalType": "string",
          "name": "id",
          "type": "string"
        }
      ],
      "name": "updatePrice",
      "outputs": [],
      "stateMutability": "nonpayable",
      "type": "function"
    }
  ],
  "bytecode": "0x60806040523480156200001157600080fd5b506040518060200160405280600081525062000033816200010960201b60201c565b5062000054620000486200012560201b60201c565b6200012d60201b60201c565b30600560006101000a81548173ffffffffffffffffffffffffffffffffffffffff021916908373ffffffffffffffffffffffffffffffffffffffff16021790555033600460006101000a81548173ffffffffffffffffffffffffffffffffffffffff021916908373ffffffffffffffffffffffffffffffffffffffff160217905550600160068190555062000103336000606460405180602001604052806000815250620001f360201b60201c565b62000dd9565b8060029080519060200190620001219291906200065c565b5050565b600033905090565b6000600360009054906101000a900473ffffffffffffffffffffffffffffffffffffffff16905081600360006101000a81548173ffffffffffffffffffffffffffffffffffffffff021916908373ffffffffffffffffffffffffffffffffffffffff1602179055508173ffffffffffffffffffffffffffffffffffffffff168173ffffffffffffffffffffffffffffffffffffffff167f8be0079c531659141344cd1fd0a4f28419497f9722a3daafe3b4186f6b6457e060405160405180910390a35050565b600073ffffffffffffffffffffffffffffffffffffffff168473ffffffffffffffffffffffffffffffffffffffff160362000265576040517f08c379a00000000000000000000000000000000000000000000000000000000081526004016200025c9062000793565b60405180910390fd5b6000620002776200012560201b60201c565b9050620002b0816000876200029288620003b760201b60201c565b620002a388620003b760201b60201c565b876200043860201b60201c565b8260008086815260200190815260200160002060008773ffffffffffffffffffffffffffffffffffffffff1673ffffffffffffffffffffffffffffffffffffffff1681526020019081526020016000206000828254620003119190620007ee565b925050819055508473ffffffffffffffffffffffffffffffffffffffff16600073ffffffffffffffffffffffffffffffffffffffff168273ffffffffffffffffffffffffffffffffffffffff167fc3d58168c5ae7397731d063d5bbf3d657854427343f4c083240f7aacaa2d0f628787604051620003919291906200085c565b60405180910390a4620003b0816000878787876200044060201b60201c565b5050505050565b60606000600167ffffffffffffffff811115620003d957620003d862000889565b5b604051908082528060200260200182016040528015620004085781602001602082028036833780820191505090505b5090508281600081518110620004235762000422620008b8565b5b60200260200101818152505080915050919050565b505050505050565b6200046c8473ffffffffffffffffffffffffffffffffffffffff166200063960201b620018991760201c565b1562000631578373ffffffffffffffffffffffffffffffffffffffff1663f23a6e6187878686866040518663ffffffff1660e01b8152600401620004b5959493929190620009d0565b6020604051808303816000875af1925050508015620004f457506040513d601f19601f82011682018060405250810190620004f1919062000aa0565b60015b620005a5576200050362000adf565b806308c379a0036200056657506200051a62000b3a565b8062000527575062000568565b806040517f08c379a00000000000000000000000000000000000000000000000000000000081526004016200055d919062000c21565b60405180910390fd5b505b6040517f08c379a00000000000000000000000000000000000000000000000000000000081526004016200059c9062000cbb565b60405180910390fd5b63f23a6e6160e01b7bffffffffffffffffffffffffffffffffffffffffffffffffffffffff1916817bffffffffffffffffffffffffffffffffffffffffffffffffffffffff1916146200062f576040517f08c379a0000000000000000000000000000000000000000000000000000000008152600401620006269062000d53565b60405180910390fd5b505b505050505050565b6000808273ffffffffffffffffffffffffffffffffffffffff163b119050919050565b8280546200066a9062000da4565b90600052602060002090601f0160209004810192826200068e5760008555620006da565b82601f10620006a957805160ff1916838001178555620006da565b82800160010185558215620006da579182015b82811115620006d9578251825591602001919060010190620006bc565b5b509050620006e99190620006ed565b5090565b5b8082111562000708576000816000905550600101620006ee565b5090565b600082825260208201905092915050565b7f455243313135353a206d696e7420746f20746865207a65726f2061646472657360008201527f7300000000000000000000000000000000000000000000000000000000000000602082015250565b60006200077b6021836200070c565b915062000788826200071d565b604082019050919050565b60006020820190508181036000830152620007ae816200076c565b9050919050565b6000819050919050565b7f4e487b7100000000000000000000000000000000000000000000000000000000600052601160045260246000fd5b6000620007fb82620007b5565b91506200080883620007b5565b9250827fffffffffffffffffffffffffffffffffffffffffffffffffffffffffffffffff0382111562000840576200083f620007bf565b5b828201905092915050565b6200085681620007b5565b82525050565b60006040820190506200087360008301856200084b565b6200088260208301846200084b565b9392505050565b7f4e487b7100000000000000000000000000000000000000000000000000000000600052604160045260246000fd5b7f4e487b7100000000000000000000000000000000000000000000000000000000600052603260045260246000fd5b600073ffffffffffffffffffffffffffffffffffffffff82169050919050565b60006200091482620008e7565b9050919050565b620009268162000907565b82525050565b600081519050919050565b600082825260208201905092915050565b60005b83811015620009685780820151818401526020810190506200094b565b8381111562000978576000848401525b50505050565b6000601f19601f8301169050919050565b60006200099c826200092c565b620009a8818562000937565b9350620009ba81856020860162000948565b620009c5816200097e565b840191505092915050565b600060a082019050620009e760008301886200091b565b620009f660208301876200091b565b62000a0560408301866200084b565b62000a1460608301856200084b565b818103608083015262000a2881846200098f565b90509695505050505050565b6000604051905090565b600080fd5b60007fffffffff0000000000000000000000000000000000000000000000000000000082169050919050565b62000a7a8162000a43565b811462000a8657600080fd5b50565b60008151905062000a9a8162000a6f565b92915050565b60006020828403121562000ab95762000ab862000a3e565b5b600062000ac98482850162000a89565b91505092915050565b60008160e01c9050919050565b600060033d111562000b015760046000803e62000afe60005162000ad2565b90505b90565b62000b0f826200097e565b810181811067ffffffffffffffff8211171562000b315762000b3062000889565b5b80604052505050565b600060443d1062000bd25762000b4f62000a34565b60043d036004823e80513d602482011167ffffffffffffffff8211171562000b7957505062000bd2565b808201805167ffffffffffffffff81111562000b99575050505062000bd2565b80602083010160043d03850181111562000bb857505050505062000bd2565b62000bc98260200185018662000b04565b82955050505050505b90565b600081519050919050565b600062000bed8262000bd5565b62000bf981856200070c565b935062000c0b81856020860162000948565b62000c16816200097e565b840191505092915050565b6000602082019050818103600083015262000c3d818462000be0565b905092915050565b7f455243313135353a207472616e7366657220746f206e6f6e204552433131353560008201527f526563656976657220696d706c656d656e746572000000000000000000000000602082015250565b600062000ca36034836200070c565b915062000cb08262000c45565b604082019050919050565b6000602082019050818103600083015262000cd68162000c94565b9050919050565b7f455243313135353a204552433131353552656365697665722072656a6563746560008201527f6420746f6b656e73000000000000000000000000000000000000000000000000602082015250565b600062000d3b6028836200070c565b915062000d488262000cdd565b604082019050919050565b6000602082019050818103600083015262000d6e8162000d2c565b9050919050565b7f4e487b7100000000000000000000000000000000000000000000000000000000600052602260045260246000fd5b6000600282049050600182168062000dbd57607f821691505b60208210810362000dd35762000dd262000d75565b5b50919050565b6141858062000de96000396000f3fe6080604052600436106101f85760003560e01c8063715018a61161010d578063d13319c4116100a0578063f1cc12681161006f578063f1cc12681461075e578063f23a6e6114610789578063f242432a146107c6578063f2fde38b146107ef578063f851a44014610818576101f8565b8063d13319c414610690578063dc8e9a15146106bb578063e2ae93fb146106e4578063e985e9c514610721576101f8565b8063ab331a34116100dc578063ab331a34146105c2578063bc197c81146105ff578063c79fc6091461063c578063cd4eb3b814610667576101f8565b8063715018a61461054d5780638da5cb5b14610564578063a22cb4651461058f578063a26759cb146105b8576101f8565b806323389c5a11610190578063492cc7691161015f578063492cc769146104655780634e1273f414610481578063524f3889146104be5780636755d456146104fb5780637103b15b14610524576101f8565b806323389c5a146103995780632eb2c2d6146103d65780633e995df2146103ff57806345de2ca014610428576101f8565b80630e89341c116101cc5780630e89341c146102cb57806318160ddd146103085780631b46e49c1461033357806322e0119214610370576101f8565b8062fdd58e146101fd57806301ffc9a71461023a57806302a5e84c1461027757806306661abd146102a0575b600080fd5b34801561020957600080fd5b50610224600480360381019061021f9190612960565b610843565b60405161023191906129af565b60405180910390f35b34801561024657600080fd5b50610261600480360381019061025c9190612a22565b61090b565b60405161026e9190612a6a565b60405180910390f35b34801561028357600080fd5b5061029e60048036038101906102999190612bcb565b61091d565b005b3480156102ac57600080fd5b506102b5610b1b565b6040516102c291906129af565b60405180910390f35b3480156102d757600080fd5b506102f260048036038101906102ed9190612c86565b610b21565b6040516102ff9190612d3b565b60405180910390f35b34801561031457600080fd5b5061031d610bb5565b60405161032a91906129af565b60405180910390f35b34801561033f57600080fd5b5061035a60048036038101906103559190612d5d565b610bc2565b6040516103679190612d3b565b60405180910390f35b34801561037c57600080fd5b5061039760048036038101906103929190612da6565b610c72565b005b3480156103a557600080fd5b506103c060048036038101906103bb9190612c86565b610c99565b6040516103cd9190612d3b565b60405180910390f35b3480156103e257600080fd5b506103fd60048036038101906103f89190612f6b565b610d45565b005b34801561040b57600080fd5b506104266004803603810190610421919061303a565b610de6565b005b34801561043457600080fd5b5061044f600480360381019061044a9190612d5d565b610e41565b60405161045c9190612d3b565b60405180910390f35b61047f600480360381019061047a9190612d5d565b610ef1565b005b34801561048d57600080fd5b506104a860048036038101906104a39190613188565b611043565b6040516104b591906132be565b60405180910390f35b3480156104ca57600080fd5b506104e560048036038101906104e09190612d5d565b61115c565b6040516104f291906129af565b60405180910390f35b34801561050757600080fd5b50610522600480360381019061051d91906132e0565b611184565b005b34801561053057600080fd5b5061054b60048036038101906105469190613358565b6111bb565b005b34801561055957600080fd5b506105626111e2565b005b34801561057057600080fd5b5061057961126a565b60405161058691906133c3565b60405180910390f35b34801561059b57600080fd5b506105b660048036038101906105b1919061340a565b611294565b005b6105c06112aa565b005b3480156105ce57600080fd5b506105e960048036038101906105e49190612d5d565b611359565b6040516105f691906133c3565b60405180910390f35b34801561060b57600080fd5b5061062660048036038101906106219190612f6b565b6113a1565b6040516106339190613459565b60405180910390f35b34801561064857600080fd5b506106516113b6565b60405161065e91906133c3565b60405180910390f35b34801561067357600080fd5b5061068e60048036038101906106899190612d5d565b6113dc565b005b34801561069c57600080fd5b506106a5611550565b6040516106b29190612d3b565b60405180910390f35b3480156106c757600080fd5b506106e260048036038101906106dd91906132e0565b6115e2565b005b3480156106f057600080fd5b5061070b60048036038101906107069190613474565b611619565b60405161071891906129af565b60405180910390f35b34801561072d57600080fd5b50610748600480360381019061074391906134a1565b61162d565b6040516107559190612a6a565b60405180910390f35b34801561076a57600080fd5b506107736116c1565b60405161078091906129af565b60405180910390f35b34801561079557600080fd5b506107b060048036038101906107ab91906134e1565b6116c6565b6040516107bd9190613459565b60405180910390f35b3480156107d257600080fd5b506107ed60048036038101906107e891906134e1565b6116db565b005b3480156107fb57600080fd5b5061081660048036038101906108119190613474565b61177c565b005b34801561082457600080fd5b5061082d611873565b60405161083a91906133c3565b60405180910390f35b60008073ffffffffffffffffffffffffffffffffffffffff168373ffffffffffffffffffffffffffffffffffffffff16036108b3576040517f08c379a00000000000000000000000000000000000000000000000000000000081526004016108aa906135ea565b60405180910390fd5b60008083815260200190815260200160002060008473ffffffffffffffffffffffffffffffffffffffff1673ffffffffffffffffffffffffffffffffffffffff16815260200190815260200160002054905092915050565b6000610916826118bc565b9050919050565b60098460405161092d9190613646565b908152602001604051809103902060009054906101000a900460ff161561095357600080fd5b83600f9080519060200190610969929190612815565b506007849080600181540180825580915050600190039060005260206000200160009091909190915090805190602001906109a5929190612815565b50600654600d856040516109b99190613646565b90815260200160405180910390208190555082600a856040516109dc9190613646565b90815260200160405180910390208190555033600b856040516109ff9190613646565b908152602001604051809103902060006101000a81548173ffffffffffffffffffffffffffffffffffffffff021916908373ffffffffffffffffffffffffffffffffffffffff16021790555081600c85604051610a5c9190613646565b90815260200160405180910390209080519060200190610a7d929190612815565b5080600e85604051610a8f9190613646565b90815260200160405180910390209080519060200190610ab0929190612815565b506000849050610ac533600654600184611936565b60066000815480929190610ad89061368c565b91905055506001600986604051610aef9190613646565b908152602001604051809103902060006101000a81548160ff0219169083151502179055505050505050565b60065481565b606060028054610b3090613703565b80601f0160208091040260200160405190810160405280929190818152602001828054610b5c90613703565b8015610ba95780601f10610b7e57610100808354040283529160200191610ba9565b820191906000526020600020905b815481529060010190602001808311610b8c57829003601f168201915b50505050509050919050565b6000600780549050905090565b6060600c82604051610bd49190613646565b90815260200160405180910390208054610bed90613703565b80601f0160208091040260200160405190810160405280929190818152602001828054610c1990613703565b8015610c665780601f10610c3b57610100808354040283529160200191610c66565b820191906000526020600020905b815481529060010190602001808311610c4957829003601f168201915b50505050509050919050565b80600a83604051610c839190613646565b9081526020016040518091039020819055505050565b60078181548110610ca957600080fd5b906000526020600020016000915090508054610cc490613703565b80601f0160208091040260200160405190810160405280929190818152602001828054610cf090613703565b8015610d3d5780601f10610d1257610100808354040283529160200191610d3d565b820191906000526020600020905b815481529060010190602001808311610d2057829003601f168201915b505050505081565b610d4d611acb565b73ffffffffffffffffffffffffffffffffffffffff168573ffffffffffffffffffffffffffffffffffffffff161480610d935750610d9285610d8d611acb565b61162d565b5b610dd2576040517f08c379a0000000000000000000000000000000000000000000000000000000008152600401610dc9906137a6565b60405180910390fd5b610ddf8585858585611ad3565b5050505050565b81600e84604051610df79190613646565b90815260200160405180910390209080519060200190610e18929190612815565b5080600a84604051610e2a9190613646565b908152602001604051809103902081905550505050565b6060600e82604051610e539190613646565b90815260200160405180910390208054610e6c90613703565b80601f0160208091040260200160405190810160405280929190818152602001828054610e9890613703565b8015610ee55780601f10610eba57610100808354040283529160200191610ee5565b820191906000526020600020905b815481529060010190602001808311610ec857829003601f168201915b50505050509050919050565b610f6a33600883604051610f059190613646565b908152602001604051809103902060009054906101000a900473ffffffffffffffffffffffffffffffffffffffff166000600a85604051610f469190613646565b908152602001604051809103902054604051806020016040528060008152506116db565b610fe3600b82604051610f7d9190613646565b908152602001604051809103902060009054906101000a900473ffffffffffffffffffffffffffffffffffffffff1633600d84604051610fbd9190613646565b908152602001604051809103902054600160405180602001604052806000815250611de6565b33600b82604051610ff49190613646565b908152602001604051809103902060006101000a81548173ffffffffffffffffffffffffffffffffffffffff021916908373ffffffffffffffffffffffffffffffffffffffff16021790555050565b60608151835114611089576040517f08c379a000000000000000000000000000000000000000000000000000000000815260040161108090613838565b60405180910390fd5b6000835167ffffffffffffffff8111156110a6576110a5612aa0565b5b6040519080825280602002602001820160405280156110d45781602001602082028036833780820191505090505b50905060005b8451811015611151576111218582815181106110f9576110f8613858565b5b602002602001015185838151811061111457611113613858565b5b6020026020010151610843565b82828151811061113457611133613858565b5b6020026020010181815250508061114a9061368c565b90506110da565b508091505092915050565b6000600a8260405161116e9190613646565b9081526020016040518091039020549050919050565b80600e836040516111959190613646565b908152602001604051809103902090805190602001906111b6929190612815565b505050565b81600a826040516111cc9190613646565b9081526020016040518091039020819055505050565b6111ea611acb565b73ffffffffffffffffffffffffffffffffffffffff1661120861126a565b73ffffffffffffffffffffffffffffffffffffffff161461125e576040517f08c379a0000000000000000000000000000000000000000000000000000000008152600401611255906138d3565b60405180910390fd5b6112686000612067565b565b6000600360009054906101000a900473ffffffffffffffffffffffffffffffffffffffff16905090565b6112a661129f611acb565b838361212d565b5050565b600460009054906101000a900473ffffffffffffffffffffffffffffffffffffffff1673ffffffffffffffffffffffffffffffffffffffff163373ffffffffffffffffffffffffffffffffffffffff161461133a576040517f08c379a00000000000000000000000000000000000000000000000000000000081526004016113319061393f565b60405180910390fd5b611357336000606460405180602001604052806000815250611936565b565b6000600b8260405161136b9190613646565b908152602001604051809103902060009054906101000a900473ffffffffffffffffffffffffffffffffffffffff169050919050565b600063bc197c8160e01b905095945050505050565b600560009054906101000a900473ffffffffffffffffffffffffffffffffffffffff1681565b600b816040516113ec9190613646565b908152602001604051809103902060009054906101000a900473ffffffffffffffffffffffffffffffffffffffff1660088260405161142b9190613646565b908152602001604051809103902060006101000a81548173ffffffffffffffffffffffffffffffffffffffff021916908373ffffffffffffffffffffffffffffffffffffffff16021790555030600b826040516114889190613646565b908152602001604051809103902060006101000a81548173ffffffffffffffffffffffffffffffffffffffff021916908373ffffffffffffffffffffffffffffffffffffffff16021790555061154d33600b836040516114e89190613646565b908152602001604051809103902060009054906101000a900473ffffffffffffffffffffffffffffffffffffffff16600d846040516115279190613646565b9081526020016040518091039020546001604051806020016040528060008152506116db565b50565b6060600f805461155f90613703565b80601f016020809104026020016040519081016040528092919081815260200182805461158b90613703565b80156115d85780601f106115ad576101008083540402835291602001916115d8565b820191906000526020600020905b8154815290600101906020018083116115bb57829003601f168201915b5050505050905090565b80600c836040516115f39190613646565b90815260200160405180910390209080519060200190611614929190612815565b505050565b6000611626826000610843565b9050919050565b6000600160008473ffffffffffffffffffffffffffffffffffffffff1673ffffffffffffffffffffffffffffffffffffffff16815260200190815260200160002060008373ffffffffffffffffffffffffffffffffffffffff1673ffffffffffffffffffffffffffffffffffffffff16815260200190815260200160002060009054906101000a900460ff16905092915050565b600081565b600063f23a6e6160e01b905095945050505050565b6116e3611acb565b73ffffffffffffffffffffffffffffffffffffffff168573ffffffffffffffffffffffffffffffffffffffff161480611729575061172885611723611acb565b61162d565b5b611768576040517f08c379a000000000000000000000000000000000000000000000000000000000815260040161175f906139d1565b60405180910390fd5b6117758585858585611de6565b5050505050565b611784611acb565b73ffffffffffffffffffffffffffffffffffffffff166117a261126a565b73ffffffffffffffffffffffffffffffffffffffff16146117f8576040517f08c379a00000000000000000000000000000000000000000000000000000000081526004016117ef906138d3565b60405180910390fd5b600073ffffffffffffffffffffffffffffffffffffffff168173ffffffffffffffffffffffffffffffffffffffff1603611867576040517f08c379a000000000000000000000000000000000000000000000000000000000815260040161185e90613a63565b60405180910390fd5b61187081612067565b50565b600460009054906101000a900473ffffffffffffffffffffffffffffffffffffffff1681565b6000808273ffffffffffffffffffffffffffffffffffffffff163b119050919050565b60007f4e2312e0000000000000000000000000000000000000000000000000000000007bffffffffffffffffffffffffffffffffffffffffffffffffffffffff1916827bffffffffffffffffffffffffffffffffffffffffffffffffffffffff1916148061192f575061192e82612299565b5b9050919050565b600073ffffffffffffffffffffffffffffffffffffffff168473ffffffffffffffffffffffffffffffffffffffff16036119a5576040517f08c379a000000000000000000000000000000000000000000000000000000000815260040161199c90613af5565b60405180910390fd5b60006119af611acb565b90506119d0816000876119c18861237b565b6119ca8861237b565b876123f5565b8260008086815260200190815260200160002060008773ffffffffffffffffffffffffffffffffffffffff1673ffffffffffffffffffffffffffffffffffffffff1681526020019081526020016000206000828254611a2f9190613b15565b925050819055508473ffffffffffffffffffffffffffffffffffffffff16600073ffffffffffffffffffffffffffffffffffffffff168273ffffffffffffffffffffffffffffffffffffffff167fc3d58168c5ae7397731d063d5bbf3d657854427343f4c083240f7aacaa2d0f628787604051611aad929190613b6b565b60405180910390a4611ac4816000878787876123fd565b5050505050565b600033905090565b8151835114611b17576040517f08c379a0000000000000000000000000000000000000000000000000000000008152600401611b0e90613c06565b60405180910390fd5b600073ffffffffffffffffffffffffffffffffffffffff168473ffffffffffffffffffffffffffffffffffffffff1603611b86576040517f08c379a0000000000000000000000000000000000000000000000000000000008152600401611b7d90613c98565b60405180910390fd5b6000611b90611acb565b9050611ba08187878787876123f5565b60005b8451811015611d51576000858281518110611bc157611bc0613858565b5b602002602001015190506000858381518110611be057611bdf613858565b5b60200260200101519050600080600084815260200190815260200160002060008b73ffffffffffffffffffffffffffffffffffffffff1673ffffffffffffffffffffffffffffffffffffffff16815260200190815260200160002054905081811015611c81576040517f08c379a0000000000000000000000000000000000000000000000000000000008152600401611c7890613d2a565b60405180910390fd5b81810360008085815260200190815260200160002060008c73ffffffffffffffffffffffffffffffffffffffff1673ffffffffffffffffffffffffffffffffffffffff168152602001908152602001600020819055508160008085815260200190815260200160002060008b73ffffffffffffffffffffffffffffffffffffffff1673ffffffffffffffffffffffffffffffffffffffff1681526020019081526020016000206000828254611d369190613b15565b9250508190555050505080611d4a9061368c565b9050611ba3565b508473ffffffffffffffffffffffffffffffffffffffff168673ffffffffffffffffffffffffffffffffffffffff168273ffffffffffffffffffffffffffffffffffffffff167f4a39dc06d4c0dbc64b70af90fd698a233a518aa5d07e595d983b8c0526c8f7fb8787604051611dc8929190613d4a565b60405180910390a4611dde8187878787876125d4565b505050505050565b600073ffffffffffffffffffffffffffffffffffffffff168473ffffffffffffffffffffffffffffffffffffffff1603611e55576040517f08c379a0000000000000000000000000000000000000000000000000000000008152600401611e4c90613c98565b60405180910390fd5b6000611e5f611acb565b9050611e7f818787611e708861237b565b611e798861237b565b876123f5565b600080600086815260200190815260200160002060008873ffffffffffffffffffffffffffffffffffffffff1673ffffffffffffffffffffffffffffffffffffffff16815260200190815260200160002054905083811015611f16576040517f08c379a0000000000000000000000000000000000000000000000000000000008152600401611f0d90613d2a565b60405180910390fd5b83810360008087815260200190815260200160002060008973ffffffffffffffffffffffffffffffffffffffff1673ffffffffffffffffffffffffffffffffffffffff168152602001908152602001600020819055508360008087815260200190815260200160002060008873ffffffffffffffffffffffffffffffffffffffff1673ffffffffffffffffffffffffffffffffffffffff1681526020019081526020016000206000828254611fcb9190613b15565b925050819055508573ffffffffffffffffffffffffffffffffffffffff168773ffffffffffffffffffffffffffffffffffffffff168373ffffffffffffffffffffffffffffffffffffffff167fc3d58168c5ae7397731d063d5bbf3d657854427343f4c083240f7aacaa2d0f628888604051612048929190613b6b565b60405180910390a461205e8288888888886123fd565b50505050505050565b6000600360009054906101000a900473ffffffffffffffffffffffffffffffffffffffff16905081600360006101000a81548173ffffffffffffffffffffffffffffffffffffffff021916908373ffffffffffffffffffffffffffffffffffffffff1602179055508173ffffffffffffffffffffffffffffffffffffffff168173ffffffffffffffffffffffffffffffffffffffff167f8be0079c531659141344cd1fd0a4f28419497f9722a3daafe3b4186f6b6457e060405160405180910390a35050565b8173ffffffffffffffffffffffffffffffffffffffff168373ffffffffffffffffffffffffffffffffffffffff160361219b576040517f08c379a000000000000000000000000000000000000000000000000000000000815260040161219290613df3565b60405180910390fd5b80600160008573ffffffffffffffffffffffffffffffffffffffff1673ffffffffffffffffffffffffffffffffffffffff16815260200190815260200160002060008473ffffffffffffffffffffffffffffffffffffffff1673ffffffffffffffffffffffffffffffffffffffff16815260200190815260200160002060006101000a81548160ff0219169083151502179055508173ffffffffffffffffffffffffffffffffffffffff168373ffffffffffffffffffffffffffffffffffffffff167f17307eab39ab6107e8899845ad3d59bd9653f200f220920489ca2b5937696c318360405161228c9190612a6a565b60405180910390a3505050565b60007fd9b67a26000000000000000000000000000000000000000000000000000000007bffffffffffffffffffffffffffffffffffffffffffffffffffffffff1916827bffffffffffffffffffffffffffffffffffffffffffffffffffffffff1916148061236457507f0e89341c000000000000000000000000000000000000000000000000000000007bffffffffffffffffffffffffffffffffffffffffffffffffffffffff1916827bffffffffffffffffffffffffffffffffffffffffffffffffffffffff1916145b806123745750612373826127ab565b5b9050919050565b60606000600167ffffffffffffffff81111561239a57612399612aa0565b5b6040519080825280602002602001820160405280156123c85781602001602082028036833780820191505090505b50905082816000815181106123e0576123df613858565b5b60200260200101818152505080915050919050565b505050505050565b61241c8473ffffffffffffffffffffffffffffffffffffffff16611899565b156125cc578373ffffffffffffffffffffffffffffffffffffffff1663f23a6e6187878686866040518663ffffffff1660e01b8152600401612462959493929190613e68565b6020604051808303816000875af192505050801561249e57506040513d601f19601f8201168201806040525081019061249b9190613ed7565b60015b612543576124aa613f11565b806308c379a00361250657506124be613f33565b806124c95750612508565b806040517f08c379a00000000000000000000000000000000000000000000000000000000081526004016124fd9190612d3b565b60405180910390fd5b505b6040517f08c379a000000000000000000000000000000000000000000000000000000000815260040161253a90614035565b60405180910390fd5b63f23a6e6160e01b7bffffffffffffffffffffffffffffffffffffffffffffffffffffffff1916817bffffffffffffffffffffffffffffffffffffffffffffffffffffffff1916146125ca576040517f08c379a00000000000000000000000000000000000000000000000000000000081526004016125c1906140c7565b60405180910390fd5b505b505050505050565b6125f38473ffffffffffffffffffffffffffffffffffffffff16611899565b156127a3578373ffffffffffffffffffffffffffffffffffffffff1663bc197c8187878686866040518663ffffffff1660e01b81526004016126399594939291906140e7565b6020604051808303816000875af192505050801561267557506040513d601f19601f820116820180604052508101906126729190613ed7565b60015b61271a57612681613f11565b806308c379a0036126dd5750612695613f33565b806126a057506126df565b806040517f08c379a00000000000000000000000000000000000000000000000000000000081526004016126d49190612d3b565b60405180910390fd5b505b6040517f08c379a000000000000000000000000000000000000000000000000000000000815260040161271190614035565b60405180910390fd5b63bc197c8160e01b7bffffffffffffffffffffffffffffffffffffffffffffffffffffffff1916817bffffffffffffffffffffffffffffffffffffffffffffffffffffffff1916146127a1576040517f08c379a0000000000000000000000000000000000000000000000000000000008152600401612798906140c7565b60405180910390fd5b505b505050505050565b60007f01ffc9a7000000000000000000000000000000000000000000000000000000007bffffffffffffffffffffffffffffffffffffffffffffffffffffffff1916827bffffffffffffffffffffffffffffffffffffffffffffffffffffffff1916149050919050565b82805461282190613703565b90600052602060002090601f016020900481019282612843576000855561288a565b82601f1061285c57805160ff191683800117855561288a565b8280016001018555821561288a579182015b8281111561288957825182559160200191906001019061286e565b5b509050612897919061289b565b5090565b5b808211156128b457600081600090555060010161289c565b5090565b6000604051905090565b600080fd5b600080fd5b600073ffffffffffffffffffffffffffffffffffffffff82169050919050565b60006128f7826128cc565b9050919050565b612907816128ec565b811461291257600080fd5b50565b600081359050612924816128fe565b92915050565b6000819050919050565b61293d8161292a565b811461294857600080fd5b50565b60008135905061295a81612934565b92915050565b60008060408385031215612977576129766128c2565b5b600061298585828601612915565b92505060206129968582860161294b565b9150509250929050565b6129a98161292a565b82525050565b60006020820190506129c460008301846129a0565b92915050565b60007fffffffff0000000000000000000000000000000000000000000000000000000082169050919050565b6129ff816129ca565b8114612a0a57600080fd5b50565b600081359050612a1c816129f6565b92915050565b600060208284031215612a3857612a376128c2565b5b6000612a4684828501612a0d565b91505092915050565b60008115159050919050565b612a6481612a4f565b82525050565b6000602082019050612a7f6000830184612a5b565b92915050565b600080fd5b600080fd5b6000601f19601f8301169050919050565b7f4e487b7100000000000000000000000000000000000000000000000000000000600052604160045260246000fd5b612ad882612a8f565b810181811067ffffffffffffffff82111715612af757612af6612aa0565b5b80604052505050565b6000612b0a6128b8565b9050612b168282612acf565b919050565b600067ffffffffffffffff821115612b3657612b35612aa0565b5b612b3f82612a8f565b9050602081019050919050565b82818337600083830152505050565b6000612b6e612b6984612b1b565b612b00565b905082815260208101848484011115612b8a57612b89612a8a565b5b612b95848285612b4c565b509392505050565b600082601f830112612bb257612bb1612a85565b5b8135612bc2848260208601612b5b565b91505092915050565b60008060008060808587031215612be557612be46128c2565b5b600085013567ffffffffffffffff811115612c0357612c026128c7565b5b612c0f87828801612b9d565b9450506020612c208782880161294b565b935050604085013567ffffffffffffffff811115612c4157612c406128c7565b5b612c4d87828801612b9d565b925050606085013567ffffffffffffffff811115612c6e57612c6d6128c7565b5b612c7a87828801612b9d565b91505092959194509250565b600060208284031215612c9c57612c9b6128c2565b5b6000612caa8482850161294b565b91505092915050565b600081519050919050565b600082825260208201905092915050565b60005b83811015612ced578082015181840152602081019050612cd2565b83811115612cfc576000848401525b50505050565b6000612d0d82612cb3565b612d178185612cbe565b9350612d27818560208601612ccf565b612d3081612a8f565b840191505092915050565b60006020820190508181036000830152612d558184612d02565b905092915050565b600060208284031215612d7357612d726128c2565b5b600082013567ffffffffffffffff811115612d9157612d906128c7565b5b612d9d84828501612b9d565b91505092915050565b60008060408385031215612dbd57612dbc6128c2565b5b600083013567ffffffffffffffff811115612ddb57612dda6128c7565b5b612de785828601612b9d565b9250506020612df88582860161294b565b9150509250929050565b600067ffffffffffffffff821115612e1d57612e1c612aa0565b5b602082029050602081019050919050565b600080fd5b6000612e46612e4184612e02565b612b00565b90508083825260208201905060208402830185811115612e6957612e68612e2e565b5b835b81811015612e925780612e7e888261294b565b845260208401935050602081019050612e6b565b5050509392505050565b600082601f830112612eb157612eb0612a85565b5b8135612ec1848260208601612e33565b91505092915050565b600067ffffffffffffffff821115612ee557612ee4612aa0565b5b612eee82612a8f565b9050602081019050919050565b6000612f0e612f0984612eca565b612b00565b905082815260208101848484011115612f2a57612f29612a8a565b5b612f35848285612b4c565b509392505050565b600082601f830112612f5257612f51612a85565b5b8135612f62848260208601612efb565b91505092915050565b600080600080600060a08688031215612f8757612f866128c2565b5b6000612f9588828901612915565b9550506020612fa688828901612915565b945050604086013567ffffffffffffffff811115612fc757612fc66128c7565b5b612fd388828901612e9c565b935050606086013567ffffffffffffffff811115612ff457612ff36128c7565b5b61300088828901612e9c565b925050608086013567ffffffffffffffff811115613021576130206128c7565b5b61302d88828901612f3d565b9150509295509295909350565b600080600060608486031215613053576130526128c2565b5b600084013567ffffffffffffffff811115613071576130706128c7565b5b61307d86828701612b9d565b935050602084013567ffffffffffffffff81111561309e5761309d6128c7565b5b6130aa86828701612b9d565b92505060406130bb8682870161294b565b9150509250925092565b600067ffffffffffffffff8211156130e0576130df612aa0565b5b602082029050602081019050919050565b60006131046130ff846130c5565b612b00565b9050808382526020820190506020840283018581111561312757613126612e2e565b5b835b81811015613150578061313c8882612915565b845260208401935050602081019050613129565b5050509392505050565b600082601f83011261316f5761316e612a85565b5b813561317f8482602086016130f1565b91505092915050565b6000806040838503121561319f5761319e6128c2565b5b600083013567ffffffffffffffff8111156131bd576131bc6128c7565b5b6131c98582860161315a565b925050602083013567ffffffffffffffff8111156131ea576131e96128c7565b5b6131f685828601612e9c565b9150509250929050565b600081519050919050565b600082825260208201905092915050565b6000819050602082019050919050565b6132358161292a565b82525050565b6000613247838361322c565b60208301905092915050565b6000602082019050919050565b600061326b82613200565b613275818561320b565b93506132808361321c565b8060005b838110156132b1578151613298888261323b565b97506132a383613253565b925050600181019050613284565b5085935050505092915050565b600060208201905081810360008301526132d88184613260565b905092915050565b600080604083850312156132f7576132f66128c2565b5b600083013567ffffffffffffffff811115613315576133146128c7565b5b61332185828601612b9d565b925050602083013567ffffffffffffffff811115613342576133416128c7565b5b61334e85828601612b9d565b9150509250929050565b6000806040838503121561336f5761336e6128c2565b5b600061337d8582860161294b565b925050602083013567ffffffffffffffff81111561339e5761339d6128c7565b5b6133aa85828601612b9d565b9150509250929050565b6133bd816128ec565b82525050565b60006020820190506133d860008301846133b4565b92915050565b6133e781612a4f565b81146133f257600080fd5b50565b600081359050613404816133de565b92915050565b60008060408385031215613421576134206128c2565b5b600061342f85828601612915565b9250506020613440858286016133f5565b9150509250929050565b613453816129ca565b82525050565b600060208201905061346e600083018461344a565b92915050565b60006020828403121561348a576134896128c2565b5b600061349884828501612915565b91505092915050565b600080604083850312156134b8576134b76128c2565b5b60006134c685828601612915565b92505060206134d785828601612915565b9150509250929050565b600080600080600060a086880312156134fd576134fc6128c2565b5b600061350b88828901612915565b955050602061351c88828901612915565b945050604061352d8882890161294b565b935050606061353e8882890161294b565b925050608086013567ffffffffffffffff81111561355f5761355e6128c7565b5b61356b88828901612f3d565b9150509295509295909350565b7f455243313135353a2062616c616e636520717565727920666f7220746865207a60008201527f65726f2061646472657373000000000000000000000000000000000000000000602082015250565b60006135d4602b83612cbe565b91506135df82613578565b604082019050919050565b60006020820190508181036000830152613603816135c7565b9050919050565b600081905092915050565b600061362082612cb3565b61362a818561360a565b935061363a818560208601612ccf565b80840191505092915050565b60006136528284613615565b915081905092915050565b7f4e487b7100000000000000000000000000000000000000000000000000000000600052601160045260246000fd5b60006136978261292a565b91507fffffffffffffffffffffffffffffffffffffffffffffffffffffffffffffffff82036136c9576136c861365d565b5b600182019050919050565b7f4e487b7100000000000000000000000000000000000000000000000000000000600052602260045260246000fd5b6000600282049050600182168061371b57607f821691505b60208210810361372e5761372d6136d4565b5b50919050565b7f455243313135353a207472616e736665722063616c6c6572206973206e6f742060008201527f6f776e6572206e6f7220617070726f7665640000000000000000000000000000602082015250565b6000613790603283612cbe565b915061379b82613734565b604082019050919050565b600060208201905081810360008301526137bf81613783565b9050919050565b7f455243313135353a206163636f756e747320616e6420696473206c656e67746860008201527f206d69736d617463680000000000000000000000000000000000000000000000602082015250565b6000613822602983612cbe565b915061382d826137c6565b604082019050919050565b6000602082019050818103600083015261385181613815565b9050919050565b7f4e487b7100000000000000000000000000000000000000000000000000000000600052603260045260246000fd5b7f4f776e61626c653a2063616c6c6572206973206e6f7420746865206f776e6572600082015250565b60006138bd602083612cbe565b91506138c882613887565b602082019050919050565b600060208201905081810360008301526138ec816138b0565b9050919050565b7f6f6e6c792061646d696e2063616e2063616c6c20746869730000000000000000600082015250565b6000613929601883612cbe565b9150613934826138f3565b602082019050919050565b600060208201905081810360008301526139588161391c565b9050919050565b7f455243313135353a2063616c6c6572206973206e6f74206f776e6572206e6f7260008201527f20617070726f7665640000000000000000000000000000000000000000000000602082015250565b60006139bb602983612cbe565b91506139c68261395f565b604082019050919050565b600060208201905081810360008301526139ea816139ae565b9050919050565b7f4f776e61626c653a206e6577206f776e657220697320746865207a65726f206160008201527f6464726573730000000000000000000000000000000000000000000000000000602082015250565b6000613a4d602683612cbe565b9150613a58826139f1565b604082019050919050565b60006020820190508181036000830152613a7c81613a40565b9050919050565b7f455243313135353a206d696e7420746f20746865207a65726f2061646472657360008201527f7300000000000000000000000000000000000000000000000000000000000000602082015250565b6000613adf602183612cbe565b9150613aea82613a83565b604082019050919050565b60006020820190508181036000830152613b0e81613ad2565b9050919050565b6000613b208261292a565b9150613b2b8361292a565b9250827fffffffffffffffffffffffffffffffffffffffffffffffffffffffffffffffff03821115613b6057613b5f61365d565b5b828201905092915050565b6000604082019050613b8060008301856129a0565b613b8d60208301846129a0565b9392505050565b7f455243313135353a2069647320616e6420616d6f756e7473206c656e6774682060008201527f6d69736d61746368000000000000000000000000000000000000000000000000602082015250565b6000613bf0602883612cbe565b9150613bfb82613b94565b604082019050919050565b60006020820190508181036000830152613c1f81613be3565b9050919050565b7f455243313135353a207472616e7366657220746f20746865207a65726f20616460008201527f6472657373000000000000000000000000000000000000000000000000000000602082015250565b6000613c82602583612cbe565b9150613c8d82613c26565b604082019050919050565b60006020820190508181036000830152613cb181613c75565b9050919050565b7f455243313135353a20696e73756666696369656e742062616c616e636520666f60008201527f72207472616e7366657200000000000000000000000000000000000000000000602082015250565b6000613d14602a83612cbe565b9150613d1f82613cb8565b604082019050919050565b60006020820190508181036000830152613d4381613d07565b9050919050565b60006040820190508181036000830152613d648185613260565b90508181036020830152613d788184613260565b90509392505050565b7f455243313135353a2073657474696e6720617070726f76616c2073746174757360008201527f20666f722073656c660000000000000000000000000000000000000000000000602082015250565b6000613ddd602983612cbe565b9150613de882613d81565b604082019050919050565b60006020820190508181036000830152613e0c81613dd0565b9050919050565b600081519050919050565b600082825260208201905092915050565b6000613e3a82613e13565b613e448185613e1e565b9350613e54818560208601612ccf565b613e5d81612a8f565b840191505092915050565b600060a082019050613e7d60008301886133b4565b613e8a60208301876133b4565b613e9760408301866129a0565b613ea460608301856129a0565b8181036080830152613eb68184613e2f565b90509695505050505050565b600081519050613ed1816129f6565b92915050565b600060208284031215613eed57613eec6128c2565b5b6000613efb84828501613ec2565b91505092915050565b60008160e01c9050919050565b600060033d1115613f305760046000803e613f2d600051613f04565b90505b90565b600060443d10613fc057613f456128b8565b60043d036004823e80513d602482011167ffffffffffffffff82111715613f6d575050613fc0565b808201805167ffffffffffffffff811115613f8b5750505050613fc0565b80602083010160043d038501811115613fa8575050505050613fc0565b613fb782602001850186612acf565b82955050505050505b90565b7f455243313135353a207472616e7366657220746f206e6f6e204552433131353560008201527f526563656976657220696d706c656d656e746572000000000000000000000000602082015250565b600061401f603483612cbe565b915061402a82613fc3565b604082019050919050565b6000602082019050818103600083015261404e81614012565b9050919050565b7f455243313135353a204552433131353552656365697665722072656a6563746560008201527f6420746f6b656e73000000000000000000000000000000000000000000000000602082015250565b60006140b1602883612cbe565b91506140bc82614055565b604082019050919050565b600060208201905081810360008301526140e0816140a4565b9050919050565b600060a0820190506140fc60008301886133b4565b61410960208301876133b4565b818103604083015261411b8186613260565b9050818103606083015261412f8185613260565b905081810360808301526141438184613e2f565b9050969550505050505056fea2646970667358221220a55c51245391d5d68754523478fcb3d8161ab3584ee00880943c9ab188a05f9864736f6c634300080d0033",
  "immutableReferences": {},
  "source": "// SPDX-License-Identifier: MIT\npragma solidity ^0.8.0;\nimport \"../ERC1155/ERC1155.sol\";\nimport \"../ERC1155/utils/ERC1155Holder.sol\";\nimport \"../ERC1155/utils/access/Ownable.sol\";\n\n\n\ncontract TFG is ERC1155, ERC1155Holder, Ownable{\n    address public admin;\n    address public addressC;\n    uint256 public count;\n\n    //ids para los tokens\n    uint256 public constant moneda = 0;\n\n    //estructuras auxiliares\n    string [] public docs;\n    mapping (string => address) _seller;\n    mapping (string => bool) _docExists;\n    mapping (string => uint) _price;\n    mapping (string => address) _property;\n    mapping (string => string) _titles;\n    mapping (string => uint) _ids;\n    mapping (string => string) _descriptions;\n\n    string ipfsHash;\n\n    constructor() ERC1155(\"\") {\n        addressC = address(this);\n        admin = msg.sender;\n        count = 1;\n       _mint(msg.sender, moneda, 100, \"\");\n    }\n\n    function supportsInterface(bytes4 interfaceId)\n        public\n        view\n        virtual\n        override(ERC1155, ERC1155Receiver)\n        returns (bool)\n    {\n        return super.supportsInterface(interfaceId);\n    }\n \n    function sendHash(string memory x, uint precio, string memory titulo, string memory description) public {\n        require(!_docExists[x]);\n        ipfsHash = x;\n        docs.push(x);\n        _ids[x] = count;\n        _price[x] = precio;\n        _property[x] = msg.sender;\n        _titles[x] = titulo;\n        _descriptions[x] = description;\n        bytes memory dataColor = bytes(x);\n        _mint(msg.sender, count, 1, dataColor);\n        count++;\n        _docExists[x] = true;\n    }\n\n    function getHash() public view returns (string memory x) {\n    return ipfsHash;\n    }\n    \n    modifier onlyAdmin() {\n        require(msg.sender == admin, \"only admin can call this\");\n        _;\n    }\n\n    function totalSupply() public view returns (uint256){\n        return docs.length;\n    }\n\n    function getProperty(string memory id) public view returns (address){\n        return _property[id];\n    }\n\n    function update(string memory id, string memory newDescription, uint256 newPrice) public {\n        _descriptions[id] = newDescription;\n        _price[id] = newPrice;\n    }\n\n    function getTitle(string memory id) public view returns(string memory title){\n        return _titles[id];\n    }\n\n    function setTitle(string memory id, string memory newTitle) public {\n        _titles[id] = newTitle;\n    }\n\n    function getPrice(string memory id) public view returns (uint256){\n        return _price[id];\n    }\n\n    function setPrice(string memory id, uint256 newPrice) public {\n        _price[id] = newPrice;\n    }\n\n    function getDescription(string memory id) public view returns (string memory) {\n        return _descriptions[id];\n    }\n\n    function setDescription(string memory id, string memory newDescription) public {\n        _descriptions[id] = newDescription;\n    }\n\n    function funds(address propietario) public view returns (uint256){\n        return balanceOf(propietario, 0);\n    }\n    \n\n    function addFunds() public payable onlyAdmin{\n        _mint(msg.sender, 0, 100, \"\");\n    }\n\n\n    function buy(string memory id) public payable {\n        //Ahora la transaccin de las monedas\n        safeTransferFrom(msg.sender, _seller[id], 0, _price[id], \"\");\n        _safeTransferFrom(_property[id], msg.sender, _ids[id], 1, \"\");\n        _property[id] = msg.sender;\n    }\n\n    function permission(string memory id) public {\n        _seller[id] = _property[id];\n        _property[id] = address(this);\n        safeTransferFrom(msg.sender, _property[id], _ids[id], 1, \"\");\n    }\n\n    function updatePrice(uint newPrice, string memory id) public {\n        _price[id] = newPrice;\n    }\n\n}",
  "sourcePath": "/Users/ignacio/Desktop/TFG1155/src/contracts/TFG.sol",
  "compiler": {
    "name": "solc",
    "version": "0.8.13+commit.abaa5c0e.Emscripten.clang"
  },
  "schemaVersion": "3.4.2",
  "updatedAt": "2022-04-16T18:12:58.683Z",
  "networkType": "ethereum",
  "devdoc": {
    "kind": "dev",
    "methods": {
      "balanceOf(address,uint256)": {
        "details": "See {IERC1155-balanceOf}. Requirements: - `account` cannot be the zero address."
      },
      "balanceOfBatch(address[],uint256[])": {
        "details": "See {IERC1155-balanceOfBatch}. Requirements: - `accounts` and `ids` must have the same length."
      },
      "isApprovedForAll(address,address)": {
        "details": "See {IERC1155-isApprovedForAll}."
      },
      "owner()": {
        "details": "Returns the address of the current owner."
      },
      "renounceOwnership()": {
        "details": "Leaves the contract without owner. It will not be possible to call `onlyOwner` functions anymore. Can only be called by the current owner. NOTE: Renouncing ownership will leave the contract without an owner, thereby removing any functionality that is only available to the owner."
      },
      "safeBatchTransferFrom(address,address,uint256[],uint256[],bytes)": {
        "details": "See {IERC1155-safeBatchTransferFrom}."
      },
      "safeTransferFrom(address,address,uint256,uint256,bytes)": {
        "details": "See {IERC1155-safeTransferFrom}."
      },
      "setApprovalForAll(address,bool)": {
        "details": "See {IERC1155-setApprovalForAll}."
      },
      "transferOwnership(address)": {
        "details": "Transfers ownership of the contract to a new account (`newOwner`). Can only be called by the current owner."
      },
      "uri(uint256)": {
        "details": "See {IERC1155MetadataURI-uri}. This implementation returns the same URI for *all* token types. It relies on the token type ID substitution mechanism https://eips.ethereum.org/EIPS/eip-1155#metadata[defined in the EIP]. Clients calling this function must replace the `\\{id\\}` substring with the actual token type ID."
      }
    },
    "version": 1
  },
  "userdoc": {
    "kind": "user",
    "methods": {},
    "version": 1
  }
}