{
  "contractName": "TFG",
  "abi": [
    {
      "inputs": [],
      "stateMutability": "nonpayable",
      "type": "constructor"
    },
    {
      "anonymous": false,
      "inputs": [
        {
          "indexed": true,
          "internalType": "address",
          "name": "account",
          "type": "address"
        },
        {
          "indexed": true,
          "internalType": "address",
          "name": "operator",
          "type": "address"
        },
        {
          "indexed": false,
          "internalType": "bool",
          "name": "approved",
          "type": "bool"
        }
      ],
      "name": "ApprovalForAll",
      "type": "event"
    },
    {
      "anonymous": false,
      "inputs": [
        {
          "indexed": true,
          "internalType": "address",
          "name": "operator",
          "type": "address"
        },
        {
          "indexed": true,
          "internalType": "address",
          "name": "from",
          "type": "address"
        },
        {
          "indexed": true,
          "internalType": "address",
          "name": "to",
          "type": "address"
        },
        {
          "indexed": false,
          "internalType": "uint256[]",
          "name": "ids",
          "type": "uint256[]"
        },
        {
          "indexed": false,
          "internalType": "uint256[]",
          "name": "values",
          "type": "uint256[]"
        }
      ],
      "name": "TransferBatch",
      "type": "event"
    },
    {
      "anonymous": false,
      "inputs": [
        {
          "indexed": true,
          "internalType": "address",
          "name": "operator",
          "type": "address"
        },
        {
          "indexed": true,
          "internalType": "address",
          "name": "from",
          "type": "address"
        },
        {
          "indexed": true,
          "internalType": "address",
          "name": "to",
          "type": "address"
        },
        {
          "indexed": false,
          "internalType": "uint256",
          "name": "id",
          "type": "uint256"
        },
        {
          "indexed": false,
          "internalType": "uint256",
          "name": "value",
          "type": "uint256"
        }
      ],
      "name": "TransferSingle",
      "type": "event"
    },
    {
      "anonymous": false,
      "inputs": [
        {
          "indexed": false,
          "internalType": "string",
          "name": "value",
          "type": "string"
        },
        {
          "indexed": true,
          "internalType": "uint256",
          "name": "id",
          "type": "uint256"
        }
      ],
      "name": "URI",
      "type": "event"
    },
    {
      "inputs": [],
      "name": "addressC",
      "outputs": [
        {
          "internalType": "address",
          "name": "",
          "type": "address"
        }
      ],
      "stateMutability": "view",
      "type": "function",
      "constant": true
    },
    {
      "inputs": [],
      "name": "admin",
      "outputs": [
        {
          "internalType": "address",
          "name": "",
          "type": "address"
        }
      ],
      "stateMutability": "view",
      "type": "function",
      "constant": true
    },
    {
      "inputs": [
        {
          "internalType": "address",
          "name": "account",
          "type": "address"
        },
        {
          "internalType": "uint256",
          "name": "id",
          "type": "uint256"
        }
      ],
      "name": "balanceOf",
      "outputs": [
        {
          "internalType": "uint256",
          "name": "",
          "type": "uint256"
        }
      ],
      "stateMutability": "view",
      "type": "function",
      "constant": true
    },
    {
      "inputs": [
        {
          "internalType": "address[]",
          "name": "accounts",
          "type": "address[]"
        },
        {
          "internalType": "uint256[]",
          "name": "ids",
          "type": "uint256[]"
        }
      ],
      "name": "balanceOfBatch",
      "outputs": [
        {
          "internalType": "uint256[]",
          "name": "",
          "type": "uint256[]"
        }
      ],
      "stateMutability": "view",
      "type": "function",
      "constant": true
    },
    {
      "inputs": [
        {
          "internalType": "uint256",
          "name": "",
          "type": "uint256"
        }
      ],
      "name": "colors",
      "outputs": [
        {
          "internalType": "string",
          "name": "",
          "type": "string"
        }
      ],
      "stateMutability": "view",
      "type": "function",
      "constant": true
    },
    {
      "inputs": [],
      "name": "count",
      "outputs": [
        {
          "internalType": "uint256",
          "name": "",
          "type": "uint256"
        }
      ],
      "stateMutability": "view",
      "type": "function",
      "constant": true
    },
    {
      "inputs": [
        {
          "internalType": "address",
          "name": "account",
          "type": "address"
        },
        {
          "internalType": "address",
          "name": "operator",
          "type": "address"
        }
      ],
      "name": "isApprovedForAll",
      "outputs": [
        {
          "internalType": "bool",
          "name": "",
          "type": "bool"
        }
      ],
      "stateMutability": "view",
      "type": "function",
      "constant": true
    },
    {
      "inputs": [],
      "name": "moneda",
      "outputs": [
        {
          "internalType": "uint256",
          "name": "",
          "type": "uint256"
        }
      ],
      "stateMutability": "view",
      "type": "function",
      "constant": true
    },
    {
      "inputs": [
        {
          "internalType": "address",
          "name": "from",
          "type": "address"
        },
        {
          "internalType": "address",
          "name": "to",
          "type": "address"
        },
        {
          "internalType": "uint256[]",
          "name": "ids",
          "type": "uint256[]"
        },
        {
          "internalType": "uint256[]",
          "name": "amounts",
          "type": "uint256[]"
        },
        {
          "internalType": "bytes",
          "name": "data",
          "type": "bytes"
        }
      ],
      "name": "safeBatchTransferFrom",
      "outputs": [],
      "stateMutability": "nonpayable",
      "type": "function"
    },
    {
      "inputs": [
        {
          "internalType": "address",
          "name": "from",
          "type": "address"
        },
        {
          "internalType": "address",
          "name": "to",
          "type": "address"
        },
        {
          "internalType": "uint256",
          "name": "id",
          "type": "uint256"
        },
        {
          "internalType": "uint256",
          "name": "amount",
          "type": "uint256"
        },
        {
          "internalType": "bytes",
          "name": "data",
          "type": "bytes"
        }
      ],
      "name": "safeTransferFrom",
      "outputs": [],
      "stateMutability": "nonpayable",
      "type": "function"
    },
    {
      "inputs": [
        {
          "internalType": "address",
          "name": "operator",
          "type": "address"
        },
        {
          "internalType": "bool",
          "name": "approved",
          "type": "bool"
        }
      ],
      "name": "setApprovalForAll",
      "outputs": [],
      "stateMutability": "nonpayable",
      "type": "function"
    },
    {
      "inputs": [
        {
          "internalType": "bytes4",
          "name": "interfaceId",
          "type": "bytes4"
        }
      ],
      "name": "supportsInterface",
      "outputs": [
        {
          "internalType": "bool",
          "name": "",
          "type": "bool"
        }
      ],
      "stateMutability": "view",
      "type": "function",
      "constant": true
    },
    {
      "inputs": [
        {
          "internalType": "uint256",
          "name": "",
          "type": "uint256"
        }
      ],
      "name": "uri",
      "outputs": [
        {
          "internalType": "string",
          "name": "",
          "type": "string"
        }
      ],
      "stateMutability": "view",
      "type": "function",
      "constant": true
    },
    {
      "inputs": [
        {
          "internalType": "string",
          "name": "_color",
          "type": "string"
        },
        {
          "internalType": "uint256",
          "name": "precio",
          "type": "uint256"
        }
      ],
      "name": "nuevoColor",
      "outputs": [],
      "stateMutability": "nonpayable",
      "type": "function"
    },
    {
      "inputs": [],
      "name": "totalSupply",
      "outputs": [
        {
          "internalType": "uint256",
          "name": "",
          "type": "uint256"
        }
      ],
      "stateMutability": "view",
      "type": "function",
      "constant": true
    },
    {
      "inputs": [
        {
          "internalType": "uint256",
          "name": "id",
          "type": "uint256"
        }
      ],
      "name": "property",
      "outputs": [
        {
          "internalType": "address",
          "name": "",
          "type": "address"
        }
      ],
      "stateMutability": "view",
      "type": "function",
      "constant": true
    },
    {
      "inputs": [
        {
          "internalType": "address",
          "name": "propietario",
          "type": "address"
        }
      ],
      "name": "funds",
      "outputs": [
        {
          "internalType": "uint256",
          "name": "",
          "type": "uint256"
        }
      ],
      "stateMutability": "view",
      "type": "function",
      "constant": true
    },
    {
      "inputs": [],
      "name": "addFunds",
      "outputs": [],
      "stateMutability": "payable",
      "type": "function",
      "payable": true
    },
    {
      "inputs": [
        {
          "internalType": "uint256",
          "name": "tokenId",
          "type": "uint256"
        }
      ],
      "name": "buy",
      "outputs": [],
      "stateMutability": "payable",
      "type": "function",
      "payable": true
    },
    {
      "inputs": [
        {
          "internalType": "string",
          "name": "a",
          "type": "string"
        },
        {
          "internalType": "string",
          "name": "b",
          "type": "string"
        }
      ],
      "name": "compareStrings",
      "outputs": [
        {
          "internalType": "bool",
          "name": "",
          "type": "bool"
        }
      ],
      "stateMutability": "pure",
      "type": "function",
      "constant": true
    },
    {
      "inputs": [],
      "name": "permission",
      "outputs": [],
      "stateMutability": "nonpayable",
      "type": "function"
    }
  ],
  "bytecode": "0x60806040523480156200001157600080fd5b50604051806020016040528060008152506200003381620000e960201b60201c565b5030600460006101000a81548173ffffffffffffffffffffffffffffffffffffffff021916908373ffffffffffffffffffffffffffffffffffffffff16021790555033600360006101000a81548173ffffffffffffffffffffffffffffffffffffffff021916908373ffffffffffffffffffffffffffffffffffffffff1602179055506001600581905550620000e33360006064604051806020016040528060008152506200010560201b60201c565b62000cf3565b80600290805190602001906200010192919062000576565b5050565b600073ffffffffffffffffffffffffffffffffffffffff168473ffffffffffffffffffffffffffffffffffffffff160362000177576040517f08c379a00000000000000000000000000000000000000000000000000000000081526004016200016e90620006ad565b60405180910390fd5b600062000189620002c960201b60201c565b9050620001c281600087620001a488620002d160201b60201c565b620001b588620002d160201b60201c565b876200035260201b60201c565b8260008086815260200190815260200160002060008773ffffffffffffffffffffffffffffffffffffffff1673ffffffffffffffffffffffffffffffffffffffff168152602001908152602001600020600082825462000223919062000708565b925050819055508473ffffffffffffffffffffffffffffffffffffffff16600073ffffffffffffffffffffffffffffffffffffffff168273ffffffffffffffffffffffffffffffffffffffff167fc3d58168c5ae7397731d063d5bbf3d657854427343f4c083240f7aacaa2d0f628787604051620002a392919062000776565b60405180910390a4620002c2816000878787876200035a60201b60201c565b5050505050565b600033905090565b60606000600167ffffffffffffffff811115620002f357620002f2620007a3565b5b604051908082528060200260200182016040528015620003225781602001602082028036833780820191505090505b50905082816000815181106200033d576200033c620007d2565b5b60200260200101818152505080915050919050565b505050505050565b620003868473ffffffffffffffffffffffffffffffffffffffff166200055360201b62000f141760201c565b156200054b578373ffffffffffffffffffffffffffffffffffffffff1663f23a6e6187878686866040518663ffffffff1660e01b8152600401620003cf959493929190620008ea565b6020604051808303816000875af19250505080156200040e57506040513d601f19601f820116820180604052508101906200040b9190620009ba565b60015b620004bf576200041d620009f9565b806308c379a0036200048057506200043462000a54565b8062000441575062000482565b806040517f08c379a000000000000000000000000000000000000000000000000000000000815260040162000477919062000b3b565b60405180910390fd5b505b6040517f08c379a0000000000000000000000000000000000000000000000000000000008152600401620004b69062000bd5565b60405180910390fd5b63f23a6e6160e01b7bffffffffffffffffffffffffffffffffffffffffffffffffffffffff1916817bffffffffffffffffffffffffffffffffffffffffffffffffffffffff19161462000549576040517f08c379a0000000000000000000000000000000000000000000000000000000008152600401620005409062000c6d565b60405180910390fd5b505b505050505050565b6000808273ffffffffffffffffffffffffffffffffffffffff163b119050919050565b828054620005849062000cbe565b90600052602060002090601f016020900481019282620005a85760008555620005f4565b82601f10620005c357805160ff1916838001178555620005f4565b82800160010185558215620005f4579182015b82811115620005f3578251825591602001919060010190620005d6565b5b50905062000603919062000607565b5090565b5b808211156200062257600081600090555060010162000608565b5090565b600082825260208201905092915050565b7f455243313135353a206d696e7420746f20746865207a65726f2061646472657360008201527f7300000000000000000000000000000000000000000000000000000000000000602082015250565b60006200069560218362000626565b9150620006a28262000637565b604082019050919050565b60006020820190508181036000830152620006c88162000686565b9050919050565b6000819050919050565b7f4e487b7100000000000000000000000000000000000000000000000000000000600052601160045260246000fd5b60006200071582620006cf565b91506200072283620006cf565b9250827fffffffffffffffffffffffffffffffffffffffffffffffffffffffffffffffff038211156200075a5762000759620006d9565b5b828201905092915050565b6200077081620006cf565b82525050565b60006040820190506200078d600083018562000765565b6200079c602083018462000765565b9392505050565b7f4e487b7100000000000000000000000000000000000000000000000000000000600052604160045260246000fd5b7f4e487b7100000000000000000000000000000000000000000000000000000000600052603260045260246000fd5b600073ffffffffffffffffffffffffffffffffffffffff82169050919050565b60006200082e8262000801565b9050919050565b620008408162000821565b82525050565b600081519050919050565b600082825260208201905092915050565b60005b838110156200088257808201518184015260208101905062000865565b8381111562000892576000848401525b50505050565b6000601f19601f8301169050919050565b6000620008b68262000846565b620008c2818562000851565b9350620008d481856020860162000862565b620008df8162000898565b840191505092915050565b600060a08201905062000901600083018862000835565b62000910602083018762000835565b6200091f604083018662000765565b6200092e606083018562000765565b8181036080830152620009428184620008a9565b90509695505050505050565b6000604051905090565b600080fd5b60007fffffffff0000000000000000000000000000000000000000000000000000000082169050919050565b62000994816200095d565b8114620009a057600080fd5b50565b600081519050620009b48162000989565b92915050565b600060208284031215620009d357620009d262000958565b5b6000620009e384828501620009a3565b91505092915050565b60008160e01c9050919050565b600060033d111562000a1b5760046000803e62000a18600051620009ec565b90505b90565b62000a298262000898565b810181811067ffffffffffffffff8211171562000a4b5762000a4a620007a3565b5b80604052505050565b600060443d1062000aec5762000a696200094e565b60043d036004823e80513d602482011167ffffffffffffffff8211171562000a9357505062000aec565b808201805167ffffffffffffffff81111562000ab3575050505062000aec565b80602083010160043d03850181111562000ad257505050505062000aec565b62000ae38260200185018662000a1e565b82955050505050505b90565b600081519050919050565b600062000b078262000aef565b62000b13818562000626565b935062000b2581856020860162000862565b62000b308162000898565b840191505092915050565b6000602082019050818103600083015262000b57818462000afa565b905092915050565b7f455243313135353a207472616e7366657220746f206e6f6e204552433131353560008201527f526563656976657220696d706c656d656e746572000000000000000000000000602082015250565b600062000bbd60348362000626565b915062000bca8262000b5f565b604082019050919050565b6000602082019050818103600083015262000bf08162000bae565b9050919050565b7f455243313135353a204552433131353552656365697665722072656a6563746560008201527f6420746f6b656e73000000000000000000000000000000000000000000000000602082015250565b600062000c5560288362000626565b915062000c628262000bf7565b604082019050919050565b6000602082019050818103600083015262000c888162000c46565b9050919050565b7f4e487b7100000000000000000000000000000000000000000000000000000000600052602260045260246000fd5b6000600282049050600182168062000cd757607f821691505b60208210810362000ced5762000cec62000c8f565b5b50919050565b6132cb8062000d036000396000f3fe6080604052600436106101295760003560e01c8063b54bbdc7116100ab578063e2ae93fb1161006f578063e2ae93fb146103fb578063e985e9c514610438578063f1cc126814610475578063f242432a146104a0578063f3b0c8b7146104c9578063f851a440146104e057610129565b8063b54bbdc714610311578063bd11f69d1461033a578063bed34bba14610377578063c79fc609146103b4578063d96a094a146103df57610129565b80632eb2c2d6116100f25780632eb2c2d61461023b57806330e1ad32146102645780634e1273f4146102a1578063a22cb465146102de578063a26759cb1461030757610129565b8062fdd58e1461012e57806301ffc9a71461016b57806306661abd146101a85780630e89341c146101d357806318160ddd14610210575b600080fd5b34801561013a57600080fd5b5061015560048036038101906101509190611db9565b61050b565b6040516101629190611e08565b60405180910390f35b34801561017757600080fd5b50610192600480360381019061018d9190611e7b565b6105d3565b60405161019f9190611ec3565b60405180910390f35b3480156101b457600080fd5b506101bd6106b5565b6040516101ca9190611e08565b60405180910390f35b3480156101df57600080fd5b506101fa60048036038101906101f59190611ede565b6106bb565b6040516102079190611fa4565b60405180910390f35b34801561021c57600080fd5b5061022561074f565b6040516102329190611e08565b60405180910390f35b34801561024757600080fd5b50610262600480360381019061025d91906121c3565b61075c565b005b34801561027057600080fd5b5061028b60048036038101906102869190611ede565b6107fd565b60405161029891906122a1565b60405180910390f35b3480156102ad57600080fd5b506102c860048036038101906102c3919061237f565b61083a565b6040516102d591906124b5565b60405180910390f35b3480156102ea57600080fd5b5061030560048036038101906103009190612503565b610953565b005b61030f610969565b005b34801561031d57600080fd5b50610338600480360381019061033391906125e4565b610a18565b005b34801561034657600080fd5b50610361600480360381019061035c9190611ede565b610b60565b60405161036e9190611fa4565b60405180910390f35b34801561038357600080fd5b5061039e60048036038101906103999190612640565b610c0c565b6040516103ab9190611ec3565b60405180910390f35b3480156103c057600080fd5b506103c9610c65565b6040516103d691906122a1565b60405180910390f35b6103f960048036038101906103f49190611ede565b610c8b565b005b34801561040757600080fd5b50610422600480360381019061041d91906126b8565b610d71565b60405161042f9190611e08565b60405180910390f35b34801561044457600080fd5b5061045f600480360381019061045a91906126e5565b610d85565b60405161046c9190611ec3565b60405180910390f35b34801561048157600080fd5b5061048a610e19565b6040516104979190611e08565b60405180910390f35b3480156104ac57600080fd5b506104c760048036038101906104c29190612725565b610e1e565b005b3480156104d557600080fd5b506104de610ebf565b005b3480156104ec57600080fd5b506104f5610eee565b60405161050291906122a1565b60405180910390f35b60008073ffffffffffffffffffffffffffffffffffffffff168373ffffffffffffffffffffffffffffffffffffffff160361057b576040517f08c379a00000000000000000000000000000000000000000000000000000000081526004016105729061282e565b60405180910390fd5b60008083815260200190815260200160002060008473ffffffffffffffffffffffffffffffffffffffff1673ffffffffffffffffffffffffffffffffffffffff16815260200190815260200160002054905092915050565b60007fd9b67a26000000000000000000000000000000000000000000000000000000007bffffffffffffffffffffffffffffffffffffffffffffffffffffffff1916827bffffffffffffffffffffffffffffffffffffffffffffffffffffffff1916148061069e57507f0e89341c000000000000000000000000000000000000000000000000000000007bffffffffffffffffffffffffffffffffffffffffffffffffffffffff1916827bffffffffffffffffffffffffffffffffffffffffffffffffffffffff1916145b806106ae57506106ad82610f37565b5b9050919050565b60055481565b6060600280546106ca9061287d565b80601f01602080910402602001604051908101604052809291908181526020018280546106f69061287d565b80156107435780601f1061071857610100808354040283529160200191610743565b820191906000526020600020905b81548152906001019060200180831161072657829003601f168201915b50505050509050919050565b6000600680549050905090565b610764610fa1565b73ffffffffffffffffffffffffffffffffffffffff168573ffffffffffffffffffffffffffffffffffffffff1614806107aa57506107a9856107a4610fa1565b610d85565b5b6107e9576040517f08c379a00000000000000000000000000000000000000000000000000000000081526004016107e090612920565b60405180910390fd5b6107f68585858585610fa9565b5050505050565b60006009600083815260200190815260200160002060009054906101000a900473ffffffffffffffffffffffffffffffffffffffff169050919050565b60608151835114610880576040517f08c379a0000000000000000000000000000000000000000000000000000000008152600401610877906129b2565b60405180910390fd5b6000835167ffffffffffffffff81111561089d5761089c611fcb565b5b6040519080825280602002602001820160405280156108cb5781602001602082028036833780820191505090505b50905060005b8451811015610948576109188582815181106108f0576108ef6129d2565b5b602002602001015185838151811061090b5761090a6129d2565b5b602002602001015161050b565b82828151811061092b5761092a6129d2565b5b6020026020010181815250508061094190612a30565b90506108d1565b508091505092915050565b61096561095e610fa1565b83836112bc565b5050565b600360009054906101000a900473ffffffffffffffffffffffffffffffffffffffff1673ffffffffffffffffffffffffffffffffffffffff163373ffffffffffffffffffffffffffffffffffffffff16146109f9576040517f08c379a00000000000000000000000000000000000000000000000000000000081526004016109f090612ac4565b60405180910390fd5b610a16336000606460405180602001604052806000815250611428565b565b600782604051610a289190612b20565b908152602001604051809103902060009054906101000a900460ff1615610a4e57600080fd5b600682908060018154018082558091505060019003906000526020600020016000909190919091509080519060200190610a89929190611c6e565b5080600860006005548152602001908152602001600020819055503360096000600554815260200190815260200160002060006101000a81548173ffffffffffffffffffffffffffffffffffffffff021916908373ffffffffffffffffffffffffffffffffffffffff1602179055506000829050610b0c33600554600184611428565b60056000815480929190610b1f90612a30565b91905055506001600784604051610b369190612b20565b908152602001604051809103902060006101000a81548160ff021916908315150217905550505050565b60068181548110610b7057600080fd5b906000526020600020016000915090508054610b8b9061287d565b80601f0160208091040260200160405190810160405280929190818152602001828054610bb79061287d565b8015610c045780601f10610bd957610100808354040283529160200191610c04565b820191906000526020600020905b815481529060010190602001808311610be757829003601f168201915b505050505081565b600081604051602001610c1f9190612b20565b6040516020818303038152906040528051906020012083604051602001610c469190612b20565b6040516020818303038152906040528051906020012014905092915050565b600460009054906101000a900473ffffffffffffffffffffffffffffffffffffffff1681565b610d063360096000600185610ca09190612b37565b815260200190815260200160002060009054906101000a900473ffffffffffffffffffffffffffffffffffffffff16600060086000600187610ce29190612b37565b81526020019081526020016000205460405180602001604052806000815250610e1e565b610d6e60096000600184610d1a9190612b37565b815260200190815260200160002060009054906101000a900473ffffffffffffffffffffffffffffffffffffffff1633600184610d579190612b37565b600160405180602001604052806000815250610e1e565b50565b6000610d7e82600061050b565b9050919050565b6000600160008473ffffffffffffffffffffffffffffffffffffffff1673ffffffffffffffffffffffffffffffffffffffff16815260200190815260200160002060008373ffffffffffffffffffffffffffffffffffffffff1673ffffffffffffffffffffffffffffffffffffffff16815260200190815260200160002060009054906101000a900460ff16905092915050565b600081565b610e26610fa1565b73ffffffffffffffffffffffffffffffffffffffff168573ffffffffffffffffffffffffffffffffffffffff161480610e6c5750610e6b85610e66610fa1565b610d85565b5b610eab576040517f08c379a0000000000000000000000000000000000000000000000000000000008152600401610ea290612bff565b60405180910390fd5b610eb885858585856115bd565b5050505050565b610eec600460009054906101000a900473ffffffffffffffffffffffffffffffffffffffff166001610953565b565b600360009054906101000a900473ffffffffffffffffffffffffffffffffffffffff1681565b6000808273ffffffffffffffffffffffffffffffffffffffff163b119050919050565b60007f01ffc9a7000000000000000000000000000000000000000000000000000000007bffffffffffffffffffffffffffffffffffffffffffffffffffffffff1916827bffffffffffffffffffffffffffffffffffffffffffffffffffffffff1916149050919050565b600033905090565b8151835114610fed576040517f08c379a0000000000000000000000000000000000000000000000000000000008152600401610fe490612c91565b60405180910390fd5b600073ffffffffffffffffffffffffffffffffffffffff168473ffffffffffffffffffffffffffffffffffffffff160361105c576040517f08c379a000000000000000000000000000000000000000000000000000000000815260040161105390612d23565b60405180910390fd5b6000611066610fa1565b905061107681878787878761183e565b60005b8451811015611227576000858281518110611097576110966129d2565b5b6020026020010151905060008583815181106110b6576110b56129d2565b5b60200260200101519050600080600084815260200190815260200160002060008b73ffffffffffffffffffffffffffffffffffffffff1673ffffffffffffffffffffffffffffffffffffffff16815260200190815260200160002054905081811015611157576040517f08c379a000000000000000000000000000000000000000000000000000000000815260040161114e90612db5565b60405180910390fd5b81810360008085815260200190815260200160002060008c73ffffffffffffffffffffffffffffffffffffffff1673ffffffffffffffffffffffffffffffffffffffff168152602001908152602001600020819055508160008085815260200190815260200160002060008b73ffffffffffffffffffffffffffffffffffffffff1673ffffffffffffffffffffffffffffffffffffffff168152602001908152602001600020600082825461120c9190612b37565b925050819055505050508061122090612a30565b9050611079565b508473ffffffffffffffffffffffffffffffffffffffff168673ffffffffffffffffffffffffffffffffffffffff168273ffffffffffffffffffffffffffffffffffffffff167f4a39dc06d4c0dbc64b70af90fd698a233a518aa5d07e595d983b8c0526c8f7fb878760405161129e929190612dd5565b60405180910390a46112b4818787878787611846565b505050505050565b8173ffffffffffffffffffffffffffffffffffffffff168373ffffffffffffffffffffffffffffffffffffffff160361132a576040517f08c379a000000000000000000000000000000000000000000000000000000000815260040161132190612e7e565b60405180910390fd5b80600160008573ffffffffffffffffffffffffffffffffffffffff1673ffffffffffffffffffffffffffffffffffffffff16815260200190815260200160002060008473ffffffffffffffffffffffffffffffffffffffff1673ffffffffffffffffffffffffffffffffffffffff16815260200190815260200160002060006101000a81548160ff0219169083151502179055508173ffffffffffffffffffffffffffffffffffffffff168373ffffffffffffffffffffffffffffffffffffffff167f17307eab39ab6107e8899845ad3d59bd9653f200f220920489ca2b5937696c318360405161141b9190611ec3565b60405180910390a3505050565b600073ffffffffffffffffffffffffffffffffffffffff168473ffffffffffffffffffffffffffffffffffffffff1603611497576040517f08c379a000000000000000000000000000000000000000000000000000000000815260040161148e90612f10565b60405180910390fd5b60006114a1610fa1565b90506114c2816000876114b388611a1d565b6114bc88611a1d565b8761183e565b8260008086815260200190815260200160002060008773ffffffffffffffffffffffffffffffffffffffff1673ffffffffffffffffffffffffffffffffffffffff16815260200190815260200160002060008282546115219190612b37565b925050819055508473ffffffffffffffffffffffffffffffffffffffff16600073ffffffffffffffffffffffffffffffffffffffff168273ffffffffffffffffffffffffffffffffffffffff167fc3d58168c5ae7397731d063d5bbf3d657854427343f4c083240f7aacaa2d0f62878760405161159f929190612f30565b60405180910390a46115b681600087878787611a97565b5050505050565b600073ffffffffffffffffffffffffffffffffffffffff168473ffffffffffffffffffffffffffffffffffffffff160361162c576040517f08c379a000000000000000000000000000000000000000000000000000000000815260040161162390612d23565b60405180910390fd5b6000611636610fa1565b905061165681878761164788611a1d565b61165088611a1d565b8761183e565b600080600086815260200190815260200160002060008873ffffffffffffffffffffffffffffffffffffffff1673ffffffffffffffffffffffffffffffffffffffff168152602001908152602001600020549050838110156116ed576040517f08c379a00000000000000000000000000000000000000000000000000000000081526004016116e490612db5565b60405180910390fd5b83810360008087815260200190815260200160002060008973ffffffffffffffffffffffffffffffffffffffff1673ffffffffffffffffffffffffffffffffffffffff168152602001908152602001600020819055508360008087815260200190815260200160002060008873ffffffffffffffffffffffffffffffffffffffff1673ffffffffffffffffffffffffffffffffffffffff16815260200190815260200160002060008282546117a29190612b37565b925050819055508573ffffffffffffffffffffffffffffffffffffffff168773ffffffffffffffffffffffffffffffffffffffff168373ffffffffffffffffffffffffffffffffffffffff167fc3d58168c5ae7397731d063d5bbf3d657854427343f4c083240f7aacaa2d0f62888860405161181f929190612f30565b60405180910390a4611835828888888888611a97565b50505050505050565b505050505050565b6118658473ffffffffffffffffffffffffffffffffffffffff16610f14565b15611a15578373ffffffffffffffffffffffffffffffffffffffff1663bc197c8187878686866040518663ffffffff1660e01b81526004016118ab959493929190612fae565b6020604051808303816000875af19250505080156118e757506040513d601f19601f820116820180604052508101906118e4919061302b565b60015b61198c576118f3613065565b806308c379a00361194f5750611907613087565b806119125750611951565b806040517f08c379a00000000000000000000000000000000000000000000000000000000081526004016119469190611fa4565b60405180910390fd5b505b6040517f08c379a000000000000000000000000000000000000000000000000000000000815260040161198390613189565b60405180910390fd5b63bc197c8160e01b7bffffffffffffffffffffffffffffffffffffffffffffffffffffffff1916817bffffffffffffffffffffffffffffffffffffffffffffffffffffffff191614611a13576040517f08c379a0000000000000000000000000000000000000000000000000000000008152600401611a0a9061321b565b60405180910390fd5b505b505050505050565b60606000600167ffffffffffffffff811115611a3c57611a3b611fcb565b5b604051908082528060200260200182016040528015611a6a5781602001602082028036833780820191505090505b5090508281600081518110611a8257611a816129d2565b5b60200260200101818152505080915050919050565b611ab68473ffffffffffffffffffffffffffffffffffffffff16610f14565b15611c66578373ffffffffffffffffffffffffffffffffffffffff1663f23a6e6187878686866040518663ffffffff1660e01b8152600401611afc95949392919061323b565b6020604051808303816000875af1925050508015611b3857506040513d601f19601f82011682018060405250810190611b35919061302b565b60015b611bdd57611b44613065565b806308c379a003611ba05750611b58613087565b80611b635750611ba2565b806040517f08c379a0000000000000000000000000000000000000000000000000000000008152600401611b979190611fa4565b60405180910390fd5b505b6040517f08c379a0000000000000000000000000000000000000000000000000000000008152600401611bd490613189565b60405180910390fd5b63f23a6e6160e01b7bffffffffffffffffffffffffffffffffffffffffffffffffffffffff1916817bffffffffffffffffffffffffffffffffffffffffffffffffffffffff191614611c64576040517f08c379a0000000000000000000000000000000000000000000000000000000008152600401611c5b9061321b565b60405180910390fd5b505b505050505050565b828054611c7a9061287d565b90600052602060002090601f016020900481019282611c9c5760008555611ce3565b82601f10611cb557805160ff1916838001178555611ce3565b82800160010185558215611ce3579182015b82811115611ce2578251825591602001919060010190611cc7565b5b509050611cf09190611cf4565b5090565b5b80821115611d0d576000816000905550600101611cf5565b5090565b6000604051905090565b600080fd5b600080fd5b600073ffffffffffffffffffffffffffffffffffffffff82169050919050565b6000611d5082611d25565b9050919050565b611d6081611d45565b8114611d6b57600080fd5b50565b600081359050611d7d81611d57565b92915050565b6000819050919050565b611d9681611d83565b8114611da157600080fd5b50565b600081359050611db381611d8d565b92915050565b60008060408385031215611dd057611dcf611d1b565b5b6000611dde85828601611d6e565b9250506020611def85828601611da4565b9150509250929050565b611e0281611d83565b82525050565b6000602082019050611e1d6000830184611df9565b92915050565b60007fffffffff0000000000000000000000000000000000000000000000000000000082169050919050565b611e5881611e23565b8114611e6357600080fd5b50565b600081359050611e7581611e4f565b92915050565b600060208284031215611e9157611e90611d1b565b5b6000611e9f84828501611e66565b91505092915050565b60008115159050919050565b611ebd81611ea8565b82525050565b6000602082019050611ed86000830184611eb4565b92915050565b600060208284031215611ef457611ef3611d1b565b5b6000611f0284828501611da4565b91505092915050565b600081519050919050565b600082825260208201905092915050565b60005b83811015611f45578082015181840152602081019050611f2a565b83811115611f54576000848401525b50505050565b6000601f19601f8301169050919050565b6000611f7682611f0b565b611f808185611f16565b9350611f90818560208601611f27565b611f9981611f5a565b840191505092915050565b60006020820190508181036000830152611fbe8184611f6b565b905092915050565b600080fd5b7f4e487b7100000000000000000000000000000000000000000000000000000000600052604160045260246000fd5b61200382611f5a565b810181811067ffffffffffffffff8211171561202257612021611fcb565b5b80604052505050565b6000612035611d11565b90506120418282611ffa565b919050565b600067ffffffffffffffff82111561206157612060611fcb565b5b602082029050602081019050919050565b600080fd5b600061208a61208584612046565b61202b565b905080838252602082019050602084028301858111156120ad576120ac612072565b5b835b818110156120d657806120c28882611da4565b8452602084019350506020810190506120af565b5050509392505050565b600082601f8301126120f5576120f4611fc6565b5b8135612105848260208601612077565b91505092915050565b600080fd5b600067ffffffffffffffff82111561212e5761212d611fcb565b5b61213782611f5a565b9050602081019050919050565b82818337600083830152505050565b600061216661216184612113565b61202b565b9050828152602081018484840111156121825761218161210e565b5b61218d848285612144565b509392505050565b600082601f8301126121aa576121a9611fc6565b5b81356121ba848260208601612153565b91505092915050565b600080600080600060a086880312156121df576121de611d1b565b5b60006121ed88828901611d6e565b95505060206121fe88828901611d6e565b945050604086013567ffffffffffffffff81111561221f5761221e611d20565b5b61222b888289016120e0565b935050606086013567ffffffffffffffff81111561224c5761224b611d20565b5b612258888289016120e0565b925050608086013567ffffffffffffffff81111561227957612278611d20565b5b61228588828901612195565b9150509295509295909350565b61229b81611d45565b82525050565b60006020820190506122b66000830184612292565b92915050565b600067ffffffffffffffff8211156122d7576122d6611fcb565b5b602082029050602081019050919050565b60006122fb6122f6846122bc565b61202b565b9050808382526020820190506020840283018581111561231e5761231d612072565b5b835b8181101561234757806123338882611d6e565b845260208401935050602081019050612320565b5050509392505050565b600082601f83011261236657612365611fc6565b5b81356123768482602086016122e8565b91505092915050565b6000806040838503121561239657612395611d1b565b5b600083013567ffffffffffffffff8111156123b4576123b3611d20565b5b6123c085828601612351565b925050602083013567ffffffffffffffff8111156123e1576123e0611d20565b5b6123ed858286016120e0565b9150509250929050565b600081519050919050565b600082825260208201905092915050565b6000819050602082019050919050565b61242c81611d83565b82525050565b600061243e8383612423565b60208301905092915050565b6000602082019050919050565b6000612462826123f7565b61246c8185612402565b935061247783612413565b8060005b838110156124a857815161248f8882612432565b975061249a8361244a565b92505060018101905061247b565b5085935050505092915050565b600060208201905081810360008301526124cf8184612457565b905092915050565b6124e081611ea8565b81146124eb57600080fd5b50565b6000813590506124fd816124d7565b92915050565b6000806040838503121561251a57612519611d1b565b5b600061252885828601611d6e565b9250506020612539858286016124ee565b9150509250929050565b600067ffffffffffffffff82111561255e5761255d611fcb565b5b61256782611f5a565b9050602081019050919050565b600061258761258284612543565b61202b565b9050828152602081018484840111156125a3576125a261210e565b5b6125ae848285612144565b509392505050565b600082601f8301126125cb576125ca611fc6565b5b81356125db848260208601612574565b91505092915050565b600080604083850312156125fb576125fa611d1b565b5b600083013567ffffffffffffffff81111561261957612618611d20565b5b612625858286016125b6565b925050602061263685828601611da4565b9150509250929050565b6000806040838503121561265757612656611d1b565b5b600083013567ffffffffffffffff81111561267557612674611d20565b5b612681858286016125b6565b925050602083013567ffffffffffffffff8111156126a2576126a1611d20565b5b6126ae858286016125b6565b9150509250929050565b6000602082840312156126ce576126cd611d1b565b5b60006126dc84828501611d6e565b91505092915050565b600080604083850312156126fc576126fb611d1b565b5b600061270a85828601611d6e565b925050602061271b85828601611d6e565b9150509250929050565b600080600080600060a0868803121561274157612740611d1b565b5b600061274f88828901611d6e565b955050602061276088828901611d6e565b945050604061277188828901611da4565b935050606061278288828901611da4565b925050608086013567ffffffffffffffff8111156127a3576127a2611d20565b5b6127af88828901612195565b9150509295509295909350565b7f455243313135353a2062616c616e636520717565727920666f7220746865207a60008201527f65726f2061646472657373000000000000000000000000000000000000000000602082015250565b6000612818602b83611f16565b9150612823826127bc565b604082019050919050565b600060208201905081810360008301526128478161280b565b9050919050565b7f4e487b7100000000000000000000000000000000000000000000000000000000600052602260045260246000fd5b6000600282049050600182168061289557607f821691505b6020821081036128a8576128a761284e565b5b50919050565b7f455243313135353a207472616e736665722063616c6c6572206973206e6f742060008201527f6f776e6572206e6f7220617070726f7665640000000000000000000000000000602082015250565b600061290a603283611f16565b9150612915826128ae565b604082019050919050565b60006020820190508181036000830152612939816128fd565b9050919050565b7f455243313135353a206163636f756e747320616e6420696473206c656e67746860008201527f206d69736d617463680000000000000000000000000000000000000000000000602082015250565b600061299c602983611f16565b91506129a782612940565b604082019050919050565b600060208201905081810360008301526129cb8161298f565b9050919050565b7f4e487b7100000000000000000000000000000000000000000000000000000000600052603260045260246000fd5b7f4e487b7100000000000000000000000000000000000000000000000000000000600052601160045260246000fd5b6000612a3b82611d83565b91507fffffffffffffffffffffffffffffffffffffffffffffffffffffffffffffffff8203612a6d57612a6c612a01565b5b600182019050919050565b7f6f6e6c792061646d696e2063616e2063616c6c20746869730000000000000000600082015250565b6000612aae601883611f16565b9150612ab982612a78565b602082019050919050565b60006020820190508181036000830152612add81612aa1565b9050919050565b600081905092915050565b6000612afa82611f0b565b612b048185612ae4565b9350612b14818560208601611f27565b80840191505092915050565b6000612b2c8284612aef565b915081905092915050565b6000612b4282611d83565b9150612b4d83611d83565b9250827fffffffffffffffffffffffffffffffffffffffffffffffffffffffffffffffff03821115612b8257612b81612a01565b5b828201905092915050565b7f455243313135353a2063616c6c6572206973206e6f74206f776e6572206e6f7260008201527f20617070726f7665640000000000000000000000000000000000000000000000602082015250565b6000612be9602983611f16565b9150612bf482612b8d565b604082019050919050565b60006020820190508181036000830152612c1881612bdc565b9050919050565b7f455243313135353a2069647320616e6420616d6f756e7473206c656e6774682060008201527f6d69736d61746368000000000000000000000000000000000000000000000000602082015250565b6000612c7b602883611f16565b9150612c8682612c1f565b604082019050919050565b60006020820190508181036000830152612caa81612c6e565b9050919050565b7f455243313135353a207472616e7366657220746f20746865207a65726f20616460008201527f6472657373000000000000000000000000000000000000000000000000000000602082015250565b6000612d0d602583611f16565b9150612d1882612cb1565b604082019050919050565b60006020820190508181036000830152612d3c81612d00565b9050919050565b7f455243313135353a20696e73756666696369656e742062616c616e636520666f60008201527f72207472616e7366657200000000000000000000000000000000000000000000602082015250565b6000612d9f602a83611f16565b9150612daa82612d43565b604082019050919050565b60006020820190508181036000830152612dce81612d92565b9050919050565b60006040820190508181036000830152612def8185612457565b90508181036020830152612e038184612457565b90509392505050565b7f455243313135353a2073657474696e6720617070726f76616c2073746174757360008201527f20666f722073656c660000000000000000000000000000000000000000000000602082015250565b6000612e68602983611f16565b9150612e7382612e0c565b604082019050919050565b60006020820190508181036000830152612e9781612e5b565b9050919050565b7f455243313135353a206d696e7420746f20746865207a65726f2061646472657360008201527f7300000000000000000000000000000000000000000000000000000000000000602082015250565b6000612efa602183611f16565b9150612f0582612e9e565b604082019050919050565b60006020820190508181036000830152612f2981612eed565b9050919050565b6000604082019050612f456000830185611df9565b612f526020830184611df9565b9392505050565b600081519050919050565b600082825260208201905092915050565b6000612f8082612f59565b612f8a8185612f64565b9350612f9a818560208601611f27565b612fa381611f5a565b840191505092915050565b600060a082019050612fc36000830188612292565b612fd06020830187612292565b8181036040830152612fe28186612457565b90508181036060830152612ff68185612457565b9050818103608083015261300a8184612f75565b90509695505050505050565b60008151905061302581611e4f565b92915050565b60006020828403121561304157613040611d1b565b5b600061304f84828501613016565b91505092915050565b60008160e01c9050919050565b600060033d11156130845760046000803e613081600051613058565b90505b90565b600060443d1061311457613099611d11565b60043d036004823e80513d602482011167ffffffffffffffff821117156130c1575050613114565b808201805167ffffffffffffffff8111156130df5750505050613114565b80602083010160043d0385018111156130fc575050505050613114565b61310b82602001850186611ffa565b82955050505050505b90565b7f455243313135353a207472616e7366657220746f206e6f6e204552433131353560008201527f526563656976657220696d706c656d656e746572000000000000000000000000602082015250565b6000613173603483611f16565b915061317e82613117565b604082019050919050565b600060208201905081810360008301526131a281613166565b9050919050565b7f455243313135353a204552433131353552656365697665722072656a6563746560008201527f6420746f6b656e73000000000000000000000000000000000000000000000000602082015250565b6000613205602883611f16565b9150613210826131a9565b604082019050919050565b60006020820190508181036000830152613234816131f8565b9050919050565b600060a0820190506132506000830188612292565b61325d6020830187612292565b61326a6040830186611df9565b6132776060830185611df9565b81810360808301526132898184612f75565b9050969550505050505056fea26469706673582212207986ce9cee1de70cf04543252253f94cddee416be178eedd1de247b63bf68b3c64736f6c634300080d0033",
  "immutableReferences": {},
  "source": "// SPDX-License-Identifier: MIT\npragma solidity ^0.8.0;\nimport \"../ERC1155/ERC1155.sol\";\n\ncontract TFG is ERC1155{\n    address public admin;\n    address public addressC;\n    uint256 public count;\n\n    //ids para los tokens\n    uint256 public constant moneda = 0;\n\n    //estructuras auxiliares\n    string [] public colors;\n    mapping (string => bool) _colorExists;\n    mapping (uint => uint256) _price;\n    mapping (uint => address) _property;\n\n    modifier onlyAdmin() {\n        require(msg.sender == admin, \"only admin can call this\");\n        _;\n    }\n\n    constructor() public ERC1155(\"\") {\n        addressC = address(this);\n        admin = msg.sender;\n        count = 1;\n       _mint(msg.sender, moneda, 100, \"\");\n    }\n\n    function nuevoColor(string memory _color, uint precio) public{\n        require(!_colorExists[_color]);\n        colors.push(_color);\n        _price[count] = precio;\n        _property[count] = msg.sender;\n        bytes memory dataColor = bytes(_color);\n        _mint(msg.sender, count, 1, dataColor);\n        //setApprove? \n        count++;\n        _colorExists[_color] = true;\n        \n    }\n\n    function totalSupply() public view returns (uint256){\n        return colors.length;\n    }\n\n    function property(uint id) public view returns (address){\n        return _property[id];\n    }\n\n    function funds(address propietario) public view returns (uint256){\n        return balanceOf(propietario, 0);\n    }\n\n    function addFunds() public payable onlyAdmin{\n        _mint(msg.sender, 0, 100, \"\");\n    }\n\n\n    function buy(uint tokenId) public payable {\n        //Ahora la transaccin de las monedas\n        safeTransferFrom(msg.sender, _property[tokenId+1], 0, _price[tokenId+1], \"\");\n        safeTransferFrom(_property[tokenId+1], msg.sender, tokenId+1, 1, \"\");\n    }\n\n    function compareStrings(string memory a, string memory b) public pure returns (bool) {\n        return (keccak256(abi.encodePacked((a))) == keccak256(abi.encodePacked((b))));\n    }\n\n    function permission() public {\n        setApprovalForAll(addressC, true);\n    }\n\n}",
  "sourcePath": "/Users/ignacio/Desktop/TFG1155/src/contracts/TFG.sol",
  "compiler": {
    "name": "solc",
    "version": "0.8.13+commit.abaa5c0e.Emscripten.clang"
  },
  "schemaVersion": "3.4.2",
  "updatedAt": "2022-03-29T10:03:35.313Z",
  "networkType": "ethereum",
  "devdoc": {
    "kind": "dev",
    "methods": {
      "balanceOf(address,uint256)": {
        "details": "See {IERC1155-balanceOf}. Requirements: - `account` cannot be the zero address."
      },
      "balanceOfBatch(address[],uint256[])": {
        "details": "See {IERC1155-balanceOfBatch}. Requirements: - `accounts` and `ids` must have the same length."
      },
      "isApprovedForAll(address,address)": {
        "details": "See {IERC1155-isApprovedForAll}."
      },
      "safeBatchTransferFrom(address,address,uint256[],uint256[],bytes)": {
        "details": "See {IERC1155-safeBatchTransferFrom}."
      },
      "safeTransferFrom(address,address,uint256,uint256,bytes)": {
        "details": "See {IERC1155-safeTransferFrom}."
      },
      "setApprovalForAll(address,bool)": {
        "details": "See {IERC1155-setApprovalForAll}."
      },
      "supportsInterface(bytes4)": {
        "details": "See {IERC165-supportsInterface}."
      },
      "uri(uint256)": {
        "details": "See {IERC1155MetadataURI-uri}. This implementation returns the same URI for *all* token types. It relies on the token type ID substitution mechanism https://eips.ethereum.org/EIPS/eip-1155#metadata[defined in the EIP]. Clients calling this function must replace the `\\{id\\}` substring with the actual token type ID."
      }
    },
    "version": 1
  },
  "userdoc": {
    "kind": "user",
    "methods": {},
    "version": 1
  }
}