{
  "contractName": "TFG",
  "abi": [
    {
      "inputs": [],
      "stateMutability": "nonpayable",
      "type": "constructor"
    },
    {
      "anonymous": false,
      "inputs": [
        {
          "indexed": true,
          "internalType": "address",
          "name": "account",
          "type": "address"
        },
        {
          "indexed": true,
          "internalType": "address",
          "name": "operator",
          "type": "address"
        },
        {
          "indexed": false,
          "internalType": "bool",
          "name": "approved",
          "type": "bool"
        }
      ],
      "name": "ApprovalForAll",
      "type": "event"
    },
    {
      "anonymous": false,
      "inputs": [
        {
          "indexed": true,
          "internalType": "address",
          "name": "previousOwner",
          "type": "address"
        },
        {
          "indexed": true,
          "internalType": "address",
          "name": "newOwner",
          "type": "address"
        }
      ],
      "name": "OwnershipTransferred",
      "type": "event"
    },
    {
      "anonymous": false,
      "inputs": [
        {
          "indexed": true,
          "internalType": "address",
          "name": "operator",
          "type": "address"
        },
        {
          "indexed": true,
          "internalType": "address",
          "name": "from",
          "type": "address"
        },
        {
          "indexed": true,
          "internalType": "address",
          "name": "to",
          "type": "address"
        },
        {
          "indexed": false,
          "internalType": "uint256[]",
          "name": "ids",
          "type": "uint256[]"
        },
        {
          "indexed": false,
          "internalType": "uint256[]",
          "name": "values",
          "type": "uint256[]"
        }
      ],
      "name": "TransferBatch",
      "type": "event"
    },
    {
      "anonymous": false,
      "inputs": [
        {
          "indexed": true,
          "internalType": "address",
          "name": "operator",
          "type": "address"
        },
        {
          "indexed": true,
          "internalType": "address",
          "name": "from",
          "type": "address"
        },
        {
          "indexed": true,
          "internalType": "address",
          "name": "to",
          "type": "address"
        },
        {
          "indexed": false,
          "internalType": "uint256",
          "name": "id",
          "type": "uint256"
        },
        {
          "indexed": false,
          "internalType": "uint256",
          "name": "value",
          "type": "uint256"
        }
      ],
      "name": "TransferSingle",
      "type": "event"
    },
    {
      "anonymous": false,
      "inputs": [
        {
          "indexed": false,
          "internalType": "string",
          "name": "value",
          "type": "string"
        },
        {
          "indexed": true,
          "internalType": "uint256",
          "name": "id",
          "type": "uint256"
        }
      ],
      "name": "URI",
      "type": "event"
    },
    {
      "inputs": [],
      "name": "addressC",
      "outputs": [
        {
          "internalType": "address",
          "name": "",
          "type": "address"
        }
      ],
      "stateMutability": "view",
      "type": "function",
      "constant": true
    },
    {
      "inputs": [],
      "name": "admin",
      "outputs": [
        {
          "internalType": "address",
          "name": "",
          "type": "address"
        }
      ],
      "stateMutability": "view",
      "type": "function",
      "constant": true
    },
    {
      "inputs": [
        {
          "internalType": "address",
          "name": "account",
          "type": "address"
        },
        {
          "internalType": "uint256",
          "name": "id",
          "type": "uint256"
        }
      ],
      "name": "balanceOf",
      "outputs": [
        {
          "internalType": "uint256",
          "name": "",
          "type": "uint256"
        }
      ],
      "stateMutability": "view",
      "type": "function",
      "constant": true
    },
    {
      "inputs": [
        {
          "internalType": "address[]",
          "name": "accounts",
          "type": "address[]"
        },
        {
          "internalType": "uint256[]",
          "name": "ids",
          "type": "uint256[]"
        }
      ],
      "name": "balanceOfBatch",
      "outputs": [
        {
          "internalType": "uint256[]",
          "name": "",
          "type": "uint256[]"
        }
      ],
      "stateMutability": "view",
      "type": "function",
      "constant": true
    },
    {
      "inputs": [],
      "name": "count",
      "outputs": [
        {
          "internalType": "uint256",
          "name": "",
          "type": "uint256"
        }
      ],
      "stateMutability": "view",
      "type": "function",
      "constant": true
    },
    {
      "inputs": [
        {
          "internalType": "uint256",
          "name": "",
          "type": "uint256"
        }
      ],
      "name": "docs",
      "outputs": [
        {
          "internalType": "string",
          "name": "",
          "type": "string"
        }
      ],
      "stateMutability": "view",
      "type": "function",
      "constant": true
    },
    {
      "inputs": [
        {
          "internalType": "address",
          "name": "account",
          "type": "address"
        },
        {
          "internalType": "address",
          "name": "operator",
          "type": "address"
        }
      ],
      "name": "isApprovedForAll",
      "outputs": [
        {
          "internalType": "bool",
          "name": "",
          "type": "bool"
        }
      ],
      "stateMutability": "view",
      "type": "function",
      "constant": true
    },
    {
      "inputs": [],
      "name": "moneda",
      "outputs": [
        {
          "internalType": "uint256",
          "name": "",
          "type": "uint256"
        }
      ],
      "stateMutability": "view",
      "type": "function",
      "constant": true
    },
    {
      "inputs": [
        {
          "internalType": "address",
          "name": "",
          "type": "address"
        },
        {
          "internalType": "address",
          "name": "",
          "type": "address"
        },
        {
          "internalType": "uint256[]",
          "name": "",
          "type": "uint256[]"
        },
        {
          "internalType": "uint256[]",
          "name": "",
          "type": "uint256[]"
        },
        {
          "internalType": "bytes",
          "name": "",
          "type": "bytes"
        }
      ],
      "name": "onERC1155BatchReceived",
      "outputs": [
        {
          "internalType": "bytes4",
          "name": "",
          "type": "bytes4"
        }
      ],
      "stateMutability": "nonpayable",
      "type": "function"
    },
    {
      "inputs": [
        {
          "internalType": "address",
          "name": "",
          "type": "address"
        },
        {
          "internalType": "address",
          "name": "",
          "type": "address"
        },
        {
          "internalType": "uint256",
          "name": "",
          "type": "uint256"
        },
        {
          "internalType": "uint256",
          "name": "",
          "type": "uint256"
        },
        {
          "internalType": "bytes",
          "name": "",
          "type": "bytes"
        }
      ],
      "name": "onERC1155Received",
      "outputs": [
        {
          "internalType": "bytes4",
          "name": "",
          "type": "bytes4"
        }
      ],
      "stateMutability": "nonpayable",
      "type": "function"
    },
    {
      "inputs": [],
      "name": "owner",
      "outputs": [
        {
          "internalType": "address",
          "name": "",
          "type": "address"
        }
      ],
      "stateMutability": "view",
      "type": "function",
      "constant": true
    },
    {
      "inputs": [],
      "name": "renounceOwnership",
      "outputs": [],
      "stateMutability": "nonpayable",
      "type": "function"
    },
    {
      "inputs": [
        {
          "internalType": "address",
          "name": "from",
          "type": "address"
        },
        {
          "internalType": "address",
          "name": "to",
          "type": "address"
        },
        {
          "internalType": "uint256[]",
          "name": "ids",
          "type": "uint256[]"
        },
        {
          "internalType": "uint256[]",
          "name": "amounts",
          "type": "uint256[]"
        },
        {
          "internalType": "bytes",
          "name": "data",
          "type": "bytes"
        }
      ],
      "name": "safeBatchTransferFrom",
      "outputs": [],
      "stateMutability": "nonpayable",
      "type": "function"
    },
    {
      "inputs": [
        {
          "internalType": "address",
          "name": "from",
          "type": "address"
        },
        {
          "internalType": "address",
          "name": "to",
          "type": "address"
        },
        {
          "internalType": "uint256",
          "name": "id",
          "type": "uint256"
        },
        {
          "internalType": "uint256",
          "name": "amount",
          "type": "uint256"
        },
        {
          "internalType": "bytes",
          "name": "data",
          "type": "bytes"
        }
      ],
      "name": "safeTransferFrom",
      "outputs": [],
      "stateMutability": "nonpayable",
      "type": "function"
    },
    {
      "inputs": [
        {
          "internalType": "address",
          "name": "operator",
          "type": "address"
        },
        {
          "internalType": "bool",
          "name": "approved",
          "type": "bool"
        }
      ],
      "name": "setApprovalForAll",
      "outputs": [],
      "stateMutability": "nonpayable",
      "type": "function"
    },
    {
      "inputs": [
        {
          "internalType": "address",
          "name": "newOwner",
          "type": "address"
        }
      ],
      "name": "transferOwnership",
      "outputs": [],
      "stateMutability": "nonpayable",
      "type": "function"
    },
    {
      "inputs": [
        {
          "internalType": "uint256",
          "name": "",
          "type": "uint256"
        }
      ],
      "name": "uri",
      "outputs": [
        {
          "internalType": "string",
          "name": "",
          "type": "string"
        }
      ],
      "stateMutability": "view",
      "type": "function",
      "constant": true
    },
    {
      "inputs": [
        {
          "internalType": "bytes4",
          "name": "interfaceId",
          "type": "bytes4"
        }
      ],
      "name": "supportsInterface",
      "outputs": [
        {
          "internalType": "bool",
          "name": "",
          "type": "bool"
        }
      ],
      "stateMutability": "view",
      "type": "function",
      "constant": true
    },
    {
      "inputs": [
        {
          "internalType": "string",
          "name": "x",
          "type": "string"
        },
        {
          "internalType": "uint256",
          "name": "precio",
          "type": "uint256"
        },
        {
          "internalType": "string",
          "name": "titulo",
          "type": "string"
        },
        {
          "internalType": "string",
          "name": "description",
          "type": "string"
        }
      ],
      "name": "sendHash",
      "outputs": [],
      "stateMutability": "nonpayable",
      "type": "function"
    },
    {
      "inputs": [],
      "name": "getHash",
      "outputs": [
        {
          "internalType": "string",
          "name": "x",
          "type": "string"
        }
      ],
      "stateMutability": "view",
      "type": "function",
      "constant": true
    },
    {
      "inputs": [],
      "name": "totalSupply",
      "outputs": [
        {
          "internalType": "uint256",
          "name": "",
          "type": "uint256"
        }
      ],
      "stateMutability": "view",
      "type": "function",
      "constant": true
    },
    {
      "inputs": [
        {
          "internalType": "string",
          "name": "id",
          "type": "string"
        }
      ],
      "name": "getProperty",
      "outputs": [
        {
          "internalType": "address",
          "name": "",
          "type": "address"
        }
      ],
      "stateMutability": "view",
      "type": "function",
      "constant": true
    },
    {
      "inputs": [
        {
          "internalType": "string",
          "name": "id",
          "type": "string"
        }
      ],
      "name": "getTitle",
      "outputs": [
        {
          "internalType": "string",
          "name": "title",
          "type": "string"
        }
      ],
      "stateMutability": "view",
      "type": "function",
      "constant": true
    },
    {
      "inputs": [
        {
          "internalType": "string",
          "name": "id",
          "type": "string"
        },
        {
          "internalType": "string",
          "name": "newTitle",
          "type": "string"
        }
      ],
      "name": "setTitle",
      "outputs": [],
      "stateMutability": "nonpayable",
      "type": "function"
    },
    {
      "inputs": [
        {
          "internalType": "string",
          "name": "id",
          "type": "string"
        }
      ],
      "name": "getPrice",
      "outputs": [
        {
          "internalType": "uint256",
          "name": "",
          "type": "uint256"
        }
      ],
      "stateMutability": "view",
      "type": "function",
      "constant": true
    },
    {
      "inputs": [
        {
          "internalType": "string",
          "name": "id",
          "type": "string"
        },
        {
          "internalType": "uint256",
          "name": "newPrice",
          "type": "uint256"
        }
      ],
      "name": "setPrice",
      "outputs": [],
      "stateMutability": "nonpayable",
      "type": "function"
    },
    {
      "inputs": [
        {
          "internalType": "string",
          "name": "id",
          "type": "string"
        }
      ],
      "name": "getDescription",
      "outputs": [
        {
          "internalType": "string",
          "name": "",
          "type": "string"
        }
      ],
      "stateMutability": "view",
      "type": "function",
      "constant": true
    },
    {
      "inputs": [
        {
          "internalType": "string",
          "name": "id",
          "type": "string"
        },
        {
          "internalType": "string",
          "name": "newDescription",
          "type": "string"
        }
      ],
      "name": "setDescription",
      "outputs": [],
      "stateMutability": "nonpayable",
      "type": "function"
    },
    {
      "inputs": [
        {
          "internalType": "address",
          "name": "propietario",
          "type": "address"
        }
      ],
      "name": "funds",
      "outputs": [
        {
          "internalType": "uint256",
          "name": "",
          "type": "uint256"
        }
      ],
      "stateMutability": "view",
      "type": "function",
      "constant": true
    },
    {
      "inputs": [],
      "name": "addFunds",
      "outputs": [],
      "stateMutability": "payable",
      "type": "function",
      "payable": true
    },
    {
      "inputs": [
        {
          "internalType": "string",
          "name": "id",
          "type": "string"
        }
      ],
      "name": "buy",
      "outputs": [],
      "stateMutability": "payable",
      "type": "function",
      "payable": true
    },
    {
      "inputs": [
        {
          "internalType": "string",
          "name": "id",
          "type": "string"
        }
      ],
      "name": "permission",
      "outputs": [],
      "stateMutability": "nonpayable",
      "type": "function"
    },
    {
      "inputs": [
        {
          "internalType": "uint256",
          "name": "newPrice",
          "type": "uint256"
        },
        {
          "internalType": "string",
          "name": "id",
          "type": "string"
        }
      ],
      "name": "updatePrice",
      "outputs": [],
      "stateMutability": "nonpayable",
      "type": "function"
    }
  ],
  "bytecode": "0x60806040523480156200001157600080fd5b506040518060200160405280600081525062000033816200010960201b60201c565b5062000054620000486200012560201b60201c565b6200012d60201b60201c565b30600560006101000a81548173ffffffffffffffffffffffffffffffffffffffff021916908373ffffffffffffffffffffffffffffffffffffffff16021790555033600460006101000a81548173ffffffffffffffffffffffffffffffffffffffff021916908373ffffffffffffffffffffffffffffffffffffffff160217905550600160068190555062000103336000606460405180602001604052806000815250620001f360201b60201c565b62000dd9565b8060029080519060200190620001219291906200065c565b5050565b600033905090565b6000600360009054906101000a900473ffffffffffffffffffffffffffffffffffffffff16905081600360006101000a81548173ffffffffffffffffffffffffffffffffffffffff021916908373ffffffffffffffffffffffffffffffffffffffff1602179055508173ffffffffffffffffffffffffffffffffffffffff168173ffffffffffffffffffffffffffffffffffffffff167f8be0079c531659141344cd1fd0a4f28419497f9722a3daafe3b4186f6b6457e060405160405180910390a35050565b600073ffffffffffffffffffffffffffffffffffffffff168473ffffffffffffffffffffffffffffffffffffffff160362000265576040517f08c379a00000000000000000000000000000000000000000000000000000000081526004016200025c9062000793565b60405180910390fd5b6000620002776200012560201b60201c565b9050620002b0816000876200029288620003b760201b60201c565b620002a388620003b760201b60201c565b876200043860201b60201c565b8260008086815260200190815260200160002060008773ffffffffffffffffffffffffffffffffffffffff1673ffffffffffffffffffffffffffffffffffffffff1681526020019081526020016000206000828254620003119190620007ee565b925050819055508473ffffffffffffffffffffffffffffffffffffffff16600073ffffffffffffffffffffffffffffffffffffffff168273ffffffffffffffffffffffffffffffffffffffff167fc3d58168c5ae7397731d063d5bbf3d657854427343f4c083240f7aacaa2d0f628787604051620003919291906200085c565b60405180910390a4620003b0816000878787876200044060201b60201c565b5050505050565b60606000600167ffffffffffffffff811115620003d957620003d862000889565b5b604051908082528060200260200182016040528015620004085781602001602082028036833780820191505090505b5090508281600081518110620004235762000422620008b8565b5b60200260200101818152505080915050919050565b505050505050565b6200046c8473ffffffffffffffffffffffffffffffffffffffff166200063960201b6200180a1760201c565b1562000631578373ffffffffffffffffffffffffffffffffffffffff1663f23a6e6187878686866040518663ffffffff1660e01b8152600401620004b5959493929190620009d0565b6020604051808303816000875af1925050508015620004f457506040513d601f19601f82011682018060405250810190620004f1919062000aa0565b60015b620005a5576200050362000adf565b806308c379a0036200056657506200051a62000b3a565b8062000527575062000568565b806040517f08c379a00000000000000000000000000000000000000000000000000000000081526004016200055d919062000c21565b60405180910390fd5b505b6040517f08c379a00000000000000000000000000000000000000000000000000000000081526004016200059c9062000cbb565b60405180910390fd5b63f23a6e6160e01b7bffffffffffffffffffffffffffffffffffffffffffffffffffffffff1916817bffffffffffffffffffffffffffffffffffffffffffffffffffffffff1916146200062f576040517f08c379a0000000000000000000000000000000000000000000000000000000008152600401620006269062000d53565b60405180910390fd5b505b505050505050565b6000808273ffffffffffffffffffffffffffffffffffffffff163b119050919050565b8280546200066a9062000da4565b90600052602060002090601f0160209004810192826200068e5760008555620006da565b82601f10620006a957805160ff1916838001178555620006da565b82800160010185558215620006da579182015b82811115620006d9578251825591602001919060010190620006bc565b5b509050620006e99190620006ed565b5090565b5b8082111562000708576000816000905550600101620006ee565b5090565b600082825260208201905092915050565b7f455243313135353a206d696e7420746f20746865207a65726f2061646472657360008201527f7300000000000000000000000000000000000000000000000000000000000000602082015250565b60006200077b6021836200070c565b915062000788826200071d565b604082019050919050565b60006020820190508181036000830152620007ae816200076c565b9050919050565b6000819050919050565b7f4e487b7100000000000000000000000000000000000000000000000000000000600052601160045260246000fd5b6000620007fb82620007b5565b91506200080883620007b5565b9250827fffffffffffffffffffffffffffffffffffffffffffffffffffffffffffffffff0382111562000840576200083f620007bf565b5b828201905092915050565b6200085681620007b5565b82525050565b60006040820190506200087360008301856200084b565b6200088260208301846200084b565b9392505050565b7f4e487b7100000000000000000000000000000000000000000000000000000000600052604160045260246000fd5b7f4e487b7100000000000000000000000000000000000000000000000000000000600052603260045260246000fd5b600073ffffffffffffffffffffffffffffffffffffffff82169050919050565b60006200091482620008e7565b9050919050565b620009268162000907565b82525050565b600081519050919050565b600082825260208201905092915050565b60005b83811015620009685780820151818401526020810190506200094b565b8381111562000978576000848401525b50505050565b6000601f19601f8301169050919050565b60006200099c826200092c565b620009a8818562000937565b9350620009ba81856020860162000948565b620009c5816200097e565b840191505092915050565b600060a082019050620009e760008301886200091b565b620009f660208301876200091b565b62000a0560408301866200084b565b62000a1460608301856200084b565b818103608083015262000a2881846200098f565b90509695505050505050565b6000604051905090565b600080fd5b60007fffffffff0000000000000000000000000000000000000000000000000000000082169050919050565b62000a7a8162000a43565b811462000a8657600080fd5b50565b60008151905062000a9a8162000a6f565b92915050565b60006020828403121562000ab95762000ab862000a3e565b5b600062000ac98482850162000a89565b91505092915050565b60008160e01c9050919050565b600060033d111562000b015760046000803e62000afe60005162000ad2565b90505b90565b62000b0f826200097e565b810181811067ffffffffffffffff8211171562000b315762000b3062000889565b5b80604052505050565b600060443d1062000bd25762000b4f62000a34565b60043d036004823e80513d602482011167ffffffffffffffff8211171562000b7957505062000bd2565b808201805167ffffffffffffffff81111562000b99575050505062000bd2565b80602083010160043d03850181111562000bb857505050505062000bd2565b62000bc98260200185018662000b04565b82955050505050505b90565b600081519050919050565b600062000bed8262000bd5565b62000bf981856200070c565b935062000c0b81856020860162000948565b62000c16816200097e565b840191505092915050565b6000602082019050818103600083015262000c3d818462000be0565b905092915050565b7f455243313135353a207472616e7366657220746f206e6f6e204552433131353560008201527f526563656976657220696d706c656d656e746572000000000000000000000000602082015250565b600062000ca36034836200070c565b915062000cb08262000c45565b604082019050919050565b6000602082019050818103600083015262000cd68162000c94565b9050919050565b7f455243313135353a204552433131353552656365697665722072656a6563746560008201527f6420746f6b656e73000000000000000000000000000000000000000000000000602082015250565b600062000d3b6028836200070c565b915062000d488262000cdd565b604082019050919050565b6000602082019050818103600083015262000d6e8162000d2c565b9050919050565b7f4e487b7100000000000000000000000000000000000000000000000000000000600052602260045260246000fd5b6000600282049050600182168062000dbd57607f821691505b60208210810362000dd35762000dd262000d75565b5b50919050565b61406b8062000de96000396000f3fe6080604052600436106101ed5760003560e01c8063715018a61161010d578063d13319c4116100a0578063f1cc12681161006f578063f1cc12681461072a578063f23a6e6114610755578063f242432a14610792578063f2fde38b146107bb578063f851a440146107e4576101ed565b8063d13319c41461065c578063dc8e9a1514610687578063e2ae93fb146106b0578063e985e9c5146106ed576101ed565b8063ab331a34116100dc578063ab331a341461058e578063bc197c81146105cb578063c79fc60914610608578063cd4eb3b814610633576101ed565b8063715018a6146105195780638da5cb5b14610530578063a22cb4651461055b578063a26759cb14610584576101ed565b806323389c5a116101855780634e1273f4116101545780634e1273f41461044d578063524f38891461048a5780636755d456146104c75780637103b15b146104f0576101ed565b806323389c5a1461038e5780632eb2c2d6146103cb57806345de2ca0146103f4578063492cc76914610431576101ed565b80630e89341c116101c15780630e89341c146102c057806318160ddd146102fd5780631b46e49c1461032857806322e0119214610365576101ed565b8062fdd58e146101f257806301ffc9a71461022f57806302a5e84c1461026c57806306661abd14610295575b600080fd5b3480156101fe57600080fd5b50610219600480360381019061021491906128d1565b61080f565b6040516102269190612920565b60405180910390f35b34801561023b57600080fd5b5061025660048036038101906102519190612993565b6108d7565b60405161026391906129db565b60405180910390f35b34801561027857600080fd5b50610293600480360381019061028e9190612b3c565b6108e9565b005b3480156102a157600080fd5b506102aa610ae7565b6040516102b79190612920565b60405180910390f35b3480156102cc57600080fd5b506102e760048036038101906102e29190612bf7565b610aed565b6040516102f49190612cac565b60405180910390f35b34801561030957600080fd5b50610312610b81565b60405161031f9190612920565b60405180910390f35b34801561033457600080fd5b5061034f600480360381019061034a9190612cce565b610b8e565b60405161035c9190612cac565b60405180910390f35b34801561037157600080fd5b5061038c60048036038101906103879190612d17565b610c3e565b005b34801561039a57600080fd5b506103b560048036038101906103b09190612bf7565b610c65565b6040516103c29190612cac565b60405180910390f35b3480156103d757600080fd5b506103f260048036038101906103ed9190612edc565b610d11565b005b34801561040057600080fd5b5061041b60048036038101906104169190612cce565b610db2565b6040516104289190612cac565b60405180910390f35b61044b60048036038101906104469190612cce565b610e62565b005b34801561045957600080fd5b50610474600480360381019061046f919061306e565b610fb4565b60405161048191906131a4565b60405180910390f35b34801561049657600080fd5b506104b160048036038101906104ac9190612cce565b6110cd565b6040516104be9190612920565b60405180910390f35b3480156104d357600080fd5b506104ee60048036038101906104e991906131c6565b6110f5565b005b3480156104fc57600080fd5b506105176004803603810190610512919061323e565b61112c565b005b34801561052557600080fd5b5061052e611153565b005b34801561053c57600080fd5b506105456111db565b60405161055291906132a9565b60405180910390f35b34801561056757600080fd5b50610582600480360381019061057d91906132f0565b611205565b005b61058c61121b565b005b34801561059a57600080fd5b506105b560048036038101906105b09190612cce565b6112ca565b6040516105c291906132a9565b60405180910390f35b3480156105d757600080fd5b506105f260048036038101906105ed9190612edc565b611312565b6040516105ff919061333f565b60405180910390f35b34801561061457600080fd5b5061061d611327565b60405161062a91906132a9565b60405180910390f35b34801561063f57600080fd5b5061065a60048036038101906106559190612cce565b61134d565b005b34801561066857600080fd5b506106716114c1565b60405161067e9190612cac565b60405180910390f35b34801561069357600080fd5b506106ae60048036038101906106a991906131c6565b611553565b005b3480156106bc57600080fd5b506106d760048036038101906106d2919061335a565b61158a565b6040516106e49190612920565b60405180910390f35b3480156106f957600080fd5b50610714600480360381019061070f9190613387565b61159e565b60405161072191906129db565b60405180910390f35b34801561073657600080fd5b5061073f611632565b60405161074c9190612920565b60405180910390f35b34801561076157600080fd5b5061077c600480360381019061077791906133c7565b611637565b604051610789919061333f565b60405180910390f35b34801561079e57600080fd5b506107b960048036038101906107b491906133c7565b61164c565b005b3480156107c757600080fd5b506107e260048036038101906107dd919061335a565b6116ed565b005b3480156107f057600080fd5b506107f96117e4565b60405161080691906132a9565b60405180910390f35b60008073ffffffffffffffffffffffffffffffffffffffff168373ffffffffffffffffffffffffffffffffffffffff160361087f576040517f08c379a0000000000000000000000000000000000000000000000000000000008152600401610876906134d0565b60405180910390fd5b60008083815260200190815260200160002060008473ffffffffffffffffffffffffffffffffffffffff1673ffffffffffffffffffffffffffffffffffffffff16815260200190815260200160002054905092915050565b60006108e28261182d565b9050919050565b6009846040516108f9919061352c565b908152602001604051809103902060009054906101000a900460ff161561091f57600080fd5b83600f9080519060200190610935929190612786565b50600784908060018154018082558091505060019003906000526020600020016000909190919091509080519060200190610971929190612786565b50600654600d85604051610985919061352c565b90815260200160405180910390208190555082600a856040516109a8919061352c565b90815260200160405180910390208190555033600b856040516109cb919061352c565b908152602001604051809103902060006101000a81548173ffffffffffffffffffffffffffffffffffffffff021916908373ffffffffffffffffffffffffffffffffffffffff16021790555081600c85604051610a28919061352c565b90815260200160405180910390209080519060200190610a49929190612786565b5080600e85604051610a5b919061352c565b90815260200160405180910390209080519060200190610a7c929190612786565b506000849050610a91336006546001846118a7565b60066000815480929190610aa490613572565b91905055506001600986604051610abb919061352c565b908152602001604051809103902060006101000a81548160ff0219169083151502179055505050505050565b60065481565b606060028054610afc906135e9565b80601f0160208091040260200160405190810160405280929190818152602001828054610b28906135e9565b8015610b755780601f10610b4a57610100808354040283529160200191610b75565b820191906000526020600020905b815481529060010190602001808311610b5857829003601f168201915b50505050509050919050565b6000600780549050905090565b6060600c82604051610ba0919061352c565b90815260200160405180910390208054610bb9906135e9565b80601f0160208091040260200160405190810160405280929190818152602001828054610be5906135e9565b8015610c325780601f10610c0757610100808354040283529160200191610c32565b820191906000526020600020905b815481529060010190602001808311610c1557829003601f168201915b50505050509050919050565b80600a83604051610c4f919061352c565b9081526020016040518091039020819055505050565b60078181548110610c7557600080fd5b906000526020600020016000915090508054610c90906135e9565b80601f0160208091040260200160405190810160405280929190818152602001828054610cbc906135e9565b8015610d095780601f10610cde57610100808354040283529160200191610d09565b820191906000526020600020905b815481529060010190602001808311610cec57829003601f168201915b505050505081565b610d19611a3c565b73ffffffffffffffffffffffffffffffffffffffff168573ffffffffffffffffffffffffffffffffffffffff161480610d5f5750610d5e85610d59611a3c565b61159e565b5b610d9e576040517f08c379a0000000000000000000000000000000000000000000000000000000008152600401610d959061368c565b60405180910390fd5b610dab8585858585611a44565b5050505050565b6060600e82604051610dc4919061352c565b90815260200160405180910390208054610ddd906135e9565b80601f0160208091040260200160405190810160405280929190818152602001828054610e09906135e9565b8015610e565780601f10610e2b57610100808354040283529160200191610e56565b820191906000526020600020905b815481529060010190602001808311610e3957829003601f168201915b50505050509050919050565b610edb33600883604051610e76919061352c565b908152602001604051809103902060009054906101000a900473ffffffffffffffffffffffffffffffffffffffff166000600a85604051610eb7919061352c565b9081526020016040518091039020546040518060200160405280600081525061164c565b610f54600b82604051610eee919061352c565b908152602001604051809103902060009054906101000a900473ffffffffffffffffffffffffffffffffffffffff1633600d84604051610f2e919061352c565b908152602001604051809103902054600160405180602001604052806000815250611d57565b33600b82604051610f65919061352c565b908152602001604051809103902060006101000a81548173ffffffffffffffffffffffffffffffffffffffff021916908373ffffffffffffffffffffffffffffffffffffffff16021790555050565b60608151835114610ffa576040517f08c379a0000000000000000000000000000000000000000000000000000000008152600401610ff19061371e565b60405180910390fd5b6000835167ffffffffffffffff81111561101757611016612a11565b5b6040519080825280602002602001820160405280156110455781602001602082028036833780820191505090505b50905060005b84518110156110c25761109285828151811061106a5761106961373e565b5b60200260200101518583815181106110855761108461373e565b5b602002602001015161080f565b8282815181106110a5576110a461373e565b5b602002602001018181525050806110bb90613572565b905061104b565b508091505092915050565b6000600a826040516110df919061352c565b9081526020016040518091039020549050919050565b80600e83604051611106919061352c565b90815260200160405180910390209080519060200190611127929190612786565b505050565b81600a8260405161113d919061352c565b9081526020016040518091039020819055505050565b61115b611a3c565b73ffffffffffffffffffffffffffffffffffffffff166111796111db565b73ffffffffffffffffffffffffffffffffffffffff16146111cf576040517f08c379a00000000000000000000000000000000000000000000000000000000081526004016111c6906137b9565b60405180910390fd5b6111d96000611fd8565b565b6000600360009054906101000a900473ffffffffffffffffffffffffffffffffffffffff16905090565b611217611210611a3c565b838361209e565b5050565b600460009054906101000a900473ffffffffffffffffffffffffffffffffffffffff1673ffffffffffffffffffffffffffffffffffffffff163373ffffffffffffffffffffffffffffffffffffffff16146112ab576040517f08c379a00000000000000000000000000000000000000000000000000000000081526004016112a290613825565b60405180910390fd5b6112c83360006064604051806020016040528060008152506118a7565b565b6000600b826040516112dc919061352c565b908152602001604051809103902060009054906101000a900473ffffffffffffffffffffffffffffffffffffffff169050919050565b600063bc197c8160e01b905095945050505050565b600560009054906101000a900473ffffffffffffffffffffffffffffffffffffffff1681565b600b8160405161135d919061352c565b908152602001604051809103902060009054906101000a900473ffffffffffffffffffffffffffffffffffffffff1660088260405161139c919061352c565b908152602001604051809103902060006101000a81548173ffffffffffffffffffffffffffffffffffffffff021916908373ffffffffffffffffffffffffffffffffffffffff16021790555030600b826040516113f9919061352c565b908152602001604051809103902060006101000a81548173ffffffffffffffffffffffffffffffffffffffff021916908373ffffffffffffffffffffffffffffffffffffffff1602179055506114be33600b83604051611459919061352c565b908152602001604051809103902060009054906101000a900473ffffffffffffffffffffffffffffffffffffffff16600d84604051611498919061352c565b90815260200160405180910390205460016040518060200160405280600081525061164c565b50565b6060600f80546114d0906135e9565b80601f01602080910402602001604051908101604052809291908181526020018280546114fc906135e9565b80156115495780601f1061151e57610100808354040283529160200191611549565b820191906000526020600020905b81548152906001019060200180831161152c57829003601f168201915b5050505050905090565b80600c83604051611564919061352c565b90815260200160405180910390209080519060200190611585929190612786565b505050565b600061159782600061080f565b9050919050565b6000600160008473ffffffffffffffffffffffffffffffffffffffff1673ffffffffffffffffffffffffffffffffffffffff16815260200190815260200160002060008373ffffffffffffffffffffffffffffffffffffffff1673ffffffffffffffffffffffffffffffffffffffff16815260200190815260200160002060009054906101000a900460ff16905092915050565b600081565b600063f23a6e6160e01b905095945050505050565b611654611a3c565b73ffffffffffffffffffffffffffffffffffffffff168573ffffffffffffffffffffffffffffffffffffffff16148061169a575061169985611694611a3c565b61159e565b5b6116d9576040517f08c379a00000000000000000000000000000000000000000000000000000000081526004016116d0906138b7565b60405180910390fd5b6116e68585858585611d57565b5050505050565b6116f5611a3c565b73ffffffffffffffffffffffffffffffffffffffff166117136111db565b73ffffffffffffffffffffffffffffffffffffffff1614611769576040517f08c379a0000000000000000000000000000000000000000000000000000000008152600401611760906137b9565b60405180910390fd5b600073ffffffffffffffffffffffffffffffffffffffff168173ffffffffffffffffffffffffffffffffffffffff16036117d8576040517f08c379a00000000000000000000000000000000000000000000000000000000081526004016117cf90613949565b60405180910390fd5b6117e181611fd8565b50565b600460009054906101000a900473ffffffffffffffffffffffffffffffffffffffff1681565b6000808273ffffffffffffffffffffffffffffffffffffffff163b119050919050565b60007f4e2312e0000000000000000000000000000000000000000000000000000000007bffffffffffffffffffffffffffffffffffffffffffffffffffffffff1916827bffffffffffffffffffffffffffffffffffffffffffffffffffffffff191614806118a0575061189f8261220a565b5b9050919050565b600073ffffffffffffffffffffffffffffffffffffffff168473ffffffffffffffffffffffffffffffffffffffff1603611916576040517f08c379a000000000000000000000000000000000000000000000000000000000815260040161190d906139db565b60405180910390fd5b6000611920611a3c565b905061194181600087611932886122ec565b61193b886122ec565b87612366565b8260008086815260200190815260200160002060008773ffffffffffffffffffffffffffffffffffffffff1673ffffffffffffffffffffffffffffffffffffffff16815260200190815260200160002060008282546119a091906139fb565b925050819055508473ffffffffffffffffffffffffffffffffffffffff16600073ffffffffffffffffffffffffffffffffffffffff168273ffffffffffffffffffffffffffffffffffffffff167fc3d58168c5ae7397731d063d5bbf3d657854427343f4c083240f7aacaa2d0f628787604051611a1e929190613a51565b60405180910390a4611a358160008787878761236e565b5050505050565b600033905090565b8151835114611a88576040517f08c379a0000000000000000000000000000000000000000000000000000000008152600401611a7f90613aec565b60405180910390fd5b600073ffffffffffffffffffffffffffffffffffffffff168473ffffffffffffffffffffffffffffffffffffffff1603611af7576040517f08c379a0000000000000000000000000000000000000000000000000000000008152600401611aee90613b7e565b60405180910390fd5b6000611b01611a3c565b9050611b11818787878787612366565b60005b8451811015611cc2576000858281518110611b3257611b3161373e565b5b602002602001015190506000858381518110611b5157611b5061373e565b5b60200260200101519050600080600084815260200190815260200160002060008b73ffffffffffffffffffffffffffffffffffffffff1673ffffffffffffffffffffffffffffffffffffffff16815260200190815260200160002054905081811015611bf2576040517f08c379a0000000000000000000000000000000000000000000000000000000008152600401611be990613c10565b60405180910390fd5b81810360008085815260200190815260200160002060008c73ffffffffffffffffffffffffffffffffffffffff1673ffffffffffffffffffffffffffffffffffffffff168152602001908152602001600020819055508160008085815260200190815260200160002060008b73ffffffffffffffffffffffffffffffffffffffff1673ffffffffffffffffffffffffffffffffffffffff1681526020019081526020016000206000828254611ca791906139fb565b9250508190555050505080611cbb90613572565b9050611b14565b508473ffffffffffffffffffffffffffffffffffffffff168673ffffffffffffffffffffffffffffffffffffffff168273ffffffffffffffffffffffffffffffffffffffff167f4a39dc06d4c0dbc64b70af90fd698a233a518aa5d07e595d983b8c0526c8f7fb8787604051611d39929190613c30565b60405180910390a4611d4f818787878787612545565b505050505050565b600073ffffffffffffffffffffffffffffffffffffffff168473ffffffffffffffffffffffffffffffffffffffff1603611dc6576040517f08c379a0000000000000000000000000000000000000000000000000000000008152600401611dbd90613b7e565b60405180910390fd5b6000611dd0611a3c565b9050611df0818787611de1886122ec565b611dea886122ec565b87612366565b600080600086815260200190815260200160002060008873ffffffffffffffffffffffffffffffffffffffff1673ffffffffffffffffffffffffffffffffffffffff16815260200190815260200160002054905083811015611e87576040517f08c379a0000000000000000000000000000000000000000000000000000000008152600401611e7e90613c10565b60405180910390fd5b83810360008087815260200190815260200160002060008973ffffffffffffffffffffffffffffffffffffffff1673ffffffffffffffffffffffffffffffffffffffff168152602001908152602001600020819055508360008087815260200190815260200160002060008873ffffffffffffffffffffffffffffffffffffffff1673ffffffffffffffffffffffffffffffffffffffff1681526020019081526020016000206000828254611f3c91906139fb565b925050819055508573ffffffffffffffffffffffffffffffffffffffff168773ffffffffffffffffffffffffffffffffffffffff168373ffffffffffffffffffffffffffffffffffffffff167fc3d58168c5ae7397731d063d5bbf3d657854427343f4c083240f7aacaa2d0f628888604051611fb9929190613a51565b60405180910390a4611fcf82888888888861236e565b50505050505050565b6000600360009054906101000a900473ffffffffffffffffffffffffffffffffffffffff16905081600360006101000a81548173ffffffffffffffffffffffffffffffffffffffff021916908373ffffffffffffffffffffffffffffffffffffffff1602179055508173ffffffffffffffffffffffffffffffffffffffff168173ffffffffffffffffffffffffffffffffffffffff167f8be0079c531659141344cd1fd0a4f28419497f9722a3daafe3b4186f6b6457e060405160405180910390a35050565b8173ffffffffffffffffffffffffffffffffffffffff168373ffffffffffffffffffffffffffffffffffffffff160361210c576040517f08c379a000000000000000000000000000000000000000000000000000000000815260040161210390613cd9565b60405180910390fd5b80600160008573ffffffffffffffffffffffffffffffffffffffff1673ffffffffffffffffffffffffffffffffffffffff16815260200190815260200160002060008473ffffffffffffffffffffffffffffffffffffffff1673ffffffffffffffffffffffffffffffffffffffff16815260200190815260200160002060006101000a81548160ff0219169083151502179055508173ffffffffffffffffffffffffffffffffffffffff168373ffffffffffffffffffffffffffffffffffffffff167f17307eab39ab6107e8899845ad3d59bd9653f200f220920489ca2b5937696c31836040516121fd91906129db565b60405180910390a3505050565b60007fd9b67a26000000000000000000000000000000000000000000000000000000007bffffffffffffffffffffffffffffffffffffffffffffffffffffffff1916827bffffffffffffffffffffffffffffffffffffffffffffffffffffffff191614806122d557507f0e89341c000000000000000000000000000000000000000000000000000000007bffffffffffffffffffffffffffffffffffffffffffffffffffffffff1916827bffffffffffffffffffffffffffffffffffffffffffffffffffffffff1916145b806122e557506122e48261271c565b5b9050919050565b60606000600167ffffffffffffffff81111561230b5761230a612a11565b5b6040519080825280602002602001820160405280156123395781602001602082028036833780820191505090505b50905082816000815181106123515761235061373e565b5b60200260200101818152505080915050919050565b505050505050565b61238d8473ffffffffffffffffffffffffffffffffffffffff1661180a565b1561253d578373ffffffffffffffffffffffffffffffffffffffff1663f23a6e6187878686866040518663ffffffff1660e01b81526004016123d3959493929190613d4e565b6020604051808303816000875af192505050801561240f57506040513d601f19601f8201168201806040525081019061240c9190613dbd565b60015b6124b45761241b613df7565b806308c379a003612477575061242f613e19565b8061243a5750612479565b806040517f08c379a000000000000000000000000000000000000000000000000000000000815260040161246e9190612cac565b60405180910390fd5b505b6040517f08c379a00000000000000000000000000000000000000000000000000000000081526004016124ab90613f1b565b60405180910390fd5b63f23a6e6160e01b7bffffffffffffffffffffffffffffffffffffffffffffffffffffffff1916817bffffffffffffffffffffffffffffffffffffffffffffffffffffffff19161461253b576040517f08c379a000000000000000000000000000000000000000000000000000000000815260040161253290613fad565b60405180910390fd5b505b505050505050565b6125648473ffffffffffffffffffffffffffffffffffffffff1661180a565b15612714578373ffffffffffffffffffffffffffffffffffffffff1663bc197c8187878686866040518663ffffffff1660e01b81526004016125aa959493929190613fcd565b6020604051808303816000875af19250505080156125e657506040513d601f19601f820116820180604052508101906125e39190613dbd565b60015b61268b576125f2613df7565b806308c379a00361264e5750612606613e19565b806126115750612650565b806040517f08c379a00000000000000000000000000000000000000000000000000000000081526004016126459190612cac565b60405180910390fd5b505b6040517f08c379a000000000000000000000000000000000000000000000000000000000815260040161268290613f1b565b60405180910390fd5b63bc197c8160e01b7bffffffffffffffffffffffffffffffffffffffffffffffffffffffff1916817bffffffffffffffffffffffffffffffffffffffffffffffffffffffff191614612712576040517f08c379a000000000000000000000000000000000000000000000000000000000815260040161270990613fad565b60405180910390fd5b505b505050505050565b60007f01ffc9a7000000000000000000000000000000000000000000000000000000007bffffffffffffffffffffffffffffffffffffffffffffffffffffffff1916827bffffffffffffffffffffffffffffffffffffffffffffffffffffffff1916149050919050565b828054612792906135e9565b90600052602060002090601f0160209004810192826127b457600085556127fb565b82601f106127cd57805160ff19168380011785556127fb565b828001600101855582156127fb579182015b828111156127fa5782518255916020019190600101906127df565b5b509050612808919061280c565b5090565b5b8082111561282557600081600090555060010161280d565b5090565b6000604051905090565b600080fd5b600080fd5b600073ffffffffffffffffffffffffffffffffffffffff82169050919050565b60006128688261283d565b9050919050565b6128788161285d565b811461288357600080fd5b50565b6000813590506128958161286f565b92915050565b6000819050919050565b6128ae8161289b565b81146128b957600080fd5b50565b6000813590506128cb816128a5565b92915050565b600080604083850312156128e8576128e7612833565b5b60006128f685828601612886565b9250506020612907858286016128bc565b9150509250929050565b61291a8161289b565b82525050565b60006020820190506129356000830184612911565b92915050565b60007fffffffff0000000000000000000000000000000000000000000000000000000082169050919050565b6129708161293b565b811461297b57600080fd5b50565b60008135905061298d81612967565b92915050565b6000602082840312156129a9576129a8612833565b5b60006129b78482850161297e565b91505092915050565b60008115159050919050565b6129d5816129c0565b82525050565b60006020820190506129f060008301846129cc565b92915050565b600080fd5b600080fd5b6000601f19601f8301169050919050565b7f4e487b7100000000000000000000000000000000000000000000000000000000600052604160045260246000fd5b612a4982612a00565b810181811067ffffffffffffffff82111715612a6857612a67612a11565b5b80604052505050565b6000612a7b612829565b9050612a878282612a40565b919050565b600067ffffffffffffffff821115612aa757612aa6612a11565b5b612ab082612a00565b9050602081019050919050565b82818337600083830152505050565b6000612adf612ada84612a8c565b612a71565b905082815260208101848484011115612afb57612afa6129fb565b5b612b06848285612abd565b509392505050565b600082601f830112612b2357612b226129f6565b5b8135612b33848260208601612acc565b91505092915050565b60008060008060808587031215612b5657612b55612833565b5b600085013567ffffffffffffffff811115612b7457612b73612838565b5b612b8087828801612b0e565b9450506020612b91878288016128bc565b935050604085013567ffffffffffffffff811115612bb257612bb1612838565b5b612bbe87828801612b0e565b925050606085013567ffffffffffffffff811115612bdf57612bde612838565b5b612beb87828801612b0e565b91505092959194509250565b600060208284031215612c0d57612c0c612833565b5b6000612c1b848285016128bc565b91505092915050565b600081519050919050565b600082825260208201905092915050565b60005b83811015612c5e578082015181840152602081019050612c43565b83811115612c6d576000848401525b50505050565b6000612c7e82612c24565b612c888185612c2f565b9350612c98818560208601612c40565b612ca181612a00565b840191505092915050565b60006020820190508181036000830152612cc68184612c73565b905092915050565b600060208284031215612ce457612ce3612833565b5b600082013567ffffffffffffffff811115612d0257612d01612838565b5b612d0e84828501612b0e565b91505092915050565b60008060408385031215612d2e57612d2d612833565b5b600083013567ffffffffffffffff811115612d4c57612d4b612838565b5b612d5885828601612b0e565b9250506020612d69858286016128bc565b9150509250929050565b600067ffffffffffffffff821115612d8e57612d8d612a11565b5b602082029050602081019050919050565b600080fd5b6000612db7612db284612d73565b612a71565b90508083825260208201905060208402830185811115612dda57612dd9612d9f565b5b835b81811015612e035780612def88826128bc565b845260208401935050602081019050612ddc565b5050509392505050565b600082601f830112612e2257612e216129f6565b5b8135612e32848260208601612da4565b91505092915050565b600067ffffffffffffffff821115612e5657612e55612a11565b5b612e5f82612a00565b9050602081019050919050565b6000612e7f612e7a84612e3b565b612a71565b905082815260208101848484011115612e9b57612e9a6129fb565b5b612ea6848285612abd565b509392505050565b600082601f830112612ec357612ec26129f6565b5b8135612ed3848260208601612e6c565b91505092915050565b600080600080600060a08688031215612ef857612ef7612833565b5b6000612f0688828901612886565b9550506020612f1788828901612886565b945050604086013567ffffffffffffffff811115612f3857612f37612838565b5b612f4488828901612e0d565b935050606086013567ffffffffffffffff811115612f6557612f64612838565b5b612f7188828901612e0d565b925050608086013567ffffffffffffffff811115612f9257612f91612838565b5b612f9e88828901612eae565b9150509295509295909350565b600067ffffffffffffffff821115612fc657612fc5612a11565b5b602082029050602081019050919050565b6000612fea612fe584612fab565b612a71565b9050808382526020820190506020840283018581111561300d5761300c612d9f565b5b835b8181101561303657806130228882612886565b84526020840193505060208101905061300f565b5050509392505050565b600082601f830112613055576130546129f6565b5b8135613065848260208601612fd7565b91505092915050565b6000806040838503121561308557613084612833565b5b600083013567ffffffffffffffff8111156130a3576130a2612838565b5b6130af85828601613040565b925050602083013567ffffffffffffffff8111156130d0576130cf612838565b5b6130dc85828601612e0d565b9150509250929050565b600081519050919050565b600082825260208201905092915050565b6000819050602082019050919050565b61311b8161289b565b82525050565b600061312d8383613112565b60208301905092915050565b6000602082019050919050565b6000613151826130e6565b61315b81856130f1565b935061316683613102565b8060005b8381101561319757815161317e8882613121565b975061318983613139565b92505060018101905061316a565b5085935050505092915050565b600060208201905081810360008301526131be8184613146565b905092915050565b600080604083850312156131dd576131dc612833565b5b600083013567ffffffffffffffff8111156131fb576131fa612838565b5b61320785828601612b0e565b925050602083013567ffffffffffffffff81111561322857613227612838565b5b61323485828601612b0e565b9150509250929050565b6000806040838503121561325557613254612833565b5b6000613263858286016128bc565b925050602083013567ffffffffffffffff81111561328457613283612838565b5b61329085828601612b0e565b9150509250929050565b6132a38161285d565b82525050565b60006020820190506132be600083018461329a565b92915050565b6132cd816129c0565b81146132d857600080fd5b50565b6000813590506132ea816132c4565b92915050565b6000806040838503121561330757613306612833565b5b600061331585828601612886565b9250506020613326858286016132db565b9150509250929050565b6133398161293b565b82525050565b60006020820190506133546000830184613330565b92915050565b6000602082840312156133705761336f612833565b5b600061337e84828501612886565b91505092915050565b6000806040838503121561339e5761339d612833565b5b60006133ac85828601612886565b92505060206133bd85828601612886565b9150509250929050565b600080600080600060a086880312156133e3576133e2612833565b5b60006133f188828901612886565b955050602061340288828901612886565b9450506040613413888289016128bc565b9350506060613424888289016128bc565b925050608086013567ffffffffffffffff81111561344557613444612838565b5b61345188828901612eae565b9150509295509295909350565b7f455243313135353a2062616c616e636520717565727920666f7220746865207a60008201527f65726f2061646472657373000000000000000000000000000000000000000000602082015250565b60006134ba602b83612c2f565b91506134c58261345e565b604082019050919050565b600060208201905081810360008301526134e9816134ad565b9050919050565b600081905092915050565b600061350682612c24565b61351081856134f0565b9350613520818560208601612c40565b80840191505092915050565b600061353882846134fb565b915081905092915050565b7f4e487b7100000000000000000000000000000000000000000000000000000000600052601160045260246000fd5b600061357d8261289b565b91507fffffffffffffffffffffffffffffffffffffffffffffffffffffffffffffffff82036135af576135ae613543565b5b600182019050919050565b7f4e487b7100000000000000000000000000000000000000000000000000000000600052602260045260246000fd5b6000600282049050600182168061360157607f821691505b602082108103613614576136136135ba565b5b50919050565b7f455243313135353a207472616e736665722063616c6c6572206973206e6f742060008201527f6f776e6572206e6f7220617070726f7665640000000000000000000000000000602082015250565b6000613676603283612c2f565b91506136818261361a565b604082019050919050565b600060208201905081810360008301526136a581613669565b9050919050565b7f455243313135353a206163636f756e747320616e6420696473206c656e67746860008201527f206d69736d617463680000000000000000000000000000000000000000000000602082015250565b6000613708602983612c2f565b9150613713826136ac565b604082019050919050565b60006020820190508181036000830152613737816136fb565b9050919050565b7f4e487b7100000000000000000000000000000000000000000000000000000000600052603260045260246000fd5b7f4f776e61626c653a2063616c6c6572206973206e6f7420746865206f776e6572600082015250565b60006137a3602083612c2f565b91506137ae8261376d565b602082019050919050565b600060208201905081810360008301526137d281613796565b9050919050565b7f6f6e6c792061646d696e2063616e2063616c6c20746869730000000000000000600082015250565b600061380f601883612c2f565b915061381a826137d9565b602082019050919050565b6000602082019050818103600083015261383e81613802565b9050919050565b7f455243313135353a2063616c6c6572206973206e6f74206f776e6572206e6f7260008201527f20617070726f7665640000000000000000000000000000000000000000000000602082015250565b60006138a1602983612c2f565b91506138ac82613845565b604082019050919050565b600060208201905081810360008301526138d081613894565b9050919050565b7f4f776e61626c653a206e6577206f776e657220697320746865207a65726f206160008201527f6464726573730000000000000000000000000000000000000000000000000000602082015250565b6000613933602683612c2f565b915061393e826138d7565b604082019050919050565b6000602082019050818103600083015261396281613926565b9050919050565b7f455243313135353a206d696e7420746f20746865207a65726f2061646472657360008201527f7300000000000000000000000000000000000000000000000000000000000000602082015250565b60006139c5602183612c2f565b91506139d082613969565b604082019050919050565b600060208201905081810360008301526139f4816139b8565b9050919050565b6000613a068261289b565b9150613a118361289b565b9250827fffffffffffffffffffffffffffffffffffffffffffffffffffffffffffffffff03821115613a4657613a45613543565b5b828201905092915050565b6000604082019050613a666000830185612911565b613a736020830184612911565b9392505050565b7f455243313135353a2069647320616e6420616d6f756e7473206c656e6774682060008201527f6d69736d61746368000000000000000000000000000000000000000000000000602082015250565b6000613ad6602883612c2f565b9150613ae182613a7a565b604082019050919050565b60006020820190508181036000830152613b0581613ac9565b9050919050565b7f455243313135353a207472616e7366657220746f20746865207a65726f20616460008201527f6472657373000000000000000000000000000000000000000000000000000000602082015250565b6000613b68602583612c2f565b9150613b7382613b0c565b604082019050919050565b60006020820190508181036000830152613b9781613b5b565b9050919050565b7f455243313135353a20696e73756666696369656e742062616c616e636520666f60008201527f72207472616e7366657200000000000000000000000000000000000000000000602082015250565b6000613bfa602a83612c2f565b9150613c0582613b9e565b604082019050919050565b60006020820190508181036000830152613c2981613bed565b9050919050565b60006040820190508181036000830152613c4a8185613146565b90508181036020830152613c5e8184613146565b90509392505050565b7f455243313135353a2073657474696e6720617070726f76616c2073746174757360008201527f20666f722073656c660000000000000000000000000000000000000000000000602082015250565b6000613cc3602983612c2f565b9150613cce82613c67565b604082019050919050565b60006020820190508181036000830152613cf281613cb6565b9050919050565b600081519050919050565b600082825260208201905092915050565b6000613d2082613cf9565b613d2a8185613d04565b9350613d3a818560208601612c40565b613d4381612a00565b840191505092915050565b600060a082019050613d63600083018861329a565b613d70602083018761329a565b613d7d6040830186612911565b613d8a6060830185612911565b8181036080830152613d9c8184613d15565b90509695505050505050565b600081519050613db781612967565b92915050565b600060208284031215613dd357613dd2612833565b5b6000613de184828501613da8565b91505092915050565b60008160e01c9050919050565b600060033d1115613e165760046000803e613e13600051613dea565b90505b90565b600060443d10613ea657613e2b612829565b60043d036004823e80513d602482011167ffffffffffffffff82111715613e53575050613ea6565b808201805167ffffffffffffffff811115613e715750505050613ea6565b80602083010160043d038501811115613e8e575050505050613ea6565b613e9d82602001850186612a40565b82955050505050505b90565b7f455243313135353a207472616e7366657220746f206e6f6e204552433131353560008201527f526563656976657220696d706c656d656e746572000000000000000000000000602082015250565b6000613f05603483612c2f565b9150613f1082613ea9565b604082019050919050565b60006020820190508181036000830152613f3481613ef8565b9050919050565b7f455243313135353a204552433131353552656365697665722072656a6563746560008201527f6420746f6b656e73000000000000000000000000000000000000000000000000602082015250565b6000613f97602883612c2f565b9150613fa282613f3b565b604082019050919050565b60006020820190508181036000830152613fc681613f8a565b9050919050565b600060a082019050613fe2600083018861329a565b613fef602083018761329a565b81810360408301526140018186613146565b905081810360608301526140158185613146565b905081810360808301526140298184613d15565b9050969550505050505056fea2646970667358221220b61ad4bb7bc22a035aaf984640fa583d28c9972c254b43be517bea00155b74eb64736f6c634300080d0033",
  "immutableReferences": {},
  "source": "// SPDX-License-Identifier: MIT\npragma solidity ^0.8.0;\nimport \"../ERC1155/ERC1155.sol\";\nimport \"../ERC1155/utils/ERC1155Holder.sol\";\nimport \"../ERC1155/utils/access/Ownable.sol\";\n\n\n\ncontract TFG is ERC1155, ERC1155Holder, Ownable{\n    address public admin;\n    address public addressC;\n    uint256 public count;\n\n    //ids para los tokens\n    uint256 public constant moneda = 0;\n\n    //estructuras auxiliares\n    string [] public docs;\n    mapping (string => address) _seller;\n    mapping (string => bool) _docExists;\n    mapping (string => uint) _price;\n    mapping (string => address) _property;\n    mapping (string => string) _titles;\n    mapping (string => uint) _ids;\n    mapping (string => string) _descriptions;\n\n    string ipfsHash;\n\n    constructor() ERC1155(\"\") {\n        addressC = address(this);\n        admin = msg.sender;\n        count = 1;\n       _mint(msg.sender, moneda, 100, \"\");\n    }\n\n    function supportsInterface(bytes4 interfaceId)\n        public\n        view\n        virtual\n        override(ERC1155, ERC1155Receiver)\n        returns (bool)\n    {\n        return super.supportsInterface(interfaceId);\n    }\n \n    function sendHash(string memory x, uint precio, string memory titulo, string memory description) public {\n        require(!_docExists[x]);\n        ipfsHash = x;\n        docs.push(x);\n        _ids[x] = count;\n        _price[x] = precio;\n        _property[x] = msg.sender;\n        _titles[x] = titulo;\n        _descriptions[x] = description;\n        bytes memory dataColor = bytes(x);\n        _mint(msg.sender, count, 1, dataColor);\n        count++;\n        _docExists[x] = true;\n    }\n\n    function getHash() public view returns (string memory x) {\n    return ipfsHash;\n    }\n    \n    modifier onlyAdmin() {\n        require(msg.sender == admin, \"only admin can call this\");\n        _;\n    }\n\n    function totalSupply() public view returns (uint256){\n        return docs.length;\n    }\n\n    function getProperty(string memory id) public view returns (address){\n        return _property[id];\n    }\n\n    function getTitle(string memory id) public view returns(string memory title){\n        return _titles[id];\n    }\n\n    function setTitle(string memory id, string memory newTitle) public {\n        _titles[id] = newTitle;\n    }\n\n    function getPrice(string memory id) public view returns (uint256){\n        return _price[id];\n    }\n\n    function setPrice(string memory id, uint256 newPrice) public {\n        _price[id] = newPrice;\n    }\n\n    function getDescription(string memory id) public view returns (string memory) {\n        return _descriptions[id];\n    }\n\n    function setDescription(string memory id, string memory newDescription) public {\n        _descriptions[id] = newDescription;\n    }\n\n    function funds(address propietario) public view returns (uint256){\n        return balanceOf(propietario, 0);\n    }\n    \n\n    function addFunds() public payable onlyAdmin{\n        _mint(msg.sender, 0, 100, \"\");\n    }\n\n\n    function buy(string memory id) public payable {\n        //Ahora la transaccin de las monedas\n        safeTransferFrom(msg.sender, _seller[id], 0, _price[id], \"\");\n        _safeTransferFrom(_property[id], msg.sender, _ids[id], 1, \"\");\n        _property[id] = msg.sender;\n    }\n\n    function permission(string memory id) public {\n        _seller[id] = _property[id];\n        _property[id] = address(this);\n        safeTransferFrom(msg.sender, _property[id], _ids[id], 1, \"\");\n    }\n\n    function updatePrice(uint newPrice, string memory id) public {\n        _price[id] = newPrice;\n    }\n\n}",
  "sourcePath": "/Users/ignacio/Desktop/TFG1155/src/contracts/TFG.sol",
  "compiler": {
    "name": "solc",
    "version": "0.8.13+commit.abaa5c0e.Emscripten.clang"
  },
  "schemaVersion": "3.4.2",
  "updatedAt": "2022-04-16T14:24:49.444Z",
  "networkType": "ethereum",
  "devdoc": {
    "kind": "dev",
    "methods": {
      "balanceOf(address,uint256)": {
        "details": "See {IERC1155-balanceOf}. Requirements: - `account` cannot be the zero address."
      },
      "balanceOfBatch(address[],uint256[])": {
        "details": "See {IERC1155-balanceOfBatch}. Requirements: - `accounts` and `ids` must have the same length."
      },
      "isApprovedForAll(address,address)": {
        "details": "See {IERC1155-isApprovedForAll}."
      },
      "owner()": {
        "details": "Returns the address of the current owner."
      },
      "renounceOwnership()": {
        "details": "Leaves the contract without owner. It will not be possible to call `onlyOwner` functions anymore. Can only be called by the current owner. NOTE: Renouncing ownership will leave the contract without an owner, thereby removing any functionality that is only available to the owner."
      },
      "safeBatchTransferFrom(address,address,uint256[],uint256[],bytes)": {
        "details": "See {IERC1155-safeBatchTransferFrom}."
      },
      "safeTransferFrom(address,address,uint256,uint256,bytes)": {
        "details": "See {IERC1155-safeTransferFrom}."
      },
      "setApprovalForAll(address,bool)": {
        "details": "See {IERC1155-setApprovalForAll}."
      },
      "transferOwnership(address)": {
        "details": "Transfers ownership of the contract to a new account (`newOwner`). Can only be called by the current owner."
      },
      "uri(uint256)": {
        "details": "See {IERC1155MetadataURI-uri}. This implementation returns the same URI for *all* token types. It relies on the token type ID substitution mechanism https://eips.ethereum.org/EIPS/eip-1155#metadata[defined in the EIP]. Clients calling this function must replace the `\\{id\\}` substring with the actual token type ID."
      }
    },
    "version": 1
  },
  "userdoc": {
    "kind": "user",
    "methods": {},
    "version": 1
  }
}