{
  "contractName": "TFG",
  "abi": [
    {
      "inputs": [],
      "stateMutability": "nonpayable",
      "type": "constructor"
    },
    {
      "anonymous": false,
      "inputs": [
        {
          "indexed": true,
          "internalType": "address",
          "name": "account",
          "type": "address"
        },
        {
          "indexed": true,
          "internalType": "address",
          "name": "operator",
          "type": "address"
        },
        {
          "indexed": false,
          "internalType": "bool",
          "name": "approved",
          "type": "bool"
        }
      ],
      "name": "ApprovalForAll",
      "type": "event"
    },
    {
      "anonymous": false,
      "inputs": [
        {
          "indexed": true,
          "internalType": "address",
          "name": "operator",
          "type": "address"
        },
        {
          "indexed": true,
          "internalType": "address",
          "name": "from",
          "type": "address"
        },
        {
          "indexed": true,
          "internalType": "address",
          "name": "to",
          "type": "address"
        },
        {
          "indexed": false,
          "internalType": "uint256[]",
          "name": "ids",
          "type": "uint256[]"
        },
        {
          "indexed": false,
          "internalType": "uint256[]",
          "name": "values",
          "type": "uint256[]"
        }
      ],
      "name": "TransferBatch",
      "type": "event"
    },
    {
      "anonymous": false,
      "inputs": [
        {
          "indexed": true,
          "internalType": "address",
          "name": "operator",
          "type": "address"
        },
        {
          "indexed": true,
          "internalType": "address",
          "name": "from",
          "type": "address"
        },
        {
          "indexed": true,
          "internalType": "address",
          "name": "to",
          "type": "address"
        },
        {
          "indexed": false,
          "internalType": "uint256",
          "name": "id",
          "type": "uint256"
        },
        {
          "indexed": false,
          "internalType": "uint256",
          "name": "value",
          "type": "uint256"
        }
      ],
      "name": "TransferSingle",
      "type": "event"
    },
    {
      "anonymous": false,
      "inputs": [
        {
          "indexed": false,
          "internalType": "string",
          "name": "value",
          "type": "string"
        },
        {
          "indexed": true,
          "internalType": "uint256",
          "name": "id",
          "type": "uint256"
        }
      ],
      "name": "URI",
      "type": "event"
    },
    {
      "inputs": [],
      "name": "admin",
      "outputs": [
        {
          "internalType": "address",
          "name": "",
          "type": "address"
        }
      ],
      "stateMutability": "view",
      "type": "function",
      "constant": true
    },
    {
      "inputs": [
        {
          "internalType": "address",
          "name": "account",
          "type": "address"
        },
        {
          "internalType": "uint256",
          "name": "id",
          "type": "uint256"
        }
      ],
      "name": "balanceOf",
      "outputs": [
        {
          "internalType": "uint256",
          "name": "",
          "type": "uint256"
        }
      ],
      "stateMutability": "view",
      "type": "function",
      "constant": true
    },
    {
      "inputs": [
        {
          "internalType": "address[]",
          "name": "accounts",
          "type": "address[]"
        },
        {
          "internalType": "uint256[]",
          "name": "ids",
          "type": "uint256[]"
        }
      ],
      "name": "balanceOfBatch",
      "outputs": [
        {
          "internalType": "uint256[]",
          "name": "",
          "type": "uint256[]"
        }
      ],
      "stateMutability": "view",
      "type": "function",
      "constant": true
    },
    {
      "inputs": [
        {
          "internalType": "uint256",
          "name": "",
          "type": "uint256"
        }
      ],
      "name": "colors",
      "outputs": [
        {
          "internalType": "string",
          "name": "",
          "type": "string"
        }
      ],
      "stateMutability": "view",
      "type": "function",
      "constant": true
    },
    {
      "inputs": [],
      "name": "count",
      "outputs": [
        {
          "internalType": "uint256",
          "name": "",
          "type": "uint256"
        }
      ],
      "stateMutability": "view",
      "type": "function",
      "constant": true
    },
    {
      "inputs": [
        {
          "internalType": "address",
          "name": "account",
          "type": "address"
        },
        {
          "internalType": "address",
          "name": "operator",
          "type": "address"
        }
      ],
      "name": "isApprovedForAll",
      "outputs": [
        {
          "internalType": "bool",
          "name": "",
          "type": "bool"
        }
      ],
      "stateMutability": "view",
      "type": "function",
      "constant": true
    },
    {
      "inputs": [],
      "name": "moneda",
      "outputs": [
        {
          "internalType": "uint256",
          "name": "",
          "type": "uint256"
        }
      ],
      "stateMutability": "view",
      "type": "function",
      "constant": true
    },
    {
      "inputs": [
        {
          "internalType": "address",
          "name": "from",
          "type": "address"
        },
        {
          "internalType": "address",
          "name": "to",
          "type": "address"
        },
        {
          "internalType": "uint256[]",
          "name": "ids",
          "type": "uint256[]"
        },
        {
          "internalType": "uint256[]",
          "name": "amounts",
          "type": "uint256[]"
        },
        {
          "internalType": "bytes",
          "name": "data",
          "type": "bytes"
        }
      ],
      "name": "safeBatchTransferFrom",
      "outputs": [],
      "stateMutability": "nonpayable",
      "type": "function"
    },
    {
      "inputs": [
        {
          "internalType": "address",
          "name": "from",
          "type": "address"
        },
        {
          "internalType": "address",
          "name": "to",
          "type": "address"
        },
        {
          "internalType": "uint256",
          "name": "id",
          "type": "uint256"
        },
        {
          "internalType": "uint256",
          "name": "amount",
          "type": "uint256"
        },
        {
          "internalType": "bytes",
          "name": "data",
          "type": "bytes"
        }
      ],
      "name": "safeTransferFrom",
      "outputs": [],
      "stateMutability": "nonpayable",
      "type": "function"
    },
    {
      "inputs": [
        {
          "internalType": "address",
          "name": "operator",
          "type": "address"
        },
        {
          "internalType": "bool",
          "name": "approved",
          "type": "bool"
        }
      ],
      "name": "setApprovalForAll",
      "outputs": [],
      "stateMutability": "nonpayable",
      "type": "function"
    },
    {
      "inputs": [
        {
          "internalType": "bytes4",
          "name": "interfaceId",
          "type": "bytes4"
        }
      ],
      "name": "supportsInterface",
      "outputs": [
        {
          "internalType": "bool",
          "name": "",
          "type": "bool"
        }
      ],
      "stateMutability": "view",
      "type": "function",
      "constant": true
    },
    {
      "inputs": [
        {
          "internalType": "uint256",
          "name": "",
          "type": "uint256"
        }
      ],
      "name": "uri",
      "outputs": [
        {
          "internalType": "string",
          "name": "",
          "type": "string"
        }
      ],
      "stateMutability": "view",
      "type": "function",
      "constant": true
    },
    {
      "inputs": [
        {
          "internalType": "string",
          "name": "_color",
          "type": "string"
        }
      ],
      "name": "nuevoColor",
      "outputs": [],
      "stateMutability": "nonpayable",
      "type": "function"
    },
    {
      "inputs": [],
      "name": "totalSupply",
      "outputs": [
        {
          "internalType": "uint256",
          "name": "",
          "type": "uint256"
        }
      ],
      "stateMutability": "view",
      "type": "function",
      "constant": true
    }
  ],
  "bytecode": "0x60806040523480156200001157600080fd5b50604051806020016040528060008152506200003381620000a860201b60201c565b5033600360006101000a81548173ffffffffffffffffffffffffffffffffffffffff021916908373ffffffffffffffffffffffffffffffffffffffff1602179055506001600481905550620000a2336000606460405180602001604052806000815250620000c460201b60201c565b62000cb2565b8060029080519060200190620000c092919062000535565b5050565b600073ffffffffffffffffffffffffffffffffffffffff168473ffffffffffffffffffffffffffffffffffffffff160362000136576040517f08c379a00000000000000000000000000000000000000000000000000000000081526004016200012d906200066c565b60405180910390fd5b6000620001486200028860201b60201c565b9050620001818160008762000163886200029060201b60201c565b62000174886200029060201b60201c565b876200031160201b60201c565b8260008086815260200190815260200160002060008773ffffffffffffffffffffffffffffffffffffffff1673ffffffffffffffffffffffffffffffffffffffff1681526020019081526020016000206000828254620001e29190620006c7565b925050819055508473ffffffffffffffffffffffffffffffffffffffff16600073ffffffffffffffffffffffffffffffffffffffff168273ffffffffffffffffffffffffffffffffffffffff167fc3d58168c5ae7397731d063d5bbf3d657854427343f4c083240f7aacaa2d0f6287876040516200026292919062000735565b60405180910390a462000281816000878787876200031960201b60201c565b5050505050565b600033905090565b60606000600167ffffffffffffffff811115620002b257620002b162000762565b5b604051908082528060200260200182016040528015620002e15781602001602082028036833780820191505090505b5090508281600081518110620002fc57620002fb62000791565b5b60200260200101818152505080915050919050565b505050505050565b620003458473ffffffffffffffffffffffffffffffffffffffff166200051260201b620009f51760201c565b156200050a578373ffffffffffffffffffffffffffffffffffffffff1663f23a6e6187878686866040518663ffffffff1660e01b81526004016200038e959493929190620008a9565b6020604051808303816000875af1925050508015620003cd57506040513d601f19601f82011682018060405250810190620003ca919062000979565b60015b6200047e57620003dc620009b8565b806308c379a0036200043f5750620003f362000a13565b8062000400575062000441565b806040517f08c379a000000000000000000000000000000000000000000000000000000000815260040162000436919062000afa565b60405180910390fd5b505b6040517f08c379a0000000000000000000000000000000000000000000000000000000008152600401620004759062000b94565b60405180910390fd5b63f23a6e6160e01b7bffffffffffffffffffffffffffffffffffffffffffffffffffffffff1916817bffffffffffffffffffffffffffffffffffffffffffffffffffffffff19161462000508576040517f08c379a0000000000000000000000000000000000000000000000000000000008152600401620004ff9062000c2c565b60405180910390fd5b505b505050505050565b6000808273ffffffffffffffffffffffffffffffffffffffff163b119050919050565b828054620005439062000c7d565b90600052602060002090601f016020900481019282620005675760008555620005b3565b82601f106200058257805160ff1916838001178555620005b3565b82800160010185558215620005b3579182015b82811115620005b257825182559160200191906001019062000595565b5b509050620005c29190620005c6565b5090565b5b80821115620005e1576000816000905550600101620005c7565b5090565b600082825260208201905092915050565b7f455243313135353a206d696e7420746f20746865207a65726f2061646472657360008201527f7300000000000000000000000000000000000000000000000000000000000000602082015250565b600062000654602183620005e5565b91506200066182620005f6565b604082019050919050565b60006020820190508181036000830152620006878162000645565b9050919050565b6000819050919050565b7f4e487b7100000000000000000000000000000000000000000000000000000000600052601160045260246000fd5b6000620006d4826200068e565b9150620006e1836200068e565b9250827fffffffffffffffffffffffffffffffffffffffffffffffffffffffffffffffff0382111562000719576200071862000698565b5b828201905092915050565b6200072f816200068e565b82525050565b60006040820190506200074c600083018562000724565b6200075b602083018462000724565b9392505050565b7f4e487b7100000000000000000000000000000000000000000000000000000000600052604160045260246000fd5b7f4e487b7100000000000000000000000000000000000000000000000000000000600052603260045260246000fd5b600073ffffffffffffffffffffffffffffffffffffffff82169050919050565b6000620007ed82620007c0565b9050919050565b620007ff81620007e0565b82525050565b600081519050919050565b600082825260208201905092915050565b60005b838110156200084157808201518184015260208101905062000824565b8381111562000851576000848401525b50505050565b6000601f19601f8301169050919050565b6000620008758262000805565b62000881818562000810565b93506200089381856020860162000821565b6200089e8162000857565b840191505092915050565b600060a082019050620008c06000830188620007f4565b620008cf6020830187620007f4565b620008de604083018662000724565b620008ed606083018562000724565b818103608083015262000901818462000868565b90509695505050505050565b6000604051905090565b600080fd5b60007fffffffff0000000000000000000000000000000000000000000000000000000082169050919050565b62000953816200091c565b81146200095f57600080fd5b50565b600081519050620009738162000948565b92915050565b60006020828403121562000992576200099162000917565b5b6000620009a28482850162000962565b91505092915050565b60008160e01c9050919050565b600060033d1115620009da5760046000803e620009d7600051620009ab565b90505b90565b620009e88262000857565b810181811067ffffffffffffffff8211171562000a0a5762000a0962000762565b5b80604052505050565b600060443d1062000aab5762000a286200090d565b60043d036004823e80513d602482011167ffffffffffffffff8211171562000a5257505062000aab565b808201805167ffffffffffffffff81111562000a72575050505062000aab565b80602083010160043d03850181111562000a9157505050505062000aab565b62000aa282602001850186620009dd565b82955050505050505b90565b600081519050919050565b600062000ac68262000aae565b62000ad28185620005e5565b935062000ae481856020860162000821565b62000aef8162000857565b840191505092915050565b6000602082019050818103600083015262000b16818462000ab9565b905092915050565b7f455243313135353a207472616e7366657220746f206e6f6e204552433131353560008201527f526563656976657220696d706c656d656e746572000000000000000000000000602082015250565b600062000b7c603483620005e5565b915062000b898262000b1e565b604082019050919050565b6000602082019050818103600083015262000baf8162000b6d565b9050919050565b7f455243313135353a204552433131353552656365697665722072656a6563746560008201527f6420746f6b656e73000000000000000000000000000000000000000000000000602082015250565b600062000c14602883620005e5565b915062000c218262000bb6565b604082019050919050565b6000602082019050818103600083015262000c478162000c05565b9050919050565b7f4e487b7100000000000000000000000000000000000000000000000000000000600052602260045260246000fd5b6000600282049050600182168062000c9657607f821691505b60208210810362000cac5762000cab62000c4e565b5b50919050565b612c888062000cc26000396000f3fe608060405234801561001057600080fd5b50600436106100e95760003560e01c8063866e49b91161008c578063e985e9c511610066578063e985e9c51461026e578063f1cc12681461029e578063f242432a146102bc578063f851a440146102d8576100e9565b8063866e49b914610206578063a22cb46514610222578063bd11f69d1461023e576100e9565b80630e89341c116100c85780630e89341c1461016c57806318160ddd1461019c5780632eb2c2d6146101ba5780634e1273f4146101d6576100e9565b8062fdd58e146100ee57806301ffc9a71461011e57806306661abd1461014e575b600080fd5b6101086004803603810190610103919061189a565b6102f6565b60405161011591906118e9565b60405180910390f35b6101386004803603810190610133919061195c565b6103be565b60405161014591906119a4565b60405180910390f35b6101566104a0565b60405161016391906118e9565b60405180910390f35b610186600480360381019061018191906119bf565b6104a6565b6040516101939190611a85565b60405180910390f35b6101a461053a565b6040516101b191906118e9565b60405180910390f35b6101d460048036038101906101cf9190611ca4565b610544565b005b6101f060048036038101906101eb9190611e36565b6105e5565b6040516101fd9190611f6c565b60405180910390f35b610220600480360381019061021b919061202f565b6106fe565b005b61023c600480360381019061023791906120a4565b6107d3565b005b610258600480360381019061025391906119bf565b6107e9565b6040516102659190611a85565b60405180910390f35b610288600480360381019061028391906120e4565b610895565b60405161029591906119a4565b60405180910390f35b6102a6610929565b6040516102b391906118e9565b60405180910390f35b6102d660048036038101906102d19190612124565b61092e565b005b6102e06109cf565b6040516102ed91906121ca565b60405180910390f35b60008073ffffffffffffffffffffffffffffffffffffffff168373ffffffffffffffffffffffffffffffffffffffff1603610366576040517f08c379a000000000000000000000000000000000000000000000000000000000815260040161035d90612257565b60405180910390fd5b60008083815260200190815260200160002060008473ffffffffffffffffffffffffffffffffffffffff1673ffffffffffffffffffffffffffffffffffffffff16815260200190815260200160002054905092915050565b60007fd9b67a26000000000000000000000000000000000000000000000000000000007bffffffffffffffffffffffffffffffffffffffffffffffffffffffff1916827bffffffffffffffffffffffffffffffffffffffffffffffffffffffff1916148061048957507f0e89341c000000000000000000000000000000000000000000000000000000007bffffffffffffffffffffffffffffffffffffffffffffffffffffffff1916827bffffffffffffffffffffffffffffffffffffffffffffffffffffffff1916145b80610499575061049882610a18565b5b9050919050565b60045481565b6060600280546104b5906122a6565b80601f01602080910402602001604051908101604052809291908181526020018280546104e1906122a6565b801561052e5780601f106105035761010080835404028352916020019161052e565b820191906000526020600020905b81548152906001019060200180831161051157829003601f168201915b50505050509050919050565b6000600454905090565b61054c610a82565b73ffffffffffffffffffffffffffffffffffffffff168573ffffffffffffffffffffffffffffffffffffffff16148061059257506105918561058c610a82565b610895565b5b6105d1576040517f08c379a00000000000000000000000000000000000000000000000000000000081526004016105c890612349565b60405180910390fd5b6105de8585858585610a8a565b5050505050565b6060815183511461062b576040517f08c379a0000000000000000000000000000000000000000000000000000000008152600401610622906123db565b60405180910390fd5b6000835167ffffffffffffffff81111561064857610647611aac565b5b6040519080825280602002602001820160405280156106765781602001602082028036833780820191505090505b50905060005b84518110156106f3576106c385828151811061069b5761069a6123fb565b5b60200260200101518583815181106106b6576106b56123fb565b5b60200260200101516102f6565b8282815181106106d6576106d56123fb565b5b602002602001018181525050806106ec90612459565b905061067c565b508091505092915050565b60068160405161070e91906124dd565b908152602001604051809103902060009054906101000a900460ff161561073457600080fd5b60058190806001815401808255809150506001900390600052602060002001600090919091909150908051906020019061076f92919061174f565b506000819050610798336004600081548092919061078c90612459565b91905055600184610d9d565b60016006836040516107aa91906124dd565b908152602001604051809103902060006101000a81548160ff0219169083151502179055505050565b6107e56107de610a82565b8383610f32565b5050565b600581815481106107f957600080fd5b906000526020600020016000915090508054610814906122a6565b80601f0160208091040260200160405190810160405280929190818152602001828054610840906122a6565b801561088d5780601f106108625761010080835404028352916020019161088d565b820191906000526020600020905b81548152906001019060200180831161087057829003601f168201915b505050505081565b6000600160008473ffffffffffffffffffffffffffffffffffffffff1673ffffffffffffffffffffffffffffffffffffffff16815260200190815260200160002060008373ffffffffffffffffffffffffffffffffffffffff1673ffffffffffffffffffffffffffffffffffffffff16815260200190815260200160002060009054906101000a900460ff16905092915050565b600081565b610936610a82565b73ffffffffffffffffffffffffffffffffffffffff168573ffffffffffffffffffffffffffffffffffffffff16148061097c575061097b85610976610a82565b610895565b5b6109bb576040517f08c379a00000000000000000000000000000000000000000000000000000000081526004016109b290612566565b60405180910390fd5b6109c8858585858561109e565b5050505050565b600360009054906101000a900473ffffffffffffffffffffffffffffffffffffffff1681565b6000808273ffffffffffffffffffffffffffffffffffffffff163b119050919050565b60007f01ffc9a7000000000000000000000000000000000000000000000000000000007bffffffffffffffffffffffffffffffffffffffffffffffffffffffff1916827bffffffffffffffffffffffffffffffffffffffffffffffffffffffff1916149050919050565b600033905090565b8151835114610ace576040517f08c379a0000000000000000000000000000000000000000000000000000000008152600401610ac5906125f8565b60405180910390fd5b600073ffffffffffffffffffffffffffffffffffffffff168473ffffffffffffffffffffffffffffffffffffffff1603610b3d576040517f08c379a0000000000000000000000000000000000000000000000000000000008152600401610b349061268a565b60405180910390fd5b6000610b47610a82565b9050610b5781878787878761131f565b60005b8451811015610d08576000858281518110610b7857610b776123fb565b5b602002602001015190506000858381518110610b9757610b966123fb565b5b60200260200101519050600080600084815260200190815260200160002060008b73ffffffffffffffffffffffffffffffffffffffff1673ffffffffffffffffffffffffffffffffffffffff16815260200190815260200160002054905081811015610c38576040517f08c379a0000000000000000000000000000000000000000000000000000000008152600401610c2f9061271c565b60405180910390fd5b81810360008085815260200190815260200160002060008c73ffffffffffffffffffffffffffffffffffffffff1673ffffffffffffffffffffffffffffffffffffffff168152602001908152602001600020819055508160008085815260200190815260200160002060008b73ffffffffffffffffffffffffffffffffffffffff1673ffffffffffffffffffffffffffffffffffffffff1681526020019081526020016000206000828254610ced919061273c565b9250508190555050505080610d0190612459565b9050610b5a565b508473ffffffffffffffffffffffffffffffffffffffff168673ffffffffffffffffffffffffffffffffffffffff168273ffffffffffffffffffffffffffffffffffffffff167f4a39dc06d4c0dbc64b70af90fd698a233a518aa5d07e595d983b8c0526c8f7fb8787604051610d7f929190612792565b60405180910390a4610d95818787878787611327565b505050505050565b600073ffffffffffffffffffffffffffffffffffffffff168473ffffffffffffffffffffffffffffffffffffffff1603610e0c576040517f08c379a0000000000000000000000000000000000000000000000000000000008152600401610e039061283b565b60405180910390fd5b6000610e16610a82565b9050610e3781600087610e28886114fe565b610e31886114fe565b8761131f565b8260008086815260200190815260200160002060008773ffffffffffffffffffffffffffffffffffffffff1673ffffffffffffffffffffffffffffffffffffffff1681526020019081526020016000206000828254610e96919061273c565b925050819055508473ffffffffffffffffffffffffffffffffffffffff16600073ffffffffffffffffffffffffffffffffffffffff168273ffffffffffffffffffffffffffffffffffffffff167fc3d58168c5ae7397731d063d5bbf3d657854427343f4c083240f7aacaa2d0f628787604051610f1492919061285b565b60405180910390a4610f2b81600087878787611578565b5050505050565b8173ffffffffffffffffffffffffffffffffffffffff168373ffffffffffffffffffffffffffffffffffffffff1603610fa0576040517f08c379a0000000000000000000000000000000000000000000000000000000008152600401610f97906128f6565b60405180910390fd5b80600160008573ffffffffffffffffffffffffffffffffffffffff1673ffffffffffffffffffffffffffffffffffffffff16815260200190815260200160002060008473ffffffffffffffffffffffffffffffffffffffff1673ffffffffffffffffffffffffffffffffffffffff16815260200190815260200160002060006101000a81548160ff0219169083151502179055508173ffffffffffffffffffffffffffffffffffffffff168373ffffffffffffffffffffffffffffffffffffffff167f17307eab39ab6107e8899845ad3d59bd9653f200f220920489ca2b5937696c318360405161109191906119a4565b60405180910390a3505050565b600073ffffffffffffffffffffffffffffffffffffffff168473ffffffffffffffffffffffffffffffffffffffff160361110d576040517f08c379a00000000000000000000000000000000000000000000000000000000081526004016111049061268a565b60405180910390fd5b6000611117610a82565b9050611137818787611128886114fe565b611131886114fe565b8761131f565b600080600086815260200190815260200160002060008873ffffffffffffffffffffffffffffffffffffffff1673ffffffffffffffffffffffffffffffffffffffff168152602001908152602001600020549050838110156111ce576040517f08c379a00000000000000000000000000000000000000000000000000000000081526004016111c59061271c565b60405180910390fd5b83810360008087815260200190815260200160002060008973ffffffffffffffffffffffffffffffffffffffff1673ffffffffffffffffffffffffffffffffffffffff168152602001908152602001600020819055508360008087815260200190815260200160002060008873ffffffffffffffffffffffffffffffffffffffff1673ffffffffffffffffffffffffffffffffffffffff1681526020019081526020016000206000828254611283919061273c565b925050819055508573ffffffffffffffffffffffffffffffffffffffff168773ffffffffffffffffffffffffffffffffffffffff168373ffffffffffffffffffffffffffffffffffffffff167fc3d58168c5ae7397731d063d5bbf3d657854427343f4c083240f7aacaa2d0f62888860405161130092919061285b565b60405180910390a4611316828888888888611578565b50505050505050565b505050505050565b6113468473ffffffffffffffffffffffffffffffffffffffff166109f5565b156114f6578373ffffffffffffffffffffffffffffffffffffffff1663bc197c8187878686866040518663ffffffff1660e01b815260040161138c95949392919061296b565b6020604051808303816000875af19250505080156113c857506040513d601f19601f820116820180604052508101906113c591906129e8565b60015b61146d576113d4612a22565b806308c379a00361143057506113e8612a44565b806113f35750611432565b806040517f08c379a00000000000000000000000000000000000000000000000000000000081526004016114279190611a85565b60405180910390fd5b505b6040517f08c379a000000000000000000000000000000000000000000000000000000000815260040161146490612b46565b60405180910390fd5b63bc197c8160e01b7bffffffffffffffffffffffffffffffffffffffffffffffffffffffff1916817bffffffffffffffffffffffffffffffffffffffffffffffffffffffff1916146114f4576040517f08c379a00000000000000000000000000000000000000000000000000000000081526004016114eb90612bd8565b60405180910390fd5b505b505050505050565b60606000600167ffffffffffffffff81111561151d5761151c611aac565b5b60405190808252806020026020018201604052801561154b5781602001602082028036833780820191505090505b5090508281600081518110611563576115626123fb565b5b60200260200101818152505080915050919050565b6115978473ffffffffffffffffffffffffffffffffffffffff166109f5565b15611747578373ffffffffffffffffffffffffffffffffffffffff1663f23a6e6187878686866040518663ffffffff1660e01b81526004016115dd959493929190612bf8565b6020604051808303816000875af192505050801561161957506040513d601f19601f8201168201806040525081019061161691906129e8565b60015b6116be57611625612a22565b806308c379a0036116815750611639612a44565b806116445750611683565b806040517f08c379a00000000000000000000000000000000000000000000000000000000081526004016116789190611a85565b60405180910390fd5b505b6040517f08c379a00000000000000000000000000000000000000000000000000000000081526004016116b590612b46565b60405180910390fd5b63f23a6e6160e01b7bffffffffffffffffffffffffffffffffffffffffffffffffffffffff1916817bffffffffffffffffffffffffffffffffffffffffffffffffffffffff191614611745576040517f08c379a000000000000000000000000000000000000000000000000000000000815260040161173c90612bd8565b60405180910390fd5b505b505050505050565b82805461175b906122a6565b90600052602060002090601f01602090048101928261177d57600085556117c4565b82601f1061179657805160ff19168380011785556117c4565b828001600101855582156117c4579182015b828111156117c35782518255916020019190600101906117a8565b5b5090506117d191906117d5565b5090565b5b808211156117ee5760008160009055506001016117d6565b5090565b6000604051905090565b600080fd5b600080fd5b600073ffffffffffffffffffffffffffffffffffffffff82169050919050565b600061183182611806565b9050919050565b61184181611826565b811461184c57600080fd5b50565b60008135905061185e81611838565b92915050565b6000819050919050565b61187781611864565b811461188257600080fd5b50565b6000813590506118948161186e565b92915050565b600080604083850312156118b1576118b06117fc565b5b60006118bf8582860161184f565b92505060206118d085828601611885565b9150509250929050565b6118e381611864565b82525050565b60006020820190506118fe60008301846118da565b92915050565b60007fffffffff0000000000000000000000000000000000000000000000000000000082169050919050565b61193981611904565b811461194457600080fd5b50565b60008135905061195681611930565b92915050565b600060208284031215611972576119716117fc565b5b600061198084828501611947565b91505092915050565b60008115159050919050565b61199e81611989565b82525050565b60006020820190506119b96000830184611995565b92915050565b6000602082840312156119d5576119d46117fc565b5b60006119e384828501611885565b91505092915050565b600081519050919050565b600082825260208201905092915050565b60005b83811015611a26578082015181840152602081019050611a0b565b83811115611a35576000848401525b50505050565b6000601f19601f8301169050919050565b6000611a57826119ec565b611a6181856119f7565b9350611a71818560208601611a08565b611a7a81611a3b565b840191505092915050565b60006020820190508181036000830152611a9f8184611a4c565b905092915050565b600080fd5b7f4e487b7100000000000000000000000000000000000000000000000000000000600052604160045260246000fd5b611ae482611a3b565b810181811067ffffffffffffffff82111715611b0357611b02611aac565b5b80604052505050565b6000611b166117f2565b9050611b228282611adb565b919050565b600067ffffffffffffffff821115611b4257611b41611aac565b5b602082029050602081019050919050565b600080fd5b6000611b6b611b6684611b27565b611b0c565b90508083825260208201905060208402830185811115611b8e57611b8d611b53565b5b835b81811015611bb75780611ba38882611885565b845260208401935050602081019050611b90565b5050509392505050565b600082601f830112611bd657611bd5611aa7565b5b8135611be6848260208601611b58565b91505092915050565b600080fd5b600067ffffffffffffffff821115611c0f57611c0e611aac565b5b611c1882611a3b565b9050602081019050919050565b82818337600083830152505050565b6000611c47611c4284611bf4565b611b0c565b905082815260208101848484011115611c6357611c62611bef565b5b611c6e848285611c25565b509392505050565b600082601f830112611c8b57611c8a611aa7565b5b8135611c9b848260208601611c34565b91505092915050565b600080600080600060a08688031215611cc057611cbf6117fc565b5b6000611cce8882890161184f565b9550506020611cdf8882890161184f565b945050604086013567ffffffffffffffff811115611d0057611cff611801565b5b611d0c88828901611bc1565b935050606086013567ffffffffffffffff811115611d2d57611d2c611801565b5b611d3988828901611bc1565b925050608086013567ffffffffffffffff811115611d5a57611d59611801565b5b611d6688828901611c76565b9150509295509295909350565b600067ffffffffffffffff821115611d8e57611d8d611aac565b5b602082029050602081019050919050565b6000611db2611dad84611d73565b611b0c565b90508083825260208201905060208402830185811115611dd557611dd4611b53565b5b835b81811015611dfe5780611dea888261184f565b845260208401935050602081019050611dd7565b5050509392505050565b600082601f830112611e1d57611e1c611aa7565b5b8135611e2d848260208601611d9f565b91505092915050565b60008060408385031215611e4d57611e4c6117fc565b5b600083013567ffffffffffffffff811115611e6b57611e6a611801565b5b611e7785828601611e08565b925050602083013567ffffffffffffffff811115611e9857611e97611801565b5b611ea485828601611bc1565b9150509250929050565b600081519050919050565b600082825260208201905092915050565b6000819050602082019050919050565b611ee381611864565b82525050565b6000611ef58383611eda565b60208301905092915050565b6000602082019050919050565b6000611f1982611eae565b611f238185611eb9565b9350611f2e83611eca565b8060005b83811015611f5f578151611f468882611ee9565b9750611f5183611f01565b925050600181019050611f32565b5085935050505092915050565b60006020820190508181036000830152611f868184611f0e565b905092915050565b600067ffffffffffffffff821115611fa957611fa8611aac565b5b611fb282611a3b565b9050602081019050919050565b6000611fd2611fcd84611f8e565b611b0c565b905082815260208101848484011115611fee57611fed611bef565b5b611ff9848285611c25565b509392505050565b600082601f83011261201657612015611aa7565b5b8135612026848260208601611fbf565b91505092915050565b600060208284031215612045576120446117fc565b5b600082013567ffffffffffffffff81111561206357612062611801565b5b61206f84828501612001565b91505092915050565b61208181611989565b811461208c57600080fd5b50565b60008135905061209e81612078565b92915050565b600080604083850312156120bb576120ba6117fc565b5b60006120c98582860161184f565b92505060206120da8582860161208f565b9150509250929050565b600080604083850312156120fb576120fa6117fc565b5b60006121098582860161184f565b925050602061211a8582860161184f565b9150509250929050565b600080600080600060a086880312156121405761213f6117fc565b5b600061214e8882890161184f565b955050602061215f8882890161184f565b945050604061217088828901611885565b935050606061218188828901611885565b925050608086013567ffffffffffffffff8111156121a2576121a1611801565b5b6121ae88828901611c76565b9150509295509295909350565b6121c481611826565b82525050565b60006020820190506121df60008301846121bb565b92915050565b7f455243313135353a2062616c616e636520717565727920666f7220746865207a60008201527f65726f2061646472657373000000000000000000000000000000000000000000602082015250565b6000612241602b836119f7565b915061224c826121e5565b604082019050919050565b6000602082019050818103600083015261227081612234565b9050919050565b7f4e487b7100000000000000000000000000000000000000000000000000000000600052602260045260246000fd5b600060028204905060018216806122be57607f821691505b6020821081036122d1576122d0612277565b5b50919050565b7f455243313135353a207472616e736665722063616c6c6572206973206e6f742060008201527f6f776e6572206e6f7220617070726f7665640000000000000000000000000000602082015250565b60006123336032836119f7565b915061233e826122d7565b604082019050919050565b6000602082019050818103600083015261236281612326565b9050919050565b7f455243313135353a206163636f756e747320616e6420696473206c656e67746860008201527f206d69736d617463680000000000000000000000000000000000000000000000602082015250565b60006123c56029836119f7565b91506123d082612369565b604082019050919050565b600060208201905081810360008301526123f4816123b8565b9050919050565b7f4e487b7100000000000000000000000000000000000000000000000000000000600052603260045260246000fd5b7f4e487b7100000000000000000000000000000000000000000000000000000000600052601160045260246000fd5b600061246482611864565b91507fffffffffffffffffffffffffffffffffffffffffffffffffffffffffffffffff82036124965761249561242a565b5b600182019050919050565b600081905092915050565b60006124b7826119ec565b6124c181856124a1565b93506124d1818560208601611a08565b80840191505092915050565b60006124e982846124ac565b915081905092915050565b7f455243313135353a2063616c6c6572206973206e6f74206f776e6572206e6f7260008201527f20617070726f7665640000000000000000000000000000000000000000000000602082015250565b60006125506029836119f7565b915061255b826124f4565b604082019050919050565b6000602082019050818103600083015261257f81612543565b9050919050565b7f455243313135353a2069647320616e6420616d6f756e7473206c656e6774682060008201527f6d69736d61746368000000000000000000000000000000000000000000000000602082015250565b60006125e26028836119f7565b91506125ed82612586565b604082019050919050565b60006020820190508181036000830152612611816125d5565b9050919050565b7f455243313135353a207472616e7366657220746f20746865207a65726f20616460008201527f6472657373000000000000000000000000000000000000000000000000000000602082015250565b60006126746025836119f7565b915061267f82612618565b604082019050919050565b600060208201905081810360008301526126a381612667565b9050919050565b7f455243313135353a20696e73756666696369656e742062616c616e636520666f60008201527f72207472616e7366657200000000000000000000000000000000000000000000602082015250565b6000612706602a836119f7565b9150612711826126aa565b604082019050919050565b60006020820190508181036000830152612735816126f9565b9050919050565b600061274782611864565b915061275283611864565b9250827fffffffffffffffffffffffffffffffffffffffffffffffffffffffffffffffff038211156127875761278661242a565b5b828201905092915050565b600060408201905081810360008301526127ac8185611f0e565b905081810360208301526127c08184611f0e565b90509392505050565b7f455243313135353a206d696e7420746f20746865207a65726f2061646472657360008201527f7300000000000000000000000000000000000000000000000000000000000000602082015250565b60006128256021836119f7565b9150612830826127c9565b604082019050919050565b6000602082019050818103600083015261285481612818565b9050919050565b600060408201905061287060008301856118da565b61287d60208301846118da565b9392505050565b7f455243313135353a2073657474696e6720617070726f76616c2073746174757360008201527f20666f722073656c660000000000000000000000000000000000000000000000602082015250565b60006128e06029836119f7565b91506128eb82612884565b604082019050919050565b6000602082019050818103600083015261290f816128d3565b9050919050565b600081519050919050565b600082825260208201905092915050565b600061293d82612916565b6129478185612921565b9350612957818560208601611a08565b61296081611a3b565b840191505092915050565b600060a08201905061298060008301886121bb565b61298d60208301876121bb565b818103604083015261299f8186611f0e565b905081810360608301526129b38185611f0e565b905081810360808301526129c78184612932565b90509695505050505050565b6000815190506129e281611930565b92915050565b6000602082840312156129fe576129fd6117fc565b5b6000612a0c848285016129d3565b91505092915050565b60008160e01c9050919050565b600060033d1115612a415760046000803e612a3e600051612a15565b90505b90565b600060443d10612ad157612a566117f2565b60043d036004823e80513d602482011167ffffffffffffffff82111715612a7e575050612ad1565b808201805167ffffffffffffffff811115612a9c5750505050612ad1565b80602083010160043d038501811115612ab9575050505050612ad1565b612ac882602001850186611adb565b82955050505050505b90565b7f455243313135353a207472616e7366657220746f206e6f6e204552433131353560008201527f526563656976657220696d706c656d656e746572000000000000000000000000602082015250565b6000612b306034836119f7565b9150612b3b82612ad4565b604082019050919050565b60006020820190508181036000830152612b5f81612b23565b9050919050565b7f455243313135353a204552433131353552656365697665722072656a6563746560008201527f6420746f6b656e73000000000000000000000000000000000000000000000000602082015250565b6000612bc26028836119f7565b9150612bcd82612b66565b604082019050919050565b60006020820190508181036000830152612bf181612bb5565b9050919050565b600060a082019050612c0d60008301886121bb565b612c1a60208301876121bb565b612c2760408301866118da565b612c3460608301856118da565b8181036080830152612c468184612932565b9050969550505050505056fea26469706673582212200da7760379da66082bb7b0598db62b0dd678bc064d5a51e0d9d3d891b54e150564736f6c634300080d0033",
  "immutableReferences": {},
  "source": "// SPDX-License-Identifier: MIT\npragma solidity ^0.8.0;\nimport \"../ERC1155/ERC1155.sol\";\n\ncontract TFG is ERC1155{\n    address public admin;\n    uint256 public count;\n\n    //ids para los tokens\n    uint256 public constant moneda = 0;\n\n    //estructuras auxiliares\n    string [] public colors;\n    mapping (string => bool) _colorExists;\n\n    modifier onlyAdmin() {\n        require(msg.sender == admin, \"only admin can call this\");\n        _;\n    }\n\n    constructor() public ERC1155(\"\") {\n        admin = msg.sender;\n        count = 1;\n        _mint(msg.sender, moneda, 100, \"\");\n\n    }\n\n    function nuevoColor(string memory _color) public{\n        require(!_colorExists[_color]);\n        colors.push(_color);\n        bytes memory dataColor = bytes(_color);\n        \n        _mint(msg.sender, count++, 1, dataColor);\n        _colorExists[_color] = true;\n    }\n\n    function totalSupply() public view returns (uint256){\n        return count;\n    }\n}",
  "sourcePath": "/Users/ignacio/Desktop/TFG1155/src/contracts/TFG.sol",
  "compiler": {
    "name": "solc",
    "version": "0.8.13+commit.abaa5c0e.Emscripten.clang"
  },
  "schemaVersion": "3.4.2",
  "updatedAt": "2022-03-24T10:53:35.929Z",
  "networkType": "ethereum",
  "devdoc": {
    "kind": "dev",
    "methods": {
      "balanceOf(address,uint256)": {
        "details": "See {IERC1155-balanceOf}. Requirements: - `account` cannot be the zero address."
      },
      "balanceOfBatch(address[],uint256[])": {
        "details": "See {IERC1155-balanceOfBatch}. Requirements: - `accounts` and `ids` must have the same length."
      },
      "isApprovedForAll(address,address)": {
        "details": "See {IERC1155-isApprovedForAll}."
      },
      "safeBatchTransferFrom(address,address,uint256[],uint256[],bytes)": {
        "details": "See {IERC1155-safeBatchTransferFrom}."
      },
      "safeTransferFrom(address,address,uint256,uint256,bytes)": {
        "details": "See {IERC1155-safeTransferFrom}."
      },
      "setApprovalForAll(address,bool)": {
        "details": "See {IERC1155-setApprovalForAll}."
      },
      "supportsInterface(bytes4)": {
        "details": "See {IERC165-supportsInterface}."
      },
      "uri(uint256)": {
        "details": "See {IERC1155MetadataURI-uri}. This implementation returns the same URI for *all* token types. It relies on the token type ID substitution mechanism https://eips.ethereum.org/EIPS/eip-1155#metadata[defined in the EIP]. Clients calling this function must replace the `\\{id\\}` substring with the actual token type ID."
      }
    },
    "version": 1
  },
  "userdoc": {
    "kind": "user",
    "methods": {},
    "version": 1
  }
}